:020000040800F2
:10400000000600202D5300086DB70B0871B70B0890
:10401000DDB70B0871B70B08A9B70B082F530008C1
:104020002F5300082F5300082F530008610A13086C
:104030002F5300082F5300082F5300082F53000858
:104040002F5300082F5300082F5300082F53000848
:104050002F5300082F530008556B1308816B13086A
:10406000AD6B1308D96B1308056C13088512130880
:10407000AD121308D91213080513130831131308CE
:10408000591313088513130839111308FD860B08FB
:104090000D870B0821870B082F530008316C13087C
:1040A0002F5300082F5300082F5300082F530008E8
:1040B0002F5300082F5300082F530008AD1B13087F
:1040C000C11B1308E51B1308F91B13082F53000825
:1040D0002F5300082F530008D52D1308E92D13087E
:1040E000996C13082F5300082F5300082F53000812
:1040F0002F5300082F5300082F530008B113130843
:104100002F530008F11F1308457313082F5300089D
:10411000FD2D13082F5300082F5300082F530008BC
:10412000DD13130805141308311413085D14130864
:10413000891413082F5300082F53000835870B08E4
:1041400045870B0859870B082F5300080967130888
:10415000B1141308DD14130809151308112E1308E0
:104160002F5300082F5300082F5300082F53000827
:104170002F5300082F5300082F5300082F53000817
:104180002F5300082F530008252E1308392E13082B
:104190002F5300082F5300082F5300082F530008F7
:1041A0002F5300082F5300082F5300082F530008E7
:1041B0002F5300082F5300082F5300082F530008D7
:1041C0002F5300082F5300082F5300082F530008C7
:1041D0002F5300082F5300082F5300082F530008B7
:1041E000517C000899B50008C15701089D1E0208BE
:1041F000B9330208B93F0208B5730208157E0208F8
:10420000C1CE020809F40208A95A0308754404083B
:104210000D170608911A06084D3F06087542060854
:10422000495006089178060861D70608F5DE0608A9
:1042300045E2060869520708C1710708D5B20808A7
:1042400081030908810F090871EA0A086D870B08C4
:10425000B1890B08F98D0B08C1B10B08555A0D082F
:1042600041750D08457B0D08E5890D08819F0D08F6
:10427000B19F0D0875C60D0869080E08493A0E0869
:1042800061570E08255F0E089D970E0841390F08EB
:104290002DB81008F9C01008DD001108353E1108CE
:1042A00071E71108A1F11108D12012086126120846
:1042B000FD61120800000000000000000000000086
:1042C00081F0004102E000BF83F0004330B54FEAC7
:1042D00041044FEA430594EA050F08BF90EA020F34
:1042E0001FBF54EA000C55EA020C7FEA645C7FEAC7
:1042F000655C00F0E2804FEA5454D4EB5555B8BFEA
:104300006D420CDD2C4480EA020281EA030382EA5A
:10431000000083EA010180EA020281EA0303362DEC
:1043200088BF30BD11F0004F4FEA01314FF4801CBF
:104330004CEA113102D0404261EB410113F0004FD1
:104340004FEA03334CEA133302D0524263EB430388
:1043500094EA050F00F0A780A4F10104D5F1200E26
:104360000DDB02FA0EFC22FA05F2801841F1000181
:1043700003FA0EF2801843FA05F359410EE0A5F155
:1043800020050EF1200E012A03FA0EFC28BF4CF086
:10439000020C43FA05F3C01851EBE37101F000453C
:1043A00007D54FF0000EDCF1000C7EEB00006EEB49
:1043B0000101B1F5801F1BD3B1F5001F0CD34908D3
:1043C0005FEA30004FEA3C0C04F101044FEA44522A
:1043D00012F5800F80F09A80BCF1004F08BF5FEAB1
:1043E000500C50F1000041EB045141EA050130BD91
:1043F0005FEA4C0C404141EB0101013C28BFB1F5A3
:10440000801FE9D291F0000F04BF01460020B1FAED
:1044100081F308BF2033A3F10B03B3F120020CDAC0
:104420000C3208DD02F1140CC2F10C0201FA0CF09E
:1044300021FA02F10CE002F11402D8BFC2F1200C03
:1044400001FA02F120FA0CFCDCBF41EA0C019040B9
:10445000E41AA2BF01EB0451294330BD6FEA040402
:104460001F3C1CDA0C340EDC04F11404C4F12002ED
:1044700020FA04F001FA02F340EA030021FA04F3FF
:1044800045EA030130BDC4F10C04C4F1200220FA56
:1044900002F001FA04F340EA0300294630BD21FA94
:1044A00004F0294630BD94F0000F83F4801306BF5A
:1044B00081F480110134013D4EE77FEA645C18BF4E
:1044C0007FEA655C29D094EA050F08BF90EA020FE5
:1044D00005D054EA000C04BF1946104630BD91EADD
:1044E000030F1EBF0021002030BD5FEA545C05D1E0
:1044F0004000494128BF41F0004130BD14F580041F
:104500003CBF01F5801130BD01F0004545F0FE4192
:1045100041F470014FF0000030BD7FEA645C1ABFC7
:10452000194610467FEA655C1CBF0B46024650EAFE
:10453000013406BF52EA033591EA030F41F400212A
:1045400030BD00BF90F0000F04BF0021704730B5B0
:104550004FF4806404F132044FF000054FF0000185
:1045600050E700BF90F0000F04BF0021704730B546
:104570004FF4806404F1320410F0004548BF40421B
:104580004FF000013EE700BF42004FEAE2014FEA70
:1045900031014FEA02701FBF12F07F4393F07F4F4B
:1045A00081F06051704732F07F4208BF704793F04E
:1045B0007F4F04BF41F40021704730B54FF4607461
:1045C00001F0004521F000411CE700BF50EA010264
:1045D00008BF704730B54FF000050AE050EA01020D
:1045E00008BF704730B511F0004502D5404261EB7D
:1045F00041014FF4806404F132045FEA915C3FF4BE
:10460000D8AE4FF003025FEADC0C18BF03325FEA5A
:10461000DC0C18BF033202EBDC02C2F1200300FA0B
:1046200003FC20FA02F001FA03FE40EA0E0021FA30
:1046300002F11444BDE600BF70B54FF0FF0C4CF41E
:10464000E06C1CEA11541DBF1CEA135594EA0C0FD0
:1046500095EA0C0F00F0DEF82C4481EA030621EA0B
:104660004C5123EA4C5350EA013518BF52EA033546
:1046700041F4801143F4801338D0A0FB02CE4FF0F8
:104680000005E1FB02E506F00042E0FB03E54FF028
:104690000006E1FB03569CF0000F18BF4EF0010E20
:1046A000A4F1FF04B6F5007F64F5407404D25FEA1C
:1046B0004E0E6D4146EB060642EAC62141EA5551CF
:1046C0004FEAC52040EA5E504FEACE2EB4F1FD0C11
:1046D00088BFBCF5E06F1ED8BEF1004F08BF5FEA8F
:1046E000500E50F1000041EB045170BD06F0004641
:1046F00046EA010140EA020081EA0301B4EB5C04EE
:10470000C2BFD4EB0C0541EA045170BD41F48011E5
:104710004FF0000E013C00F3AB8014F1360FDEBF0A
:10472000002001F0004170BDC4F10004203C35DAE6
:104730000C341BDC04F11404C4F1200500FA05F369
:1047400020FA04F001FA05F240EA020001F000420A
:1047500021F0004110EBD37021FA04F642EB060180
:104760005EEA430E08BF20EAD37070BDC4F10C04AA
:10477000C4F1200500FA04F320FA05F001FA04F26E
:1047800040EA020001F0004110EBD37041F100015A
:104790005EEA430E08BF20EAD37070BDC4F1200565
:1047A00000FA05F24EEA020E20FA04F301FA05F2CD
:1047B00043EA020321FA04F001F0004121FA04F275
:1047C00020EA020000EBD3705EEA430E08BF20EA45
:1047D000D37070BD94F0000F0FD101F0004640007F
:1047E00041EB010111F4801F08BF013CF7D041EA01
:1047F000060195F0000F18BF704703F00046520005
:1048000043EB030313F4801F08BF013DF7D043EAD5
:104810000603704794EA0C0F0CEA135518BF95EA8B
:104820000C0F0CD050EA410618BF52EA4306D1D112
:1048300081EA030101F000414FF0000070BD50EA31
:10484000410606BF1046194652EA430619D094EABB
:104850000C0F02D150EA013613D195EA0C0F05D1A5
:1048600052EA03361CBF104619460AD181EA0301F9
:1048700001F0004141F0FE4141F470014FF00000B1
:1048800070BD41F0FE4141F4780170BD70B54FF04C
:10489000FF0C4CF4E06C1CEA11541DBF1CEA1355CC
:1048A00094EA0C0F95EA0C0F00F0A7F8A4EB0504AE
:1048B00081EA030E52EA03354FEA013100F08880A5
:1048C0004FEA03334FF0805545EA131343EA12636E
:1048D0004FEA022245EA111545EA10654FEA002623
:1048E0000EF000419D4208BF964244F1FD0404F5DC
:1048F000407402D25B084FEA3202B61A65EB030538
:104900005B084FEA32024FF480104FF4002CB6EBF4
:10491000020E75EB030E22BFB61A754640EA0C0074
:104920005B084FEA3202B6EB020E75EB030E22BFB4
:10493000B61A754640EA5C005B084FEA3202B6EBF5
:10494000020E75EB030E22BFB61A754640EA9C00B4
:104950005B084FEA3202B6EB020E75EB030E22BF84
:10496000B61A754640EADC0055EA060E18D04FEA42
:10497000051545EA16754FEA06164FEAC30343EAE2
:1049800052734FEAC2025FEA1C1CC0D111F4801FAF
:104990000BD141EA00014FF000004FF0004CB6E7A8
:1049A00011F4801F04BF01430020B4F1FD0C88BF47
:1049B000BCF5E06F3FF6AFAEB5EB030C04BFB6EB52
:1049C000020C5FEA500C50F1000041EB045170BD45
:1049D0000EF0004E4EEA113114EB5C04C2BFD4EB72
:1049E0000C0541EA045170BD41F480114FF0000EF6
:1049F000013C90E645EA060E8DE60CEA135594EA72
:104A00000C0F08BF95EA0C0F3FF43BAF94EA0C0F74
:104A10000AD150EA01347FF434AF95EA0C0F7FF4E9
:104A200025AF104619462CE795EA0C0F06D152EA3D
:104A300003353FF4FDAE1046194622E750EA410621
:104A400018BF52EA43067FF4C5AE50EA41047FF432
:104A50000DAF52EA43057FF4EBAE12E74FF0FF3C97
:104A600006E000BF4FF0010C02E000BF4FF0010C68
:104A70004DF804CD4FEA410C7FEA6C5C4FEA430CE1
:104A800018BF7FEA6C5C1BD001B050EA410C0CBF30
:104A900052EA430C91EA030F02BF90EA020F002092
:104AA000704710F1000F91EA030F58BF994208BFF9
:104AB00090422CBFD8176FEAE37040F001007047B6
:104AC0004FEA410C7FEA6C5C02D150EA013C07D10D
:104AD0004FEA430C7FEA6C5CD6D152EA033CD3D058
:104AE0005DF8040B704700BF8446104662468C4652
:104AF0001946634600E000BF01B5FFF7B7FF002885
:104B000048BF10F1000F01BD4DF808EDFFF7F4FFAD
:104B10000CBF012000205DF808FB00BF4DF808ED38
:104B2000FFF7EAFF34BF012000205DF808FB00BF5B
:104B30004DF808EDFFF7E0FF94BF012000205DF87D
:104B400008FB00BF4DF808EDFFF7CEFF94BF012032
:104B500000205DF808FB00BF4DF808EDFFF7C4FF2B
:104B600034BF012000205DF808FB00BF4FEA410C74
:104B70007FEA6C5C02D150EA013C0AD14FEA430C57
:104B80007FEA6C5C02D152EA033C02D14FF0000094
:104B900070474FF0010070474FEA410212F50012D2
:104BA00015D211D56FF47873B3EB625212D94FEA74
:104BB000C12343F0004343EA505311F0004F23FA5E
:104BC00002F018BF404270474FF00000704750EAB3
:104BD000013005D111F0004008BF6FF00040704770
:104BE0004FF00000704700BF4A0011D212F50012CA
:104BF00011D20DD56FF47873B3EB62520ED44FEA35
:104C0000C12343F0004343EA505323FA02F07047B4
:104C10004FF00000704750EA013002D14FF0FF30F2
:104C200070474FF0000070474FEA4102B2F1E04395
:104C300024BFB3F5001CDCF1FE5C0DD901F0004C83
:104C40004FEAC0024CEA5070B2F1004F40EB8300D3
:104C500008BF20F00100704711F0804F21D113F1FF
:104C60003872BCBF01F00040704741F480114FEA38
:104C70005252C2F11802C2F1200C10FA0CF320FAC1
:104C800002F018BF40F001004FEAC1234FEAD323DE
:104C900003FA0CFC40EA0C0023FA02F34FEA430348
:104CA000CCE77FEA625307D150EA01331EBF4FF0D1
:104CB000FE4040F44000704701F0004040F0FE40EC
:104CC00040F40000704700BF80F0004002E000BFE9
:104CD00081F0004142001FBF5FEA410392EA030FE7
:104CE0007FEA226C7FEA236C6AD04FEA1262D2EB31
:104CF0001363C1BFD218414048404140B8BF5B4236
:104D0000192B88BF704710F0004F40F4000020F0CE
:104D10007F4018BF404211F0004F41F4000121F0E4
:104D20007F4118BF494292EA030F3FD0A2F101022E
:104D300041FA03FC10EB0C00C3F1200301FA03F16C
:104D400000F0004302D5494260EB4000B0F5000F8F
:104D500013D3B0F1807F06D340084FEA310102F14E
:104D60000102FE2A51D2B1F1004F40EBC25008BF00
:104D700020F0010040EA03007047490040EB0000CA
:104D8000013A28BFB0F5000FEDD2B0FA80FCACF1CB
:104D9000080CB2EB0C0200FA0CF0AABF00EBC250F8
:104DA00052421843BCBFD0401843704792F0000FE6
:104DB00081F4000106BF80F400000132013BB5E739
:104DC0004FEA41037FEA226C18BF7FEA236C21D0AF
:104DD00092EA030F04D092F0000F08BF0846704714
:104DE00090EA010F1CBF0020704712F07F4F04D1E2
:104DF000400028BF40F00040704712F100723CBFF5
:104E000000F50000704700F0004343F0FE4040F41E
:104E1000000070477FEA226216BF08467FEA2363DC
:104E20000146420206BF5FEA412390EA010F40F4C7
:104E3000800070474FF0000304E000BF10F0004313
:104E400048BF40425FEA000C08BF704743F09643FA
:104E500001464FF000001CE050EA010208BF704715
:104E60004FF000030AE000BF50EA010208BF70479C
:104E700011F0004302D5404261EB41015FEA010CB1
:104E800002BF84460146002043F0B64308BFA3F1A9
:104E90008053A3F50003BCFA8CF2083AA3EBC2538B
:104EA00010DB01FA02FC634400FA02FCC2F12002AA
:104EB000BCF1004F20FA02F243EB020008BF20F0E1
:104EC0000100704702F1200201FA02FCC2F1200247
:104ED00050EA4C0021FA02F243EB020008BF20EA3C
:104EE000DC7070477BB972B90029BEBF00204FF05B
:104EF000004106E008BF00281CBF6FF000414FF0E2
:104F0000FF3000F011BAADF1080C6DE904CE0029B4
:104F100009DB002B1ADB00F0A5F8DDF804E0DDE981
:104F2000022304B07047404261EB4101002B1BDBC0
:104F300000F098F8DDF804E0DDE9022304B0404217
:104F400061EB4101524263EB43037047524263EB12
:104F5000430300F087F8DDF804E0DDE9022304B044
:104F6000404261EB41017047524263EB430300F062
:104F700079F8DDF804E0DDE9022304B0524263EB86
:104F80004303704753B94AB9002908BF00281CBF22
:104F90004FF0FF314FF0FF3000F0C6B9ADF1080C13
:104FA0006DE904CE00F05EF8DDF804E0DDE90223EF
:104FB00004B07047430803F05533C01A830803F068
:104FC000333300F03330184400EB101000F00F3092
:104FD00000EB002000EB0040000E704780EA10401C
:104FE00080EA102080EA101046F6961300F00F00B9
:104FF00043FA00F000F00100704700BF07EE900A8E
:10500000F5EEC07AF1EE10FA01D400F00BB8F1EE33
:10501000677A08B517EE900A00F004F8404261EB99
:10502000410108BDD0B5FFF7AFFA0C4B0022064690
:105030000F46FFF701FBFFF7D7FD0446FFF782FAA3
:10504000074B0022FFF7F8FA02460B463046394676
:10505000FFF73AF9FFF7C8FD2146D0BD0000F03D4B
:105060000000F0412DE9F047089D04468C46002BD6
:1050700040F083808A42174647D9B2FA82F242B1A1
:10508000C2F1200024FA00F09140974040EA010C60
:1050900094404FEA1748230CBCFBF8F61FFA87FE32
:1050A00008FB16C143EA014306FB0EF1994209D9F8
:1050B000FB1806F1FF3080F01981994240F2168109
:1050C000023E3B445B1AA4B2B3FBF8F008FB10337A
:1050D00044EA034400FB0EFEA64509D93C1900F141
:1050E000FF3380F00581A64540F2028102383C443E
:1050F00040EA0640A4EB0E0400261DB1D440002374
:10510000C5E900433146BDE8F08702B9FFDEB2FAD7
:1051100082F2002A50D1CB1B4FEA174E1FFA87F8B4
:105120000126B3FBFEFC210C0EFB1C3341EA0341BC
:1051300008FB0CF38B4207D979180CF1FF3002D22F
:105140008B4200F2E9808446C91AA3B2B1FBFEF09B
:105150000EFB101143EA014408FB00F8A04507D9F3
:105160003C1900F1FF3302D2A04500F2D980184665
:10517000A4EB080440EA0C40BFE78B4209D9002D9C
:1051800000F0B1800026C5E9000130463146BDE897
:10519000F087B3FA83F6002E4AD18B4202D38242C3
:1051A00000F2B880841A61EB030101208C46002DC7
:1051B000A8D0C5E9004CA5E7C2F1200320FA03F608
:1051C000974001FA02F04FEA174ED9403043030CE2
:1051D000B1FBFEF61FFA87F80EFB161143EA0143F6
:1051E00006FB08F1994204FA02F409D9FB1806F10A
:1051F000FF3C80F08D80994240F28A80023E3B4421
:105200005B1A81B2B3FBFEF00EFB103341EA03419F
:1052100000FB08F38B4207D9791800F1FF3C73D2E9
:105220008B4271D902383944CB1A40EA064678E7F6
:10523000C6F1200C03FA06F422FA0CF31C4320FA00
:105240000CF701FA06F34FEA144E21FA0CF11F4352
:105250003B0CB1FBFEF91FFA84F80EFB191143EA6F
:10526000014109FB08FA8A4502FA06F200FA06F340
:1052700008D9611809F1FF3048D28A4546D9A9F109
:1052800002092144A1EB0A01BFB2B1FBFEF00EFB03
:10529000101147EA014700FB08F8B84507D9E7199C
:1052A00000F1FF312ED2B8452CD90238274440EA0C
:1052B0000940A7EB0807A0FB02894F45C6464946AF
:1052C0001AD317D05DB1B3EB0E0267EB010707FAF3
:1052D0000CFCF2404CEA0202F740C5E90027002628
:1052E0003146BDE8F0872E4628460BE70646E9E63C
:1052F0001846FDE64345E5D2B8EB020E69EB040122
:105300000138DFE70846D2E760468DE78146B9E716
:10531000664675E730464AE7ACF1020C394413E7BC
:1053200002383C4424E700BF704700BF02E000F0B1
:1053300000F8FEE772B63A4880F30888394880F3EF
:10534000098839484EF60851CEF20001086040F253
:105350000000CCF200004EF63471CEF2000108607D
:10536000BFF34F8FBFF36F8F40F20000C0F2F00029
:105370004EF68851CEF200010860BFF34F8FBFF3A5
:105380006F8F4FF00000E1EE100A4EF63C71CEF246
:1053900000010860062080F31488BFF36F8F30F19E
:1053A00091FE30F171FE2FF1F7FF4FF055301F499C
:1053B0001B4A91423CBF41F8040BFAE71C49194AC9
:1053C00091423CBF41F8040BFAE71A491A4A1B4BB9
:1053D0009A423EBF51F8040B42F8040BF8E7002054
:1053E0001749184A91423CBF41F8040BFAE730F1E3
:1053F0004FFE30F12DF8144C144DAC4203DA54F842
:10540000041B8847F9E702F087FB114C114DAC42B1
:1054100003DA54F8041B8847F9E730F137BE00007F
:1054200000060020002200200040000800000020AC
:10543000000600206063170800220020302B0020A7
:10544000302B0020DC690120E0410008B442000854
:10545000B4420008B44200082DE9F04F2DED108A47
:10546000C1F80CD0C3689D46BDEC108ABDE8F08F32
:10547000002383F311882846A04700202FF180FDE8
:10548000FEE72FF129FC00DFFEE7000001F0FF013D
:10549000102A2BDB10F0070F08D010F8013B013A5F
:1054A0008B422DD010F0070F42B3F6D1F0B441EA91
:1054B000012141EA014122F007047FF000070023A7
:1054C000F0E80256083C85EA010586EA010685FAFD
:1054D00047F5A3FA87F586FA47F6A5FA87F68EB957
:1054E000EED1F0BC01F0FF0102F0070232B110F87A
:1054F000013B013A83EA010313B1F8D10020704760
:1055000001387047002D06BF35460338073815F0BF
:10551000010F07D1013015F4807F02BF013015F46F
:10552000C03F0130F0BC0138704700BFEC46A0E836
:10553000F05F4FF000007047B0E8F05FE54608000C
:1055400008BF0120704700BF10F8012B11F8013B84
:10555000012A28BF9A42F7D0D01A7047034613F8A1
:10556000012B002AFBD1181A0138704738B50022E8
:10557000002304460D46FFF7D1FA28B920462946F4
:10558000BDE8384000F00AB8204605F1004100F0BF
:1055900005F8404261EB410138BD00BFD0B50C4B6E
:1055A000002206460F46FFF747F8FFF71DFB0446AB
:1055B000FEF7C8FF074B0022FFF73EF802460B46F6
:1055C00030463946FEF780FEFFF70EFB2146D0BD80
:1055D0000000F03D0000F041074A13780133DBB2D0
:1055E0001D2B98BF137003684FF0000188BF117026
:1055F0009B6888BF0121184700220020F0B583680E
:10560000012B91B004460E4602D0980640F1C780A7
:10561000644D42F65643EB56B3B143F6141242F6CC
:105620005843AA58EB5EB2F90A1003F10A029142FC
:1056300003DD40F28D32934206DC5B4B3246202183
:105640002046A7F0A5FE60E042F64543EB56022B4C
:1056500005D1564B324620212046A7F099FE42F64E
:10566000184341F65832EB5AA3F57A739BB2934232
:105670000ED844F6E813EA584D4BD2ED097A93ED73
:10568000007AB4EEE77AF1EE10FA03DD494BD5E784
:10569000494BD3E793ED017AD2ED0A7AB4EEE77A7B
:1056A000F1EE10FAF2DC42F65242AA5E002A01DC68
:1056B000424BC3E793F8C0210D2A04D84FF421537D
:1056C000D340D90707D443F67053E858A2F0FCFD45
:1056D00018B93B4BB2E73B4BB0E73B4811F0FEFB40
:1056E00001283CD144F6F013E8589FF05BFF0128F5
:1056F0000DD0022822D0002831D1344B0093344BF6
:10570000324620212046A7F043FE002045E043F624
:10571000CC13EB5CDA070FD52E4819215EF024FF7D
:1057200050B142F630432B48EF5819215EF02CFF60
:10573000874214DD284BE1E7284BDFE744F61043AE
:10574000EB560BB9264BD9E7264803AA0DF10A01FF
:1057500060F028FDBDF80A300BB1234BCEE743F6CD
:105760006953EB5CDB0601D5204B67E744F6EC1090
:1057700003AF1F49285832233A469DF0CBFD10B99C
:105780001C4B0097BCE744F6E8101B49285832230D
:105790003A469BF033FE0028F2D011B0F0BD012054
:1057A000FBE700BF382B0020D0E01308E3E013082C
:1057B000B85700201BE113080BE1130835E113086B
:1057C0006AE113084AE113084C880020A5E1130898
:1057D00080E11308C83F0020C4E11308B5E11308B5
:1057E000DAE1130848770020EBE1130804E213081C
:1057F00019E213081DE213082FE213082DE9F743FD
:1058000043F67053324FFB5893F86F4005460E46EF
:1058100034B9304AA7F0A2FF204603B0BDE8F083B8
:105820002021A7F0A5FD0028F6D021F0B7FD21F03A
:10583000B5FD90F8408021F0B1FD90F84130032B88
:1058400013D0B8F1030FE7D1002043F6705957F891
:105850000930B3F9A220B2F57A7F08D01E4A31464A
:105860002846A7F07BFF0024D6E70120EDE7B3F937
:10587000A430B3F5FA6F01D0184AF0E789F0B6FD0D
:10588000804657F809000368DB6A98470022B8F899
:10589000E0C0114613464FF0010E0EFA02F73842EF
:1058A00002F101025FFA82F807D01CEA070F04D167
:1058B0000133DBB2002908BF4146102AEDD1002B8D
:1058C000AAD00091064A31462846A7F047FFCAE70A
:1058D000382B002034E2130852E2130875E2130853
:1058E00098E2130813B58368012B0A4601D05B06C2
:1058F00017D50D4B42F65641595691B143F6141146
:105900005C5842F65841595EB4F90630994208DDB8
:10591000064B00934021064BA7F03AFD002002B051
:1059200010BD0120FBE700BF382B0020B8E21308B0
:10593000BFD2150870B58EB005460E460A48322211
:1059400001A986F02DFE044640B99DF9043043B903
:10595000064B074A31462846A7F000FF20460EB006
:1059600070BD01ABF5E700BFA8620020D0E21308CC
:10597000BFD215082DE9F04343F65053DFF850919C
:10598000044659F80300036899B01B690D4698470F
:10599000804619F023FD002107462E220CA80B910A
:1059A00034F19AFB32230BAA4146384618F006F828
:1059B000064648B93E4A0BAB29462046A7F0CEFE24
:1059C000304619B0BDE8F0833A4885F043FFB8F19E
:1059D000000F0AD0484616F03DFE78B9364A2946EF
:1059E0002046A7F0BBFE0026EAE710F0060FE7D03E
:1059F000484616F02FFE08B9304AF0E703A93846AA
:105A000017F070FD28B19DF80D305B0601D52C4ACA
:105A1000E5E7DFF8CC80D8ED007AF5EEC07AF1EE5C
:105A200010FA4FF000032CDD089309930A930DF14F
:105A3000200907AB019305AA06AB04A9CDF8009095
:105A4000384619F079FA48463CF010FAD8ED007A59
:105A5000B4EEE70AF1EE10FA01DB1A4ABFE79DED5A
:105A6000057AF4EEC77AF1EE10FA01D8164AB6E7D5
:105A70009DED047AF4EEC77AF1EE10FA01D8134ADC
:105A8000ADE707F26C41124806F000FA074608B18C
:105A9000104AA4E710490E4806F0F8F900288FD004
:105AA0000E4A29462046A7F059FE3E4688E700BF29
:105AB000E8E21308E8750020F1E2130808E3130890
:105AC0002EE313083CE3130851E3130867E31308BC
:105AD000382B00207DE31308F07400209AE31308AC
:105AE000AC57002008B5064A43F66953D35C9B07C0
:105AF00004D5044AA7F032FE002008BD0120FCE7CF
:105B0000382B0020BCE3130870B5836813F0210F15
:105B10008EB005460E4603D1012420460EB070BD5E
:105B2000A9F040F904460028F6D000212E2202A850
:105B3000019134F1D1FA2046322201A9A9F0FAF8F4
:105B400004460028E8D1034A01AB31462846A7F0B5
:105B500005FEE2E7BFD2150870B543F650530B4C73
:105B60000546E05803685B690E46984710B101246A
:105B7000204670BD204616F07FFD04460028F6D171
:105B8000034A31462846A7F0E9FDF1E7382B00200B
:105B9000CCE3130870B505460E46FFF7EBFE064B47
:105BA0000446D87131462846FFF7D6FF002814BFB7
:105BB0002046002070BD00BFF99100202DE9704AF9
:105BC0002F4E0D4643F670518346715891F86D4043
:105BD00084B970F063FD202170F076FB68B170F03D
:105BE0005DFD1F2170F070FB38B1264A29465846EA
:105BF000A7F0B4FD2046BDE8708A43F64A52B25C75
:105C000002F01402142A04D11F4A29465846A7F06C
:105C1000A5FDDBF808203AB9DBF8002029465846F4
:105C2000D26ABDE8704A104729465846FFF7E6FC9D
:105C3000294681465846FFF7E1FD09EA0000C4B253
:105C400029465846FFF74EFE294604405846FFF7BE
:105C500071FE294604405846FFF744FF2946044098
:105C60005846FFF751FF294604405846FFF774FF96
:105C7000294604405846A8F08DFD0440BAE700BF0D
:105C8000382B0020E0E31308FAE3130810B5FFF700
:105C900095FF054943F648528C5C60F304148C541C
:105CA000024A907110BD00BF382B0020F9910020EE
:105CB00007B50448A1F0C4F800F0010003B05DF896
:105CC00004FB00BF00750020F7B505460E46A7F09F
:105CD000D1FB044660B3AB68012B01D0990727D5EF
:105CE0001548A1F0ADF8C205C0F30723C0F30027A3
:105CF0001ED49B071CD51048A1F052F80F4A44F659
:105D00008C13D318D3ED007AF8EEE77A30EE670AF9
:105D1000DFED0B7AB0EEC00AB4EEE70AF1EE10FA4E
:105D200006DD084B324602212846A7F031FB3C46EF
:105D3000204603B0F0BD00BF00750020382B0020C6
:105D40000000C84214E41308F8B504460F46A7F053
:105D5000E3FEA368012B054601D0DB060BD52046E8
:105D6000FFF7A6FF064630B9044B3A4610212046FD
:105D7000A7F00EFB35462846F8BD00BF28E41308FF
:105D800013B504460191A7F08FFB80B1A368019A77
:105D9000012B01D01B060AD5064944F27D23CB5CBA
:105DA0002BB12046044B8021A7F0F2FA002002B06C
:105DB00010BD00BF382B00203CE41308F0B543F6BB
:105DC0000C13124C85B0E358009343F610136A4647
:105DD000E358019343F614130646E358029343F63F
:105DE00018130F46E3580393A8F026FC39460546DE
:105DF0003046A7F0F5FA43F648522840A35C60F31A
:105E0000C303C3F3C000A35405B0F0BD382B00207A
:105E10002DE9F84306462248224D234F884685F057
:105E200019FD43F650538146E85803681B699847AB
:105E3000044638B919F0060F04D105F576531B68EE
:105E4000022B09D141463046A7F0B0FB044618B9F1
:105E50000023FB71184608E041463046FFF78AFDF3
:105E60000028F5D01CB90122FA71BDE8F883B268A8
:105E7000012A01D01307F6D595F868259C2101FB6E
:105E80000252B2F8B21342F64642AA5E9142EADDED
:105E9000064B424608213046A7F07AFAD8E700BF01
:105EA000E8750020382B0020F991002050E41308F9
:105EB00070B588B005460E46A7F070FC0446002871
:105EC00035D0AB68012B01D09A0630D51C4B44F677
:105ED00084329A5C5AB344F664329B5C9B0726D5A5
:105EE000184807AA06A980F0D3F900B3DDED077AB8
:105EF0009FED157AF4EEC77AF1EE10FA17D80EA3DB
:105F0000D3E9002317EE900ACDE90423FEF73CFB0A
:105F1000DDED067A0D4BFDEEE77ACDE90201CDED20
:105F2000007A324620212846A7F032FA0024204683
:105F300008B070BDAFF30080000000403333E33F92
:105F4000382B00203C5900209A99193F60E413082F
:105F50002DE9F7430F46054619F040FA804617F041
:105F6000E7FC044640B9774A01212846A7F0F6FB32
:105F7000204603B0BDE8F083404619F0FDF978B93A
:105F800025F0BCFA90F85513044624F08FFDC3B2F7
:105F90007C2000FB034090F851400CB96A4AE3E7CB
:105FA000DFF8C89143F65053394659F803000368A7
:105FB0009B6998474E46044608B9644AD4E70121D4
:105FC0002846FFF71BFC04460028D1D043F64A536D
:105FD00019F8033003F01403142B05D15C4A012196
:105FE0002846A7F0BBFB30E070F058FB1F2170F093
:105FF0006BF9584B58BB1870AB68002BB8D0012B0D
:1060000001D0D80628D5D8EDF77A98EDF60A20EE1B
:10601000270A31F12BFDDFED507A42F6184320EECE
:10602000270AF35EDFED4D7A20EE270A07EE903A5D
:10603000F8EEE77AB4EEE70AF1EE10FA0CDD484B21
:10604000012210212846A7F0A3F9002490E71B782D
:10605000002BD1D0434AC2E7AB68012B01D099068F
:106060000AD543F66952B25CD20603D53E4B0122F3
:106070002021E7E7012B01D05B063BD542F65643D2
:10608000F3564BB143F6141342F65842F358B25E3E
:10609000B3F906309A4216DC012F1DD043F61413D3
:1060A0003248F358B3F9083000EE103AB8EEC00A9F
:1060B00000F092FAB5EEC00AF1EE10FA25DD2C4B95
:1060C00000932C4B02E02A4B00932B4B01224021E2
:1060D0002846A7F05DF9B8E743F6505430590368F5
:1060E0001B689847042805D0305903681B689847F7
:1060F0001428D3D1214B1B68186D0368DB699847BE
:106100000128014617D11E4A6AE743F65054305918
:1061100003685B69984738B143F61413F358B3F931
:106120000830002BE6DDCAE7305903681B68984742
:106130000B28DFD1F0E73946284603B0BDE8F0432D
:10614000A7F02CBF8CE413089DE41308B1E41308F6
:10615000FAE31308E09B0020E02E65420000C842ED
:10616000DAE41308C2E4130804E21308382B002011
:10617000F4E41308FDE41308E2E41308F08C0020B3
:1061800009E513082DE9F041524E33783746002BCC
:1061900040F09E80504C43F670554FF00108655911
:1061A00086F8008095F86D501DB133702846BDE823
:1061B000F081A8F09BFB054630B9484A307013784F
:1061C00043F001031370F1E763F01CFD414662F0F8
:1061D00041FF204607F078FD414B0B2683F80480F1
:1061E00059F068FB013E59F09FFA16F0FF06F7D10F
:1061F000394801F03DF819F0F1F843F69852D0F81B
:106200006C13A15090F87C34DA0750D418F052FC8B
:1062100063F0F8FC3C2163F04BFC324B00221A6027
:1062200000212D4801F0B2F82B4816F013FA014670
:106230002D48A5F08FFD2D4B1B680121186D32F004
:1062400027F844F6C0332448E25C6FF34102E2547D
:1062500015F0E0F843F670530121E058A2F0C6FFB4
:1062600063F0D0FC43F650530646E05803681B68C1
:10627000984742F604430146E25C304663F0B0F8CA
:10628000154807F013FD5FF04FFB5EF0D3FF0023CE
:106290003B70B5F0F1FA44F6FC1343F64A52E05075
:1062A000A35A23F4087343F02003A3527EE79B070D
:1062B000B6D43146084805F08FFE0D48A0F070FDB9
:1062C000DFED0C7A074B20EE270A83ED000AA7E7E3
:1062D00000256BE7302B0020382B0020189200207F
:1062E000F991002094680020F0600020F08C0020DC
:1062F000007500200AD7233C2DE9F04343F6705384
:10630000374DEB5893F86D3087B0002B65D05AB1FC
:10631000012909D143F64853EB56002B04DB002436
:10632000204607B0BDE8F083A8F066FB04460028CD
:10633000F5D019F053F8074625F0E0F880463846C6
:1063400017F000FAD8B198F92430022B17D10026A3
:106350004FF00009F1B203AA38460191CDF80C9034
:10636000CDF81090CDF8149018F084F9019918B177
:1063700003AA404624F0FAFC0136032EEAD143F684
:106380005052184BA858984223D10BF0C5FD144821
:10639000012107F091FE1248012107F0D3FD43F6D9
:1063A00070530021E858A2F021FF0F483DF012FE83
:1063B00063F028FC002162F04DFE0C4B1B680021AD
:1063C000186D31F065FF0A4B9A786FF345129A7099
:1063D000A6E718460BF0A4FDD9E70124A0E700BF0B
:1063E000382B00200884002094820020F08C0020AC
:1063F00080680020014885F0F5BA00BFE8750020EC
:1064000010B543F64852835CC3F340148C420AD063
:1064100061F34513835431B163F0F4FBBDE81040E0
:106420000F2163F045BB10BD70B500F576560546EB
:1064300033688B420C4611D0012910D0022915D0A7
:1064400059B963F0DFFB1B2163F032FB0C4A05F501
:106450006C500621303066F075F8346070BD63F022
:10646000D1FB1A2163F024FB064AF0E7012100F07A
:106470008DFF63F0C7FB1D2163F01AFB024AE6E7BC
:106480005CE5130871E513086CE5130838B50C4694
:1064900043F66951435C03F00105A54208D064F35B
:1064A00000034354DB0704D407F0A4F8024B9C72AA
:1064B00038BD07F01BFAF9E7F991002043F669535C
:1064C000C25C61F34102C254014B1973704700BFB3
:1064D000F991002010B5044670F0E0F820216FF02B
:1064E000F3FE031E04F5755018BF0123827A63F38F
:1064F0008202827210BD000008B543F67053C05886
:106500000368DB689847F6EE007A20EE270AB5EEBE
:10651000C00AF1EE10FA48BF9FED010A08BD00BFA6
:106520000000000038B52DED028B44F6E813044658
:10653000C358DFED110A93ED2B0A5D20B7EE001A68
:1065400036F070F844F6EC13B0EE408AE55843F6A6
:10655000705305F5A475E0580368DB68984738EE7A
:10656000400ABDEC028BDFED057A284620EE270AB3
:10657000BDE838408CF0FCBE0000000000007A440A
:1065800000F50D5300F50D50D3ED045AD2ED007A0D
:10659000D0ED076A91ED006A26EEE77A67EEA57AFC
:1065A000A6EE257AE6EE267A81ED007AC2ED007A33
:1065B0007047000043F28863C35E3BB942F6524322
:1065C000C05E0028B8BF404280B2704783EAE370E3
:1065D000A0EBE370F8E7000030B52DED028B43F639
:1065E000695383B0C15C11F00101044605D09FEDF1
:1065F0002C0A03B0BDEC028B30BD43F64953019128
:10660000C35C5B07F3D5DFED278ADFED250AB0EE2B
:10661000681A3A2036F006F842F65A450199605F4A
:106620004FF4C872B0EE408A36F032F8605320461C
:1066300015F018F8635F07EE900AB8EEE71A07EE58
:10664000903AF8EEE77A31EE677AB4EEC78AF1EE67
:1066500010FA0DD52046FFF7ADFF07EE900A38EE91
:10666000478AB8EEE70A20EE088A88EE070AC0E7F4
:1066700077EE817AB4EEE78AF1EE10FAB7DD42F6F2
:10668000524338EE678AE35E00EE103AB8EEC00A75
:1066900078EEE77A20EE088A88EE270AA9E700BF9D
:1066A0000000000000007A4470B52DED028B43F627
:1066B00070550446435993F86D30002B7CD043F657
:1066C0004853C356002B77DB45F28863C35C002B2D
:1066D00072D143F65056805903685B699847002889
:1066E0006AD1374B985903681B6898470B2863D0C9
:1066F00044F6EC139FED337AE358D3ED9C7AF0EE39
:10670000E77AF4EEC77AF1EE10FA55D560593830D1
:1067100065F00CFA0346DFED2C0A93ED000A7D20AC
:10672000B7EE001A35F07EFFB5EEC00AF1EE10FAB2
:1067300042DD04F593404830A0F036FBDFED237ACC
:10674000B0EEC00AB4EEE70AF1EE10FA34D542F228
:10675000D423E31893ED008A44F6E813B8EEC88A10
:10676000E0580368DB6F984738EE400ABDEEC00A78
:1067700010EE103A002BB8BF5B42B3F5FA7F1BDA7C
:1067800042F2D82340F2E632E35803F2F313934285
:1067900012D860599FED0E0AA1F0CCFDBDEC028B22
:1067A00063599FED0B0AD3ED0A0A04F5C05010306F
:1067B000BDE870408FF022BABDEC028B70BD00BF07
:1067C000382B002000000034000000000000704260
:1067D0000AD7233C002070470020704700207047F4
:1067E00000207047002070477047000043F6505368
:1067F000C05803681B6818470348086035211170AA
:1068000008221A60704700BF1CEB130844F6F81307
:106810009FED097AC358D3ED0E7AF4EEC77AF1EE04
:1068200010FAB8BFD3ED047A9FED047A67EE877A49
:106830000120C1ED007A7047000000340AD7233CE4
:1068400010B543F650530C46C05803685B6D98472B
:1068500007EE900A9FED047AF8EE677A012067EE62
:10686000877AC4ED007A10BD0AD7233C10B543F6F1
:1068700050530C46C05803681B6D984707EE900AAA
:106880009FED047AF8EEE77A012067EE877AC4ED8F
:10689000007A10BD0AD7233C10B543F650530C467E
:1068A000C05803689B6D9847DFED037A20EE270AF6
:1068B000012084ED000A10BD0AD7233C03685B6FFA
:1068C000184700008EF0CEB977F01CB804F0C4BAB7
:1068D00004F0C0BA04F0BCBA04F0F2BBA8F046BAA7
:1068E00082F048BE16F0DEB804F044BF7CF0ACBDC8
:1068F00021F0DEBC14F028BF5EF032BF32F066BF7C
:1069000062F014BD1EF0E8BA71F010BC6EF028BB46
:106910006BF0DCBF14F010BB15F08CB807F064BD51
:1069200007F08EB906F028BC06F04ABB58F0FCBE52
:1069300014F08EBC503084F0DBBE00001BF050BF62
:1069400078F03EBB83F01ABA11F02EBAFFF7ACBE56
:1069500014F040BCA5F056BE7FF0C8BA14F01CBFBE
:1069600003F018BF14F0B6BB14F02EBB6FF006BED8
:106970005BF006B828F004BD08B544F6F813C0581B
:106980009DF022FF012008BD07F03AB80AF002BFCF
:106990000BF05EB80AF0ECBF10B52DED028B43F69C
:1069A00050530446C05803685B6AB0EE408A98476B
:1069B00020B90024BDEC028B204610BD9FED080AD3
:1069C00004F5B74028EE000A34300DF0D7F904463C
:1069D0000028EED003480121FFF712FDEAE700BFCF
:1069E0000000C842382B00201FB543F65053044620
:1069F000C058039103685B6A984760B1DFED070AEE
:106A00000399002304F5B7400093B0EE600A1A46DC
:106A100034300DF035FF04B010BD00BF00000000A1
:106A200030B52DED028B0C4643F6505105464058CB
:106A300089B001680392496A0293B0EE408AF0EE91
:106A4000608A884728B39FED150A94ED006AD4ED5B
:106A5000016A94ED027A9DF83C10019126EE006ADD
:106A600066EE806A27EE407A9DF83810009105F5B1
:106A7000B74068EE800A029B039A8DED056A28EE06
:106A8000000A05A93430CDED066A8DED077A0DF0C8
:106A90000FFE09B0BDEC028B30BD00BF0000C84244
:106AA000F0B52DED028B1C4643F650530746C058F7
:106AB00003688FB05B6A0E461546B0EE408AF0EE72
:106AC000608A984700284CD09FED280A96ED006A0E
:106AD000D6ED016A96ED027A9DF86030029326EEBB
:106AE000006A66EE806A27EE407A8DED056ACDED8C
:106AF000066A95ED006AD5ED016A8DED077A95ED90
:106B0000027A9DF85C30019326EE006A66EE806A98
:106B100027EE407A8DED086ACDED096A94ED006AA2
:106B2000D4ED016A8DED0A7A94ED027A9DF8583021
:106B3000009326EE006A66EE806A27EE407A07F53B
:106B4000B74068EE800A0BAB28EE000A08AA05A938
:106B500034308DED0B6ACDED0C6A8DED0D7A0DF0B4
:106B600091FF0FB0BDEC028BF0BD00BF0000C8422A
:106B700070B543F650530646C058036886B05B6A4A
:106B80000C469847054610B39FED126AD4ED006A93
:106B900094ED017AD4ED027ADFED0F0A0023012291
:106BA00066EE866A27EE067A67EEC67A06F5B74085
:106BB000CDE90032B0EE600A1A4603A93430CDEDBB
:106BC000036A8DED047ACDED057A0DF05DFD284662
:106BD00006B070BD0000C84200000000F0B52DED09
:106BE000028B144643F65052074680588DB0026817
:106BF0000593526A0D46B0EE408AF0EE608A9047E7
:106C00000646C8B39FED1F0A95ED006AD5ED016AEF
:106C100095ED027A059B26EE006A66EE806A27EE05
:106C2000407A01228DED066ACDED076A94ED006A87
:106C3000D4ED016A8DED087A94ED027A02929DF806
:106C40005420019226EE006A66EE806A27EE407AB2
:106C50009DF85020009207F5B74068EE800A09AA17
:106C600028EE000A06A934308DED096ACDED0A6AD6
:106C70008DED0B7A0DF09EFC30460DB0BDEC028B15
:106C8000F0BD00BF0000C84270B543F65053064641
:106C9000C05803688EB05B6A0D4614469847D8B357
:106CA000DFED1E7A95ED006AD5ED016A95ED027A69
:106CB000DFED1B0A26EE276A66EEA76A27EE677AE3
:106CC0008DED056ACDED066A94ED006AD4ED016A9A
:106CD0008DED077A94ED027ACDED0B0A002326EEB6
:106CE000276A66EEA76A06F5B74067EE677ACDE9D0
:106CF00001330093B0EE600A0BAB08AA05A934304B
:106D00008DED086ACDED096ACDED0A7ACDED0C0A5C
:106D1000CDED0D0A0DF0B6FE0EB070BD0000C842FC
:106D20000000000070B52DED068B43F6505305466C
:106D3000C058036884B05B6AF0EE409AB0EE60AA77
:106D4000F0EE41AAF0EE618A0E46B0EE429A984704
:106D50000446F8B19FED128A4FF07E536AEE080A9E
:106D600029EE880A0093684600232AEE881A0393C6
:106D70000293019339F07AFB9FED0A0A05F5B740BB
:106D800069EE080A28EE800A00233246694634304C
:106D90000DF0F8FA204604B0BDEC068B70BD00BFC4
:106DA00035FA8E3C0000C842534B37B5044640F8D4
:106DB000043B76F0ADFE9FED511ADFED510A9FEDD9
:106DC000510A04F130008CF09DF804F1580082F073
:106DD000E9FC04F110054C4B4C491D6028465CF061
:106DE000DFFC04F1900020F003F8494B019300947C
:106DF00002AB13E9060004F506705EF035FB04F5FE
:106E0000317026F0B1FA04F5C2601BF067F904F2A4
:106E1000647023F051FD04F52C6032F071FA04F532
:106E20009E5076F043FC04F5A45010305DF06CFAEF
:106E300004F5B850183070F075FF04F5BA501430EE
:106E40001EF05CFA04F5C05010308EF055F804F5D1
:106E5000F55096F01FFE04F5F55018305EF072FE06
:106E600004F5F850043077F0BBFF41F60C730025B1
:106E7000E218E55404F5F850264B1C301A6058F01F
:106E8000F1FA04F5FB502946103018F0B9FA04F570
:106E90001B5028308CF0D8FC04F51B5034307CF0AB
:106EA000E3FA04F51C5020308DF0D4F904F5275096
:106EB000343093F093FB04F52C500C3092F072FCBC
:106EC00004F52C502C3095F057FC04F52E5024304E
:106ED00096F0BAF942F60443E5540F4D2B6813B10E
:106EE0000E48B4F097FC20460D495CF059FC204652
:106EF0002C6003B030BD00BF6015150800008C4247
:106F00009A99993E0000484330900020406A140846
:106F1000BD680008989E0020E092002080E51308DC
:106F2000A414150810B514F02DFB6FF0B7FB03681F
:106F3000BDE810405B681847FFF7F4BF10B5044682
:106F400007F018F8204614F0B7FF204604F018FEAA
:106F50002046BDE8104004F0F3BD0000FFF7EEBF8F
:106F600070B500F576551C35044628461CF080FFA8
:106F700024F0C4FA90F921308BB390F8543373B3F2
:106F800043F6705304F26476E058383064F0CEFD76
:106F90000346DFED130A93ED000A7D20B7EE001AD9
:106FA00035F040FB94F9A037012B284608BF86ED49
:106FB000130A00211CF06CFDDFED0A7A04F527644A
:106FC00094ED007A20EE270ADFED077AA7EE270A74
:106FD000304684ED000ABDE8704023F05FBF70BD0D
:106FE00000000000CDCCCC3D6666663FFFF7B8BF21
:106FF00000F5765000211C301CF04ABD10B501216F
:10700000044614F09BFF60B143F65053054AD05834
:1070100003689B6A984720B92046BDE8104002F0FB
:1070200079BC10BD382B0020FFF7E8BF38B5044607
:10703000FFF7DEFF0221204614F080FF78B1012126
:10704000204614F07BFF50B943F650534E4AD058B7
:1070500003689B6A984710B9204602F05BFC022146
:10706000204614F06BFF00286AD0204602F0D8FCBE
:107070004FF40031204614F061FF10B1204602F0B9
:10708000E1FC4021204614F059FF60B104F564553D
:107090001C35284660F022FE41F21873E35613B106
:1070A000284660F031FF4FF48061204614F046FF1F
:1070B00020B104F564501C3060F0A4FE202120466D
:1070C00014F03CFF60B143F65055605903681B69EA
:1070D000984700283BD044F6EC13E0589BF066FB41
:1070E0008021204614F02AFF00283CD033F0A6FC73
:1070F00032F016F81021204614F020FF98B144F623
:10710000E81304F56455E05898F098F91C3504F537
:1071100038510431284661F039FA04F5355104310B
:10712000284661F0D3F94FF6FF71204614F006FFB0
:1071300040B304F559502C30BDE83840A7F024BEC8
:107140000121204614F0FAFE00288ED190E7204657
:107150000EF0E8FB0028BED1605903685B699847D0
:107160000028B8D0BCE74FF48021204614F0E6FE9A
:107170000028BBD14FF40021204614F0DFFE002888
:10718000B4D1B7E738BD00BF382B0020FFF74EBFA2
:1071900010B50121044614F0D1FE10B1204602F0D2
:1071A0003FFC8021204614F0C9FE28B133F046FC94
:1071B000BDE8104031F096BF10BD0000FFF7E8BFFA
:1071C00010B5044606F0F6FC204606F031FB2046DA
:1071D00006F0E4FD204615F087FC2046BDE810408F
:1071E00004F0A4BAFFF7ECBF70B54FF6FF71044688
:1071F00014F0A4FE30B143F648530721E25820466C
:1072000002F07EFC04F56A5043F670550430FEF738
:10721000E3F9635993F86D30A3B904F5FB501030CE
:1072200018F06EFB2046FFF755F96059026804F527
:107230003953D669197842F66E42A25CB04760595C
:10724000A1F050F86FF032FC204615F03FFC43F6F9
:10725000485345F2C952E35CDB43C3F3C013A35464
:10726000014A537170BD00BFF9910020FFF7BCBF08
:10727000F8B500F50D53103300F576561B687360B2
:1072800000F50D531C3342F2DC271B68B360044643
:10729000C05900F58C40503035F084F943F68C53DA
:1072A0004FF6FF71E05072683261B2687261204639
:1072B00014F044FE30B1E25920460921BDE8F840FF
:1072C00002F0F6BBF8BD000000F576531A68002AFC
:1072D0004ED043F64953C35CDB0749D500F57553DF
:1072E000012A597A6FF30001597243F60C13C15801
:1072F00043F61013B1F90820C35806EE902AB3F9EB
:107300000830F8EEE66A06EE103A00F5765330D112
:1073100093ED017A00F57653F8EEC67AD3ED025A72
:1073200025EEE76AA6EE876A00F50D5267EE877ACA
:1073300092ED077AE6EEA57AD2ED046A27EE877A17
:10734000A6EE267ABDEEC77A17EE10CAA1F808C0DD
:1073500092ED047A67EE877A92ED077AE6EE477A45
:1073600043F610114158FDEEE77A17EE903A0B8183
:107370007047D3ED047A00F57653B8EEC67AD3EDB4
:10738000055A25EEC76AA6EEA76ACDE710B50446F2
:107390002DED028B79B1204613F03EFF43F68C525F
:1073A00040F2E631A3581B1A03F2F3138B420DD8B7
:1073B000BDEC028B10BD00F576531B68022BF7D194
:1073C00013F00CFFB0F57A7FE5D2F1E700F58C43BE
:1073D000A0505033642093FBF0F308EE103ADFED39
:1073E0000B7AB8EEC88A28EE278AB0EE480A30F148
:1073F0003BF904F5765383ED040AB0EE480A30F108
:10740000BDFA04F5765484ED050AD1E735FA8E3CD1
:1074100000F5FB500121103016F0A0BF10B5044656
:1074200000F52C6032F094FD44F6E813E058036850
:107430005B6C9847204613F013FD2046FFF7E8FFEA
:10744000204606F039FD204605F054FE204607F0A0
:10745000D9F8204604F0E2FD204606F079FF04F555
:107460009440483070F068FE4FF6FF71204614F0EB
:1074700065FD10B1204602F09DFB2046BDE810409E
:107480005FF032BF10B5044614F0F2F81021204628
:1074900014F054FD48B1204602F0E0FC04F5C05061
:1074A0001030BDE810408EF023BC10BDFFF7EABFDE
:1074B00070B50446254606F0D3FF2C4B45F83C3BFF
:1074C0002B4B2465C4E915342A4BC4E917342A4BE5
:1074D000636604F1780020F0E1F804F1900020F0F8
:1074E000DDF804F1A80020F0D9F84FF6FF76234B21
:1074F000C4F8B830A4F8BC6004F1C00020F0CEF8A5
:107500001F4B20491D6028465CF04AF900250123E5
:1075100084F838312946A4F87060A4F8886084F8AB
:107520001051C4F83451502204F5AE7032F1D4FD3C
:1075300004F5B67329461022184632F1CDFD20F02D
:10754000ADF804F5C27329461022184632F1C4FD85
:1075500020F0A4F804F5CE7310222946184632F123
:10756000BBFD20F09BF8204670BD00BFA04714086B
:107570008D69000891690008956900080000FFFF07
:10758000B4910020E8C9140810B5044620F086F82C
:1075900004F1100020F082F804F1200020F07EF8C1
:1075A00004F1300020F07AF8204610BD2DE9F047B4
:1075B0002DED028B044684B0FFF7F6FBA44B23604D
:1075C00004F53250103002F013FD04F5315104F58A
:1075D000645028311C3061F07FFC43F6C41204F57E
:1075E00031531C33A35043F6C813062204F56750E9
:1075F000E254183064F024FA04F567503C3064F02B
:107600001FFA43F6142343F68427012504F5685036
:10761000E550E61924306FF0E3FF3046A5F076FE22
:107620008C4BE351301D5BF0A3FA10B943F688236D
:10763000E55404F56B5024305AF048F943F63033E2
:10764000854AE25004F56D5504F56E5618353C3602
:107650002846143568F0A6FEAE42F9D143F6E04361
:1076600043F6DC460722A519E25000232B814FF494
:10767000CB7020F0DFFBA05105F10C00B1F0FCF85D
:1076800004F574502C30B1F0F7F8744A116843F6E1
:10769000303309B9E1181160714AE25004F5BB4872
:1076A00043F6505308F1200804F5755044F8038060
:1076B0001530A3F0F9F8B7EE008A04F5765383EDA0
:1076C000018A04F5765383ED048A664B0393664B77
:1076D0000093029404AB04F5765013E90C004FF4C8
:1076E00000711C301BF080FF04F58540A8F064FC9D
:1076F00004F59340B0EE480A103064F06BFA04F5DC
:107700009340B0EE480A283064F0A2F904F59340A3
:1077100038301FF0C3FF44F6C8135449E150E21853
:1077200004F593430025DD641D655D6504F5934311
:1077300004F594469D65DD651D6604F5FB53103325
:10774000D36144F601230022E25406F120001FF029
:10775000A5FF4FF4004373640436454930465CF09E
:107760001FF8444B04F5944048301E6070F022FC32
:1077700004F59540303083F0D9FF04F5964044F687
:107780009C36643085F08AF9A0195CF017FC3A4BFE
:10779000A35104F59740303082F078FA04F5974011
:1077A0004C3004F5F8530433036104F59747334B29
:1077B0003349186070375BF0F3FFFF233B743B766F
:1077C000304938465BF0ECFF2F4B1E6816B12F484E
:1077D000B4F020F804F5AE4104F598405C31103067
:1077E0001F605FF037FB04F5A9400C309BF0E2FD11
:1077F00004F5AA4704F5AA406837603045F2186AD4
:107800009CF07CFD04EB0A0938468AF09BFE394661
:107810004846A3F063F81E4B44F80A30062389F863
:1078200054301C4B1C4A1A6004F5AC417831334685
:1078300018279EB2304678430133105C0028F8D1F7
:10784000164B1E80164B1E6886B31648C0E700BF55
:1078500050EF130820E51308B0311508A89B00204D
:10786000ECEF13088969000840EF1308D898150851
:10787000206C14083890002058E51308A09E0020C2
:1078800048491508306A1508389F002094E5130808
:10789000983F14089C9200205C33140898920020B2
:1078A0005C920020B5E51308CDCC4C3D04F5AD400D
:1078B0001FED030A196045F2A4670C3064F0C8F8A4
:1078C000E01906F0CDFD7E4BE35145F2E467E01987
:1078D00006F0C6FD45F6D0097A4BE35104F5AE40FB
:1078E00004EB09072030FFF7E3FD384606F0B8FD4A
:1078F000754B44F8093007F13C00ACF09BFC45F6B1
:107900000C13724AE25045F65827E01906F0A8FD1C
:107910006F4BE35145F69C27E01906F0A1FD6D4B36
:10792000E35145F6D82345F6DC27E652E01906F088
:1079300097FD694BE35145F61837E01906F090FDC5
:10794000664BE35104F5B64345F66C3704EB070983
:107950005D659D65DD65484606F082FDC9F83C60C1
:107960005F4BE35145F6B43904EB0907384606F09E
:1079700077FD5C4B44F80930FE6345F6F837E019B3
:1079800006F06EFD584BE35145F64047E01906F00E
:1079900067FD564BE35104F5B947384606F060FDE4
:1079A000534B3B60BD67FD6745F6145704EB070A70
:1079B000504606F055FDDFF85C9144F8079045F617
:1079C00050530127E7520AF14000FFF7DDFD404622
:1079D00006F046FD45F6A053464AE25045F6DC580F
:1079E00004EB080006F03CFD434B44F8083004F576
:1079F000BC4045F68C6804EB080A183011F092F888
:107A0000504606F02DFD3D4BCAF83C6044F8083066
:107A100045F6D06804EB080006F022FD384B44F828
:107A2000083045F60C7345F6207804EB080AE65258
:107A3000504606F015FD334BCAF83C6044F8083058
:107A400045F6647804EB0806304606F009FD45F675
:107A5000A07344F8089006F14000E752FFF794FD48
:107A6000294B44F8083004F5BF4086F8897074301B
:107A70000BF082F904F5C14046F23016383012F0AE
:107A8000E3F9A01906F0ECFC204BA35104F5C24326
:107A90001D675D6746F27815601906F0E1FC1C4B26
:107AA000635143F66C522046A35C23F0030343F07A
:107AB0000303A35404B0BDEC028BBDE8F08700BF04
:107AC000D44414085C451408284814089C48140839
:107AD00058491408DC491408604A1408DC4A1408A0
:107AE000F84C1408744D1408744E1408F04E140821
:107AF000F04F1408D852140850521408D4481408EF
:107B000084561408004E1408CC5114080C5714085D
:107B10006C4F14084C51140838B5054B1C68236889
:107B20000A461D68034B01462046A847002038BD81
:107B3000F08C0020382B002038B5037904463BB97F
:107B400005682DB1284630F0FDFB284620F06EF97F
:107B5000204638BD70B5294B036042F6F433C21895
:107B6000044612793AB9C5582DB1284630F0EAFBDF
:107B7000284620F05BF904F5F55095F09FFF04F5D9
:107B8000D1500C30FFF7D8FF04F5D1500430FFF787
:107B9000D3FF04F5D0501C30FFF7CEFF04F5B850EA
:107BA000183070F0D7F8164BC4F8C03A04F572607C
:107BB00063F072FD04F6047063F06EFD04F6E86095
:107BC00063F06AFD04F6AC5504F66456B54204D081
:107BD000083D2846FFF7B0FFF8E70A4BC4F8D43059
:107BE00094F8B43143B9D4F8B0512DB1284630F0EF
:107BF000A9FB284620F01AF9204670BD601515082B
:107C000050BD14087471140838B50F4B036045F269
:107C10000863C218044612793AB9C5582DB12846EE
:107C200030F090FB284620F001F943F63033074A44
:107C3000E25043F6DC43E05808B120F0FDF820465E
:107C4000FFF788FF204638BD50EF1308B031150804
:107C500010B5B1F0C1F8064C064B18602046FFF78E
:107C6000A5FC2046044A0549BDE810402FF172BB2F
:107C7000382B0020F08C002004FA0020097C00083A
:107C800001207047FA207047024A42F61E43D05C3A
:107C9000704700BF382B0020044A43F67053D05879
:107CA00010B103681B68184701487047382B002043
:107CB000CCEF1308024B1868431E584258417047D6
:107CC000B8680020024B1868831E5842584170471C
:107CD000B868002070B5C169026A6B4D41F4E05389
:107CE000C36142F4E0530362436A044643F4E05044
:107CF000606243F649502E5C760710D542F48E320E
:107D000041F48E31E16122622A5C500707D543F6C7
:107D10006952AA5CD1075CBF43F48E336362E369A6
:107D200043F4C043E36143F65053E85803681B68CB
:107D300098470238192816D8DFE800F09E0D0D0D7F
:107D40000D0D150D1515159E159E0D0D0D0D9E0D88
:107D50009E151515150DD4E9082342F4C042226280
:107D600043F4C043636249487EF00CFB18B1E369F9
:107D700043F08063E36145487EF00CFB18B1236A51
:107D800043F08063236241487EF00EFB18B9636ABA
:107D900043F0806363623E4B1E6846B11921304652
:107DA0005CF0E2FB18B1E36943F48073E36143F6EE
:107DB000CC13EB5CDA070DD5236A43F4807323629E
:107DC00046B1192130465CF0FBFB18B1636A43F4FD
:107DD0008073636259F056FE98B190F905303BB15B
:107DE000D4E9072342F0400243F04003E2612362FA
:107DF000036833B10379DB0742BF636A43F0400392
:107E0000636245F28C416B568BB1D4E9072343F092
:107E1000800342F08002E26123626B563BB145F27F
:107E20005453EB5C1BB1636A43F08003636245F219
:107E30008843EB5C013B012B0BD8D4E9072343F4C7
:107E400080032362636A42F4800243F48003E261A8
:107E50006362E36943F08043E361236A43F0804354
:107E6000236243F67053EB5893F865301BB9636A8D
:107E700043F08043636270BD236A43F4005323627E
:107E8000636A43F400536DE7382B00203C5900200F
:107E9000A892002013B54FF4E870CDE900211FF03F
:107EA000BFFFDDE9002104466BF0F6FD024B2360C5
:107EB000204602B010BD00BF24F2130808B590F8A8
:107EC0008C308B4208D25FF0DDFD16224FF480210A
:107ED0005FF08EFD002008BD243150F82100FAE744
:107EE00008B590F88C308B4208D25FF0CBFD0F22A2
:107EF0004FF480215FF07CFD002008BD243150F854
:107F00002100FAE7002070470020704703207047E7
:107F100010B543F65053154CE05803681B6898475A
:107F200007281DD8032834BF1023182343F67052A6
:107F300043F04000A25822B192F86D200AB143F0FC
:107F4000C00040F0010010BD0B280DD8DFE800F0A4
:107F500006060C060C060C060C0C0C061823E5E7AE
:107F60001038C3B20B2BEFD91023DFE7382B0020DA
:107F7000024A42F62043D05C704700BF382B0020F5
:107F8000034A42F63063D056003818BF01207047CC
:107F9000382B0020024A42F62243D056704700BFD9
:107FA000382B00207047000008B50E4A43F6705386
:107FB000D058A8B1383063F0B9FD034693ED000AFC
:107FC000DFED090A7D20B7EE001A34F02BFBDFED60
:107FD000077A20EE270ABDEEC00A10EE103A18B25A
:107FE00008BD00BF382B0020000000000000C84280
:107FF0002DE9F04FDFF8D890334F8DB004460425BB
:10800000A9F10406314B17F801ABB3F900300AF1BE
:10801000FF3B43FA0BF3D90743D5207C65F02AFADE
:108020008046207C66F0ECF800F12103984505D2EB
:10803000207C64F0C7FC0DB0BDE8F08FBBF1030FEE
:108040002FD8DFE80BF00233373B306803689B68BA
:10805000984700F19803D3ED007AD3F804B0D3F831
:108060000CC018695969D3F818E0DA691B6ACDF8B1
:108070002530CDF8292021236222CDE90032079056
:108080000891207CCDED037A192303AAC221CDF8F3
:1080900010B0CDF814E0CDF818C08DF824A065F02C
:1080A00031FA013D15F0FF05ACD1C4E73068036833
:1080B000DB68CDE7306803681B69C9E7D9F8003091
:1080C00003F5F073C7E700BF0CF31308B0570020A7
:1080D0002475002007B50190A6F064FE28B101992F
:1080E00003B05DF804EBA6F01FBE03B05DF804FB1F
:1080F000014808F093BF00BF5882002070B542F6D7
:10810000346314460A4AD358DB0705460E4603D5A6
:1081100008482146A2F086FF21460748A7F02CFA1E
:10812000224631462846BDE870406AF0ABBA00BF2F
:10813000382B002050810020C861002010B588B085
:10814000044667F0A9FC0B4A43F67053D05830B987
:10815000094A0621204667F095FB08B010BD694624
:108160001E22A1F019F8054A6B460621204667F049
:1081700089FBF2E7382B0020CCEF1308BFD215089B
:1081800010B443F60812044CA35C0133A3545DF809
:10819000044B66F095BC00BF382B002001489BF0D3
:1081A000FBBA00BFC47F002007B5084601911FF04D
:1081B00075FB38B10448019903F090F9002003B031
:1081C0005DF804FB0420FAE7108D0020014803F05D
:1081D00003BF00BF382B0020014803F083BE00BF5F
:1081E000382B0020F8B58A7A4B7A43EA0223CA7A00
:1081F00043EA02439D2B05460C4619D10F4F104808
:1082000044F64A26B95D6FF09DFF88B1B95D0C4810
:108210006FF0D4FF60B9D4ED057A9FED0A0ADFED67
:108220000A0A0A48F8EEE77A27EE800A03F036F9E0
:1082300021462846BDE8F84066F076BB382B002082
:10824000807500200AD7233C00000000108D00201C
:1082500010B544F61043064AD25640F6CD3440F6E7
:10826000CD13002A08BF1C4666F0E0FB204310BD7A
:10827000382B002000B589B00023029303930493A8
:1082800005930693079317F0A9F802A915F03CFA95
:10829000B0B117F0A3F815F005FF05A88DED050A9C
:1082A000CDED060A8DED071A39F0E0FDF1EE047A06
:1082B00020EE270AFCEEC07ACDED017A9DF804008D
:1082C00009B05DF804FB000010B504461FF0AEFDD8
:1082D000204610BD38B50D4C43F64853E356002BED
:1082E0000FDB43F65055605903685B6C984750B9F3
:1082F000605903681B6C984700280CBF02200320BC
:1083000038BD0120FCE70420FAE700BF382B00202D
:1083100008B543F64952134B985C10F020001FD06B
:1083200043F65052985803685B6D984707EE900AE1
:10833000B8EE677ADFED0C7A27EE277ADFED0B7A5D
:10834000B4EEE77AF1EE10FA58BFB0EE677AF2EECB
:10835000046AC7EE267AFCEEE77A17EE903A98B2F6
:1083600008BD00BF382B00200AD7233C00FF7F4701
:1083700038B5F7EE000A91ED050A04460D4634F0D3
:108380003BF828B121460548BDE8384003F058BE07
:1083900029462046BDE8384069F034B9382B002022
:1083A00008B543F64952094B985C10F020000BD0F9
:1083B00043F65052985803681B6D984734F0F2F812
:1083C000C82390FBF3F0C0B208BD00BF382B0020DB
:1083D00000B589B0002302930393049316F0FEFFC7
:1083E00002A915F091F9D8B116F0F8FF15F05AFE70
:1083F000F0EE607AF1EE400AB1EE670A2FF19AFBD7
:10840000DFED097A20EE270A34F064F8F6EE007A00
:1084100020EE270AFCEEC07ACDED017A9DF804002B
:1084200009B05DF804FB00BFE02E65421FB50023D4
:1084300001930293039316F0D1FF01A915F064F99B
:1084400028B101A839F012FD05B05DF804FB26F053
:10845000D5FF90F8A4329C2202FB030393ED370A68
:10846000F2E700000B7ADB0706D50448CB6842F23E
:10847000E03282581344CB60704700BF382B002095
:10848000044B187828B9044A43F64A53D05CC0F329
:108490008010704734900020382B002007B5124B15
:1084A00043F64952985C10F0200019D044F6EC12C3
:1084B000985800F51D7039F0D9FCDFED0C7A20EEEC
:1084C000270ADFED0B7AB4EEE70AF1EE10FA58BF97
:1084D000B0EE670AFCEEC07ACDED017A9DF804009B
:1084E00003B05DF804FB00BF382B0020CDCC4C3D21
:1084F00000007F43094B44F27D229A5C62B943F647
:1085000069529A5CD20607D143F648529B56002B1B
:10851000ACBF04200320704705207047382B002093
:1085200008B5084A42F66C43D356032B03D0BDE886
:10853000084067F0BFB9044A022167F0A3F904209C
:1085400008BD00BF382B002024F01308094B42F669
:1085500034629A5892070BD544F6BC12134493ED3B
:10856000000ADFED057AB8EEC00A20EE270A704750
:1085700066F08AB8382B00200AD7233C10B594B097
:10858000044603A81FF08AF843F650531C4AD058FB
:10859000036803A9DB6C984778B3002103A81FF098
:1085A00047F950B3247CB3F067F9059BDDED047AFD
:1085B0000893069B09930023F8EEE77A9FED117A62
:1085C0000B930C930D930E930F931093119312939F
:1085D0004FF6F853ADF84C300023962267EE877AB9
:1085E0008DF84E303323CDE90032079007AA57218A
:1085F0002046CDED0A7A64F085FF14B010BD00BFAF
:10860000382B00200AD7233CF0B52DED0A8B43F61A
:108610005053824C0546E058036899B05B6A98470E
:10862000002866D045F6F033E358062B00F2E180CF
:10863000DFE803F004040463A0C35F0078489FED03
:10864000798A0CF025FB0446D0E90201FCF7ECFA2C
:108650000746D4E90401FCF7E7FA0646D4E900012D
:10866000FCF7E2FA9FED700A0B900BA80C970D96A1
:1086700038F03AFFF0EE489AB0EE40CAF0EE60BA39
:10868000B0EE419AB0EE48AAF0EE488AF0EE48AA61
:10869000B0EE48BA40F6F8542D7CB3F0EDF8002364
:1086A0001593169301238C228DF85E303323CDE988
:1086B00000320B90B1EE499AF1EE688AB1EE488A29
:1086C0000BAA552128468DED0CCACDED0DBA8DEDC6
:1086D0000E9A8DED0FBACDED10AACDED118A8DED6C
:1086E00012AACDED139A8DED148AADF85C4064F0BA
:1086F00009FF19B0BDEC0A8BF0BD49480CF0C8FA6F
:108700000446D0E90201FCF78FFA0746D4E90401D8
:10871000FCF78AFA0646D4E90001FCF785FA9FEDDA
:10872000420A0B900BA80C970D9638F0DDFE3C48E2
:10873000F0EE60BAB0EE419AB0EE40CA0CF0ACFA7E
:108740009FED390A38F0D0FE3548B0EE40BAF0EE71
:1087500060AAF0EE418A0CF0A3FA9FED330A38F0DC
:10876000C3FE4FF44064B0EE40AAF0EE609AB0EE63
:10877000418A91E72A489FED2B9A0CF08DFA9FEDE4
:108780002A0A38F0B1FE2648B0EE40BAF0EE60AAF0
:10879000F0EE418A0CF084FA9FED230A38F0A4FE33
:1087A000F0EE49BAB0EE40AAF0EE609AB0EE418A1F
:1087B000B0EE49CA40F607446EE71948DFED198A62
:1087C0000CF06EFA9FED180A38F08EFEF0EE68AAF3
:1087D000B0EE40AAF0EE609AB0EE418AB0EE68BA10
:1087E000B0EE689AF0EE68BAB0EE68CA40F63F4460
:1087F00052E79FED0C8A0024F0EE489AB0EE48AAAA
:10880000F0EE488AF0EE48AAB0EE48BAB0EE489AC8
:10881000F0EE48BAB0EE48CA3EE700BF382B002061
:10882000EC860020000000000AD7233CF8B58B8BB3
:10883000CD2B05460C4617D10E4F0F4844F64A265D
:10884000B95D6FF07FFC78B1B95D0B486FF0B6FC95
:1088500050B994ED020ADFED097ADFED090A094803
:1088600020EE270A02F01AFE21462846BDE8F8400D
:1088700066F056B9382B0020807500200AD7233CBB
:1088800000000000108D002008B590F8CE3153B9DB
:10889000806A03681B6A9847B0F5005F28BF4FF4F1
:1088A000005080B208BD0020FCE7000038B5D0E9D8
:1088B0009845006903689B6898478068FBF764FEE9
:1088C00002460B4620462946FBF7FEFCFCF7ACF9B6
:1088D00000EE100A38BD00002DE9F04143F649537F
:1088E0003D4F2DED068BFB5C99068CB004466DD593
:1088F00044F6E8139FED390AF858DFED398A3C3029
:1089000038F0F2FD8DED041A21EE281A43F650538B
:10891000BDEEC11AFE58CDED030A11EE103A1DB29C
:1089200033688DED020A1B6D94F81080304620EEFE
:10893000A89A60EE289A984707EE900AF8EEE77A30
:10894000304667EEA87AFDEEE77A17EE903A1CB251
:1089500033685B6D984707EE900AB8EE678ADFEDE3
:10896000217A28EE288A44F6EC13B4EEE78AF85808
:10897000F1EE10FA58BFB0EE678AFFF797FF336841
:1089800030469B6DB0EE40AA9847BCEEC88A0023E3
:10899000089318EE103AB7222AEE28AA20EE280AE9
:1089A000ADF82C301A23CDE900323E2105AA40460D
:1089B000CDED059A8DED069A8DED07AA8DED090A8C
:1089C000ADF82850ADF82A4064F09CFD0CB0BDEC29
:1089D000068BBDE8F08100BF382B00209F0CB3450B
:1089E0000AD7233C00FF7F4710B52DED028B84B0E2
:1089F00016F0F4FC044668461EF050FE6946204618
:108A000014F04CFE0F4B43F64952985C10F02000D6
:108A100013D044F6EC12DDED017A9858B8EEE78AEF
:108A2000FFF744FF38EE008A9FED070A28EE008A20
:108A3000BDEEC88A18EE103A18B204B0BDEC028B35
:108A400010BD00BF382B00200AD7233C034A43F651
:108A50007053D05808B190F86C007047382B002044
:108A600008B5044A43F65053D05803681B6898472A
:108A700008BD00BF382B0020034A43F64953D05CA1
:108A8000C0F34010704700BF382B002070B543F68C
:108A900050533B4E2DED028B0546F05891ED018A67
:108AA000036888B05B6A0C46984750B9BDEEC88A27
:108AB00018EE103ADB0704D4022008B0BDEC028B9C
:108AC00070BDD4E9040134F03DFD0028F4D004A8C1
:108AD0001EF0E4FDD4ED067A9FED2A7A2369069311
:108AE000F0EEE77AF4EEC77A63690793F1EE10FAD5
:108AF000E2DC94F8201003AA284669F0BDFF0028A4
:108B0000DAD09FED217AD4ED067A039A67EE877A60
:108B100004A8FDEEE77A17EE901A1EF0C5FD1B497A
:108B200004A81EF0C7FE03460028C5D1DFED180AD1
:108B300000900246B0EE600A164804A90BF0A0FEB1
:108B4000E0B143F65053F05803685B6A9847044617
:108B500008B10020B1E70A480222042106F02EF8ED
:108B600060B1DFED0B0A0B4800942346B0EE600ABB
:108B7000224604A90BF084FE0028EAD104209CE7D9
:108B8000382B0020001CA2470000C842F0740020CF
:108B900000000000EC8600208A8B202A82B004D0DE
:108BA000C02A1DD002B06AF005B8D1ED007AF5EE0A
:108BB000C07AF1EE10FA16DD9FED0C7AF4EEC77A6A
:108BC000F1EE10FA0FD8FCEEE77A0949CDED017A03
:108BD00043F292629DF804308B52002002B070473D
:108BE00002B0FFF753BF0320F8E700BF00007F4348
:108BF000382B002010B52DED028B8CB000230446DD
:108C000003930493059316F0E9FB03A914F07CFD8C
:108C100050B316F0E3FB15F045FAF0EE607A8DEDF7
:108C2000060ACDED070AF1EE400AB1EE670A247C90
:108C30008DED081A2EF17EFF06A8B0EE408A39F0BD
:108C400015F9DFED0B7A089B0B93012228EE278A9A
:108C50000C23CDE90032A82109AA20468DED098A0E
:108C60008DED0A0A64F04EFC0CB0BDEC028B10BD19
:108C7000E02E65422729F7B505460E4611D008D8E3
:108C800019290CD0242921D0314628466AF0D4F97C
:108C900016E038292AD0A1F13A03012BF4D801209B
:108CA0000EE0FFF7F1FD0446287C65F0A9FA00F11B
:108CB00012039C42297C05D2084663F083FE002003
:108CC00003B0F0BD21485DF04FFBE8E7FFF7DCFDA6
:108CD0000446287C65F094FA00F10C039C4201D212
:108CE000287CEAE72846FFF785FFD8E7FFF7CCFDA9
:108CF0000446287C65F084FA00F126039C42297C16
:108D0000DAD3134889F0A2FD124B1F68002FC6D09A
:108D10002846FFF7B9FD0446287C65F071FA00F19A
:108D200026039C424FF00004DAD30DF106023146CF
:108D30002846ADF8064067F07FFE0028AFD0BDF8AA
:108D40000620297C384683F0D7FAA8E74877002028
:108D5000A08000202C9F002070B52DED028B8B8B06
:108D6000D02B86B00D4600F03D811ED8202B00F0A0
:108D7000A2800AD8113B9AB2052A0ED8052B0CD82E
:108D8000DFE803F08D0B0B93966BB22B00F0EC80B9
:108D9000BD2B7FD0732B00F0A780294606B0BDEC19
:108DA000028BBDE870406BF06DBB4AF211429342FA
:108DB00000F072812DD8B3F5967F00F0FD8040F66B
:108DC000D812934200F05881D12BE6D1D1ED017A2F
:108DD000FCEEE77ACDED037AD1ED007AFCEEE77A8E
:108DE000CDED047AD1ED047A9DF81020FCEEE77AFF
:108DF000CDED057A9DF814300093D1ED030A91ED85
:108E0000020A9DF80C300146BD4811F08BFF044664
:108E1000A5E04AF21342934200F08E814AF2686262
:108E2000934200F004814AF212429342B5D1B44B0E
:108E300043F669521E469C5C14F0010428D143F6A7
:108E400070529B5893F86D30002B40F0398101220D
:108E50001146AC48FDF796F981E0D1ED027A9FED1D
:108E6000AA7A91ED060AA64AF0EEE77AF4EEC77AFE
:108E700043F65053DFEDA57AD058F1EE10FA20EE0C
:108E8000270A4CBF0121002113F024FC002865D0E3
:108E9000002464E002219E4807F02AF8F6E7022247
:108EA0000521974805F08AFEF0E702220621F8E73F
:108EB00002220921F5E7D1ED007AF5EEC07AF1EE54
:108EC00010FA4BDD9FED937AF4EEC77AF1EE10FACB
:108ED00044D8FCEEE77A8A49CDED037A43F29262F8
:108EE0009DF80C308B52D3E7D1ED007AF5EEC07AC5
:108EF000F1EE10FA32DB9FED887AF4EEC77AF1EEEC
:108F000010FA2BD891ED030ADFED7F7AB0EEC07A2C
:108F1000B4EEE77AF1EE10FAB0EE678A18D5D5ED27
:108F2000037AD5ED010A95ED000A7C48F4EEC87A83
:108F3000D5ED027AFDEEE77AF1EE10FACDED037A87
:108F40009DF90C10ACBF0122002202F023FA9FE72A
:108F5000F7EE000A33F050FA0028E0D1042420464E
:108F600006B0BDEC028B70BD91ED010AB5EEC00AF2
:108F7000F1EE10FAF2DD9FED657AD1ED007A604AEC
:108F800020EE070A9FED667A44F6F013F4EEC77AF6
:108F9000F1EE10FAD05802DD9CF082FC78E79FEDEC
:108FA000617AF4EEC77AF1EE10FA02DD9CF068FC0B
:108FB0006EE79CF083FC6BE7514C022203212046B4
:108FC00005F0FCFD0028C9D001212046FDF718FA64
:108FD00045F25C73E35C012B3FF45AAF52483BF01F
:108FE00007FA55E7D1ED007AFCEEE77A17EE903AF2
:108FF0009CB2012C0DD0022C15D0002CAED12146F4
:109000004A4876F011FA60F0FDFD312160F050FD24
:10901000A5E72146454876F007FA60F0F3FD3221D6
:1090200060F046FD34E7364803F052FD30E7404833
:10903000A5F00EFE002891D0D5ED017AFCEEE77A7E
:10904000CDED037A9DF80C40012C09D0022C0DD0F7
:10905000002C83D12A4A43F278630021D1547EE761
:1090600095ED020A3248A5F033FE11E795ED030AAB
:109070002F48A5F041FE0BE7D1ED017A2D48FCEE1B
:10908000E77ACDED037A9DF80C30012B0CBF00215F
:10909000012185F085FDFBE6194843F66953C35C61
:1090A000DB073FF5F5AE0222052105F087FD00281C
:1090B0007FF4EEAE02221146114805F07FFDE7E68F
:1090C00043F648530222F356002B13DA0C480521CD
:1090D00005F074FD00283FF4DBAE95ED000ADFEDEE
:1090E0000B7A43F6505320EE270AF058012113F073
:1090F000F1FA34E70921024805F060FD2FE700BFCF
:10910000382B0020BC650020000000340000C8425D
:109110005882002000007F430000B443108D0020DF
:109120009A9939403333F33F94820020047700202A
:10913000A461002028770020214B43F669521E4687
:109140009C5C14F001047FF4A3AE43F670529A586D
:1091500092F86D20002A3FF49BAE43F648529B568E
:10916000002B05DA012208211648FDF7C5F8F6E6BE
:10917000D1ED007A9FED147AF0EEE77AF4EEC77A3B
:10918000F1EE10FA0CD50E480222112105F016FD61
:1091900000288FD00D4840F6C41109F023F8DEE610
:1091A00043F65055705903681B68984704283FF4EC
:1091B0006FAE705903681B6898471428E3D167E6BF
:1091C000382B0020BC650020000000349085002072
:1091D00008B591ED007AF6EE007AB4EEE77AF1EE9A
:1091E00010FA06DD044801220521FDF785F800206C
:1091F00008BD0420FCE700BFBC6500202DE9F0435A
:109200002DED028B8A7A4B7A43EA0223CA7A43EA2B
:1092100002436D2BA5B005460C4600F0FD8000F220
:10922000E980542B00F0F8810AD8452B00F00D811D
:10923000522B00F06C81214628466BF0F1FA61E177
:10924000562BF8D1CE78352E28BF35263522002171
:1092500014A830F141FF324604F10C0114A830F19A
:1092600013FF43F65053CA4AD05803685B6A9847C5
:10927000002800F04781BDF88040A30500F142813D
:109280000CAE04F0070730461EF008FA3FBBDDE9DC
:1092900015894946404634F055F9002800F0DC8134
:1092A0009DF8841009AA284669F0E6FB002800F022
:1092B000D381DDED177A9FEDB77A099B009367EEB6
:1092C000877A10ADFDEEE77A4A4617EE903A4146AE
:1092D00028461EF003FA95E80F0086E80F000025E7
:1092E00014F0380906950795089513D19FEDA96AE2
:1092F0009DED197ADDED1A7ADDED186A27EE067A12
:1093000067EEC67A66EE866A8DED077ACDED066A5F
:10931000CDED087A14F4E07309950A950B9513D1F5
:109320009FED9C6A9DED1C7ADDED1D7ADDED1B6ADB
:1093300027EE067A67EEC67A66EE866A8DED0A7AC1
:10934000CDED096ACDED0B7A14F4806805BFDFED31
:10935000927A9DED1E0A9FED970A20EE270A04BF20
:10936000DFED8C7A20EE270A14F4006405BFDFEDF0
:109370008A7ADDED1F0ADFED8F0A60EEA70A04BFCF
:10938000DFED847A60EEA70A002F40F05282B9F137
:10939000000F40F06C823046CDED050A8DED040AD9
:1093A0001EF0ACF903289DED040ADDED050A00F07E
:1093B000538110A93046CDED050A8DED040A1095B4
:1093C000119512951EF024FB002800F04581B4FA97
:1093D00084F46409B8FA88F3DDED050A9DED040A0A
:1093E000CDF8049000945B0906AA10A96B480BF015
:1093F000C3FB87E0F32B00F0498217D8872B08D8EE
:10940000852B7FF618AF0A46017C65485DF0F6F8BB
:1094100078E0A62B7FF40FAF08215D4812F08EFD97
:1094200021460246284666F0B7FB6BE0F62B06D0D5
:109430005C4A1A4422F07F42022A3FF6FCAE297CA5
:109440005948224689F0FCFC5CE0514FCA7942F64B
:109450002043FB5E9A4255D1CA780B2A28BF0B22C3
:1094600000260C3114A8CDE91466CDF8576030F110
:109470000BFE42F61E439DF85A20FB5E9A4241D1F4
:10948000BDF95480B0453DDBB2F0F6F9CDE90006F8
:1094900043F60C1104469FED450ABDF95220795858
:1094A0004FF47A73284669F0B3FB0123CDE90043FA
:1094B00043F610119FED3D0ABDF9502079584FF445
:1094C0007A73284669F0A4FBCDE9004643F61411EF
:1094D0009FED370A795833464246284669F098FB93
:1094E000CDE9004643F618119FED300ABDF956202C
:1094F00079584FF47A73284669F08AFB69F04CFC7E
:10950000C0F8A84125B0BDEC028BBDE8F083CD7852
:109510001F4E272D28BF27252722002114A830F110
:10952000DBFD2A4604F10C0114A830F1ADFD43F631
:109530005053F05803685B6A98470028E2D09DF8C2
:10954000764014F0C00FDDD114480AF011FF9DEDF4
:109550001C0A054680B340F22E40B7EE001AFFEE1B
:10956000000A33F05FF8159B1093169B1193179B1D
:10957000129384F00402189B1393DDED1B0A074835
:109580002B46C2F3800210A90AF0FCFEBAE700BF26
:10959000382B00200000C842E02E6542EC860020F7
:1095A00048770020EFD8FF00A08000200000FA4498
:1095B00000007A44000000005FED020A40F23140F2
:1095C000B7EE001A33F02EF8F6EE000AB0EE408A3D
:1095D00032F012FFE8B9B6EE000A44F6F013B4EE2A
:1095E000C08AF1EE10FAF35808DD38EE400A30EE8A
:1095F000008A93ED070A28EE000AB4E730EE480A25
:10960000D3ED087A30EE000AF0EEE77A27EEC00AD2
:10961000A9E71FED180AA6E7CD78352D28BF352517
:109620003522002114A830F157FD2A4604F10C011F
:1096300014A830F129FD43F65053A94AD0580368C5
:109640005B6A984700283FF45DAF9DF88450012D78
:1096500007D0EB1F022B04D90121A2480AF020FEFB
:1096600050E7BDF88040A2053FF54CAF002614F04E
:10967000070709960A960B9627D19FED9B6A9DEDE9
:10968000167ADDED177ADDED156A27EE067A67EEBC
:10969000C67A66EE866AA5F10803012BCDED096A4C
:1096A0008DED0A7ACDED0B7A0CD88D480AAA09A95E
:1096B000FCF766FF8D489DF06FFB014609A837F067
:1096C00033FF02E0EB1F022BF4D914F038080C969C
:1096D0000D960E961CD19FED846A9DED197ADDEDF5
:1096E0001A7ADDED186A27EE067A67EEC67A66EE1C
:1096F000866AA5F10803012BCDED0C6A8DED0D7A7C
:10970000CDED0E7A04D876480DAA0CA9FCF738FFE7
:1097100010961196129614F4E0761CD19FED726AA1
:109720009DED1C7ADDED1D7ADDED1B6A27EE067AD4
:1097300067EEC67A66EE866AA5F10803012BCDEDC9
:10974000106A8DED117ACDED127A04D8644811AA11
:1097500010A9FCF715FF14F4806232D1DFED647AB2
:109760009DED1E0A20EE270ADFED5F7A083D012DF0
:1097700020EE270A8CBF0025012514F4006305BFE5
:10978000DFED5B7ADDED1F0ADFED5A0A60EEA70A16
:1097900004BFDFED557A60EEA70AB7B9B8F1000F44
:1097A00037D1B3FA83F3B2FA82F25B09520901931B
:1097B0000092029510AB0CAA09A94A480BF062F975
:1097C000A0E69FED4C0A0025D7E7B8F1000F0FD1B6
:1097D000B3FA83F35B0901210093B2FA82F3CDE976
:1097E00001515B0910AA0CA93E480AF0E3FE89E684
:1097F000002E7FF431AF0121B3FA83F3B2FA82F283
:10980000CDE900515B09520910A936480AF068FEFB
:1098100078E6002E3FF420AFB3FA83F3B2FA82F277
:10982000CDE900575B09520909A92E480AF040FF0B
:1098300068E6B9F1000F0CD10123B4FA84F4CDE944
:1098400001936409B8FA88F300945B0909AA06A990
:10985000CAE7002B7FF400AF0122CDE90032B4FA51
:1098600084F3B8FA88F25B09520909A9CDE7002B05
:109870003FF4F2AEB4FA84F3B8FA88F200975B09C9
:109880005209314617480AF0FBFF3BE6CD783D2DE3
:1098900028BF3D253D22002114A830F11DFC2A4699
:1098A00004F10C0114A830F1EFFBDDE91465169CFE
:1098B00046EA0503234304D10121094802F08CFB49
:1098C00020E610A81DF0EAFE012210A904480A2390
:1098D000CDE9126594FBF3F4119402F003FB11E659
:1098E000382B0020EC8600200000C84200750020C4
:1098F000E02E65420000000010B590F855130446B4
:1099000021F0D4F8C3B27C2000FB034090F8510052
:1099100010BD0000F0B544F6E816044680599FEDEE
:109920003F0A8BB03C3037F0DFFD0AAACDED080AC4
:109930008DED091A8DED070A12E9070001AD85E8E2
:10994000070004AB9DED030A83E8070032F000FE38
:1099500004F5FB50294610308DED030A44F6EC1750
:1099600013F0E2FA04F56A5043F67051006861584A
:10997000E359A25913F0C4FB4FF48051204612F072
:10998000DDFA002841D0A05903689B68984704F588
:1099900064551C3500F19802A62128465EF028FD8A
:1099A000A0590368DB689847A72100F19802284670
:1099B0005EF01EFDA05903681B699847A82100F1BD
:1099C000980228465EF014FDE259A921284602F5C6
:1099D000F0725EF00DFD2021204612F0AFFAA0B12A
:1099E00043F65053E05803681B69984778B144F632
:1099F000EC16AB21A25928469C325EF0F9FCA25924
:109A0000AC21C43228465EF0F3FC0BB0F0BD20461A
:109A10000BF088FF0028EAD1F7E700BF9F0CB345A1
:109A200010B5044604F5FB5415F0D8FC103415F0BD
:109A300099FC204613F0EEF92046BDE8104013F0E3
:109A400003BB000030B589B004461B22002101A8E9
:109A500030F142FB49F2A353ADF8043006238DF8F0
:109A60000630B1F011FF43F67055CDF8070060598C
:109A7000CDF80B10D0F8DC30CDF80F30CC3062F0E0
:109A800055F80368CDF8133004F57D53303304F5F1
:109A900064501B68CDF8173063591B22D3F8E030AF
:109AA000CDF81B3001A91C305FF0ECFA09B030BDD5
:109AB0007FB50E464FF6FF710446154612F03EFA8A
:109AC000D8B110220021684630F106FB49F2A353B9
:109AD000ADF8003003238DF80230B1F0D5FECDF89B
