:020000040800F2
:1000000000040020E10100081D0F0008210F000876
:10001000750F0008210F0008490F0008E3010008D0
:10002000E3010008E3010008E301000809280008D3
:10003000E3010008E3010008E3010008E301000810
:10004000E3010008E3010008E3010008E301000800
:10005000E3010008E3010008713900089D39000838
:10006000C9390008F5390008213A0008E301000801
:10007000E3010008E3010008E3010008E3010008D0
:10008000E3010008E3010008E3010008E3010008C0
:10009000E3010008E3010008E30100084D3A00080D
:1000A000E3010008E3010008E3010008E3010008A0
:1000B000E3010008E3010008E3010008E301000890
:1000C000E3010008E3010008E3010008E301000880
:1000D000E3010008E30100082511000839110008B8
:1000E000B53A0008E3010008E3010008E301000855
:1000F000E3010008E3010008E3010008E301000850
:10010000E3010008E301000881370008E30100086B
:10011000E3010008E3010008E3010008E30100082F
:10012000E3010008E3010008E3010008E30100081F
:10013000E3010008E3010008E3010008E30100080F
:10014000E3010008E3010008E3010008F52E0008C0
:10015000E3010008E3010008E3010008E3010008EF
:10016000E3010008E3010008E3010008E3010008DF
:10017000E3010008E3010008E3010008E3010008CF
:10018000E3010008E30100084D110008E301000845
:10019000E3010008E3010008E3010008E3010008AF
:1001A000E3010008E3010008E3010008E30100089F
:1001B000E3010008E3010008E3010008E30100088F
:1001C000E3010008E3010008E3010008E30100087F
:1001D000E3010008E3010008E3010008E30100086F
:1001E00002E000F000F8FEE772B6394880F30888B4
:1001F000384880F3098838484EF60851CEF200019D
:10020000086040F20000CCF200004EF63471CEF2ED
:1002100000010860BFF34F8FBFF36F8F40F2000003
:10022000C0F2F0004EF68851CEF200010860BFF334
:100230004F8FBFF36F8F4FF00000E1EE100A4EF6C4
:100240003C71CEF200010860062080F31488BFF3F1
:100250006F8F02F017FB03F029FA4FF055301F495A
:100260001B4A91423CBF41F8040BFAE71C49194A6A
:1002700091423CBF41F8040BFAE71A491A4A1B4B5A
:100280009A423EBF51F8040B42F8040BF8E70020F5
:100290001749184A91423CBF41F8040BFAE702F0B3
:1002A000F5FA03F05FFA144C144DAC4203DA54F83B
:1002B000041B8847F9E700F03FF8114C114DAC42A0
:1002C00003DA54F8041B8847F9E702F0DDBA0000AE
:1002D000000400200024002000000008000000208E
:1002E00000040020583F000800240020282400209B
:1002F00028240020903D0020E0010008E0010008D3
:10030000E0010008E00100082DE9F04F2DED108A12
:10031000C1F80CD0C3689D46BDEC108ABDE8F08FD3
:10032000002383F311882846A047002001F0ECFE4B
:1003300001F09CFE00DFFEE770B5204C092300258C
:1003400023706FF03F061F236570A570E57025715F
:100350006571A571E57125726672A372E57200F090
:10036000FFFC20B10F2325726672A372E57202F0C2
:100370001DFA044602F042FA0546D8B9104B9C42D9
:100380001AD001339C4218BF054641F2883404BF9D
:1003900001250024002002F013FA0DB100F0B6F898
:1003A00000F062FD00F01AFC204600F00DF900F0AC
:1003B000ADF8F9E70024EDE70446EBE72824002038
:1003C000010007B008B500F087FBA0F120035842F8
:1003D000584108BD07B5054B02211B88ADF8043014
:1003E00001A800F0E5FB03B05DF804FB9C3B0008AE
:1003F000064991F8243033B100230822086A81F8B5
:10040000243000F00DBC0120704700BF48240020BC
:100410002DE9F84F234C94F82430054688461746BA
:100420008BBB2E46DFF87C90002F38D094F824A0A8
:10043000BAF1000F05D12022FF214846266200F0C4
:1004400001FDCAF10805BD4228BF3D465FFA85FBA4
:10045000AD0041462A4604EB8A0000F0C9FC94F83E
:100460002430A7EB0B079B445FFA8BFBBBF1080F13
:100470002E44A844FFB284F824B0D5D1FFF7B8FFCA
:100480000028D1D108E0266A06EB8306B042C9D025
:10049000FFF7AEFF0028C4D10020BDE8F88F01208F
:1004A000BDE8F88F4824002010B5202383F311887D
:1004B0001248C3680BB101F0ADFE0023104A0F488B
:1004C0004FF47A7101F06AFE002383F311880D4C1A
:1004D000236813B12368013B2360636813B1636829
:1004E000013B6360084B1B7833B9636823B9022072
:1004F00000F074FC3223636010BD00BF3424002080
:10050000A9040008782500207024002010B5254B90
:10051000254953F8042F013200D110BD8B42F8D188
:10052000224C234B22689A423AD9224B9B6803F112
:10053000006303F580439A4232D2002000F068FB4A
:100540001D4B0220187000F03FFC1C4B1A6C00225F
:100550001A64196E1A66196E596C5A64596E5A6685
:100560005A6E5A6942F080025A615A6922F080023A
:100570005A615A691A6942F000521A611A6922F0E6
:1005800000521A611B6972B60D4A0E4B13601B684C
:100590002268202181F311889D4683F30888104743
:1005A00010BD00BFFC3F00081C40000804400008CC
:1005B000FF3F00082824002070240020003802405B
:1005C00008ED00E0004000082DE9F04F99B0B34C71
:1005D00001902022FF2110A8A66800F033FCB04A49
:1005E0001378A346A3B9AF480121C360117020233B
:1005F00083F31188C3680BB101F00CFE0023AA4AF3
:10060000A8484FF47A7101F0C9FD002383F31188E3
:10061000019B13B1A54B019A1A60A54AA349019FFA
:100620000292002313704B6099461C461D46984663
:10063000012000F0C9FB002F00F012829B4B1B68C9
:10064000002B40F00D8219B0BDE8F08F0220FFF7BB
:10065000B9FE002840F0FB81019BB9F1000F08BFF3
:100660001F46944B1B88ADF82C3002210BA800F0DC
:100670009FFADDE74FF47A7000F02EFA031E039321
:10068000EADB0220FFF79EFE82460028E4D0039BAF
:10069000581E042800F2DD81DFE800F0030E11147B
:1006A000170018A8052340F8343D042100F080FA13
:1006B00054464FF0000856E004217848F6E704213C
:1006C0007D48F3E704217D48F0E71C24204600F034
:1006D000A1FA04340B9004210BA800F069FA2C2C29
:1006E000F4D1E5E7002DB7D0002CB5D00220FFF7FC
:1006F00069FE0546002800F0AF8101206C4C00F037
:1007000087FA0220207000F05FFB4FF000095FFACB
:1007100089FA504600F08CFA074658B1504600F06E
:1007200097FA09F101090028F1D12C46A9460027C2
:10073000634B97E701230220237000F03BFB3E460A
:10074000DBF808309E4206D2304600F063FA0130F2
:10075000EBD10436F4E7029B00261E70534BA946EA
:100760005E602C46374600F075FB15B1002C18BFB3
:100770000027FFF72FFE5BE7002D3FF46DAF002C45
:100780003FF46AAF029B0220187000F01DFB32207C
:1007900000F0A2F9B0F1000AC0F25E811AF0030580
:1007A00040F05A81DBF8082006EB0A03934200F27E
:1007B0005381BAF5807F00F24F8155450DDA4FF431
:1007C0007A7000F089F90490049B002BC0F24481F8
:1007D0003C4A049BAB540135EFE7C820FFF7F2FD1C
:1007E0000546002800F038811F2E11D8C6F12004DC
:1007F000544528BF544610AB26F003002246314929
:10080000184400F0F5FA2246FF212E4800F01AFBAA
:100810004FEAAA0A5FFA8AF22A493046FFF7F8FD42
:100820000446002800F01A8106EB8A0605469AE77E
:100830000220FFF7C7FD00283FF40EAFFFF7D8FDF9
:1008400000283FF409AF4FF0000A5346DBF80820B8
:1008500092451CD2BAF11F0F12D8109A01320FD054
:100860002AF0030218A90A4452F8202C0B921846C9
:1008700004220BA900F092FB0AF1040A0346E5E703
:100880005046039300F0C6F9039B0B90EFE718A8BE
:10089000042140F84C3D00F08BF964E72824002047
:1008A0007425002034240020A904000878250020A5
:1008B000702400209E3B00082C24002030240020BF
:1008C000A03B00087424002018A8002340F8343D01
:1008D000642100F039F900287FF4BEAE0220FFF752
:1008E00071FD00283FF4B8AE0B9800F0C3F918ABC7
:1008F00043F8480D04211846CDE718A8002340F816
:10090000343D642100F020F900287FF4A5AE0220D8
:10091000FFF758FD00283FF49FAE0B9800F0B8F9A0
:1009200018AB43F8440DE5E70220FFF74BFD002824
:100930003FF492AE00F0B2F918AB43F8400DD9E79E
:100940000220FFF73FFD00283FF486AE0BA91420DC
:1009500000F0AAF9824618A8042140F83CAD00F046
:1009600027F951460BA896E7322000F0B5F8B0F110
:10097000000AFFF671AE1AF0030F7FF46DAEDBF8DC
:1009800008200AEB080393423FF666AE0220FFF709
:1009900019FD00283FF460AE2AF0030AC244D04596
:1009A0003FF4E1AE404600F035F904210A900AA870
:1009B00000F0FEF808F10408F1E74FF47A70FFF751
:1009C00001FD00283FF448AEFFF712FD00283FF478
:1009D000AFAE109B01330CD0082210A90020FFF706
:1009E00017FD00283FF4A4AE2022FF2110A800F03C
:1009F00029FAFFF7EFFC374801F08CFB23E6002DC6
:100A00003FF42AAE002C3FF427AE18A8002340F88C
:100A1000343D642100F098F8824600287FF41CAE33
:100A20000220FFF7CFFC00283FF416AE0390FFF73B
:100A3000D1FC41F2883001F06DFB0B9800F04EFACA
:100A400000F008FA039B57461C461D46F0E5054694
:100A500089E64FF00008FFE52546FDE52C4667E6F0
:100A6000002000F039F80490049B002BFFF6E3AD62
:100A7000012000F09FF9049B213B122B3FF6D8ADDB
:100A800001A252F823F000BF4D06000875060008C9
:100A9000E5060008310600083106000831060008A6
:100AA000790700086909000831080008C90800082A
:100AB000FB08000829090008310600084109000860
:100AC00031060008BB090008670700083106000866
:100AD000FF090008A08601002DE9F34702AE0024BB
:100AE0004FF47A7506F8014D144FDFF858804543EE
:100AF00097F900305A1C5FFA84F901D0A34212D151
:100B000058F8240003680122D3F820A031462B4670
:100B1000D047012807D10A4B9DF8070083F80090C1
:100B200002B0BDE8F0870134042CE1D14FF4FA7033
:100B300001F0F0FA4FF0FF30F2E700BF0024002090
:100B400098250020F43B00082DE9F0474FF47A7512
:100B5000144FDFF8588006464D43002497F90030C3
:100B60005A1C5FFA84F901D0A34210D158F824002E
:100B700003680422D3F820A031462B46D04704282E
:100B800005D1094B83F800900020BDE8F0870134BF
:100B9000042CE3D14FF4FA7001F0BCFA4FF0FF30AF
:100BA000BDE8F0870024002098250020F43B0008D1
:100BB00030B4074B1A78074B53F822402368DD699D
:100BC000054B0A46AC460146204630BC604700BF94
:100BD00098250020F43B0008A086010070B501F0C4
:100BE000E1FC094C094E20700025306823788342CF
:100BF00008D901F0D1FC336805440133B5F5804FC5
:100C00003360F2D370BD00BF9925002080250020FD
:100C100001F07EBD00F1006000F580400068704783
:100C200000F10060920000F5804001F009BD000075
:100C3000054B1A68054B1B789B1A834202D9104456
:100C400001F0AABC002070478025002099250020D3
:100C500038B5074D04462868204401F0A5FC28B9A2
:100C600028682044BDE8384001F0B6BC38BD00BF5C
:100C70008025002010F0030308D1B0F5007F05D8CF
:100C800000F10050A0F50840006870470020704750
:100C9000014BC058704700BF107AFF1F014B186806
:100CA000704700BF002004E070B52A4B1C68C4F3F5
:100CB0000B03240C63B140F21342934231D040F253
:100CC000194293422FD040F2214293422DD1032367
:100CD000214A0C2505FB03235D6893F9082042F2A5
:100CE00001039C4224D0B4F5805F23D041F201037C
:100CF0009C4221D041F203039C421FD041F20703E2
:100D00009C4208BF3122441E0C44013D0B46A342C5
:100D10001ED215F9016F581C96B1034600F8016CFC
:100D2000F5E70123D4E70223D2E73F220B4DD6E7B4
:100D30003322E3E74122E1E75A22E4E75922E2E7DE
:100D40002C2584421D7001D9981C5A70401A70BD20
:100D50001846FBE7002004E0C43B0008A43B000861
:100D6000124B5A8842F201018A4293B214D0B3F571
:100D7000805F13D041F20102934211D041F203028D
:100D800093420FD041F2070293420DD10423084A47
:100D900002EB8303D87870470023F8E70123F6E7D6
:100DA0000223F4E70323F2E700207047002004E069
:100DB000B03B0008022802BF024B4FF480529A61F8
:100DC000704700BF00100240022802BF024B4FF0E4
:100DD00080529A61704700BF00100240022801BF94
:100DE000024A536983F480535361704700100240F4
:100DF00010B50023934203D0CC5CC4540133F9E70F
:100E000010BD000030B5441E14F9010F0B4660B14F
:100E100093F90050854201F1010106D11AB993F905
:100E20000020801A30BD013AEEE7002AF7D11046C3
:100E300030BD000002460346981A13F9011B002931
:100E4000FAD1704702440346934202D003F8011BD3
:100E5000FAE77047024B1A78024B1A70704700BFCE
:100E60009825002000240020F8B5164C1648174D90
:100E7000174E154F00F096FC2146134800F0BEFCBB
:100E800024681448626D936B23F40023936301F08C
:100E900041F92046104900F0BDFD626D936B43F4AB
:100EA000002393634FF4E1332B60002456F82400B1
:100EB000B84202D0294600F0D3FB0134042CF5D10E
:100EC000F8BD00BFDC3C00089433002084250020DE
:100ED000F43B000840420F00043D000838B50B4BBE
:100EE0001A780B4B53F822400A4B9C4205460CD013
:100EF000094B002118461422FFF7A4FF05600146A4
:100F00002046BDE8384000F0ABBB38BD9825002036
:100F1000F43B00089433002084250020FEE7000005
:100F200000B59BB0EFF3098168226846FFF760FFC8
:100F3000EFF30583034B9A6B9A6A9A6A9A6A9A6AE4
:100F40009B6AFEE700ED00E000B59BB0EFF309817E
:100F500068226846FFF74CFFEFF30583044B9A6B5A
:100F60009A6A9A6A9A6A9A6A9A6A9B6AFEE700BFC4
:100F700000ED00E000B59BB0EFF309816822684600
:100F8000FFF736FFEFF30583034B5A6B9A6A9A6AB1
:100F90009A6A9A6A9B6AFEE700ED00E030B5084D58
:100FA0000A4491420BD011F8013B09245840013CFE
:100FB000F7D040F300032B4083EA5000F7E730BD41
:100FC0002083B8ED002304491A465A50C818083344
:100FD000802B4260F9D170479C250020026843684D
:100FE0001143016003B1184770470000024AD368FB
:100FF00043F0C003D360704700440040024AD36806
:1010000043F0C003D360704700480040024AD368F1
:1010100043F0C003D3607047007800402DE9F041F1
:10102000D0F85C64F7683368DA0505469CB20DD5E4
:10103000202383F311884FF400710430FFF7CEFFB3
:101040006FF480733360002383F31188202383F3CC
:10105000118805F1040814F02F0333D183F31188AC
:10106000380615D5210613D5202383F3118805F101
:10107000380000F053FA002846DA0821281DFFF74F
:10108000ADFF4FF67F733B40F360002383F311887D
:101090007A060ED563060CD5202383F31188EA6CFB
:1010A0002B6D9A4202D12B6C002B2FD1002383F39E
:1010B0001188D5F86424D368002B31D01069BDE8BD
:1010C000F0411847230713D014F0080F0CBF00217C
:1010D0008021E00748BF41F02001A20748BF41F04E
:1010E0004001630748BF41F480714046FFF776FF37
:1010F000A406736805D595F860142846194000F0D9
:10110000BDFA3468A4B2A6E77060BEE727F04007D6
:101110003F041021281D3F0CFFF760FFF760C5E773
:10112000BDE8F08108B50348FFF778FFBDE8084047
:1011300001F07ABB1C26002008B50348FFF76EFFBC
:10114000BDE8084001F070BB842A002008B50348C0
:10115000FFF764FFBDE8084001F066BBEC2E0020FD
:1011600010B50E4C0E4A2046002100F057FA0D4BE8
:10117000C4F85C340C4C0D4A2046002100F04EFAB5
:101180000B4BC4F85C340B4C0B4A0021204600F09A
:1011900045FA0A4BC4F85C3410BD00BF1C26002081
:1011A000ED0F000800440040842A0020FD0F0008D5
:1011B00000480040EC2E00200D1000080078004090
:1011C00038B5394D037C002918BF0D46012B044664
:1011D000C0F8645410D1354B984242D1344B1A6C4C
:1011E00042F400321A641A6E42F400321A661B6E20
:1011F0000B21262000F06AF82E4BD4F85C249A428A
:101200002B6802D02C498A424BD12C4901EB530167
:10121000B1FBF3F3A988080442BF23F0070003F0F1
:10122000070343EA40039360EB8843F040039BB21B
:1012300013612B8943F001039BB2536141F40453C2
:1012400043F02C03D36001F4A05100231360B1F5E7
:10125000806F136853680CBF7F23FF2384F86034CA
:1012600038BD174B98420CD1114B1A6C42F48022B6
:101270001A641A6E42F480221A661B6E0B21272014
:10128000B8E7104B9842B7D1094B1A6C42F0804234
:101290001A641A6E42F080421A661B6E0B215220AD
:1012A000A8E70949B2E700BF243C00081C2600203B
:1012B00000380240001001400014014000BD01054B
:1012C000842A0020EC2E002080DE800200F16043A2
:1012D00000F01F02400903F5614309018000C9B213
:1012E00000F1604083F8001300F561400123934052
:1012F000C0F8803103607047F8B51546826806690A
:10130000AA420B46816938BF8568761AB542044601
:1013100007D218462A46FFF76BFDA3692B44A36149
:101320000DE011D932461846FFF762FDAF1B3A4671
:10133000E1683044FFF75CFDE2683A44A261A368CB
:101340005B1BA3602846F8BD18462A46FFF750FDF0
:10135000E368E4E783682DE9F041044693421546CB
:10136000266938BF85684069361AB5420F4606D2ED
:101370002A46FFF73DFD63692B4463610DE012D9F6
:101380003246A5EB0608FFF733FD4246B919E0687F
:10139000FFF72EFDE26842446261A3685B1BA36015
:1013A0002846BDE8F0812A46FFF722FDE368E4E71E
:1013B00010B50A440024C361029B00604060846051
:1013C000C160816141610261036210BD08B582693B
:1013D0004369934201D1826882B982680132826096
:1013E0005A1C42611970426903699A4201D3C36869
:1013F0004361002100F0AAFE002008BD4FF0FF303D
:1014000008BD000070B5202304460E4683F3118802
:10141000A568A5B1A368A269013BA360531CA361A1
:1014200015782269934224BFE368A361E3690BB195
:1014300020469847002383F31188284670BD314623
:10144000204600F073FE0028E2DA85F3118870BDB3
:101450002DE9F74F05460F4690469A46D0F81C9066
:10146000202686F311884FF0000B144664B1224603
:1014700039462846FFF740FF034668B951462846DB
:1014800000F054FE0028F1D0002383F31188A8EB6C
:10149000040003B0BDE8F08FB9F1000F03D0019054
:1014A0002846C847019B8BF31188E41A1F4486F332
:1014B0001188DBE7C16081614161C3611144009B18
:1014C000006040608260016103627047F8B50446C5
:1014D0000E461746202383F31188A568A5B1A3689B
:1014E000013BA36063695A1C62611E7023696269D3
:1014F0009A4224BFE3686361E3690BB120469847D1
:10150000002080F31188F8BD3946204600F00EFE19
:101510000028E2DA85F31188F8BD0000836942698A
:101520009A4210B501D182687AB98268013282602C
:101530005A1C82611C7803699A4201D3C368836193
:10154000002100F003FE204610BD4FF0FF3010BD1B
:101550002DE9F74F05460F4690469A46D0F81C9065
:10156000202686F311884FF0000B144664B1224602
:1015700039462846FFF7EEFE034668B9514628462D
:1015800000F0D4FD0028F1D0002383F31188A8EBEC
:10159000040003B0BDE8F08FB9F1000F03D0019053
:1015A0002846C847019B8BF31188E41A1F4486F331
:1015B0001188DBE7026843681143016003B11847F3
:1015C000704700001430FFF743BF00004FF0FF33B7
:1015D0001430FFF73DBF00003830FFF7B9BF0000FF
:1015E0004FF0FF333830FFF7B3BF00001430FFF780
:1015F00009BF00004FF0FF311430FFF703BF0000B8
:101600003830FFF763BF00004FF0FF323830FFF78C
:101610005DBF000000207047FFF7A2BD37B50F4B3C
:101620000360002343608360C360012304460374A6
:10163000154600900B464FF4007200F15C01143027
:10164000FFF7B6FE00942B464FF4007204F51771B5
:1016500004F13800FFF72EFF03B030BD383C00081E
:1016600010B52023044683F31188FFF7A9FD022358
:101670002374002383F3118810BD000038B5C369BB
:1016800004460D461BB904210844FFF793FF294681
:1016900004F11400FFF79AFE002806DA201D4FF42B
:1016A0008061BDE83840FFF785BF38BD02684368F8
:1016B0001143016003B118477047000013B5446B34
:1016C000D4F894341A681178042915D1217C0229A0
:1016D00012D11979128901238B4013420CD101A92F
:1016E00004F14C0001F056FED4F89444019B21799A
:1016F0000246206800F0DAF902B010BD143001F0A3
:10170000D9BD00004FF0FF33143001F0D3BD00000D
:101710004C3001F0ABBE00004FF0FF334C3001F015
:10172000A5BE0000143001F0A7BD00004FF0FF314E
:10173000143001F0A1BD00004C3001F077BE000074
:101740004FF0FF324C3001F071BE0000D0F894240D
:1017500038B5136819780429054601D0012038BD31
:10176000017C0229FAD112795C8901209040044061
:10177000F4D105F1140001F039FD02460028EDD046
:10178000D5F894544FF480732868697900F07CF997
:10179000204638BD406BFFF7D9BF000000207047DE
:1017A000704700007FB5124B0360002343608360E5
:1017B000C360012502260F4B057404460290019375
:1017C00000F18402294600964FF48073143001F032
:1017D000E9FC094B0193029400964FF4807304F5E1
:1017E0002372294604F14C0001F0B0FD04B070BD35
:1017F000603C000895170008BD1600080B68202201
:1018000082F311880A7903EB820290614A790932E6
:1018100043F822008A7912B103EB82039861022314
:101820000374C0F89414002383F3118870470000F8
:1018300038B5037F044613B190F85430ABB9201D7E
:1018400001250221FFF732FF04F1140025776FF024
:10185000010100F087FC84F8545004F14C006FF053
:101860000101BDE8384000F07DBC38BD10B5012154
:1018700004460430FFF71AFF0023237784F854301E
:1018800010BD000038B504460025143001F0A2FC5C
:1018900004F14C00257701F071FD201D84F85450AF
:1018A0000121FFF703FF2046BDE83840FFF74EBF98
:1018B00090F8443003F06003202B19D190F84520B4
:1018C000212A0AD0222A4FF000030ED0202A0FD15D
:1018D000084A82630722C26304E0064B836307233E
:1018E000C36300230364012070478363C363F9E784
:1018F0000020704701240020D0F8943437B51A68CE
:101900001178042904461AD1017C022917D11979CA
:10191000128901238B40134211D100F14C05284656
:1019200001F0ECFD58B101A9284601F033FDD4F8CF
:101930009444019B21790246206800F0B7F803B077
:1019400030BD000000EB8103F7B59C6905460E46EB
:10195000F4B1202383F3118805EB8607201D0821AD
:10196000FFF7A4FEFB685B691B684C3413B120468B
:1019700001F01EFD01A9204601F00CFD024648B110
:10198000019B3146284600F091F8002383F311882B
:1019900003B0F0BDFB685A691268002AF5D01B8AB3
:1019A000013B1340F1D105F14402EAE7093138B5B2
:1019B00050F82140DCB1202383F31188D4F894241B
:1019C0001368527903EB8203DB689B695D6845B15C
:1019D00004216018FFF76AFE294604F1140001F0A3
:1019E0000FFC2046FFF7B2FE002383F3118838BDB9
:1019F0007047000000F0D0BF012303700023436054
:101A0000C36183620362C3624362036303814381F0
:101A10007047000038B50446202383F31188002561
:101A20004160C56005614561856100F0C5FF022325
:101A3000237085F3118838BD70B500EB810305462E
:101A40005069DA600E46144618B110220021FFF7E3
:101A5000F9F9A06918B110220021FFF7F3F9314616
:101A60002846BDE8704001F071B80000028902F01C
:101A700001020281428902F00102428100220261D8
:101A80004261826101F0F6B8F0B400EB810447894D
:101A9000E4680125A4698D403D434581236000230E
:101AA000A2606360F0BC01F011B90000F0B400EB7B
:101AB00081040789E468012564698D403D430581FF
:101AC00023600023A2606360F0BC01F08BB90000CA
:101AD00070B50223002504460370A0F84C5080F82E
:101AE0004E5080F84F5005814581C56005614561C4
:101AF000856180F8345000F0C5FF63681B6823B12E
:101B000029462046BDE87040184770BD43680278FA
:101B10001B6880F85020052202700BB10421184781
:101B200070470000436890F850201B6802700BB1AA
:101B3000052118477047000090F8343070B504460E
:101B400013B1002380F8343004F14402204601F040
:101B5000B3F863689B6863BB94F8445015F0600663
:101B600015D194F8453005F07F0545EA032540F28C
:101B700002339D4200F00E815BD8022D00F0DC8024
:101B80003FD8002D00F08780012D00F0CF8000218C
:101B9000204601F0E9FA0021204601F0DBFA6368F3
:101BA0001B6813B1062120469847062384F8343079
:101BB00070BD204698470028CED094F84B2094F86A
:101BC0004A3043EA0223E26B934238BFE36394F95D
:101BD0004430E56B002B4FF0200380F2FD80002D98
:101BE00000F0EC80092284F8342083F3118800216E
:101BF000E36BA26B2046FFF759FF002383F31188A4
:101C000070BDB5F5817F00F0B180B5F5407F49D05A
:101C1000B5F5807FBBD194F84630012BB7D1B4F82D
:101C20004C3023F00203A4F84C30A663E66326642C
:101C3000C3E740F201639D421ED8B5F5C06F3BD2A9
:101C4000B5F5A06FA3D1B4F84430B3F5A06F0ED1B1
:101C500094F8463084F84E30204600F06BFF6368FD
:101C60001B6813B1012120469847032323700023EA
:101C7000A363E3632364A0E7B5F5106F32D040F6A9
:101C800002439D4252D0B5F5006F80D104F14F035D
:101C9000A363012324E004F14C03A3630223E36361
:101CA00025648AE794F84630012B7FF470AFB4F8CE
:101CB0004C3043F00203B6E794F84920616894F889
:101CC00048304D6894F8471043EA0223204694F8C0
:101CD0004620A84700283FF45AAF4368A36303682F
:101CE000E363A4E72378042B10D1202383F3118826
:101CF0002046FFF7BBFE86F31188636884F84F60C7
:101D00001B68032121700BB12046984794F8463098
:101D1000002BACD084F84F300423237063681B6819
:101D2000002BA4D0022120469847A0E7374BA3639D
:101D30000223E36300239DE794F8481011F0800F1D
:101D4000204601F00F010ED000F0A8FF012806D0B8
:101D500002287FF41CAF2E4BA363E06367E72D4B93
:101D6000A363E56363E700F08BFFEFE794F8463089
:101D7000002B7FF40CAF94F8483013F00F013FF4C0
:101D800076AF1A06204602D501F002FA6FE701F09D
:101D9000F5F96CE794F84630002B7FF4F8AE94F830
:101DA000483013F00F013FF462AF1B06204602D506
:101DB00001F0DAF95BE701F0CDF958E7142284F875
:101DC000342083F311882B462A4629462046FFF704
:101DD0005BFE85F3118870BD5DB1152284F8342057
:101DE00083F311880021E36BA26B2046FFF74CFEC2
:101DF00003E70B2284F8342083F311882B462A460C
:101E000029462046FFF752FEE3E700BF903C00085A
:101E1000883C00088C3C000838B590F83430044603
:101E2000152B29D8DFE803F03E28282828283E284B
:101E3000280B293928282828282828283E3E90F8C9
:101E40004B1090F84A20C36B42EA01229A4214D9FF
:101E5000C268128AB3FBF2F502FB15356DB9202377
:101E600083F311882B462A462946FFF71FFE85F388
:101E700011880A2384F8343038BD142384F83430B0
:101E8000202383F3118800231A4619462046FFF7C2
:101E9000FBFD002383F3118838BD036C03B1984721
:101EA0000023E7E7002101F05FF90021204601F05F
:101EB00051F963681B6813B1062120469847062331
:101EC000D8E7000090F83420152A38B5044622D807
:101ED0000123934040F6416213421DD113F4801553
:101EE0000FD19B0217D50B2380F83430202383F3C6
:101EF00011882B462A462946FFF7D8FD85F311881D
:101F000038BDC3689B695B682BB9036C03B1984704
:101F1000002384F8343038BD002101F025F9002178
:101F2000204601F017F963681B6813B106212046AB
:101F300098470623EDE70000024B00221B605B6020
:101F40009A60704754330020002303748268054B65
:101F50001B6899689142FBD25A6803604260106026
:101F6000586070475433002008B5202383F311884C
:101F7000037C032B05D0042B0DD02BB983F31188E0
:101F800008BD436900221A604FF0FF334361FFF739
:101F9000DBFF0023F2E790E80C001A600268536050
:101FA000F2E70000002303748268054B1B68996800
:101FB0009142FBD85A6803604260106058607047D5
:101FC00054330020054B19690874186802681A60B8
:101FD0005360186101230374FEF796B9543300204F
:101FE00030B54B1C87B005460A4C10D023690A4A0D
:101FF00001A800F0D3F82846FFF7E4FF049B13B1D3
:1020000001A800F007F92369586907B030BDFFF750
:10201000D9FFF8E754330020691F000838B50C4D8C
:1020200041612B6981689A689142044603D8BDE8F2
:102030003840FFF789BF1846FFF786FF01232C6160
:10204000014623742046BDE83840FEF75DB900BF65
:1020500054330020044B1A681B6990689B689842AF
:1020600094BF0020012070475433002010B5084C65
:10207000236820691A6822605460012223611A745F
:10208000FFF790FF01462069BDE81040FEF73CB91C
:10209000543300208260022202740022427470478E
:1020A0008368A3F17C0243F80C2C026943F83C2CB2
:1020B000426943F8382C074A43F81C2CC26843F89D
:1020C000102C022203F8082C002203F8072CA3F19D
:1020D000180070472103000810B5202383F31188EE
:1020E000FFF7DEFF00210446FFF798FF002383F38C
:1020F0001188204610BD0000024B1B6958610F205B
:10210000FFF760BF54330020202383F31188FFF7CB
:10211000F3BF000008B50146202383F3118808208F
:10212000FFF75EFF002383F3118808BD49B1064B1A
:1021300042681B6918605A60136043600420FFF70F
:102140004FBF4FF0FF307047543300200368984270
:1021500006D01A680260506059611846FFF7F4BE55
:102160007047000038B504460D462068844200D10F
:1021700038BD036823605C604561FFF7E5FEF4E766
:10218000054B03F114025A619A614FF0FF32DA6194
:1021900000221A62704700BF54330020F8B5036173
:1021A0001A4BC2605C6A1A4B1A46022952F8145F35
:1021B00038BF0221954206461F460AD158619861F0
:1021C0001C620560456081600819BDE8F84001F0B7
:1021D000B7B9186AAB68241A0C1902D3E41A2D682F
:1021E00004E09C4202D2204401F0BAF9AB689C4260
:1021F000F4D86B68736035601E606E60B460A96867
:102200004FF0FF33091BA960FB61F8BD000C0040D3
:102210005433002010B41A4C234653F8141F814243
:1022200010D0416802680A60026851609A424FF01B
:102230000001C16003D0936881680B4493605DF82E
:10224000044B70470A68626100209A425360C8607C
:1022500003D15DF8044B01F07DB9936888680344AD
:102260009360084A206A526A121A9342E7D9991A6F
:10227000012998BF931C18445DF8044B01F070B914
:1022800054330020000C004000207047FEE700009F
:10229000704700004FF0FF3070470000022906D061
:1022A000032906D00129064818BF002070470548B9
:1022B0007047032A9ABF044800EBC2000020704711
:1022C000603D0008143D00080824002070B59AB055
:1022D00001AD064608462946144600F095F8284602
:1022E000FEF7A8FDC0B2431C5B0086E8180023700F
:1022F00003236370002302341946DAB2904204F1DA
:10230000020401D81AB070BDEA5C04F8022C04F88B
:10231000011C0133F1E7000008B5202383F3118885
:102320000348FFF7E9FA002383F3118808BD00BFD3
:102330009433002010B50446052916D8DFE801F0D3
:1023400016150316161D202383F311880E4A01214A
:10235000FFF772FB20460D4A0221FFF76DFB0C4888
:10236000FFF790FA002383F3118810BD202383F335
:1023700011880748FFF75CFAF4E7202383F31188FC
:102380000348FFF773FAEDE7943C0008B83C0008F7
:102390009433002038B50C4D0C4C0D492A4604F1FD
:1023A0000800FFF793FF05F1CA0204F11000094984
:1023B000FFF78CFF05F5CA7204F118000649BDE865
:1023C0003840FFF783BF00BF5C380020082400209E
:1023D000E43C0008EE3C0008F93C000870B50446F7
:1023E00008460D46FEF726FDC6B2204601340378A6
:1023F0000BB9184670BD32462946FEF703FD00288A
:10240000F3D1012070BD00002DE9F84F05460C46C0
:10241000FEF710FD2A49C6B22846FFF7DFFF08B1D4
:10242000023EF6B227492846FFF7D8FF08B110361A
:10243000F6B2632E0DD8DFF88890DFF888A0224F1F
:10244000DFF88CB0DFF88C802E7846B92670BDE8B6
:10245000F88F29462046BDE8F84F01F097BB252E9E
:1024600029D1072249462846FEF7CCFC40B9D8F8C6
:102470000030236098F80430237107350534E3E712
:10248000082251462846FEF7BDFCA0B90F4BA21CFE
:1024900013F8011F09095B45C95D02F8021C197890
:1024A00001F00F0102F10202C95D02F8031CEFD135
:1024B00018340835C8E7267001350134C4E700BF79
:1024C000803D0008F93C00088E3D00080F7AFF1F90
:1024D0001B7AFF1F883D0008BFF34F8F024AD36865
:1024E000DB03FCD4704700BF003C024008B5094B39
:1024F0001B7873B9FFF7F0FF074B1A69002ABFBFBB
:10250000064A5A6002F188325A601A6822F48062E0
:102510001A6008BDBA3A0020003C0240230167451A
:1025200008B50B4B1B7893B9FFF7D6FF094B1A6917
:1025300042F000421A611A6842F480521A601A6826
:1025400022F480521A601A6842F480621A6008BD50
:10255000BA3A0020003C0240172870B513D80B4A45
:102560000B4C137863B90B4E4FF0006144F8231005
:1025700056F823500133182B2944F7D10123137047
:1025800054F8200070BD002070BD00BF1C3B00202F
:10259000BC3A0020A03D0008014B53F820007047D2
:1025A000A03D000818207047172810B5044601D92F
:1025B000002010BDFFF7D0FF064B53F8243018441D
:1025C000C21A0BB9012010BD12680132F0D1043BD0
:1025D000F6E700BFA03D0008172810B5044629D82B
:1025E000FFF77AFFFFF782FF1349F323CB600C2339
:1025F000B0FBF3F203FB1200D30143EAC003DBB2EA
:1026000043F4007343F002030B610B6943F480331E
:102610000B61FFF761FF2046FFF79EFF074B53F862
:10262000241000F0DDF8FFF77BFF2046BDE81040E6
:10263000FFF7BABF002010BD003C0240A03D0008DB
:102640002DE9F84312F00103154640D18218B2F18A
:10265000026F3CD22C4B1B6813F0010337D02B4C7C
:10266000FFF744FFF323E360FFF736FF40F2012753
:10267000032D01D9830713D0244C0F46401A40F292
:102680000118EB1B0B44012B00EB0706236924D830
:1026900023F001032361FFF743FF0120BDE8F88326
:1026A000236923F44073236123693B43236151F879
:1026B000046B0660BFF34F8FFFF70EFF03689E4267
:1026C00008D0236923F001032361FFF729FF0020CD
:1026D000BDE8F883043D0430CAE723F44073236166
:1026E000236943EA08032361B94637F8023B338084
:1026F000BFF34F8FFFF7F0FE3688B9F80030B6B25F
:10270000B342BED0DDE700BF00380240003C0240CB
:10271000084908B50B7828B153B9FFF7E7FE012344
:102720000B7008BD23B1BDE808400870FFF7F8BE84
:1027300008BD00BFBA3A002010B50244064B043968
:10274000D2B2904200D110BD441C00B253F8200018
:1027500041F8040FE0B2F4E750280040104B30B5C8
:102760001C6F240407D41C6F44F400741C671C6F96
:1027700044F400441C670B4C236843F480732360CB
:102780000244094B0439D2B2904200D130BD441CFE
:1027900000B251F8045F43F82050E0B2F4E700BF04
:1027A00000380240007000405028004007B5012268
:1027B00001A90020FFF7C0FF019803B05DF804FBFA
:1027C00013B50446FFF7F2FFA04206D002A901228A
:1027D00041F8044D0020FFF7C1FF02B010BD00001A
:1027E00070470000034B1B689B0042BF024B012255
:1027F0001A707047743802401D3B0020014B187856
:10280000704700BF1D3B0020064A536823F00103B8
:102810005360EFF30983683383F30988002383F35C
:102820001188704730EF00E010B5202383F3118842
:10283000104B5B6813F4006318D0F1EE103AEFF31D
:1028400009844FF0807344F84C3C0B4BDB6844F830
:10285000083CA4F1680383F30988FFF7FBFB18B178
:10286000064B44F8503C10BD054BFAE783F3118842
:1028700010BD00BF00ED00E030EF00E031030008C4
:102880003403000870470000FEE70000084A094BC7
:1028900009498B4204D3094A0021934205D370476A
:1028A00052F8040F43F8040BF3E743F8041BF4E772
:1028B0007C3F0008903D0020903D0020903D00208E
:1028C000836D30B500229D68446D11464FF0FF3096
:1028D00004EB421301329542C3F80019C3F81019F2
:1028E000C3F80809C3F8001BC3F8101BC3F8080B92
:1028F000EED24FF00113C4F81C3830BD890141F00D
:102900002001016103699B06FCD4122000F0B4BED3
:10291000204B03EB80022DE9F047D2F80CE05D6D0F
:10292000DEF81420461CD2F800C005EB063605EB95
:102930004018516861450BD3D5F83428012303FAB8
:1029400000F022EA0000C5F834081846BDE8F08718
:10295000BEF81040ACEB0103A34228BF2346D8F8D1
:102960001849A4B2B3EB840F10D894681F46A4F1A1
:10297000040959F804AFC6F800A0042F01D9043F98
:10298000F7E71C440B4494605360D2E70020BDE895
:10299000F08700BF203B002010B5054C2046FFF714
:1029A0002BF84FF0A0436365024BA36510BD00BF39
:1029B000203B0020243E00080378012B70B505461B
:1029C00050D12A4B446D98421BD1294B5A6B42F08F
:1029D00080025A635A6D42F080025A655A6D5A69F4
:1029E00042F080025A615A6922F080025A610E2137
:1029F00043205B69FEF76AFC1E4BE3601E4BC4F884
:102A000000380023C4F8003EC02323606E6D4FF4ED
:102A10005023A3633369002BFCDA012333610C20BC
:102A200000F02AFE3369DB07FCD4122000F024FEFC
:102A30003369002BFCDA0026A6602846FFF740FF2A
:102A40006B68C4F81068DB68C4F81468C4F81C68C4
:102A50004BB90A4BA3614FF0FF336361A36843F0A6
:102A60000103A36070BD064BF4E700BF203B0020CC
:102A7000003802404014004003002002003C30C0F7
:102A8000083C30C0F8B5446D054600212046FFF7EC
:102A900035FFA96D00234FF001128F68C4F8343858
:102AA0004FF00066C4F81C284FF0FF3004EB4312CF
:102AB00001339F42C2F80069C2F8006BC2F80809EE
:102AC000C2F8080BF2D20B686A6DEB6563621023E3
:102AD0001361166916F01006FBD1122000F0CCFD30
:102AE000D4F8003823F4FE63C4F80038A36943F433
:102AF000402343F01003A3610923C4F81038C4F83D
:102B000014380A4BEB604FF0C043C4F8103B084B3D
:102B1000C4F8003BC4F81069C4F80039EB6D03F148
:102B2000100243F48013EA65A362F8BD003E00087A
:102B300040800010426D90F84E10D2F8003823F417
:102B4000FE6343EA0113C2F8003870472DE9F041F3
:102B50000EB200EB86080D46D8F80C100F6807F08F
:102B60000303022B50D0032B50D03D4A3D4F012B85
:102B700018BF1746446D4FEA451E04EB0E030022B2
:102B8000C3F8102B8A6905F1100C002A40D04A8A3C
:102B900005F158035B013A43E2500123D4F81C28A5
:102BA00003FA0CF31343A6444A69C4F81C38002303
:102BB000CEF8103905F13F03002A39D00A8A898BF3
:102BC0009208012988BF4A43C16D04EB830356185C
:102BD00041EA0242C66529465A602046FFF78EFE4A
:102BE000D8F80C301B8A43EA85531F4305F148038C
:102BF0005B01E7500123D4F81C2803FA05F51543BF
:102C0000C4F81C58BDE8F081174FB3E7174FB1E780
:102C100004EB4613D3F8002B22F40042C3F8002B38
:102C2000D4F81C28012303FA0CF322EA0303BAE7C1
:102C300004EB83030E4A5A6004EB461629462046ED
:102C4000FFF75CFED6F8003923F40043C6F80039DC
:102C5000D4F81C38012202FA05F523EA0505CFE76E
:102C600000800010008004100080081000800C100C
:102C700000040002826D1268C265FFF721BE0000E9
:102C80005831436D49015B5813F4004004D013F4EC
:102C9000001F14BF01200220704700004831436D1F
:102CA00049015B5813F4004004D013F4001F14BF13
:102CB000012002207047000000EB8101CB68196AF7
:102CC0000B6813604B6853607047000000EB810392
:102CD00030B5DD68AA691368D36019B9402B84BF89
:102CE000402313606B8A1468426D1C44013CB4FBA2
:102CF000F3F46343033323F0030302EB411043EA8D
:102D0000C44343F0C043C0F8103B2B6803F00303F7
:102D1000012B09B20ED1D2F8083802EB411013F49E
:102D2000807FD0F8003B14BF43F0805343F0005342
:102D3000C0F8003B02EB4112D2F8003B43F00443E1
:102D4000C2F8003B30BD00002DE9F041244D6E6D0E
:102D500006EB40130446D3F8087BC3F8087B38071A
:102D60000AD5D6F81438190706D505EB8403214691
:102D7000DB6828465B689847FA072FD5D6F81438E1
:102D8000DB072BD505EB8403D968CCB98B69488A5E
:102D90005E68B6FBF0F200FB12628AB91868DA6866
:102DA00090420DD2121A83E81400202383F3118875
:102DB0000B482146FFF78AFF84F31188BDE8F081B4
:102DC000012303FA04F26B8923EA02036B81CB68C7
:102DD00023B121460248BDE8F0411847BDE8F08123
:102DE000203B002000EB810370B5DD68436D6C690A
:102DF0002668E6604A0156BB1A444FF40020C2F828
:102E000010092A6802F00302012A0AB20ED1D3F88F
:102E1000080803EB421410F4807FD4F8000914BFB3
:102E200040F0805040F00050C4F8000903EB42121B
:102E3000D2F8000940F00440C2F80009D3F8340881
:102E4000012202FA01F10143C3F8341870BD19B927
:102E5000402E84BF4020206020682E8A841940F0D4
:102E60000050013C1A44B4FBF6F440EAC440C6E703
:102E7000F8B504461E48456D05EB4413D3F80869C0
:102E8000C3F80869F10717D5D5F81038DA0713D554
:102E900000EB8403D9684B691F68DA68974218D23F
:102EA000D21B00271A605F60202383F3118821461C
:102EB000FFF798FF87F31188330617D5D5F8342824
:102EC0000123A340134211D02046BDE8F840FFF78C
:102ED0001FBD012303FA04F2038923EA02030381DD
:102EE0008B68002BE8D021469847E5E7F8BD00BF86
:102EF000203B002096482DE9F84F456D6E69AB697F
:102F00001E4016F4805F6E61044605D0FEF7E0FDBA
:102F1000BDE8F84FFFF788BC002E12DAD5F8003E66
:102F20008B489B071EBFD5F8003E23F00303C5F86E
:102F3000003ED5F8043823F00103C5F80438FEF745
:102F4000F1FD370502D58248FEF7E0FDB0040CD54F
:102F5000D5F8083813F0060FEB6823F470530CBF54
:102F600043F4105343F4A053EB60310704D5636876
:102F7000DB680BB176489847F2025AD4B3020CD5FD
:102F8000D4F85480DFF8C8A100274FF00109A36DE1
:102F90009B68F9B28B4280F08780F70619D5616D86
:102FA0000A6AC2F30A1702F00F0302F4F012B2F534
:102FB000802F00F0A180B2F5402F0AD104EB8303EB
:102FC00001F58051DB68186A00231A469F4240F0E1
:102FD00087803003D5F8184813D5E10302D50020C7
:102FE000FFF7B2FEA20302D50120FFF7ADFE630397
:102FF00002D50220FFF7A8FE270302D50320FFF722
:10300000A3FE750384D5E00702D50020FFF730FF4B
:10301000A10702D50120FFF72BFF620702D502208E
:10302000FFF726FF23077FF573AF0320FFF720FF8D
:103030006EE7D4F85480DFF818A100274FF001099B
:10304000A36D9B685FFA87FB5B4597D308EB4B1337
:10305000D3F8002902F44022B2F5802F22D1D3F810
:103060000029002A1EDAD3F8002942F09042C3F862
:103070000029D3F80029002AFBDB5946606DFFF7D1
:103080003DFC228909FA0BF322EA0303238104EBB6
:103090008B03DB689B6813B15946504698475846E6
:1030A000FFF736FC0137CBE708EB4112D2F8003BC3
:1030B00003F44023B3F5802F10D1D2F8003B002B4E
:1030C0000CDA628909FA01F322EA0303638104EB53
:1030D0008103DB68DB680BB150469847013756E740
:1030E0009C0708BF0A68072B98BF027003F1010311
:1030F0009CBF120A013069E7023304EB830201F539
:103100008051526890690268D0F808C04068A2EB0C
:10311000000E0022104697420AD104EB8304636834
:103120009B699A683A449A605A6817445F6050E70E
:1031300012F0030F08BF0868964588BF8CF800009E
:1031400002F1010284BF000A0CF1010CE3E700BFA9
:10315000203B0020436D03EB4111D1F8003B43F4C9
:103160000013C1F8003B7047436D03EB4111D1F8E8
:10317000003943F40013C1F800397047436D03EB85
:103180004111D1F8003B23F40013C1F8003B704714
:10319000436D03EB4111D1F8003923F40013C1F85A
:1031A0000039704730B5039C0172043304FB0325DA
:1031B000C361049B03630021059B00604060C16004
:1031C000426102618561046242628162C16243635D
:1031D00030BD00000022416A41610161C26082622B
:1031E000C2626FF00101FEF7BDBF000003694269D2
:1031F000934203D1C2680AB100207047181D70477E
:1032000003691960C2680132C260C26913448269ED
:103210000361934224BF436A03610021FEF796BF16
:1032200038B504460D46E3683BB16269131D126868
:10323000A3621344E362002038BD237A33B92946E0
:103240002046FEF773FF0028EDDA38BD6FF001006D
:10325000FBE70000C368C269013BC36043691344D4
:1032600082694361934224BF436A436100238362BE
:10327000036B03B11847704770B52023044683F3EE
:103280001188866A3EB9FFF7CBFF054618B186F371
:103290001188284670BDA36AE26A13F8015BA36235
:1032A000934202D32046FFF7D5FF002383F3118812
:1032B000EFE700002DE9F84F04460E469046994688
:1032C000202787F311880025AA46D4F828B0BBF13F
:1032D000000F09D149462046FFF7A2FF20B18BF32A
:1032E00011882846BDE8F88FA16AE36AA8EB050BB0
:1032F0005B1A9B4528BF9B46BBF1400F1BD9334649
:1033000001F1400251F8040B43F8040B9142F9D14A
:10331000A36A40334036A3624035A26AE36A9A4208
:1033200002D32046FFF796FF8AF311884545D8D28D
:1033300087F31188C9E730465A46FDF759FDA36A5D
:103340005B445E44A3625D44E7E7000010B5029C65
:103350000172043303FB0421C36100238362C3624F
:10336000039B0363049B00604060C4604261026190
:10337000816104624262436310BD0000026AC26060
:10338000426A4261026100228262C2626FF0010100
:10339000FEF7E8BE436902699A4203D1C2680AB1E6
:1033A00000207047184650F8043B0B60704700003F
:1033B000C368C2690133C3604369134482694361CE
:1033C000934224BF436A43610021FEF7BFBE000061
:1033D00038B504460D46E3683BB123691A1DA26265
:1033E000E2691344E362002038BD237A33B92946E9
:1033F0002046FEF79BFE0028EDDA38BD6FF0010095
:10340000FBE7000003691960C268013AC260C26943
:10341000134482690361934224BF436A036100231A
:103420008362036B03B118477047000070B5202317
:1034300004460E4683F31188856A35B91146FFF7B5
:10344000C7FF10B185F3118870BDA36A1E70A36A0F
:10345000E26A01339342A36204D3E169204604394E
:10346000FFF7D0FF002080F3118870BD2DE9F84FE1
:1034700004460D4691469A464FF0200888F311887D
:103480000026B346A76A4FB951462046FFF7A0FF72
:1034900020B187F311883046BDE8F88FA06AE76A4B
:1034A000A9EB06033F1A9F4228BF1F46402F1BD996
:1034B00005F1400355F8042B40F8042B9D42F9D147
:1034C000A36A4033A3624036A26AE36A9A4204D3F5
:1034D000E16920460439FFF795FF8BF311884E45CB
:1034E000D9D288F31188CDE729463A46FDF780FC0A
:1034F000A36A3B443D44A3623E44E5E70269436955
:103500009A4203D1C3681BB9184670470023FBE7F2
:10351000836A002BF8D0043B9B1AF5D01360C36874
:10352000013BC360C3691A44836902619A4224BFA4
:10353000436A0361002383620123E5E700F034B9A5
:10354000034B002258631A610222DA60704700BF01
:10355000000C0040014B0022DA607047000C004074
:10356000014B5863704700BF000C0040FEE70000AD
:1035700010B5174CFEF7E0FCFEF702FE802215495D
:103580002046FEF787FD012344F8180C0374124B04
:10359000124AD96821F4E0610904090C0A43104970
:1035A000DA60CA6842F08072CA600E490A6842F066
:1035B00001020A601022DA77202283F822200023F9
:1035C00083F3118862B60848BDE81040FEF784BD59
:1035D0007C330020303E000800ED00E00003FA05D7
:1035E000F0ED00E0001000E0383E00082DE9F84F53
:1035F0001F4CDFF88090656904F114074FF0000854
:10360000D9F82430266AAA689E1B96421DD34FF033
:10361000200AAA68236AD5F80CB0134423622B68E9
:10362000BB425F60A6EB02066361C5F80C8001D166
:10363000FFF790FF88F311882869D8478AF311882B
:103640006569AB689E42E4D2DAE76269BA420CD09F
:10365000916823628E1B9660A86802282CBF1818F8
:10366000981CBDE8F84FFFF77BBFBDE8F88F00BF9F
:1036700054330020000C0040034B59685A68521A1A
:103680009042FBD8704700BF001000E04B684360D9
:103690008B688360CB68C3600B6943614B690362CD
:1036A0008B6943620B6803607047000008B5224BCA
:1036B00022481A6940F2FF110A431A611A6922F47A
:1036C000FF7222F001021A611A691A6B0A431A6327
:1036D0001A6D0A431A651A4A1B6D1146FFF7D6FF89
:1036E000184802F11C01FFF7D1FF174802F1380119
:1036F000FFF7CCFF154802F15401FFF7C7FF14484C
:1037000002F17001FFF7C2FF124802F18C01FFF7CE
:10371000BDFF114802F1A801FFF7B8FF0F4802F101
:10372000C401FFF7B3FF0E4802F1E001FFF7AEFF5F
:10373000BDE8084000F0A4B8003802400000024094
:10374000583E00080004024000080240000C0240FD
:10375000001002400014024000180240001C024009
:103760000020024008B500F0FFF9FFF701FFFFF766
:1037700039F8BDE80840FEF70DBE000070470000B4
:10378000084B1A69920710B508D500241C61202344
:1037900083F31188FFF72AFF84F31188BDE81040F6
:1037A000FFF742B8000C0040104B1A6C42F00802C0
:1037B0001A641A6E42F008021A660D4A1B6E93686C
:1037C00043F0080393600B4B53229A624FF0FF3291
:1037D000DA6200229A615A63DA605A6001225A6101
:1037E00008211A603220FDF771BD00BF0038024089
:1037F000002004E0000C00401F4B1A696FEAC2521F
:103800006FEAD2521A611A69C2F308021A614FF0C4
:10381000FF301A695A69586100215A6959615A6919
:103820001A6A62F080521A621A6A02F080521A62B0
:103830001A6A5A6A58625A6A59625A6A1A6C42F08B
:1038400080521A641A6E42F080521A661A6E0B4A3F
:10385000106840F480701060186F00F44070B0F58C
:10386000007F1EBF4FF4803018671967536823F438
:103870000073536000F058B90038024000700040F7
:10388000324B4FF080521A64314A4FF4404111607C
:103890001A6842F001021A601A689207FCD59A6809
:1038A00022F003029A60294B19469A6812F00C0222
:1038B000FBD1186800F0F90018609A601A6842F4A9
:1038C00080321A600B689B03FCD54B6F43F00103F9
:1038D0004B671E4B5A6F9007FCD51E4A5A601A68F8
:1038E00042F080721A601A4A53685904FCD5174B8B
:1038F0001A689201FCD5184A9A600322C3F88C20FA
:10390000164B1A68164B9A42164B1BD1164A116871
:10391000164A914216D140F205121A600B4B9A6872
:1039200042F002029A609A6802F00C02082AFAD168
:103930005A6C42F480425A645A6E42F480425A668B
:103940005B6E704740F20572E7E700BF0038024047
:10395000007000401854400700948838002004E0AC
:1039600011640020003C024000ED00E041C20F4124
:10397000084A08B5536911680B4003F0010353610D
:1039800023B1054A13680BB150689847BDE8084059
:10399000FEF74ABF003C01409C250020084A08B5BC
:1039A000536911680B4003F00203536123B1054AC8
:1039B00093680BB1D0689847BDE80840FEF734BF64
:1039C000003C01409C250020084A08B55369116855
:1039D0000B4003F00403536123B1054A13690BB193
:1039E00050699847BDE80840FEF71EBF003C014003
:1039F0009C250020084A08B5536911680B4003F064
:103A00000803536123B1054A93690BB1D069984704
:103A1000BDE80840FEF708BF003C01409C2500209F
:103A2000084A08B5536911680B4003F0100353614D
:103A300023B1054A136A0BB1506A9847BDE80840A4
:103A4000FEF7F2BE003C01409C250020174B10B54C
:103A50005C691A68144004F478725A61A30604D5AC
:103A6000134A936A0BB1D06A9847600604D5104A8E
:103A7000136B0BB1506B9847210604D50C4A936B1E
:103A80000BB1D06B9847E20504D5094A136C0BB112
:103A9000506C9847A30504D5054A936C0BB1D06CC4
:103AA0009847BDE81040FEF7BFBE00BF003C014094
:103AB0009C2500201A4B10B55C691A68144004F468
:103AC0007C425A61620504D5164A136D0BB1506DE4
:103AD0009847230504D5134A936D0BB1D06D9847D1
:103AE000E00404D50F4A136E0BB1506E9847A10441
:103AF00004D50C4A936E0BB1D06E9847620404D57E
:103B0000084A136F0BB1506F9847230404D5054A38
:103B1000936F0BB1D06F9847BDE81040FEF784BE9D
:103B2000003C01409C250020062108B50846FDF711
:103B3000CDFB06210720FDF7C9FB06210820FDF774
:103B4000C5FB06210920FDF7C1FB06210A20FDF770
:103B5000BDFB06211720FDF7B9FB06212820BDE893
:103B60000840FDF7B3BB000008B5FFF745FEFDF7C1
:103B700029FAFDF751FDFDF73DFFFDF711FEFFF7B7
:103B8000FDFDBDE80840FFF7D9BC0000034611F871
:103B9000012B03F8012B002AF9D1704712101213E0
:103BA0001211000053544D3332463F3F3F00000096
:103BB000012033000010410101105A010310590186
:103BC0000710310100000000A43B00083F00000086
:103BD00013040000043C00083F000000190400002A
:103BE0000E3C00083F00000021040000183C0008C3
:103BF0003F000000943300201C260020842A00206F
:103C0000EC2E002053544D33324634307800535458
:103C10004D3332463432780053544D3332463434C7
:103C20003658580000960000000000000000000018
:103C3000000000000000000000000000E115000886
:103C4000CD15000809160008F51500080116000832
:103C5000ED150008D9150008C5150008151600084F
:103C60000000000019170008051700084117000898
:103C70002D1700083917000825170008111700082C
:103C8000FD1600089D17000800000000010000005C
:103C900000000000020000000000000045190008BC
:103CA000AD190008400040002C3800203C380020AE
:103CB00002000000000000000300000000000000FF
:103CC000F119000800000000100000004C3800202E
:103CD000000000000100000000000000203B002068
:103CE000010102004172647550696C6F74002542D5
:103CF0004F415244252D424C002553455249414CD9
:103D000025000000352300089D220008B118000896
:103D100019230008430000001C3D0008090243006D
:103D2000020100C032090400000102020100052462
:103D300000100105240100010424020205240600EC
:103D400001070582030800FF09040100020A0000C0
:103D50000007050102400000070581024000000045
:103D600012000000683D000812011001020000402E
:103D70000912415700020102030100000403090473
:103D800025424F4152442500666D7576330030312F
:103D900032333435363738394142434445460000E2
:103DA0000040000000400000004000000040000013
:103DB00000000100000002000000020000000200FC
:103DC00000000200000002000000020000000200EB
:103DD00000400000004000000040000000400000E3
:103DE00000000100000002000000020000000200CC
:103DF00000000200000002000000020000000200BB
:103E000000000000391B0008191E0008C51E00082C
:103E100040004000803B0020803B0020010000006B
:103E2000903B0020800000004001000003000000E3
:103E30006D61696E00000000503E0008983B002054
:103E4000903D0020010000006D35000800000000DA
:103E500069646C65000000000000802A0002000018
:103E6000AAAAAAAA00000000FFFF000000000000AC
:103E700000A00A000000000000000000AAAAAAAAF0
:103E800000000000FFFF0000000000000000000034
:103E90001400005400000000AAAAAAAA14000054AA
:103EA000FFFF0000000000000000000080699A0190
:103EB00000000000AAAA8AAA40555501FFFF000091
:103EC00000707007777000000081020100000000A0
:103ED000AAAAAAAA00410100FFFF0000000000807A
:103EE000080000000000000000000000AAAAAAAA22
:103EF00000000000FFFF00000000000000000000C4
:103F00000000000000000000AAAAAAAA0000000009
:103F1000FFFF0000000000000000000000000000A3
:103F2000000000000A000000000000000300000084
:103F30000000000000000000000000000000000081
:103F40000000000000000000000000000000000071
:103F50000000000000000000FF00960000000008C4
:103F6000040000007C3D000800000000000000008C
:103F70000000000000000000000000000000000041
:103F8000FFFFFFFFFFFFFFFFFFFFFFFFFFFFFFFF41
:103F9000FFFFFFFFFFFFFFFFFFFFFFFFFFFFFFFF31
:103FA000FFFFFFFFFFFFFFFFFFFFFFFFFFFFFFFF21
:103FB000FFFFFFFFFFFFFFFFFFFFFFFFFFFFFFFF11
:103FC000FFFFFFFFFFFFFFFFFFFFFFFFFFFFFFFF01
:103FD000FFFFFFFFFFFFFFFFFFFFFFFFFFFFFFFFF1
:103FE000FFFFFFFFFFFFFFFFFFFFFFFFFFFFFFFFE1
:103FF000FFFFFFFFFFFFFFFFFFFFFFFFFFFFFFFFD1
:10400000000600203953000861A60B0865A60B08BE
:10401000D1A60B0865A60B089DA60B083B5300080C
:104020003B5300083B5300083B53000809E01208CB
:104030003B5300083B5300083B5300083B53000828
:104040003B5300083B5300083B5300083B53000818
:104050003B5300083B530008D1401308FD401308B0
:104060002941130855411308814113082DE812080E
:1040700055E8120881E81208ADE81208D9E81208DC
:1040800001E912082DE91208E1E6120869760B0829
:1040900079760B088D760B083B530008AD41130869
:1040A0003B5300083B5300083B5300083B530008B8
:1040B0003B5300083B5300083B53000851F11208E2
:1040C00065F1120889F112089DF112083B530008AE
:1040D0003B5300083B5300085D03130871031308AA
:1040E000154213083B5300083B5300083B5300089C
:1040F0003B5300083B5300083B53000859E91208A2
:104100003B53000895F51208C14813083B530008BB
:10411000850313083B5300083B5300083B5300083A
:1041200085E91208ADE91208D9E9120805EA120872
:1041300031EA12083B5300083B530008A1760B08F4
:10414000B1760B08C5760B083B530008893C130871
:1041500059EA120885EA1208B1EA1208990313080D
:104160003B5300083B5300083B5300083B530008F7
:104170003B5300083B5300083B5300083B530008E7
:104180003B5300083B530008AD031308C103130859
:104190003B5300083B5300083B5300083B530008C7
:1041A0003B5300083B5300083B5300083B530008B7
:1041B0003B5300083B5300083B5300083B530008A7
:1041C0003B5300083B5300083B5300083B53000897
:1041D0003B5300083B5300083B5300083B53000887
:1041E000917C00080DB50008A15601086D2B02084E
:1041F000593F02081D4A0208D17C0208E1850208E5
:10420000D5D60208D1FA0208AD630308CD470408E9
:10421000F90F060841120608CD35060811390608BF
:1042200001470608B96D060805CD0608A1D40608A1
:10423000E9D706082D4907083D67070845A408087F
:1042400011F50808D1000908B9DB0A08D9760B086E
:104250000D790B08557D0B08A9A00B08F14A0D0834
:1042600021670D08756B0D08017A0D08058F0D0883
:10427000358F0D0851B70D08C1F80D0889290E08B2
:10428000D5430E0829490E0821820E0859200F082F
:104290004D971008719F100865DD1008B5191108B9
:1042A00069C31108B1CD1108F1FC1108850212088B
:1042B000F93C1208000000000000000000000000AF
:1042C00081F0004102E000BF83F0004330B54FEAC7
:1042D00041044FEA430594EA050F08BF90EA020F34
:1042E0001FBF54EA000C55EA020C7FEA645C7FEAC7
:1042F000655C00F0E2804FEA5454D4EB5555B8BFEA
:104300006D420CDD2C4480EA020281EA030382EA5A
:10431000000083EA010180EA020281EA0303362DEC
:1043200088BF30BD11F0004F4FEA01314FF4801CBF
:104330004CEA113102D0404261EB410113F0004FD1
:104340004FEA03334CEA133302D0524263EB430388
:1043500094EA050F00F0A780A4F10104D5F1200E26
:104360000DDB02FA0EFC22FA05F2801841F1000181
:1043700003FA0EF2801843FA05F359410EE0A5F155
:1043800020050EF1200E012A03FA0EFC28BF4CF086
:10439000020C43FA05F3C01851EBE37101F000453C
:1043A00007D54FF0000EDCF1000C7EEB00006EEB49
:1043B0000101B1F5801F1BD3B1F5001F0CD34908D3
:1043C0005FEA30004FEA3C0C04F101044FEA44522A
:1043D00012F5800F80F09A80BCF1004F08BF5FEAB1
:1043E000500C50F1000041EB045141EA050130BD91
:1043F0005FEA4C0C404141EB0101013C28BFB1F5A3
:10440000801FE9D291F0000F04BF01460020B1FAED
:1044100081F308BF2033A3F10B03B3F120020CDAC0
:104420000C3208DD02F1140CC2F10C0201FA0CF09E
:1044300021FA02F10CE002F11402D8BFC2F1200C03
:1044400001FA02F120FA0CFCDCBF41EA0C019040B9
:10445000E41AA2BF01EB0451294330BD6FEA040402
:104460001F3C1CDA0C340EDC04F11404C4F12002ED
:1044700020FA04F001FA02F340EA030021FA04F3FF
:1044800045EA030130BDC4F10C04C4F1200220FA56
:1044900002F001FA04F340EA0300294630BD21FA94
:1044A00004F0294630BD94F0000F83F4801306BF5A
:1044B00081F480110134013D4EE77FEA645C18BF4E
:1044C0007FEA655C29D094EA050F08BF90EA020FE5
:1044D00005D054EA000C04BF1946104630BD91EADD
:1044E000030F1EBF0021002030BD5FEA545C05D1E0
:1044F0004000494128BF41F0004130BD14F580041F
:104500003CBF01F5801130BD01F0004545F0FE4192
:1045100041F470014FF0000030BD7FEA645C1ABFC7
:10452000194610467FEA655C1CBF0B46024650EAFE
:10453000013406BF52EA033591EA030F41F400212A
:1045400030BD00BF90F0000F04BF0021704730B5B0
:104550004FF4806404F132044FF000054FF0000185
:1045600050E700BF90F0000F04BF0021704730B546
:104570004FF4806404F1320410F0004548BF40421B
:104580004FF000013EE700BF42004FEAE2014FEA70
:1045900031014FEA02701FBF12F07F4393F07F4F4B
:1045A00081F06051704732F07F4208BF704793F04E
:1045B0007F4F04BF41F40021704730B54FF4607461
:1045C00001F0004521F000411CE700BF50EA010264
:1045D00008BF704730B54FF000050AE050EA01020D
:1045E00008BF704730B511F0004502D5404261EB7D
:1045F00041014FF4806404F132045FEA915C3FF4BE
:10460000D8AE4FF003025FEADC0C18BF03325FEA5A
:10461000DC0C18BF033202EBDC02C2F1200300FA0B
:1046200003FC20FA02F001FA03FE40EA0E0021FA30
:1046300002F11444BDE600BF70B54FF0FF0C4CF41E
:10464000E06C1CEA11541DBF1CEA135594EA0C0FD0
:1046500095EA0C0F00F0DEF82C4481EA030621EA0B
:104660004C5123EA4C5350EA013518BF52EA033546
:1046700041F4801143F4801338D0A0FB02CE4FF0F8
:104680000005E1FB02E506F00042E0FB03E54FF028
:104690000006E1FB03569CF0000F18BF4EF0010E20
:1046A000A4F1FF04B6F5007F64F5407404D25FEA1C
:1046B0004E0E6D4146EB060642EAC62141EA5551CF
:1046C0004FEAC52040EA5E504FEACE2EB4F1FD0C11
:1046D00088BFBCF5E06F1ED8BEF1004F08BF5FEA8F
:1046E000500E50F1000041EB045170BD06F0004641
:1046F00046EA010140EA020081EA0301B4EB5C04EE
:10470000C2BFD4EB0C0541EA045170BD41F48011E5
:104710004FF0000E013C00F3AB8014F1360FDEBF0A
:10472000002001F0004170BDC4F10004203C35DAE6
:104730000C341BDC04F11404C4F1200500FA05F369
:1047400020FA04F001FA05F240EA020001F000420A
:1047500021F0004110EBD37021FA04F642EB060180
:104760005EEA430E08BF20EAD37070BDC4F10C04AA
:10477000C4F1200500FA04F320FA05F001FA04F26E
:1047800040EA020001F0004110EBD37041F100015A
:104790005EEA430E08BF20EAD37070BDC4F1200565
:1047A00000FA05F24EEA020E20FA04F301FA05F2CD
:1047B00043EA020321FA04F001F0004121FA04F275
:1047C00020EA020000EBD3705EEA430E08BF20EA45
:1047D000D37070BD94F0000F0FD101F0004640007F
:1047E00041EB010111F4801F08BF013CF7D041EA01
:1047F000060195F0000F18BF704703F00046520005
:1048000043EB030313F4801F08BF013DF7D043EAD5
:104810000603704794EA0C0F0CEA135518BF95EA8B
:104820000C0F0CD050EA410618BF52EA4306D1D112
:1048300081EA030101F000414FF0000070BD50EA31
:10484000410606BF1046194652EA430619D094EABB
:104850000C0F02D150EA013613D195EA0C0F05D1A5
:1048600052EA03361CBF104619460AD181EA0301F9
:1048700001F0004141F0FE4141F470014FF00000B1
:1048800070BD41F0FE4141F4780170BD70B54FF04C
:10489000FF0C4CF4E06C1CEA11541DBF1CEA1355CC
:1048A00094EA0C0F95EA0C0F00F0A7F8A4EB0504AE
:1048B00081EA030E52EA03354FEA013100F08880A5
:1048C0004FEA03334FF0805545EA131343EA12636E
:1048D0004FEA022245EA111545EA10654FEA002623
:1048E0000EF000419D4208BF964244F1FD0404F5DC
:1048F000407402D25B084FEA3202B61A65EB030538
:104900005B084FEA32024FF480104FF4002CB6EBF4
:10491000020E75EB030E22BFB61A754640EA0C0074
:104920005B084FEA3202B6EB020E75EB030E22BFB4
:10493000B61A754640EA5C005B084FEA3202B6EBF5
:10494000020E75EB030E22BFB61A754640EA9C00B4
:104950005B084FEA3202B6EB020E75EB030E22BF84
:10496000B61A754640EADC0055EA060E18D04FEA42
:10497000051545EA16754FEA06164FEAC30343EAE2
:1049800052734FEAC2025FEA1C1CC0D111F4801FAF
:104990000BD141EA00014FF000004FF0004CB6E7A8
:1049A00011F4801F04BF01430020B4F1FD0C88BF47
:1049B000BCF5E06F3FF6AFAEB5EB030C04BFB6EB52
:1049C000020C5FEA500C50F1000041EB045170BD45
:1049D0000EF0004E4EEA113114EB5C04C2BFD4EB72
:1049E0000C0541EA045170BD41F480114FF0000EF6
:1049F000013C90E645EA060E8DE60CEA135594EA72
:104A00000C0F08BF95EA0C0F3FF43BAF94EA0C0F74
:104A10000AD150EA01347FF434AF95EA0C0F7FF4E9
:104A200025AF104619462CE795EA0C0F06D152EA3D
:104A300003353FF4FDAE1046194622E750EA410621
:104A400018BF52EA43067FF4C5AE50EA41047FF432
:104A50000DAF52EA43057FF4EBAE12E74FF0FF3C97
:104A600006E000BF4FF0010C02E000BF4FF0010C68
:104A70004DF804CD4FEA410C7FEA6C5C4FEA430CE1
:104A800018BF7FEA6C5C1BD001B050EA410C0CBF30
:104A900052EA430C91EA030F02BF90EA020F002092
:104AA000704710F1000F91EA030F58BF994208BFF9
:104AB00090422CBFD8176FEAE37040F001007047B6
:104AC0004FEA410C7FEA6C5C02D150EA013C07D10D
:104AD0004FEA430C7FEA6C5CD6D152EA033CD3D058
:104AE0005DF8040B704700BF8446104662468C4652
:104AF0001946634600E000BF01B5FFF7B7FF002885
:104B000048BF10F1000F01BD4DF808EDFFF7F4FFAD
:104B10000CBF012000205DF808FB00BF4DF808ED38
:104B2000FFF7EAFF34BF012000205DF808FB00BF5B
:104B30004DF808EDFFF7E0FF94BF012000205DF87D
:104B400008FB00BF4DF808EDFFF7CEFF94BF012032
:104B500000205DF808FB00BF4DF808EDFFF7C4FF2B
:104B600034BF012000205DF808FB00BF4FEA410C74
:104B70007FEA6C5C02D150EA013C0AD14FEA430C57
:104B80007FEA6C5C02D152EA033C02D14FF0000094
:104B900070474FF0010070474FEA410212F50012D2
:104BA00015D211D56FF47873B3EB625212D94FEA74
:104BB000C12343F0004343EA505311F0004F23FA5E
:104BC00002F018BF404270474FF00000704750EAB3
:104BD000013005D111F0004008BF6FF00040704770
:104BE0004FF00000704700BF4A0011D212F50012CA
:104BF00011D20DD56FF47873B3EB62520ED44FEA35
:104C0000C12343F0004343EA505323FA02F07047B4
:104C10004FF00000704750EA013002D14FF0FF30F2
:104C200070474FF0000070474FEA4102B2F1E04395
:104C300024BFB3F5001CDCF1FE5C0DD901F0004C83
:104C40004FEAC0024CEA5070B2F1004F40EB8300D3
:104C500008BF20F00100704711F0804F21D113F1FF
:104C60003872BCBF01F00040704741F480114FEA38
:104C70005252C2F11802C2F1200C10FA0CF320FAC1
:104C800002F018BF40F001004FEAC1234FEAD323DE
:104C900003FA0CFC40EA0C0023FA02F34FEA430348
:104CA000CCE77FEA625307D150EA01331EBF4FF0D1
:104CB000FE4040F44000704701F0004040F0FE40EC
:104CC00040F40000704700BF80F0004002E000BFE9
:104CD00081F0004142001FBF5FEA410392EA030FE7
:104CE0007FEA226C7FEA236C6AD04FEA1262D2EB31
:104CF0001363C1BFD218414048404140B8BF5B4236
:104D0000192B88BF704710F0004F40F4000020F0CE
:104D10007F4018BF404211F0004F41F4000121F0E4
:104D20007F4118BF494292EA030F3FD0A2F101022E
:104D300041FA03FC10EB0C00C3F1200301FA03F16C
:104D400000F0004302D5494260EB4000B0F5000F8F
:104D500013D3B0F1807F06D340084FEA310102F14E
:104D60000102FE2A51D2B1F1004F40EBC25008BF00
:104D700020F0010040EA03007047490040EB0000CA
:104D8000013A28BFB0F5000FEDD2B0FA80FCACF1CB
:104D9000080CB2EB0C0200FA0CF0AABF00EBC250F8
:104DA00052421843BCBFD0401843704792F0000FE6
:104DB00081F4000106BF80F400000132013BB5E739
:104DC0004FEA41037FEA226C18BF7FEA236C21D0AF
:104DD00092EA030F04D092F0000F08BF0846704714
:104DE00090EA010F1CBF0020704712F07F4F04D1E2
:104DF000400028BF40F00040704712F100723CBFF5
:104E000000F50000704700F0004343F0FE4040F41E
:104E1000000070477FEA226216BF08467FEA2363DC
:104E20000146420206BF5FEA412390EA010F40F4C7
:104E3000800070474FF0000304E000BF10F0004313
:104E400048BF40425FEA000C08BF704743F09643FA
:104E500001464FF000001CE050EA010208BF704715
:104E60004FF000030AE000BF50EA010208BF70479C
:104E700011F0004302D5404261EB41015FEA010CB1
:104E800002BF84460146002043F0B64308BFA3F1A9
:104E90008053A3F50003BCFA8CF2083AA3EBC2538B
:104EA00010DB01FA02FC634400FA02FCC2F12002AA
:104EB000BCF1004F20FA02F243EB020008BF20F0E1
:104EC0000100704702F1200201FA02FCC2F1200247
:104ED00050EA4C0021FA02F243EB020008BF20EA3C
:104EE000DC7070477BB972B90029BEBF00204FF05B
:104EF000004106E008BF00281CBF6FF000414FF0E2
:104F0000FF3000F017BAADF1080C6DE904CE0029AE
:104F100009DB002B1ADB00F0A5F8DDF804E0DDE981
:104F2000022304B07047404261EB4101002B1BDBC0
:104F300000F098F8DDF804E0DDE9022304B0404217
:104F400061EB4101524263EB43037047524263EB12
:104F5000430300F087F8DDF804E0DDE9022304B044
:104F6000404261EB41017047524263EB430300F062
:104F700079F8DDF804E0DDE9022304B0524263EB86
:104F80004303704753B94AB9002908BF00281CBF22
:104F90004FF0FF314FF0FF3000F0CCB9ADF1080C0D
:104FA0006DE904CE00F05EF8DDF804E0DDE90223EF
:104FB00004B07047430803F05533C01A830803F068
:104FC000333300F03330184400EB101000F00F3092
:104FD00000EB002000EB0040000E704780EA10401C
:104FE00080EA102080EA101046F6961300F00F00B9
:104FF00043FA00F000F00100704700BF07EE900A8E
:10500000F5EEC07AF1EE10FA01D400F00BB8F1EE33
:10501000677A08B517EE900A00F004F8404261EB99
:10502000410108BDD0B5FFF7AFFA0C4B0022064690
:105030000F46FFF701FBFFF7D7FD0446FFF782FAA3
:10504000074B0022FFF7F8FA02460B463046394676
:10505000FFF73AF9FFF7C8FD2146D0BD0000F03D4B
:105060000000F0412DE9F047089D04468E46002BD4
:105070004DD18A42944669D9B2FA82F252B101FA0C
:1050800002F3C2F1200120FA01F10CFA02FC41EA1C
:10509000030E94404FEA1C48210CBEFBF8F61FFAA1
:1050A0008CF708FB16E341EA034306FB07F199423C
:1050B0000AD91CEB030306F1FF3080F01F819942EF
:1050C00040F21C81023E63445B1AA4B2B3FBF8F0C9
:1050D00008FB103344EA034400FB07F7A7420AD950
:1050E0001CEB040400F1FF3380F00A81A74240F278
:1050F00007816444023840EA0640E41B00261DB1E3
:10510000D4400023C5E900433146BDE8F0878B4217
:1051100009D9002D00F0EF800026C5E900013046D6
:105120003146BDE8F087B3FA83F6002E4AD18B42B0
:1051300002D3824200F2F980841A61EB030301205A
:105140009E46002DE0D0C5E9004EDDE702B9FFDE46
:10515000B2FA82F2002A40F09280A1EB0C014FEAF1
:105160001C471FFA8CFE0126200CB1FBF7F307FB4E
:10517000131140EA01410EFB03F0884208D91CEBF1
:10518000010103F1FF3802D2884200F2CB8043468E
:10519000091AA4B2B1FBF7F007FB101144EA01446D
:1051A0000EFB00FEA64508D91CEB040400F1FF31FC
:1051B00002D2A64500F2BB800846A4EB0E0440EAEA
:1051C00003409CE7C6F12007B34022FA07FC4CEAF3
:1051D000030C20FA07F401FA06F31C43F9404FEAE6
:1051E0001C4900FA06F3B1FBF9F8200C1FFA8CFEFB
:1051F00009FB181140EA014108FB0EF0884202FA4F
:1052000006F20BD91CEB010108F1FF3A80F088800F
:10521000884240F28580A8F102086144091AA4B2CC
:10522000B1FBF9F009FB101144EA014100FB0EFE4D
:105230008E4508D91CEB010100F1FF346CD28E457C
:105240006AD90238614440EA0840A0FB0294A1EB0D
:105250000E01A142C846A64656D353D05DB1B3EB6A
:10526000080261EB0E0101FA07F722FA06F3F1409A
:105270001F43C5E9007100263146BDE8F087C2F141
:105280002003D8400CFA02FC21FA03F391400143B9
:105290004FEA1C471FFA8CFEB3FBF7F007FB1036F2
:1052A0000B0C43EA064300FB0EF69E4204FA02F49E
:1052B00008D91CEB030300F1FF382FD29E422DD9F1
:1052C000023863449B1B89B2B3FBF7F607FB163326
:1052D00041EA034106FB0EF38B4208D91CEB0101A6
:1052E00006F1FF3816D28B4214D9023E6144C91A26
:1052F00046EA004638E72E46284605E70646E3E636
:105300001846F8E64B45A9D2B9EB020864EB0C0E3F
:105310000138A3E74646EAE7204694E74046D1E74E
:10532000D0467BE7023B614432E7304609E76444FC
:10533000023842E7704700BF02E000F000F8FEE7E5
:1053400072B63A4880F30888394880F309883948AA
:105350004EF60851CEF20001086040F20000CCF297
:1053600000004EF63471CEF200010860BFF34F8F9B
:10537000BFF36F8F40F20000C0F2F0004EF688518C
:10538000CEF200010860BFF34F8FBFF36F8F4FF075
:105390000000E1EE100A4EF63C71CEF2000108600A
:1053A000062080F31488BFF36F8F2EF151F92EF190
:1053B0002DF92DF1A1FA4FF055301F491B4A9142AA
:1053C0003CBF41F8040BFAE71C49194A91423CBF23
:1053D00041F8040BFAE71A491A4A1B4B9A423EBF9E
:1053E00051F8040B42F8040BF8E700201749184A5B
:1053F00091423CBF41F8040BFAE72EF10BF92DF175
:10540000CFFA144C144DAC4203DA54F8041B88470D
:10541000F9E702F09DFB114C114DAC4203DA54F850
:10542000041B8847F9E72EF1F3B8000000060020BE
:10543000002200200040000800000020000600209C
:10544000B839170800220020302C0020302C002012
:105450001C6B0120E0410008B4420008B44200087F
:10546000B44200082DE9F04F2DED108AC1F80CD0A0
:10547000C3689D46BDEC108ABDE8F08F002383F31E
:1054800011882846A04700202DF12EF8FEE72CF1C8
:10549000CFFE00DFFEE7000001F0FF01102A2BDB4A
:1054A00010F0070F08D010F8013B013A8B422DD0C5
:1054B00010F0070F42B3F6D1F0B441EA012141EAFE
:1054C000014122F007047FF000070023F0E80256B4
:1054D000083C85EA010586EA010685FA47F5A3FA44
:1054E00087F586FA47F6A5FA87F68EB9EED1F0BCB5
:1054F00001F0FF0102F0070232B110F8013B013A5E
:1055000083EA010313B1F8D10020704701387047D6
:10551000002D06BF35460338073815F0010F07D1B7
:10552000013015F4807F02BF013015F4C03F013017
:10553000F0BC0138704700BFEC46A0E8F05F4FF0C8
:1055400000007047B0E8F05FE546080008BF0120A2
:10555000704700BF10F8012B11F8013B012A28BF4A
:105560009A42F7D0D01A7047034613F8012B002A4D
:10557000FBD1181A0138704738B5002200230446C1
:105580000D46FFF7CBFA28B920462946BDE838403A
:1055900000F00AB8204605F1004100F005F840424D
:1055A00061EB410138BD00BFD0B50C4B002206466F
:1055B0000F46FFF741F8FFF717FB0446FEF7C2FF5F
:1055C000074B0022FFF738F802460B4630463946B3
:1055D000FEF77AFEFFF708FB2146D0BD0000F03D44
:1055E0000000F041074A13780133DBB21D2B98BF4E
:1055F000137003684FF0000188BF11709B6888BF6B
:1056000001211847002200202DE9F0418368012B79
:1056100090B004460D4602D0980640F1C080614E1D
:1056200096F9563CB3B106F58052B6F9583CD2F81B
:105630001429B2F90A1003F10A02914203DD40F283
:105640008D32934206DC584B2A4620212046A6F094
:1056500039FF5FE096F9453C022B05D1534B2A46B2
:1056600020212046A6F02EFFB6F8183CA3F57A7349
:105670009BB241F6583293420FD84D4FD7F8E839D4
:10568000A7F59C5292ED007AD3ED097AB4EEE77A51
:10569000F1EE10FA03DD474BD6E7474BD4E706F6A9
:1056A000844292ED007AD3ED0A7AB4EEE77AF1EE15
:1056B00010FAF0DCB6F9523C002B01DC3F4BC3E79B
:1056C00096F8402E0D2A04D84FF42153D340D90721
:1056D00008D4DFF82881D8F8700DA1F06FFE18B952
:1056E000374BB1E7374BAFE7374811F063FB012881
:1056F00037D1D7F8F0099EF0F5FF01280CD0022829
:105700001FD070BB314B0093314B2A4620212046DD
:10571000A6F0D8FE00203FE098F8CC39DA070ED585
:105720002C4819215EF06EFA48B12A48D6F8306C40
:1057300019215EF077FA864213DD274BE3E7274B0A
:10574000E1E797F9103C0BB9254BDCE7254803AAA4
:105750000DF10A015FF0D4FFBDF80A300BB1224B06
:10576000D1E798F8693DDB0601D5204B6CE703AE25
:105770001F49D7F8EC09322332469CF05DFE10B980
:105780001C4B0096C1E71C49D7F8E8093223324682
:105790009AF0CCFE0028F3D010B0BDE8F0810120D3
:1057A000FAE700BF384C0020BCB51308CFB513088A
:1057B000386C002007B61308F7B5130821B6130894
:1057C00056B6130836B613084C89002091B6130854
:1057D0006CB61308C8400020B0B61308A1B6130871
:1057E000C6B6130848780020D7B61308F0B61308D9
:1057F00005B7130809B713081BB71308385C002056
:105800002DE9F341DFF8D880D8F8703D93F86F4068
:1058100005460E4634B92E4AA7F03AF8204602B0A3
:10582000BDE8F0812021A6F03DFE0028F6D022F050
:1058300043FA22F041FA90F8407022F03DFA90F8D5
:105840004130032B10D0032FE8D10020D8F8703D51
:10585000B3F9A220B2F57A7F08D01E4A3146284615
:10586000A7F016F80024D9E70120EFE7B3F9A43038
:10587000B3F5FA6F01D0184AF0E788F079FE0746D1
:10588000D8F8700D0368DB6A98470022B7F8E0C0CB
:10589000114613464FF0010E0EFA02F7384202F19C
:1058A00001025FFA82F807D01CEA070F04D1013326
:1058B000DBB2002908BF4146102AEDD1002BADD044
:1058C0000091064A31462846A6F0E2FFCAE700BF2B
:1058D00020B713083EB7130861B7130884B713083D
:1058E000385C002013B58368012B0A4601D05B06A3
:1058F00016D50C4B93F9561C91B103F58051D1F894
:105900001449B3F9581CB4F90630994208DD064B26
:1059100000934021054BA6F0D5FD002002B010BD3C
:105920000120FBE7384C0020A4B71308CFA81508C6
:1059300070B58EB005460E460A48322201A985F0A0
:10594000EBFE044640B99DF9043043B9064B074AC3
:1059500031462846A6F09CFF20460EB070BD01AB34
:10596000F5E700BFA8630020BCB71308CFA815084F
:105970002DE9F043DFF864910446D9F8500D03682F
:1059800099B01B690D46984780461AF06BFC0021C0
:1059900007462E220CA80B9131F11EFE32230BAAD2
:1059A0004146384618F05CFF064648B93F4A0BAB03
:1059B00029462046A6F06CFF304619B0BDE8F083BA
:1059C0003B4884F0FFFFB8F1000F0BD0A9F5405021
:1059D00017F0D8FB80B9374A29462046A6F058FF71
:1059E0000026E9E710F0060FE6D0A9F5405017F0C1
:1059F000C9FB08B9304AEFE703A9384618F0C6FCDE
:105A000028B19DF80D305B0601D52C4AE4E7DFF89C
:105A1000D080D8ED007AF5EEC07AF1EE10FA4FF0B2
:105A200000032CDD089309930A930DF1200907ABBD
:105A3000019305AA06AB04A9CDF8009038461AF0E8
:105A4000C9F948463CF0CEFBD8ED007AB4EEE70A3F
:105A5000F1EE10FA01DB1A4ABEE79DED057AF4EE8D
:105A6000C77AF1EE10FA01D8164AB5E79DED047A2F
:105A7000F4EEC77AF1EE10FA01D8134AACE707F258
:105A80006C41124806F0A2F9074608B1104AA3E794
:105A900010490E4806F09AF900288DD00E4A294682
:105AA0002046A6F0F5FE3E4686E700BFD4B71308B1
:105AB000E8760020DDB71308F4B713081AB8130806
:105AC00028B813083DB8130853B81308382C002021
:105AD00069B81308F075002086B81308385C0020F8
