:020000040800F2
:10400000000600203953000825AF0B0829AF0B0824
:1040100095AF0B0829AF0B0861AF0B083B530008A5
:104020003B5300083B5300083B530008CDE81208FF
:104030003B5300083B5300083B5300083B53000828
:104040003B5300083B5300083B5300083B53000818
:104050003B5300083B53000895491308C149130816
:10406000ED491308194A1308454A1308F1F01208DC
:1040700019F1120845F1120871F112089DF11208A8
:10408000C5F11208F1F11208A5EF12082D7F0B08F7
:104090003D7F0B08517F0B083B530008714A130802
:1040A0003B5300083B5300083B5300083B530008B8
:1040B0003B5300083B5300083B53000815FA120815
:1040C00029FA12084DFA120861FA12083B53000847
:1040D0003B5300083B530008210C1308350C130810
:1040E000D94A13083B5300083B5300083B530008D0
:1040F0003B5300083B5300083B5300081DF21208D5
:104100003B53000859FE1208855113083B53000821
:10411000490C13083B5300083B5300083B5300086D
:1041200049F2120871F212089DF21208C9F212083F
:10413000F5F212083B5300083B530008657F0B085B
:10414000757F0B08897F0B083B5300084D4513080A
:104150001DF3120849F3120875F312085D0C1308D9
:104160003B5300083B5300083B5300083B530008F7
:104170003B5300083B5300083B5300083B530008E7
:104180003B5300083B530008710C1308850C1308BF
:104190003B5300083B5300083B5300083B530008C7
:1041A0003B5300083B5300083B5300083B530008B7
:1041B0003B5300083B5300083B5300083B530008A7
:1041C0003B5300083B5300083B5300083B53000897
:1041D0003B5300083B5300083B5300083B53000887
:1041E000917C000811C40008A56501084934020843
:1041F00035480208F9520208AD850208BD8E020852
:10420000B1DF0208AD030308896C0308A950040854
:10421000D51806081D1B0608A93E0608ED4106082C
:10422000DD4F060895760608C9D5060865DD06083F
:10423000ADE00608F15107080170070809AD08084C
:10424000D5FD0808950909087DE40A089D7F0B083B
:10425000D1810B0819860B086DA90B08B5530D0801
:10426000E56F0D0839740D08C5820D08C9970D0852
:10427000F9970D0815C00D0885010E084D320E087E
:10428000994C0E08ED510E08E58A0E081D290F08FD
:1042900011A0100835A8100829E610087922110885
:1042A0002DCC110875D61108B5051208490B120856
:1042B000BD451208000000000000000000000000E2
:1042C00081F0004102E000BF83F0004330B54FEAC7
:1042D00041044FEA430594EA050F08BF90EA020F34
:1042E0001FBF54EA000C55EA020C7FEA645C7FEAC7
:1042F000655C00F0E2804FEA5454D4EB5555B8BFEA
:104300006D420CDD2C4480EA020281EA030382EA5A
:10431000000083EA010180EA020281EA0303362DEC
:1043200088BF30BD11F0004F4FEA01314FF4801CBF
:104330004CEA113102D0404261EB410113F0004FD1
:104340004FEA03334CEA133302D0524263EB430388
:1043500094EA050F00F0A780A4F10104D5F1200E26
:104360000DDB02FA0EFC22FA05F2801841F1000181
:1043700003FA0EF2801843FA05F359410EE0A5F155
:1043800020050EF1200E012A03FA0EFC28BF4CF086
:10439000020C43FA05F3C01851EBE37101F000453C
:1043A00007D54FF0000EDCF1000C7EEB00006EEB49
:1043B0000101B1F5801F1BD3B1F5001F0CD34908D3
:1043C0005FEA30004FEA3C0C04F101044FEA44522A
:1043D00012F5800F80F09A80BCF1004F08BF5FEAB1
:1043E000500C50F1000041EB045141EA050130BD91
:1043F0005FEA4C0C404141EB0101013C28BFB1F5A3
:10440000801FE9D291F0000F04BF01460020B1FAED
:1044100081F308BF2033A3F10B03B3F120020CDAC0
:104420000C3208DD02F1140CC2F10C0201FA0CF09E
:1044300021FA02F10CE002F11402D8BFC2F1200C03
:1044400001FA02F120FA0CFCDCBF41EA0C019040B9
:10445000E41AA2BF01EB0451294330BD6FEA040402
:104460001F3C1CDA0C340EDC04F11404C4F12002ED
:1044700020FA04F001FA02F340EA030021FA04F3FF
:1044800045EA030130BDC4F10C04C4F1200220FA56
:1044900002F001FA04F340EA0300294630BD21FA94
:1044A00004F0294630BD94F0000F83F4801306BF5A
:1044B00081F480110134013D4EE77FEA645C18BF4E
:1044C0007FEA655C29D094EA050F08BF90EA020FE5
:1044D00005D054EA000C04BF1946104630BD91EADD
:1044E000030F1EBF0021002030BD5FEA545C05D1E0
:1044F0004000494128BF41F0004130BD14F580041F
:104500003CBF01F5801130BD01F0004545F0FE4192
:1045100041F470014FF0000030BD7FEA645C1ABFC7
:10452000194610467FEA655C1CBF0B46024650EAFE
:10453000013406BF52EA033591EA030F41F400212A
:1045400030BD00BF90F0000F04BF0021704730B5B0
:104550004FF4806404F132044FF000054FF0000185
:1045600050E700BF90F0000F04BF0021704730B546
:104570004FF4806404F1320410F0004548BF40421B
:104580004FF000013EE700BF42004FEAE2014FEA70
:1045900031014FEA02701FBF12F07F4393F07F4F4B
:1045A00081F06051704732F07F4208BF704793F04E
:1045B0007F4F04BF41F40021704730B54FF4607461
:1045C00001F0004521F000411CE700BF50EA010264
:1045D00008BF704730B54FF000050AE050EA01020D
:1045E00008BF704730B511F0004502D5404261EB7D
:1045F00041014FF4806404F132045FEA915C3FF4BE
:10460000D8AE4FF003025FEADC0C18BF03325FEA5A
:10461000DC0C18BF033202EBDC02C2F1200300FA0B
:1046200003FC20FA02F001FA03FE40EA0E0021FA30
:1046300002F11444BDE600BF70B54FF0FF0C4CF41E
:10464000E06C1CEA11541DBF1CEA135594EA0C0FD0
:1046500095EA0C0F00F0DEF82C4481EA030621EA0B
:104660004C5123EA4C5350EA013518BF52EA033546
:1046700041F4801143F4801338D0A0FB02CE4FF0F8
:104680000005E1FB02E506F00042E0FB03E54FF028
:104690000006E1FB03569CF0000F18BF4EF0010E20
:1046A000A4F1FF04B6F5007F64F5407404D25FEA1C
:1046B0004E0E6D4146EB060642EAC62141EA5551CF
:1046C0004FEAC52040EA5E504FEACE2EB4F1FD0C11
:1046D00088BFBCF5E06F1ED8BEF1004F08BF5FEA8F
:1046E000500E50F1000041EB045170BD06F0004641
:1046F00046EA010140EA020081EA0301B4EB5C04EE
:10470000C2BFD4EB0C0541EA045170BD41F48011E5
:104710004FF0000E013C00F3AB8014F1360FDEBF0A
:10472000002001F0004170BDC4F10004203C35DAE6
:104730000C341BDC04F11404C4F1200500FA05F369
:1047400020FA04F001FA05F240EA020001F000420A
:1047500021F0004110EBD37021FA04F642EB060180
:104760005EEA430E08BF20EAD37070BDC4F10C04AA
:10477000C4F1200500FA04F320FA05F001FA04F26E
:1047800040EA020001F0004110EBD37041F100015A
:104790005EEA430E08BF20EAD37070BDC4F1200565
:1047A00000FA05F24EEA020E20FA04F301FA05F2CD
:1047B00043EA020321FA04F001F0004121FA04F275
:1047C00020EA020000EBD3705EEA430E08BF20EA45
:1047D000D37070BD94F0000F0FD101F0004640007F
:1047E00041EB010111F4801F08BF013CF7D041EA01
:1047F000060195F0000F18BF704703F00046520005
:1048000043EB030313F4801F08BF013DF7D043EAD5
:104810000603704794EA0C0F0CEA135518BF95EA8B
:104820000C0F0CD050EA410618BF52EA4306D1D112
:1048300081EA030101F000414FF0000070BD50EA31
:10484000410606BF1046194652EA430619D094EABB
:104850000C0F02D150EA013613D195EA0C0F05D1A5
:1048600052EA03361CBF104619460AD181EA0301F9
:1048700001F0004141F0FE4141F470014FF00000B1
:1048800070BD41F0FE4141F4780170BD70B54FF04C
:10489000FF0C4CF4E06C1CEA11541DBF1CEA1355CC
:1048A00094EA0C0F95EA0C0F00F0A7F8A4EB0504AE
:1048B00081EA030E52EA03354FEA013100F08880A5
:1048C0004FEA03334FF0805545EA131343EA12636E
:1048D0004FEA022245EA111545EA10654FEA002623
:1048E0000EF000419D4208BF964244F1FD0404F5DC
:1048F000407402D25B084FEA3202B61A65EB030538
:104900005B084FEA32024FF480104FF4002CB6EBF4
:10491000020E75EB030E22BFB61A754640EA0C0074
:104920005B084FEA3202B6EB020E75EB030E22BFB4
:10493000B61A754640EA5C005B084FEA3202B6EBF5
:10494000020E75EB030E22BFB61A754640EA9C00B4
:104950005B084FEA3202B6EB020E75EB030E22BF84
:10496000B61A754640EADC0055EA060E18D04FEA42
:10497000051545EA16754FEA06164FEAC30343EAE2
:1049800052734FEAC2025FEA1C1CC0D111F4801FAF
:104990000BD141EA00014FF000004FF0004CB6E7A8
:1049A00011F4801F04BF01430020B4F1FD0C88BF47
:1049B000BCF5E06F3FF6AFAEB5EB030C04BFB6EB52
:1049C000020C5FEA500C50F1000041EB045170BD45
:1049D0000EF0004E4EEA113114EB5C04C2BFD4EB72
:1049E0000C0541EA045170BD41F480114FF0000EF6
:1049F000013C90E645EA060E8DE60CEA135594EA72
:104A00000C0F08BF95EA0C0F3FF43BAF94EA0C0F74
:104A10000AD150EA01347FF434AF95EA0C0F7FF4E9
:104A200025AF104619462CE795EA0C0F06D152EA3D
:104A300003353FF4FDAE1046194622E750EA410621
:104A400018BF52EA43067FF4C5AE50EA41047FF432
:104A50000DAF52EA43057FF4EBAE12E74FF0FF3C97
:104A600006E000BF4FF0010C02E000BF4FF0010C68
:104A70004DF804CD4FEA410C7FEA6C5C4FEA430CE1
:104A800018BF7FEA6C5C1BD001B050EA410C0CBF30
:104A900052EA430C91EA030F02BF90EA020F002092
:104AA000704710F1000F91EA030F58BF994208BFF9
:104AB00090422CBFD8176FEAE37040F001007047B6
:104AC0004FEA410C7FEA6C5C02D150EA013C07D10D
:104AD0004FEA430C7FEA6C5CD6D152EA033CD3D058
:104AE0005DF8040B704700BF8446104662468C4652
:104AF0001946634600E000BF01B5FFF7B7FF002885
:104B000048BF10F1000F01BD4DF808EDFFF7F4FFAD
:104B10000CBF012000205DF808FB00BF4DF808ED38
:104B2000FFF7EAFF34BF012000205DF808FB00BF5B
:104B30004DF808EDFFF7E0FF94BF012000205DF87D
:104B400008FB00BF4DF808EDFFF7CEFF94BF012032
:104B500000205DF808FB00BF4DF808EDFFF7C4FF2B
:104B600034BF012000205DF808FB00BF4FEA410C74
:104B70007FEA6C5C02D150EA013C0AD14FEA430C57
:104B80007FEA6C5C02D152EA033C02D14FF0000094
:104B900070474FF0010070474FEA410212F50012D2
:104BA00015D211D56FF47873B3EB625212D94FEA74
:104BB000C12343F0004343EA505311F0004F23FA5E
:104BC00002F018BF404270474FF00000704750EAB3
:104BD000013005D111F0004008BF6FF00040704770
:104BE0004FF00000704700BF4A0011D212F50012CA
:104BF00011D20DD56FF47873B3EB62520ED44FEA35
:104C0000C12343F0004343EA505323FA02F07047B4
:104C10004FF00000704750EA013002D14FF0FF30F2
:104C200070474FF0000070474FEA4102B2F1E04395
:104C300024BFB3F5001CDCF1FE5C0DD901F0004C83
:104C40004FEAC0024CEA5070B2F1004F40EB8300D3
:104C500008BF20F00100704711F0804F21D113F1FF
:104C60003872BCBF01F00040704741F480114FEA38
:104C70005252C2F11802C2F1200C10FA0CF320FAC1
:104C800002F018BF40F001004FEAC1234FEAD323DE
:104C900003FA0CFC40EA0C0023FA02F34FEA430348
:104CA000CCE77FEA625307D150EA01331EBF4FF0D1
:104CB000FE4040F44000704701F0004040F0FE40EC
:104CC00040F40000704700BF80F0004002E000BFE9
:104CD00081F0004142001FBF5FEA410392EA030FE7
:104CE0007FEA226C7FEA236C6AD04FEA1262D2EB31
:104CF0001363C1BFD218414048404140B8BF5B4236
:104D0000192B88BF704710F0004F40F4000020F0CE
:104D10007F4018BF404211F0004F41F4000121F0E4
:104D20007F4118BF494292EA030F3FD0A2F101022E
:104D300041FA03FC10EB0C00C3F1200301FA03F16C
:104D400000F0004302D5494260EB4000B0F5000F8F
:104D500013D3B0F1807F06D340084FEA310102F14E
:104D60000102FE2A51D2B1F1004F40EBC25008BF00
:104D700020F0010040EA03007047490040EB0000CA
:104D8000013A28BFB0F5000FEDD2B0FA80FCACF1CB
:104D9000080CB2EB0C0200FA0CF0AABF00EBC250F8
:104DA00052421843BCBFD0401843704792F0000FE6
:104DB00081F4000106BF80F400000132013BB5E739
:104DC0004FEA41037FEA226C18BF7FEA236C21D0AF
:104DD00092EA030F04D092F0000F08BF0846704714
:104DE00090EA010F1CBF0020704712F07F4F04D1E2
:104DF000400028BF40F00040704712F100723CBFF5
:104E000000F50000704700F0004343F0FE4040F41E
:104E1000000070477FEA226216BF08467FEA2363DC
:104E20000146420206BF5FEA412390EA010F40F4C7
:104E3000800070474FF0000304E000BF10F0004313
:104E400048BF40425FEA000C08BF704743F09643FA
:104E500001464FF000001CE050EA010208BF704715
:104E60004FF000030AE000BF50EA010208BF70479C
:104E700011F0004302D5404261EB41015FEA010CB1
:104E800002BF84460146002043F0B64308BFA3F1A9
:104E90008053A3F50003BCFA8CF2083AA3EBC2538B
:104EA00010DB01FA02FC634400FA02FCC2F12002AA
:104EB000BCF1004F20FA02F243EB020008BF20F0E1
:104EC0000100704702F1200201FA02FCC2F1200247
:104ED00050EA4C0021FA02F243EB020008BF20EA3C
:104EE000DC7070477BB972B90029BEBF00204FF05B
:104EF000004106E008BF00281CBF6FF000414FF0E2
:104F0000FF3000F017BAADF1080C6DE904CE0029AE
:104F100009DB002B1ADB00F0A5F8DDF804E0DDE981
:104F2000022304B07047404261EB4101002B1BDBC0
:104F300000F098F8DDF804E0DDE9022304B0404217
:104F400061EB4101524263EB43037047524263EB12
:104F5000430300F087F8DDF804E0DDE9022304B044
:104F6000404261EB41017047524263EB430300F062
:104F700079F8DDF804E0DDE9022304B0524263EB86
:104F80004303704753B94AB9002908BF00281CBF22
:104F90004FF0FF314FF0FF3000F0CCB9ADF1080C0D
:104FA0006DE904CE00F05EF8DDF804E0DDE90223EF
:104FB00004B07047430803F05533C01A830803F068
:104FC000333300F03330184400EB101000F00F3092
:104FD00000EB002000EB0040000E704780EA10401C
:104FE00080EA102080EA101046F6961300F00F00B9
:104FF00043FA00F000F00100704700BF07EE900A8E
:10500000F5EEC07AF1EE10FA01D400F00BB8F1EE33
:10501000677A08B517EE900A00F004F8404261EB99
:10502000410108BDD0B5FFF7AFFA0C4B0022064690
:105030000F46FFF701FBFFF7D7FD0446FFF782FAA3
:10504000074B0022FFF7F8FA02460B463046394676
:10505000FFF73AF9FFF7C8FD2146D0BD0000F03D4B
:105060000000F0412DE9F047089D04468E46002BD4
:105070004DD18A42944669D9B2FA82F252B101FA0C
:1050800002F3C2F1200120FA01F10CFA02FC41EA1C
:10509000030E94404FEA1C48210CBEFBF8F61FFAA1
:1050A0008CF708FB16E341EA034306FB07F199423C
:1050B0000AD91CEB030306F1FF3080F01F819942EF
:1050C00040F21C81023E63445B1AA4B2B3FBF8F0C9
:1050D00008FB103344EA034400FB07F7A7420AD950
:1050E0001CEB040400F1FF3380F00A81A74240F278
:1050F00007816444023840EA0640E41B00261DB1E3
:10510000D4400023C5E900433146BDE8F0878B4217
:1051100009D9002D00F0EF800026C5E900013046D6
:105120003146BDE8F087B3FA83F6002E4AD18B42B0
:1051300002D3824200F2F980841A61EB030301205A
:105140009E46002DE0D0C5E9004EDDE702B9FFDE46
:10515000B2FA82F2002A40F09280A1EB0C014FEAF1
:105160001C471FFA8CFE0126200CB1FBF7F307FB4E
:10517000131140EA01410EFB03F0884208D91CEBF1
:10518000010103F1FF3802D2884200F2CB8043468E
:10519000091AA4B2B1FBF7F007FB101144EA01446D
:1051A0000EFB00FEA64508D91CEB040400F1FF31FC
:1051B00002D2A64500F2BB800846A4EB0E0440EAEA
:1051C00003409CE7C6F12007B34022FA07FC4CEAF3
:1051D000030C20FA07F401FA06F31C43F9404FEAE6
:1051E0001C4900FA06F3B1FBF9F8200C1FFA8CFEFB
:1051F00009FB181140EA014108FB0EF0884202FA4F
:1052000006F20BD91CEB010108F1FF3A80F088800F
:10521000884240F28580A8F102086144091AA4B2CC
:10522000B1FBF9F009FB101144EA014100FB0EFE4D
:105230008E4508D91CEB010100F1FF346CD28E457C
:105240006AD90238614440EA0840A0FB0294A1EB0D
:105250000E01A142C846A64656D353D05DB1B3EB6A
:10526000080261EB0E0101FA07F722FA06F3F1409A
:105270001F43C5E9007100263146BDE8F087C2F141
:105280002003D8400CFA02FC21FA03F391400143B9
:105290004FEA1C471FFA8CFEB3FBF7F007FB1036F2
:1052A0000B0C43EA064300FB0EF69E4204FA02F49E
:1052B00008D91CEB030300F1FF382FD29E422DD9F1
:1052C000023863449B1B89B2B3FBF7F607FB163326
:1052D00041EA034106FB0EF38B4208D91CEB0101A6
:1052E00006F1FF3816D28B4214D9023E6144C91A26
:1052F00046EA004638E72E46284605E70646E3E636
:105300001846F8E64B45A9D2B9EB020864EB0C0E3F
:105310000138A3E74646EAE7204694E74046D1E74E
:10532000D0467BE7023B614432E7304609E76444FC
:10533000023842E7704700BF02E000F000F8FEE7E5
:1053400072B63A4880F30888394880F309883948AA
:105350004EF60851CEF20001086040F20000CCF297
:1053600000004EF63471CEF200010860BFF34F8F9B
:10537000BFF36F8F40F20000C0F2F0004EF688518C
:10538000CEF200010860BFF34F8FBFF36F8F4FF075
:105390000000E1EE100A4EF63C71CEF2000108600A
:1053A000062080F31488BFF36F8F2EF1B3FD2EF12A
:1053B0008FFD2DF103FF4FF055301F491B4A9142DD
:1053C0003CBF41F8040BFAE71C49194A91423CBF23
:1053D00041F8040BFAE71A491A4A1B4B9A423EBF9E
:1053E00051F8040B42F8040BF8E700201749184A5B
:1053F00091423CBF41F8040BFAE72EF16DFD2DF10F
:1054000031FF144C144DAC4203DA54F8041B8847A6
:10541000F9E702F09DFB114C114DAC4203DA54F850
:10542000041B8847F9E72EF155BD00000006002057
:10543000002200200040000800000020000600209C
:105440008042170800220020CC2B0020D02B002007
:10545000EC6B0120E0410008B4420008B4420008AF
:10546000B44200082DE9F04F2DED108AC1F80CD0A0
:10547000C3689D46BDEC108ABDE8F08F002383F31E
:1054800011882846A04700202DF190FCFEE72DF161
:1054900031FB00DFFEE7000001F0FF01102A2BDBEB
:1054A00010F0070F08D010F8013B013A8B422DD0C5
:1054B00010F0070F42B3F6D1F0B441EA012141EAFE
:1054C000014122F007047FF000070023F0E80256B4
:1054D000083C85EA010586EA010685FA47F5A3FA44
:1054E00087F586FA47F6A5FA87F68EB9EED1F0BCB5
:1054F00001F0FF0102F0070232B110F8013B013A5E
:1055000083EA010313B1F8D10020704701387047D6
:10551000002D06BF35460338073815F0010F07D1B7
:10552000013015F4807F02BF013015F4C03F013017
:10553000F0BC0138704700BFEC46A0E8F05F4FF0C8
:1055400000007047B0E8F05FE546080008BF0120A2
:10555000704700BF10F8012B11F8013B012A28BF4A
:105560009A42F7D0D01A7047034613F8012B002A4D
:10557000FBD1181A0138704738B5002200230446C1
:105580000D46FFF7CBFA28B920462946BDE838403A
:1055900000F00AB8204605F1004100F005F840424D
:1055A00061EB410138BD00BFD0B50C4B002206466F
:1055B0000F46FFF741F8FFF717FB0446FEF7C2FF5F
:1055C000074B0022FFF738F802460B4630463946B3
:1055D000FEF77AFEFFF708FB2146D0BD0000F03D44
:1055E0000000F041074A13780133DBB21D2B98BF4E
:1055F000137003684FF0000188BF11709B6888BF6B
:1056000001211847002200202DE9F0418368012B79
:1056100090B004460D4602D0980640F1C080614E1D
:1056200096F9563CB3B106F58052B6F9583CD2F81B
:105630001429B2F90A1003F10A02914203DD40F283
:105640008D32934206DC584B2A4620212046A7F093
:105650009BFB5FE096F9453C022B05D1534B2A4654
:1056600020212046A7F090FBB6F8183CA3F57A73EA
:105670009BB241F6583293420FD84D4FD7F8E839D4
:10568000A7F59C5292ED007AD3ED097AB4EEE77A51
:10569000F1EE10FA03DD474BD6E7474BD4E706F6A9
:1056A000844292ED007AD3ED0A7AB4EEE77AF1EE15
:1056B00010FAF0DCB6F9523C002B01DC3F4BC3E79B
:1056C00096F8402E0D2A04D84FF42153D340D90721
:1056D00008D4DFF82881D8F8700DA2F0D1FA18B9F3
:1056E000374BB1E7374BAFE7374812F0E5FA0128FF
:1056F00037D1D7F8F0099FF057FC01280CD00228C9
:105700001FD070BB314B0093314B2A4620212046DD
:10571000A7F03AFB00203FE098F8CC39DA070ED525
:105720002C4819215EF0DCFE48B12A48D6F8306CCE
:1057300019215EF0E5FE864213DD274BE3E7274B98
:10574000E1E797F9103C0BB9254BDCE7254803AAA4
:105750000DF10A0160F042FCBDF80A300BB1224B9A
:10576000D1E798F8693DDB0601D5204B6CE703AE25
:105770001F49D7F8EC09322332469DF0BFFA10B921
:105780001C4B0096C1E71C49D7F8E8093223324682
:105790009BF02EFB0028F3D010B0BDE8F081012073
:1057A000FAE700BFD84B0020A4BE1308B7BE130809
:1057B000D86B0020EFBE1308DFBE130809BF130823
:1057C0003EBF13081EBF1308EC88002079BF1308E2
:1057D00054BF13086840002098BF130889BF1308FE
:1057E000AEBF1308E8770020BFBF1308D8BF130867
:1057F000EDBF1308F1BF130803C01308D85B0020E6
:105800002DE9F341DFF8D880D8F8703D93F86F4068
:1058100005460E4634B92E4AA7F09CFC204602B03D
:10582000BDE8F0812021A7F09FFA0028F6D022F0F1
:10583000B1FE22F0AFFE90F8407022F0ABFE90F87F
:105840004130032B10D0032FE8D10020D8F8703D51
:10585000B3F9A220B2F57A7F08D01E4A3146284615
:10586000A7F078FC0024D9E70120EFE7B3F9A430D2
:10587000B3F5FA6F01D0184AF0E789F0DBFA074672
:10588000D8F8700D0368DB6A98470022B7F8E0C0CB
:10589000114613464FF0010E0EFA02F7384202F19C
:1058A00001025FFA82F807D01CEA070F04D1013326
:1058B000DBB2002908BF4146102AEDD1002BADD044
:1058C0000091064A31462846A7F044FCCAE700BFCB
:1058D00008C0130826C0130849C013086CC0130879
:1058E000D85B002013B58368012B0A4601D05B0604
:1058F00016D50C4B93F9561C91B103F58051D1F894
:105900001449B3F9581CB4F90630994208DD064B26
:1059100000934021054BA7F037FA002002B010BDDC
:105920000120FBE7D84B00208CC0130897B1150865
:1059300070B58EB005460E460A48322201A986F09F
:105940004DFB044640B99DF9043043B9064B074A64
:1059500031462846A7F0FEFB20460EB070BD01ABD5
:10596000F5E700BF48630020A4C0130897B11508ED
:105970002DE9F043DFF864910446D9F8500D03682F
:1059800099B01B690D46984780461BF0D9F8002155
:1059900007462E220CA80B9132F180FA32230BAA73
:1059A0004146384619F0CAFB064648B93F4A0BAB98
:1059B00029462046A7F0CEFB304619B0BDE8F0835B
:1059C0003B4885F061FCB8F1000F0BD0A9F54050C1
:1059D00018F046F880B9374A29462046A7F0BAFBA6
:1059E0000026E9E710F0060FE6D0A9F5405018F0C0
:1059F00037F808B9304AEFE703A9384619F034F907
:105A000028B19DF80D305B0601D52C4AE4E7DFF89C
:105A1000D080D8ED007AF5EEC07AF1EE10FA4FF0B2
:105A200000032CDD089309930A930DF1200907ABBD
:105A3000019305AA06AB04A9CDF8009038461AF0E8
:105A400037FE48463DF03CF8D8ED007AB4EEE70A60
:105A5000F1EE10FA01DB1A4ABEE79DED057AF4EE8D
:105A6000C77AF1EE10FA01D8164AB5E79DED047A2F
:105A7000F4EEC77AF1EE10FA01D8134AACE707F258
:105A80006C41124807F024F9074608B1104AA3E711
:105A900010490E4807F01CF900288DD00E4A2946FF
:105AA0002046A7F057FB3E4686E700BFBCC0130860
:105AB00088760020C5C01308DCC0130802C1130893
:105AC00010C1130825C113083BC11308D82B0020AF
:105AD00051C11308907500206EC11308D85B0020D7
:105AE0004C58002008B5064B93F8693D9B0704D538
:105AF000044AA7F02FFB002008BD0120FCE700BFEF
:105B0000D85B002090C1130870B5836813F0210F93
:105B10008EB005460E4603D1012420460EB070BD5E
:105B2000A8F0A6FD04460028F6D000212E2202A8E7
:105B3000019132F1B3F92046322201A9A8F060FDAB
:105B400004460028E8D1034A01AB31462846A7F0B5
:105B500001FBE2E797B1150870B50C4C0546D4F887
:105B6000500D03685B690E46984710B1012420462A
:105B700070BDA4F5405017F085FF04460028F5D10C
:105B8000034A31462846A7F0E5FAF0E7D85B002043
:105B9000A0C1130870B505460E46FFF7E9FE064B97
:105BA0000446D87131462846FFF7D6FF002814BFB7
:105BB0002046002070BD00BF219400202DE9704ACE
:105BC0002E4DD5F8702D92F86D4083460E4684B95F
:105BD00070F088FC202170F09BFA68B170F082FCB4
:105BE0001F2170F095FA38B1254A31465846A7F082
:105BF000B1FA2046BDE8708A95F84A2D02F01402E9
:105C0000142A04D11F4A31465846A7F0A3FADBF8FC
:105C100008203AB9DBF8002031465846D26ABDE880
:105C2000704A104731465846FFF7EEFC3146814630
:105C30005846FFF7E5FD09EA0000C4B23146584670
:105C4000FFF750FE314604405846FFF771FE3146DB
:105C500004405846FFF746FF314604405846FFF7D8
:105C600053FF314604405846FFF776FF3146044063
:105C70005846A8F091FA0440BBE700BFD85B00206B
:105C8000B4C11308CEC1130808B5FFF797FF054A42
:105C900092F8481D60F3041182F8481D024A907181
:105CA00008BD00BFD85B00202194002007B5044840
:105CB000A0F0ACFD00F0010003B05DF804FB00BFF4
:105CC000A0750020F7B505460E46A7F0CFF80446AC
:105CD00058B3AB68012B01D0990726D51448A0F022
:105CE00095FDC205C0F30723C0F300271DD49B0711
:105CF0001BD50F48A0F03AFD0E4B03F68C13D3EDE5
:105D0000007AF8EEE77A30EE670ADFED0B7AB0EE54
:105D1000C00AB4EEE70AF1EE10FA06DD074B324690
:105D200002212846A7F030F83C46204603B0F0BDDB
:105D3000A0750020D86B00200000C842E8C11308FD
:105D4000F8B504460F46A7F0E9FBA368012B05460A
:105D500001D0DB060BD52046FFF7A8FF064630B979
:105D6000044B3A4610212046A7F00EF83546284647
:105D7000F8BD00BFFCC1130813B504460191A7F09C
:105D80008FF878B1A368019A012B01D01B0609D5C1
:105D9000054B93F87D322BB12046044B8021A6F0B1
:105DA000F3FF002002B010BDD86B002010C2130812
:105DB000F0B5114C85B0D4F80C390093D4F81039F3
:105DC0000193D4F8143902936A46D4F8183903932E
:105DD00006460F46A8F032F9394605463046A6F089
:105DE000FBFF94F8483D284060F3C303C3F3C000B1
:105DF00084F8483D05B0F0BDD85B00202DE9F8439C
:105E000005462348DFF89890224E0F4685F03CFA6D
:105E10008046D9F8500D03681B699847044630B98D
:105E200018F0060F03D1D9F8803D022B08D139466E
:105E30002846A7F0B7F8044610B90023F37109E02B
:105E400039462846FFF794FD03460028F5D024B9CB
:105E50000122F2711846BDE8F883AA68012A01D030
:105E60001207F5D50C4A92F868159C2000FB012119
:105E700002F50052B1F8B213B2F9462C9142E7DDB7
:105E8000064B3A4608212846A6F07EFFD5E700BF1C
:105E90008876002021940020D82B002024C21308EB
:105EA000D85B002070B588B005460E46A7F072F9A1
:105EB0000446002833D0AB68012B01D09A062ED5BA
:105EC0001A4B93F8842B52B393F8643B9B0726D567
:105ED000174807AA06A97FF007FF00B3DDED077A90
:105EE0009FED147AF4EEC77AF1EE10FA17D80DA3ED
:105EF000D3E9002317EE900ACDE90423FEF744FB13
:105F0000DDED067A0C4BFDEEE77ACDE90201CDED31
:105F1000007A324620212846A6F036FF002420468B
:105F200008B070BD000000403333E33FD86B002061
:105F3000DC5900209A99193F34C213082DE9F34126
:105F40000F4605461AF0FCFD804619F0B1F80446EC
:105F500040B9724A01212846A7F0FCF8204602B059
:105F6000BDE8F08140461AF0B9FD78B926F034FB5F
:105F700090F85513044625F00FFE7C23C0B203FBB6
:105F8000004494F851400CB9654AE3E7654ED6F8F1
:105F9000500D036839469B699847044608B9624A20
:105FA000D8E701212846FFF72BFC04460028D5D06E
:105FB00096F84A3D03F01403142B05D15B4A0121E6
:105FC0002846A7F0C7F830E070F08CFA1F2170F077
:105FD0009FF8574B58BB1870AB68002BBED0012BF5
:105FE00001D0D80628D5D8EDF77A98EDF60A20EE3C
:105FF000270A2FF139FCDFED4F7A4F4B20EE270AAD
:10600000B3F9183CDFED4D7A20EE270A07EE903AFF
:10601000F8EEE77AB4EEE70AF1EE10FA0CDD484B41
:10602000012210212846A6F0AFFE002496E71B7837
:10603000002BD1D0434AC2E7AB68012B01D09906AF
:1060400009D596F8692DD20603D53F4B01222021B0
:10605000E8E7012B01D05B0638D5374B93F9562C76
:106060003AB1D6F81419B3F9582CB1F906309A425E
:1060700015DC012F1CD0D6F814393448B3F9083098
:1060800000EE103AB8EEC00A00F09EFAB5EEC00A73
:10609000F1EE10FA25DD2E4B00932E4B02E02C4B37
:1060A00000932D4B012240212846A6F06DFEBCE74F
:1060B000D6F8500D03681B689847042806D0D6F818
:1060C000500D03681B6898471428D4D1234B1B68D4
:1060D000186D0368DB6998470128014616D1204AEC
:1060E0006EE7D6F8500D03685B69984730B1D6F873
:1060F0001439B3F90830002BE8DDCCE7D6F8500DA1
:1061000003681B6898470B28E0D1F0E7394628461A
:1061100002B0BDE8F041A7F043BC00BF60C2130865
:1061200071C21308D85B002085C21308CEC11308C2
:10613000089E0020E02E6542D84B00200000C84297
:10614000AEC2130896C21308D8BF1308D82B00207C
:10615000C8C21308D1C21308B6C21308908D00201C
:10616000DDC213082DE9F041514F3B78002B40F080
:106170009D80504CD4F8705D95F86D5001263E70AE
:106180001DB13B702846BDE8F081A8F0B3F8054684
:1061900030B9494A3870137843F001031370F1E7BE
:1061A00063F066FC314662F081FEA4F5405008F0D1
:1061B000BDFC424B1E710B2659F060FC013E59F0AC
:1061C00097FB16F0FF06F7D13D4801F06BF81AF087
:1061D000B7FCD0F86C23C4F8982D90F87C34DA071B
:1061E00052D41AF01DF863F043FC3C2163F092FB9B
:1061F00004F65C5300221A6000213148314E01F050
:10620000E3F82F4817F02CFC01462F48A5F0ACFA14
:106210002E4B1B680121186D32F0A8FF96F8C03B89
:106220006FF3410386F8C03BA6F5804016F0D6FA1E
:106230000121D4F8700DA2F0B9FC63F019FC80467E
:10624000D4F8500D03681B689847A6F50053014623
:1062500093F8042C404662F0EFFFA6F5804008F06A
:1062600057FC5FF0EBFA5EF00FFF00233B70B4F0D9
:10627000DFFEB4F84A3DC6F8FC0923F4087343F086
:106280002003A4F84A3D7DE79B07B5D431460C486E
:1062900006F0CAFD0E48A0F069FADFED0E7A20EE96
:1062A000270A04F65C5383ED000AA5E7002569E799
:1062B000D02B0020D85B00204094002021940020A7
:1062C000D82B0020D86B002090610020908D0020FA
:1062D000A07500200AD7233C2DE9F043364DD5F8B0
:1062E000703D93F86D3087B0002B63D052B1012917
:1062F00008D195F9483D002B04DB0024204607B067
:10630000BDE8F083A8F07EF804460028F5D01AF026
:1063100017FC074626F060F98046384618F0D2FD93
:10632000D8B198F92430022B17D100264FF000097C
:10633000F1B203AA38460191CDF80C90CDF8109037
:10634000CDF8149019F04EFD019918B103AA4046FA
:1063500025F086FD0136032EEAD1184BD5F8500DF5
:10636000984223D10CF0E2FC1548012108F0DEFD33
:106370001348012108F01AFD0021D5F8700DA2F094
:1063800015FC10483EF038FC63F072FB002162F00F
:106390008DFD0D4B1B680021186D32F0E7FE95F85E
:1063A0004A3D6FF3451385F84A3DA7E718460CF0C0
:1063B000C1FCD9E70124A1E7D85B0020A884002014
:1063C000D82B002034830020908D0020014885F0D8
:1063D00023B800BF8876002008B500F5405090F83B
:1063E000483DC3F340128A420BD061F3451380F855
:1063F000483D31B163F03CFBBDE808400F2163F03C
:1064000089BA08BD70B500F540560546D6F8803DFE
:106410008B420C4612D0012911D0022916D059B94D
:1064200063F026FB1B2163F075FA0D4A05F56C50ED
:106430000621303065F0D8FFC6F8804D70BD63F09E
:1064400017FB1A2163F066FA064AEFE7012100F014
:10645000BBFF63F00DFB1D2163F05CFA024AE5E728
:1064600030C3130845C3130840C3130810B500F523
:1064700040520C4692F8693D03F00101A14209D057
:1064800064F3000382F8693DDB0704D407F0E6FFFC
:10649000024B9C7210BD08F05FF9F9E721940020CF
:1064A00000F5405090F8693D61F3410380F8693D83
:1064B000014B1973704700BF2194002010B50446AA
:1064C00070F010F820216FF023FE04F540530038DF
:1064D00093F84A2D18BF012060F3820283F84A2DF9
:1064E00010BD000008B500F54050D0F8700D0368ED
:1064F000DB689847F6EE007A20EE270AB5EEC00A70
:10650000F1EE10FA48BF9FED010A08BD000000003F
:1065100038B52DED028B00F580450446D5F8E839F5
:10652000DFED110A93ED2B0A04F540545D20B7EE20
:10653000001A36F08BFFD4F8700DD5F8EC590368CB
:10654000DB68B0EE408A984738EE400ABDEC028B1B
:10655000DFED067A05F5A475284620EE270ABDE88A
:1065600038408CF005BC00BF0000000000007A44F9
:1065700000F5FB50D0EDFC5AD2ED007AD0EDFF6A69
:1065800091ED006A26EEE77A67EEA57AA6EE257A07
:10659000E6EE267A81ED007AC2ED007A70470000BF
:1065A00000F54053B3F9883643B900F50050B0F90F
:1065B000520C0028B8BF404280B2704783EAE370B3
:1065C000A0EBE370F8E7000030B52DED028B00F58D
:1065D000405383B093F8691D11F00101044605D0C2
:1065E0009FED2C0A03B0BDEC028B30BD93F8493D02
:1065F00001915B07F4D5DFED288ADFED260AB0EEC6
:10660000681A3A2036F022FF04F500550199B5F9D1
:106610005A0C4FF4C872B0EE408A36F04DFFA5F820
:106620005A0C204616F0FEF9B5F95A3C07EE900ACE
:10663000B8EEE77A07EE903AF8EEE77A77EE676A17
:10664000B4EEE68AF1EE10FA0DD52046FFF7A8FF6A
:1066500007EE900A38EE668AB8EEE70A20EE088A5E
:1066600088EE260ABEE777EE877AB4EEE78AF1EE87
:1066700010FAB5DDB5F9523C00EE103A38EE678AF3
:10668000B8EEC00A78EEE77A20EE088A88EE270A8C
:10669000A8E700BF0000000000007A44F8B52DED27
:1066A000028B00F540550446D5F8703D93F86D30E7
:1066B000002B7DD095F9483D002B79DB00F5A043F8
:1066C00093F88836002B73D1D5F8500D03685B69B9
:1066D000984700286CD1384BD3F8500D03681B68DD
:1066E00098470B2864D004F580479FED347AD7F89B
:1066F000EC39D3ED9C7AF0EEE77AF4EEC77AF1EE5E
:1067000010FA55D5D5F8700D383065F041F90346CB
:10671000DFED2B0A93ED000A7D20B7EE001A36F06C
:1067200095FEB5EEC00AF1EE10FA41DD04F5934096
:106730004830A0F01FF8DFED237AB0EEC00AB4EEC7
:10674000E70AF1EE10FA33D5D7F8E80904F5005658
:106750000368D6EDB57ADB6FB8EEE78A984738EE76
:10676000400ABDEEC00A10EE103A002BB8BF5B42E3
:10677000B3F5FA7F1CDAD6F8D83240F2E63203F2EB
:10678000F313934214D8D5F8700D9FED0F0AA1F0C2
:10679000ADFABDEC028BD5F8703D9FED0B0AD3ED41
:1067A0000A0A04F5C0501030BDE8F8408EF036BF3C
:1067B000BDEC028BF8BD00BFD85B002000000034A8
:1067C00000000000000070420AD7233C0020704700
:1067D000002070470020704700207047002070475D
:1067E0007047000000F54050D0F8500D03681B685A
:1067F00018470000034808603621117008221A600B
:10680000704700BF08C9130800F580409FED0A7A61
:10681000D0F8F839D3ED0E7AF4EEC77AF1EE10FA2B
:10682000B8BFD3ED047A9FED057A67EE877A012031
:10683000C1ED007A704700BF000000340AD7233C46
:1068400010B500F540500C46D0F8500D03685B6D54
:10685000984707EE900A9FED057AF8EE677A0120D7
:1068600067EE877AC4ED007A10BD00BF0AD7233CDB
:1068700010B500F540500C46D0F8500D03681B6D64
:10688000984707EE900A9FED057AF8EEE77A012027
:1068900067EE877AC4ED007A10BD00BF0AD7233CAB
:1068A00010B500F540500C46D0F8500D03689B6DB4
:1068B0009847DFED047A20EE270A012084ED000AD4
:1068C00010BD00BF0AD7233C03685B6F1847000068
:1068D0008DF0D8BE76F01ABD04F010BB04F00CBBEE
:1068E00004F008BB04F004BB05F00EBCA7F0A4BE86
:1068F00082F044BB17F0E8BA05F076BE7CF086BAA9
:1069000022F032BD16F006B95EF0B4BE33F08ABE96
:1069100062F038BC1FF0E4BB71F08ABA6EF0E4BAE2
:106920006BF02ABF15F00ABD16F06EBA08F096BCDF
:1069300008F0B8B807F04CBB07F068BA58F0D8BFF9
:1069400015F076BE503084F0EDBB00001DF084B928
:1069500078F03CB882F01ABF12F01CB9FFF79EBE67
:1069600015F028BEA5F054BB7FF0E8B816F0FAB8D1
:1069700003F050BF15F0A8BD15F026BD6FF022BD85
:106980005BF042B829F0CEBC08B500F58040D0F8E5
:10699000F8099DF009FC012008BD000007F064BF64
:1069A0000BF000BE0BF05ABF0BF0EABE10B52DED98
:1069B000028B00F540530446D3F8500D03685B6A20
:1069C000B0EE408A984720B90024BDEC028B2046E7
:1069D00010BD9FED080A04F5B74028EE000A3430D8
:1069E0000EF0A4F804460028EED003480121FFF77A
:1069F000F3FCEAE70000C842D82B00201FB500F5E1
:106A000040530446D3F8500D039103685B6A9847DE
:106A100060B1DFED070A0399002304F5B740009346
:106A2000B0EE600A1A4634300EF008FE04B010BD15
:106A30000000000030B52DED028B0C4600F54051F2
:106A40000546D1F8500D89B001680392496A029356
:106A5000B0EE408AF0EE608A884728B39FED140AB2
:106A600094ED006AD4ED016A94ED027A9DF83C1031
:106A7000019126EE006A66EE806A27EE407A9DF864
:106A80003810009105F5B74068EE800A029B039A22
:106A90008DED056A28EE000A05A93430CDED066AB1
:106AA0008DED077A0EF0E2FC09B0BDEC028B30BD33
:106AB0000000C84270B500F540530646D3F8500DAB
:106AC00003688EB05B6A0D4614469847D8B3DFED75
:106AD0001F7A95ED006AD5ED016A95ED027ADFED3A
:106AE0001C0A26EE276A66EEA76A27EE677A8DED06
:106AF000056ACDED066A94ED006AD4ED016A8DED6C
:106B0000077A94ED027ACDED0B0A002326EE276A70
:106B100066EEA76A06F5B74067EE677ACDE90133FE
:106B20000093B0EE600A0BAB08AA05A934308DEDD6
:106B3000086ACDED096ACDED0A7ACDED0C0ACDEDEE
:106B40000D0A0EF07DFE0EB070BD00BF0000C84201
:106B500000000000F0B52DED028B1C4600F54053FF
:106B60000746D3F8500D03688FB05B6A0E46154692
:106B7000B0EE408AF0EE608A984700284CD09FED36
:106B8000280A96ED006AD6ED016A96ED027A9DF824
:106B90006030029326EE006A66EE806A27EE407A45
:106BA0008DED056ACDED066A95ED006AD5ED016AB9
:106BB0008DED077A95ED027A9DF85C30019326EE13
:106BC000006A66EE806A27EE407A8DED086ACDEDA8
:106BD000096A94ED006AD4ED016A8DED0A7A94EDAC
:106BE000027A9DF85830009326EE006A66EE806ABD
:106BF00027EE407A07F5B74068EE800A0BAB28EE27
:106C0000000A08AA05A934308DED0B6ACDED0C6A97
:106C10008DED0D7A0EF014FE0FB0BDEC028BF0BDC1
:106C20000000C84270B500F540530646D3F8500D39
:106C3000036886B05B6A0C469847054610B39FED23
:106C4000136AD4ED006A94ED017AD4ED027ADFED97
:106C5000100A0023012266EE866A27EE067A67EEA6
:106C6000C67A06F5B740CDE90032B0EE600A1A46A2
:106C700003A93430CDED036A8DED047ACDED057AAC
:106C80000EF0E0FB284606B070BD00BF0000C84211
:106C900000000000F0B52DED028B144600F54052C7
:106CA0000746D2F8500D8DB002680593526A0D4622
:106CB000B0EE408AF0EE608A90470646C8B39FED7A
:106CC0001F0A95ED006AD5ED016A95ED027A059BE4
:106CD00026EE006A66EE806A27EE407A01228DED8C
:106CE000066ACDED076A94ED006AD4ED016A8DED78
:106CF000087A94ED027A02929DF85420019226EED1
:106D0000006A66EE806A27EE407A9DF85020009275
:106D100007F5B74068EE800A09AA28EE000A06A91E
:106D200034308DED096ACDED0A6A8DED0B7A0EF0E7
:106D30001FFB30460DB0BDEC028BF0BD0000C84219
:106D400070B52DED068B00F540530546D3F8500D78
:106D5000036884B05B6AF0EE409AB0EE60AAF0EE91
:106D600041AAF0EE618A0E46B0EE429A9847044678
:106D7000F8B19FED128A4FF07E536AEE080A29EEB1
:106D8000880A0093684600232AEE881A0393029328
:106D900001933AF02BFA9FED0A0A05F5B74069EE28
:106DA000080A28EE800A00233246694634300EF085
:106DB000C7F9204604B0BDEC068B70BD35FA8E3C99
:106DC0000000C842554B37B5044640F8043B76F006
:106DD0009BFB9FED531ADFED530A9FED530A04F11D
:106DE00030008BF08FFD04F1580082F0DFF904F1E0
:106DF00010054E4B4E491D6028465CF07DFC04F1A9
:106E0000900021F0F3F84B4B0193009402AB13E98F
:106E1000060004F506705EF055FA04F5317027F0AF
:106E20007BFA04F5C2601CF08FFB04F2647024F05E
:106E3000B1FD04F52C6033F08FF904F59E5076F027
:106E40003BF904F5A45010305DF01AFA04F5B8507F
:106E5000183070F0E9FD04F5BA5014301FF056FBFD
:106E600004F5C05010308DF053FD04F5F55096F048
:106E700019FB04F5F55018305EF092FD04F5F8505A
:106E8000043077F0AFFC04F5805300252A4A83F8DC
:106E90000C5F04F5F85004F5F8530C331C30136004
:106EA00058F0C6FB04F5FB502946103017F014FCCF
:106EB00004F51B5028308CF0C7F904F51B50343012
:106EC0007BF0B4FF04F51C5020308CF0CBFE04F5B1
:106ED0002750343093F09AF804F52C500C3092F08F
:106EE00069F904F52C502C3095F03EF904F52E503C
:106EF000243095F0BBFE04F5005383F8045C0F4D7D
:106F00002B6813B10E48B4F061F820460D495CF0CF
:106F1000F3FB20462C6003B030BD00BF38F41408EA
:106F200000008C429A99993E0000484358920020F4
:106F30000C491408C9680008C0A00020089500206A
:106F400054C313087CF3140810B515F0F5FC6FF06A
:106F5000C9FA0368BDE810405B681847FFF7F4BF43
:106F600010B5044607F03AFF204616F0A3F9204674
:106F700005F03EFD2046BDE8104005F017BD0000BD
:106F8000FFF7EEBF70B500F576551C350446284670
:106F90001EF00EF925F020FB90F9213093B390F804
:106FA00054337BB304F5405304F26476D3F8700D88
:106FB000383064F0EDFC0346DFED130A93ED000A70
:106FC0007D20B7EE001A36F041FA94F9A037012B74
:106FD000284608BF86ED130A00211DF0F5FEDFEDFF
:106FE0000B7A04F51D6494ED287A20EE270ADFED74
:106FF000087AA7EE270A304684ED280ABDE87040DB
:1070000024F0BABF70BD00BF00000000CDCCCC3D65
:107010006666663FFFF7B6BF00F5765000211C306C
:107020001DF0D2BE10B50121044616F07FF958B10B
:10703000064BD3F8500D03689B6A984720B9204649
:10704000BDE8104002F07ABC10BD00BFD85B002044
:10705000FFF7E8BF38B50446FFF7DEFF0221204600
:1070600016F064F970B10121204616F05FF948B9B5
:10707000514BD3F8500D03689B6A984710B92046CE
:1070800002F05CFC0221204616F050F900286ED078
:10709000204602F0DDFC4FF40031204616F046F9A0
:1070A00010B1204602F0E6FC4021204616F03EF9E1
:1070B00068B104F564551C35284660F017FD04F5E9
:1070C000805393F9183713B1284660F02BFE4FF424
:1070D0008061204616F02AF920B104F564501C3076
:1070E00060F09CFD2021204616F020F970B104F5D7
:1070F0004055D5F8500D03681B69984700283DD0CE
:1071000004F58043D3F8EC099BF040F88021204639
:1071100016F00CF900283ED034F0ACFB32F03EFF04
:107120001021204616F002F9A0B104F5804304F5C1
:107130006455D3F8E80997F071FE1C3504F5385111
:107140000431284661F048F904F5355104312846E8
:1071500061F0E0F84FF6FF71204616F0E7F848B30B
:1071600004F559502C30BDE83840A7F073BA01211E
:10717000204616F0DBF800288AD18CE720460FF075
:10718000C9FA0028BCD1D5F8500D03685B6998474F
:107190000028B5D0BAE74FF48021204616F0C6F893
:1071A0000028B9D14FF40021204616F0BFF800287E
:1071B000B2D1B5E738BD00BFD85B0020FFF74ABFAA
:1071C00010B50121044616F0B1F810B1204602F0C6
:1071D0003FFC8021204616F0A9F828B134F04AFB84
:1071E000BDE8104032F0BCBE10BD0000FFF7E8BFA4
:1071F00010B5044607F010FC204607F04FFA204671
:1072000007F000FD204616F083FE2046BDE8104042
:1072100005F0C6B9FFF7ECBF70B54FF6FF71044635
:1072200016F084F804F5405528B1D5F8482D07210B
:10723000204602F083FC04F56A500430FEF7D2F9D0
:10724000D5F8703D93F86D30B3B904F5FB501030AC
:1072500019F076FD2046FFF731F9D5F8700D04F5E9
:107260000053026893F8401ED66993F86E2CB0471D
:10727000D5F8700DA0F012FD6FF038FB204616F027
:1072800039FE95F8483D054ADB4304F5A044C3F3B5
:10729000C01384F8C935537170BD00BF219400201C
:1072A000FFF7BABF2DE9F04100F5FB5300F540555B
:1072B00005F68458D3F8F023C8F80020103305F6FB
:1072C0008857D3F8EC333B6000F500560446D6F8F7
:1072D000DC0200F58C40503036F08CF805F559632F
:1072E000C5F88C0DD8F800201A6005F694553B6857
:1072F0002B604FF6FF71204616F018F838B1D6F81B
:10730000DC2220460921BDE8F04102F0EDBBBDE8DA
:10731000F081000010B500F54053D3F8801D00291E
:1073200051D093F8492DD4074DD56FF3000283F85F
:10733000492DD3F80C29D3F810490129B2F90810C6
:1073400007EE101AB4F9081006EE901A0BBF03F6F8
:10735000845103F55961D1ED007AD1ED007A0CBF6B
:1073600003F6885103F69451D1ED005A0CBFF8EEA4
:10737000E66AF8EEE66AB8EEC77A25EEE66A00F548
:10738000FB50A7EE276A67EEA67AD0EDFC6AE7EE1F
:10739000257A90EDFF7A27EE877AA6EE267ABDEE63
:1073A000C77A17EE101A118190EDFC7AD3F81039D4
:1073B00067EE877A90EDFF7AE6EE477AFDEEE77AA0
:1073C00017EE902A1A8110BD38B505462DED028BB7
:1073D00000F5405471B1284615F00EF9D4F88C3DF3
:1073E0001B1A03F2F31340F2E63293420CD8BDECC1
:1073F000028B38BDD4F8803D022BF8D115F0DEF8B1
:10740000B0F57A7FE7D2F2E7C4F88C0D00F58C4036
:107410005030642390FBF3F308EE103ADFED0B7A63
:10742000B8EEC88A28EE278AB0EE480A2EF13EF858
:1074300004F5596383ED000AB0EE480A2EF1B0F965
:1074400004F6945484ED000AD1E700BF35FA8E3C6F
:1074500000F5FB500121103018F038BB10B5044680
:1074600000F52C6033F0A0FC04F58043D3F8E80964
:1074700003685B6C9847204614F0F8FE2046FFF73F
:10748000E7FF204607F04AFC204606F059FD20465B
:1074900007F0F6FF204605F0E9FC204607F092FED3
:1074A00004F59440483070F0C9FC4FF6FF71204657
:1074B00015F03CFF10B1204602F09EFB2046BDE8CF
:1074C00010405FF011BE000010B5044615F0B0FA90
:1074D0001021204615F02AFF48B1204602F0E8FCB2
:1074E00004F5C0501030BDE810408EF011B910BD49
:1074F000FFF7EABF70B50446254607F0EDFE294BBD
:1075000045F83C3B284B2465C4E91534274BC4E9B6
:107510001734274B636604F1780021F01BF904F15E
:10752000900021F017F904F1A80021F013F94FF6AB
:10753000FF76204BC4F8B830A4F8BC6004F1C0005A
:1075400021F008F91C4B1D491D6028465CF0D4F859
:107550000025012384F8383129465022A4F87060B0
:10756000A4F8886084F81051C4F8345104F5AE7062
:1075700030F194FC04F5B67021F0ECF804F5C27318
:1075800029461022184630F189FC21F0E3F804F571
:10759000CE7310222946184630F180FC21F0DAF82B
:1075A000204670BD6C261408A1690008A569000872
:1075B000A96900080000FFFFDC930020C0A81408A0
:1075C00010B5044607F088FE0A4B23600123A38709
:1075D00004F1400021F0BEF804F1500021F0BAF8A7
:1075E00004F1600021F0B6F804F1700021F0B2F867
:1075F000204610BD183014082DE9F0472DED028B00
:10760000044684B0FFF7DEFBAB4B236004F5325039
:10761000103002F003FD04F5315104F564502831B7
:107620001C3061F087FB04F5405604F531531C33E0
:10763000C6F8C43904F56750062386F8C8391830EF
:1076400064F020F904F567503C3064F01BF9012721
:1076500004F5685004F56A550435C6F8147A2430E8
:107660006FF040FE2846A5F04DFB944BC6F8843AD7
:10767000281D5BF01DFA08B986F8887A04F56B506E
:1076800024305AF067F904F56D558D4BC6F8303B40
:1076900004F56E5718353C372846143568F0CAFD96
:1076A000AF42F9D10723C6F8E03C0023A6F8E43C3A
:1076B0004FF4CB7021F012FCC6F8DC0C04F57350CB
:1076C0002830B0F0E9FC04F574502C30B0F0E4FC44
:1076D0007C4A13681BB904F56C533033136004F50E
:1076E000BB49794BC6F8303B09F1200904F57550C8
:1076F000C6F8509D1530A2F0D5FDB7EE008A06F60B
:10770000845383ED008A06F5596383ED008A6F4B3D
:1077100003936F4B0093029404AB04F5765013E986
:107720000C004FF400711C301DF0FCF804F585408E
:10773000A8F0BAF804F59340B0EE480A103064F0AF
:107740008BF904F59340B0EE480A283064F0A2F8B3
:1077500004F5934004F58045383020F0FBFF5D4B85
:10776000C5F8C83905F6CC1300271F605F609F601D
:1077700005F6D81304F594481F605F609F6004F518
:10778000FB531033C5F8E439002385F8013A08F1BA
:10779000200020F0DFFF08F104084FF400434E49B9
:1077A000C5F8443A40465BF0A7FF4C4B04F59440C3
:1077B0004830C3F8008070F07FFA04F5954030300F
:1077C00083F0CEFC04F59640643084F085FE04F529
:1077D00097401C305CF0A0FB414BC5F89C3B04F586
:1077E0009740303081F05AFF04F5F8530433C5F860
:1077F000DC3B04F597403B4B3B494C3004F5974A42
:1078000018600AF1700A5BF077FFFF2385F8003CEF
:1078100085F8083C354950465BF06EFF344BD3F891
:107820000080B8F1000F02D03248B3F0CFFB04F56E
:10783000AE4104F598405C311030C3F800A05FF011
:1078400007FA04F5A9400C309BF0A8FA04F5AA4504
:1078500004F5AA40683560309CF044FA28468AF066
:10786000C3FB04F5AC402946183004F5A045A2F04E
:1078700033FD214BC5F81836062385F86C361F4BAF
:107880001F48186004F5AC42783243464FF0180E9A
:107890001FFA83FC0EFB0CF10133415C0029F7D188
:1078A000184BA3F800C0184BD3F80080B8F1000FB4
:1078B00030D01648B9E700BF50CD1308F4C2130802
:1078C00088101508D09D0020ECCD13089D69000894
:1078D00040CD1308B0771508EC4A140860920020D8
:1078E0002CC31308C8A00020202815080849150833
:1078F00060A1002068C31308641E1408C49400200B
:1079000048121408C09400208494002089C31308EE
:10791000CDCC4C3D04F5AD401FED030A1A600C3090
:1079200063F0B8FF04F5AD40243007F0D5FC734B8D
:10793000C5F8A43604F5AD40643007F0CDFC04F57D
:10794000B14A6F4BC5F8E43604F5AE400AF1500A6F
:107950002030FFF7CFFD504607F0BEFC694BC5F85D
:10796000D0380AF13C00ACF0C9F8674BC5F80C39C7
:1079700004F5B440583007F0AFFC644BC5F8583AF2
:1079800004F5B5401C3007F0A7FC614BC5F89C3AE4
:1079900004F5B540A5F8D88A5C3007F09DFC5D4B36
:1079A000C5F8DC3A04F5B640183007F095FC5A4BA0
:1079B000C5F8183B05F6543304F5B6401F605F6008
:1079C0009F606C3007F088FC544BC5F8A88B04F519
:1079D000B740C5F86C3B343007F07EFC504BC5F81F
:1079E000B43B04F5B740C5F8F08B783007F074FC71
:1079F0004C4BC5F8F83B04F5B840403007F06CFC40
:107A0000494BC5F8403C04F5B94007F065FC474BCD
:107A1000C5F8803C05F6F84304F5BA401F605F6086
:107A20001430FFF7CDFD484607F056FC404BC5F833
:107A3000A03D04F5BB405C3007F04EFC3D4BC5F863
:107A4000DC3D04F5BC40183012F06EFA04F5BD4080
:107A50000C3007F041FC384BC5F8C88E04F5BD402A
:107A6000C5F88C3E503007F037FC344BC5F8D03E9B
:107A700004F5BE40A5F80C8F203007F02DFC304BEC
:107A8000C5F85C8F04F5BE40C5F8203F6430FFF7B1
:107A900097FD2C4BC5F8643F04F5BF40012385F8E2
:107AA000ED3F74300CF07AF804F5C140383013F033
:107AB000D5FB04F5C24004F5C045303007F00CFC9E
:107AC000214BC5F8303104F5C240C5F87071C5F8D6
:107AD0007471783007F000FC1C4BC5F8783196F8CB
:107AE0006C3D23F0030343F00303204686F86C3D0E
:107AF00004B0BDEC028BBDE8F08700BFA0231408E2
:107B000028241408F42614086827140824281408C4
:107B1000A82814082C291408A8291408C42B140810
:107B2000402C1408402D1408BC2D1408BC2E140839
:107B3000A43114081C311408A02714085035140867
:107B4000CC2C140898301408D8351408382E140892
:107B500038B5054B1C6823680A461D68034B01466F
:107B60002046A847002038BD908D0020D82B00204B
:107B700038B5037904463BB905682DB1284631F084
:107B80004FFB284621F0A6F9204638BD70B52A4B98
:107B9000036000F50053044693F8F82B42B9D3F87C
:107BA000F45B2DB1284631F03BFB284621F092F9D9
:107BB00004F5F55095F08AFC04F5D1500C30FFF730
:107BC000D7FF04F5D1500430FFF7D2FF04F5D050B1
:107BD0001C30FFF7CDFF04F5B85018306FF03CFFB4
:107BE000164BC4F8C03A04F5726063F093FC04F6D7
:107BF000047063F08FFC04F6E86063F08BFC04F61D
:107C0000AC5504F66456B54204D0083D2846FFF74B
:107C1000AFFFF8E70A4BC4F8D43094F8B43143B955
:107C2000D4F8B0512DB1284631F0FAFA284621F0A7
:107C300051F9204670BD00BF38F41408289C140880
:107C40004050140838B5104B036000F5A0430446BB
:107C500093F80C2642B9D3F808562DB1284631F0D6
:107C6000DFFA284621F036F904F54053074AD3F8E5
:107C7000DC0CC3F8302B08B121F032F92046FFF7B5
:107C800085FF204638BD00BF50CD13088810150869
:107C900010B5B0F0B1FC064C064B18602046FFF75B
:107CA000ABFC2046044A0549BDE810402DF172BAEC
:107CB000D82B0020908D00202CFC0020457C000853
:107CC00001207047FA207047014B93F81E0C704753
:107CD000D84B0020044BD3F8700D10B103681B681B
:107CE00018470248704700BFD85B0020CCCD13086E
:107CF000034BD3F8800D431E58425841704700BFD4
:107D0000D85B0020034BD3F8800D831E58425841A6
:107D1000704700BFD85B002070B5C169026A694D29
:107D200041F4E053C36142F4E0530362436A044602
:107D300043F4E050606295F8490D460710D542F4CF
:107D40008E3241F48E31E161226295F8492D50075F
:107D500006D595F8692DD1075CBF43F48E33636275
:107D6000E36943F4C043E361D5F8500D03681B6831
:107D700098470238192816D8DFE800F09B0D0D0D42
:107D80000D0D150D1515159B159B0D0D0D0D9B0D51
:107D90009B151515150DD4E9082342F4C042226243
:107DA00043F4C043636248487EF01CF818B1E369AD
:107DB00043F08063E36144487EF01CF818B1236A05
:107DC00043F08063236240487EF01EF818B9636A6E
:107DD00043F0806363623D4B1E6846B11921304613
:107DE0005CF07EFB18B1E36943F48073E36195F8BE
:107DF000CC39DA070DD5236A43F48073236246B188
:107E0000192130465CF098FB18B1636A43F4807323
:107E1000636259F07DFE98B190F905303BB1D4E929
:107E2000072342F0400243F04003E261236203680B
:107E300033B10379DB0742BF636A43F040036362F7
:107E4000234B93F98C248AB1D4E9071242F08002C3
:107E500041F08001E161226293F98C2432B193F800
:107E600054251AB1626A42F08002626293F8883443
:107E7000013B012B0BD8D4E9072343F48003236291
:107E8000636A42F4800243F48003E2616362E3695F
:107E900043F08043E361236A43F080432362D5F8D3
:107EA000703D93F865301BB9636A43F080436362A9
:107EB00070BD236A43F400532362636A43F40053A2
:107EC00070E700BFD85B0020DC590020D094002070
:107ED000D87B002013B54FF4E870CDE9002120F0E5
:107EE000F3FFDDE9002104466BF03AFD024B23600D
:107EF000204602B010BD00BF24D0130808B590F88A
:107F00008C308B4208D25FF0BFFC16224FF48021E8
:107F10005FF070FC002008BD243150F82100FAE722
:107F200008B590F88C308B4208D25FF0ADFC0F2280
:107F30004FF480215FF05EFC002008BD243150F832
:107F40002100FAE7002070470020704703207047A7
:107F500010B5154CD4F8500D03681B6898470728D6
:107F60001CD8032834BF10231823D4F8702D43F0F5
:107F7000400022B192F86D200AB143F0C00040F0F9
:107F8000010010BD0B280DD8DFE800F006060C0636
:107F90000C060C060C0C0C061823E6E71038C3B2CE
:107FA0000B2BEFD91023E0E7D85B0020014B93F8AF
:107FB000200C7047D84B0020034B93F9300E00384B
:107FC00018BF0120704700BFD84B0020014B93F928
:107FD000220C7047D84B00207047000008B50D4BAD
:107FE000D3F8700DA8B1383063F0D2FC034693ED9E
:107FF000000ADFED090A7D20B7EE001A35F026FAF7
:10800000DFED067A20EE270ABDEEC00A10EE103A28
:1080100018B208BDD85B0020000000000000C84274
:108020002DE9F04FDFF8DC80354F8DB00446042594
:1080300008F5005617F8019BB8F9783C09F1FF3AAA
:1080400043FA0AF3D90744D5207C65F047F9834603
:10805000207C66F00BF800F121039B4505D2207CC3
:108060000DB0BDE8F04F64F0FFBBBAF1030F30D89C
:10807000DFE80AF002363B40D6F8E80903689B685F
:10808000984700F19803D3F800B0D3F804A0D3F8D0
:108090000CC018695969D3F818E0DA691B6ACDF881
:1080A0002530CDF8292021236222CDE90032079026
:1080B0000891207CCDF80CB0192303AAC221CDF879
:1080C00010A0CDF814E0CDF818C08DF8249065F01C
:1080D0004DF9013D15F0FF05ACD10DB0BDE8F08FB5
:1080E000D6F8E8090368DB68CAE7D6F8E809036848
:1080F0001B69C5E7D6F8EC3903F5F073C3E700BF99
:108100000CD11308D84B002007B50190A6F0B0FAA7
:1081100028B1019903B05DF804EBA6F06BBA03B087
:108120005DF804FB014809F0A9BE00BFF8820020F9
:1081300070B50B4BD3F8343EDB0705460E461446AC
:1081400003D508481146A2F06FFC21460648A6F068
:1081500079FE224631462846BDE870406AF0E8B90B
:10816000D84B0020F08100206862002010B588B054
:10817000044667F0E3FB0C4BD3F8700D38B90B4A9B
:108180000621204608B0BDE8104067F0CDBA694628
:108190001E22A0F0E1FC064A6B460621204667F04D
:1081A000C3FA08B010BD00BFD85B0020CCCD1308C7
:1081B00097B11508034A92F80839013382F8083953
:1081C00066F0ECBBD85B002001489AF0D7BF00BF37
:1081D0006480002007B50846019120F0BBFB38B150
:1081E0000448019904F0B8F8002003B05DF804FBDE
:1081F0000420FAE7088F0020014804F015BE00BFF4
:10820000D82B0020014804F08FBD00BFD82B0020E0
:1082100070B58B8BCD2B06460C4619D10F4D95F8BA
:108220004A1A05F648206FF00FFE88B195F84A1AF1
:1082300005F648206FF044FE50B994ED020ADFEDD8
:10824000087ADFED080A084820EE270A04F064F8EF
:1082500021463046BDE8704066F0D0BBD86B0020A8
:108260000AD7233C00000000088F002038B5C578ED
:108270000B46352D044628BF3525352200211846EA
:108280002FF10CFE2A4604F10C01BDE838402FF115
:10829000DDBD000010B5074B93F9102C40F6CD342E
:1082A00040F6CD13002A08BF1C4666F02DFB204384
:1082B00010BD00BFD86B002000B589B00023029329
:1082C0000393049305930693079318F039FC02A9CE
:1082D00016F0DAFDB0B118F033FC17F0A1FA05A8DA
:1082E0008DED050ACDED060A8DED071A3AF0E8FB93
:1082F000F1EE047A20EE270AFCEEC07ACDED017A89
:108300009DF8040009B05DF804FB000010B50446B8
:1083100020F0E0FD204610BD10B50C4C94F9483D0E
:10832000002B0FDBD4F8500D03685B6C984758B9ED
:10833000D4F8500D03681B6C984700280CBF02202E
:10834000032010BD0120FCE70420FAE7D85B0020E1
:1083500008B5134B93F8490D10F020001ED0D3F848
:10836000500D03685B6D984707EE900AB8EE677A88
:10837000DFED0C7A27EE277ADFED0B7AB4EEE77AA1
:10838000F1EE10FA58BFB0EE677AF2EE046AC7EE6B
:10839000267AFCEEE77A17EE903A98B208BD00BF55
:1083A000D85B00200AD7233C00FF7F4738B5F7EEA3
:1083B000000A91ED050A04460D4634F02FFF28B15E
:1083C00021460548BDE8384004F062BD29462046F4
:1083D000BDE8384069F092B8D82B002008B5094BA9
:1083E00093F8490D10F020000AD0D3F8500D03681F
:1083F0001B6D984734F0FEFFC82390FBF3F0C0B22A
:1084000008BD00BFD85B002000B589B000230293EF
:108410000393049318F094FB02A916F035FDD8B12C
:1084200018F08EFB17F0FCF9F0EE607AF1EE400ADE
:10843000B1EE670A2DF180FADFED097A20EE270A06
:1084400034F05AFFF6EE007A20EE270AFCEEC07AEE
:10845000CDED017A9DF8040009B05DF804FB00BF82
:10846000E02E65421FB5002301930293039318F099
:1084700067FB01A916F008FD28B101A83AF020FB1E
:1084800005B05DF804FB27F08BFF90F8A4329C2226
:1084900002FB030090ED370AF2E700000B7ADB07DE
:1084A00005D5034ACB68D2F8E0231344CB6070476C
:1084B000D84B0020044B187820B9044B93F84A0D90
:1084C000C0F38010704700BF5C920020D85B002092
:1084D00007B5124B93F8490D10F020001AD003F5A0
:1084E0008053D3F8EC0900F51D703AF0E9FADFED9E
:1084F0000C7A20EE270ADFED0B7AB4EEE70AF1EEF4
:1085000010FA58BFB0EE670AFCEEC07ACDED017AE2
:108510009DF8040003B05DF804FB00BFD85B0020A9
:10852000CDCC4C3D00007F43094B93F87D2262B9CE
:10853000A3F5805393F8692DD20606D193F9483DEF
:10854000002BACBF0420032070470520704700BFFC
:10855000D86B002008B5074B93F96C3C032B03D074
:10856000BDE8084067F0F8B8034A022167F0DCF87C
:10857000042008BDD84B002024CE1308094BD3F8A3
:10858000342E920701D465F0A9BF03F5005303F61A
:10859000BC1393ED000ADFED047AB8EEC00A20EEBA
:1085A000270A7047D84B00200AD7233C10B594B057
:1085B000044603A820F0CEF81C4BD3F8500D0368F6
:1085C00003A9DB6C984778B3002103A820F08CF94D
:1085D00050B3247CB2F02CFD059BDDED047A0893AA
:1085E000069B09930023F8EEE77A9FED117A0B932F
:1085F0000C930D930E930F931093119312934FF6C8
:10860000F853ADF84C300023962267EE877A8DF848
:108610004E303323CDE90032079007AA5721204678
:10862000CDED0A7A64F0A2FE14B010BDD85B002034
:108630000AD7233CF0B52DED0A8B834C0546D4F8C0
:10864000500D036899B05B6A9847002867D004F51D
:108650000054D4F8F03B062B00F2E180DFE803F091
:1086600004040463A0C35F0078489FED798A0DF08D
:10867000EDF90446D0E90201FCF7D6FA0746D4E941
:108680000401FCF7D1FA0646D4E90001FCF7CCFA64
:108690009FED700A0B900BA80C970D9639F0CAFD50
:1086A000F0EE489AB0EE40CAF0EE60BAB0EE419AF1
:1086B000B0EE48AAF0EE488AF0EE48AAB0EE48BA0A
:1086C00040F6F8542D7CB2F0B3FC002315931693BA
:1086D00001238C228DF85E303323CDE900320B90DC
:1086E000B1EE499AF1EE688AB1EE488A0BAA55219B
:1086F00028468DED0CCACDED0DBA8DED0E9A8DED9F
:108700000FBACDED10AACDED118A8DED12AACDEDE7
:10871000139A8DED148AADF85C4064F027FE19B011
:10872000BDEC0A8BF0BD49480DF090F90446D0E944
:108730000201FCF779FA0746D4E90401FCF774FA60
:108740000646D4E90001FCF76FFA9FED420A0B9050
:108750000BA80C970D9639F06DFD3C48F0EE60BA11
:10876000B0EE419AB0EE40CA0DF074F99FED390AAF
:1087700039F060FD3548B0EE40BAF0EE60AAF0EE98
:10878000418A0DF06BF99FED330A39F053FD4FF438
:108790004064B0EE40AAF0EE609AB0EE418A91E7F4
:1087A0002A489FED2B9A0DF055F99FED2A0A39F0D2
:1087B00041FD2648B0EE40BAF0EE60AAF0EE418AE4
:1087C0000DF04CF99FED230A39F034FDF0EE49BA73
:1087D000B0EE40AAF0EE609AB0EE418AB0EE49CA1F
:1087E00040F607446EE71948DFED198A0DF036F9B7
:1087F0009FED180A39F01EFDF0EE68AAB0EE40AA0F
:10880000F0EE609AB0EE418AB0EE68BAB0EE689AC7
:10881000F0EE68BAB0EE68CA40F63F4452E79FED0A
:108820000C8A0024F0EE489AB0EE48AAF0EE488A8E
:10883000F0EE48AAB0EE48BAB0EE489AF0EE48BA68
:10884000B0EE48CA3EE700BFD85B00208C8700200E
:10885000000000000AD7233C70B58A7A4B7A43EABD
:108860000223CA7A43EA02439D2B06460C461BD1DB
:10887000104D95F84A1A05F648206FF0E5FA98B1C0
:1088800095F84A1A05F648206FF01AFB60B9D4ED46
:10889000057A9FED090ADFED090A0948F8EEE77A43
:1088A00027EE800A03F038FD21463046BDE87040CF
:1088B00065F0A8BFD86B00200AD7233C0000000059
:1088C000088F002008B590F8CE3153B9806A03684C
:1088D0001B6A9847B0F5005F28BF4FF4005080B284
:1088E00008BD0020FCE7000038B5D0E998450069D4
:1088F00003689B6898478068FBF746FE02460B4674
:1089000020462946FBF7E0FCFCF78EF900EE100A42
:1089100038BD00002DE9F0412DED068B3C4D95F85A
:10892000493D99068CB004466CD505F580579FEDFE
:10893000390AD7F8E809DFED388A3C3039F07AFC9B
:108940008DED041A21EE281AD5F8506DCDED030AED
:10895000BDEEC11A8DED020A11EE103A1DB2336858
:1089600094F810801B6D304620EEA89A60EE289A8D
:10897000984707EE900AF8EEE77A304667EEA87A55
:10898000FDEEE77A17EE903A1CB233685B6D9847BC
:1089900007EE900AB8EE678ADFED207AD7F8EC0987
:1089A00028EE288AB4EEE78AF1EE10FA58BFB0EE4E
:1089B000678AFFF799FF336830469B6DB0EE40AA97
:1089C0009847BCEEC88A0023089318EE103AB722E5
:1089D0002AEE28AA20EE280AADF82C301A23CDE979
:1089E00000323E2105AA4046CDED059A8DED069A4E
:1089F0008DED07AA8DED090AADF82850ADF82A4093
:108A000064F0B4FC0CB0BDEC068BBDE8F08100BF97
:108A1000D85B00209F0CB3450AD7233C00FF7F475B
:108A200010B52DED028B84B018F08AF80446684624
:108A30001FF090FE6946204616F0F0F90F4B93F8B0
:108A4000490D10F0200014D003F58053DDED017ABC
:108A5000D3F8EC09B8EEE78AFFF746FF38EE008A54
:108A60009FED070A28EE008ABDEEC88A18EE103A7C
:108A700018B204B0BDEC028B10BD00BFD85B002063
:108A80000AD7233C034BD3F8700D08B190F86C0063
:108A9000704700BFD85B002008B5034BD3F8500DDA
:108AA00003681B68984708BDD85B0020024B93F809
:108AB000490DC0F340107047D85B002070B53B4EA5
:108AC0002DED028B0546D6F8500D91ED018A036815
:108AD00088B05B6A0C46984750B9BDEEC88A18EE5C
:108AE000103ADB0704D4022008B0BDEC028B70BD45
:108AF000D4E9040135F03EFC0028F4D004A81FF0AE
:108B000029FED4ED067A9FED2A7A23690693F0EECA
:108B1000E77AF4EEC77A63690793F1EE10FAE2DCC4
:108B200094F8201003AA284669F0FCFE0028DAD049
:108B30009FED207AD4ED067A039A67EE877A04A82F
:108B4000FDEEE77A17EE901A1FF00AFE1A4904A804
:108B50001FF00CFF03460028C5D1DFED180A009076
:108B60000246B0EE600A164804A90CF067FDD8B1C1
:108B7000D6F8500D03685B6A9847044608B1002098
:108B8000B2E710480222042106F054FF60B1DFED85
:108B90000B0A0B4800942346B0EE600A224604A953
:108BA0000CF04CFD0028EAD104209DE7D85B0020A2
:108BB000001CA2470000C842907500200000000081
:108BC0008C870020D82B00208A8B202A82B004D0EA
:108BD000C02A1CD002B069F03FBFD1ED007AF5EE9B
:108BE000C07AF1EE10FA15DD9FED0B7AF4EEC77A3C
:108BF000F1EE10FA0ED8FCEEE77A084ACDED017AD4
:108C00009DF80430A2F89236002002B0704702B0FE
:108C1000FFF754BF0320F8E700007F43D85B002034
:108C200010B52DED028B8CB0002304460393049302
:108C3000059317F085FF03A916F026F950B317F036
:108C40007FFF16F0EDFDF0EE607A8DED060ACDEDBA
:108C5000070AF1EE400AB1EE670A247C8DED081A8E
:108C60002CF16AFE06A8B0EE408A39F029FFDFED4C
:108C70000B7A089B0B93012228EE278A0C23CDE95F
:108C80000032A82109AA20468DED098A8DED0A0A35
:108C900064F06CFB0CB0BDEC028B10BDE02E6542A5
:108CA0002729F7B504460E4613D00AD819290ED045
:108CB000242923D03146204603B0BDE8F0406AF0B5
:108CC00071B938292AD0A1F13A03012BF2D8012039
:108CD0000EE0FFF7F7FD0546207C65F0C7F900F1CF
:108CE00012039D42217C05D2084663F0BDFD0020A1
:108CF00003B0F0BD21485DF04BFAE8E7FFF7E2FD75
:108D00000546207C65F0B2F900F10C039D4201D2CA
:108D1000207CEAE72046FFF783FFD8E7FFF7D2FD84
:108D20000546207C65F0A2F900F126039D42217CD6
:108D3000DAD3134889F094FA124B1F68002FC6D07B
:108D40002046FFF7BFFD0546207C65F08FF900F156
:108D500026039D424FF00005DAD30DF1060231469D
:108D60002046ADF8065067F0B1FD0028AFD0BDF841
:108D70000620217C384682F0D5FFA8E7E87700205E
:108D80004081002054A1002070B52DED028B8B8B0B
:108D9000D02B86B00E4600F036811ED8202B00F076
:108DA0009F800AD8113B9AB2052A0ED8052B0CD801
:108DB000DFE803F08A0B0B909369B22B00F0E6809A
:108DC000BD2B7CD0732B00F0A380314606B0BDECE8
:108DD000028BBDE870406BF00FBB4AF21142934228
:108DE00000F06A812DD8B3F5967F00F0F68040F64A
:108DF000D812934200F05081D12BE6D1D1ED017A07
:108E0000FCEEE77ACDED037AD1ED007AFCEEE77A5D
:108E1000CDED047AD1ED047A9DF81020FCEEE77ACE
:108E2000CDED057A9DF814300093D1ED030A91ED54
:108E3000020A9DF80C300146B94813F07BF904464C
:108E40009FE04AF21342934200F088814AF268623E
:108E5000934200F0FD804AF212429342B5D1B14DE7
:108E600095F8694D14F0010427D1D5F8703D93F8B9
:108E70006D30002B40F035810122114605F684202B
:108E8000FDF770F97DE0D1ED027A9FEDA77A91EDC3
:108E9000060AA44BF0EEE77AF4EEC77ADFEDA37A88
:108EA000D3F8500DF1EE10FA20EE270A4CBF012145
:108EB000002114F015FE002862D0002461E0022198
:108EC0009B4807F047FFF6E702220521944806F089
:108ED000B1FDF0E702220621F8E702220921F5E7B9
:108EE000D1ED007AF5EEC07AF1EE10FA48DD9FED93
:108EF000917AF4EEC77AF1EE10FA41D8FCEEE77AF7
:108F0000884ACDED037A9DF80C30A2F89236D4E76A
:108F1000D1ED007AF5EEC07AF1EE10FA30DB9FED7C
:108F2000867AF4EEC77AF1EE10FA29D891ED030AA9
:108F30009FED7D8AF0EEC07AF4EEC87AF1EE10FA79
:108F400018D5D6ED037AD6ED010A96ED000A7B48D6
:108F5000F4EEC87AD6ED027AFDEEE77AF1EE10FA79
:108F6000CDED037A9DF90C10ACBF0122002203F075
:108F700051F9A2E7F7EE000A34F050F90028E0D1E9
:108F80000424204606B0BDEC028B70BD91ED010AB1
:108F9000B5EEC00AF1EE10FAF2DD9FED647AD1ED84
:108FA000007A674B20EE070A9FED667AD3F8F00946
:108FB000F4EEC77AF1EE10FA02DD9CF073F97CE76B
:108FC0009FED617AF4EEC77AF1EE10FA02DD9CF0C3
:108FD00059F972E79CF074F96FE7514802220321B6
:108FE00006F028FD0028CBD04D480121FDF7F4F90B
:108FF000564890F85C37012B3FF45FAF00F25C708D
:109000003CF010F859E7D1ED007AFCEEE77A17EE64
:10901000903A9CB2012C0DD0022C15D0002CAFD16F
:1090200021464B4875F00AFF60F022FD312160F0C7
:1090300071FCA6E72146464875F000FF60F018FD78
:10904000322160F067FC38E7354804F05FFC34E714
:109050004048A5F063FA002892D0D6ED017AFCEEE4
:10906000E77ACDED037A9DF80C40012C08D0022C54
:109070000CD0002C84D12B4B002283F8782680E77B
:1090800096ED020A3348A5F089FA16E796ED030A31
:109090003048A5F097FA10E7D1ED017A2E48FCEEA2
:1090A000E77ACDED037A9DF80C30012B0CBF00213F
:1090B000012185F097FA00E71A4890F8693DDB072F
:1090C0003FF5FBAE02220521A0F5405006F0B2FCB0
:1090D00000287FF4F2AE02221146114806F0AAFCE5
:1090E000EBE695F9483D002B4FF0020212DA0C48EE
:1090F000052106F09FFC00283FF4DFAE96ED000A44
:10910000DFED0A7AD5F8500D20EE270A012114F080
:10911000E7FC36E70921024806F08CFC31E700BF86
:10912000D82B0020D85B0020000000340000C8428B
:10913000F882002000007F430000B443088F002025
:10914000D86B00209A9939403333F33FD87B002005
:10915000A477002044620020C8770020204D95F8B5
:10916000694D14F001047FF4A8AED5F8703D93F872
:109170006D30002B3FF4A1AE95F9483D002B06DA87
:109180000122082105F68420FDF7A6F8F9E6D1EDC5
:10919000007A9FED147AF0EEE77AF4EEC77AF1EEFA
:1091A00010FA0CD510480222112106F043FC0028C9
:1091B00091D00E4840F6C41109F028FFE1E6D5F839
:1091C000500D03681B68984704283FF476AED5F825
:1091D000500D03681B6898471428E3D16DE600BF63
:1091E000D85B002000000034D82B002030860020FF
:1091F00008B591ED007AF6EE007AB4EEE77AF1EE7A
:1092000010FA06DD044801220521FDF765F800206B
:1092100008BD0420FCE700BF5C6600202DE9F04398
:109220002DED028B8A7A4B7A43EA0223CA7A43EA0B
:1092300002436D2BA5B005460C4600F0F78000F206
:10924000DF80542B00F0F9810ED8452B00F00F8100
:10925000522B00F083812146284625B0BDEC028BBD
:10926000BDE8F0436BF096BA562BF4D1204614A912
:10927000FEF7FCFFAD4BD3F8500D03685B6A9847CF
:10928000002800F04E81BDF88040A30500F149811F
:109290000CAE04F0070730461FF05CFA2FBBDDE987
:1092A000150135F067F8002800F0DB819DF8841087
:1092B00009AA284669F036FB002800F0D281DDEDCE
:1092C000177A9FED9B7A099B009367EE877A10AD22
:1092D000FDEEE77ADDE9151217EE903A28461FF009
:1092E00059FA95E80F0086E80F00002514F03809B8
:1092F00006950795089513D19FED8D6A9DED197A16
:10930000DDED1A7ADDED186A27EE067A67EEC67A89
:1093100066EE866A8DED077ACDED066ACDED087AA8
:1093200014F4E07309950A950B9513D19FED806AAB
:109330009DED1C7ADDED1D7ADDED1B6A27EE067AC8
:1093400067EEC67A66EE866A8DED0A7ACDED096A19
:10935000CDED0B7A14F4806805BFDFED767A9DEDD4
:109360001E0A9FED750A20EE270A04BFDFED707A12
:1093700020EE270A14F4006405BFDFED6E7ADDED00
:109380001F0ADFED6D0A60EEA70A04BFDFED687A01
:1093900060EEA70A002F40F05282B9F1000F40F0B2
:1093A0007D823046CDED050A8DED040A1FF002FAEC
:1093B00003289DED040ADDED050A00F0528110A995
:1093C0003046CDED050A8DED040A109511951295E4
:1093D0001FF072FB002800F04481B4FA84F46409A1
:1093E000B8FA88F3DDED050A9DED040ACDF8049086
:1093F00000945B0906AA10A950480CF09BFA90E073
:10940000F32B00F05A821FD8872B0CD8852B7FF6C0
:1094100022AF0A46017C4A4825B0BDEC028BBDE86C
:10942000F0435CF0F1BFA62B7FF415AF082145484F
:1094300013F07CFF21460246284625B0BDEC028B86
:10944000BDE8F04366F0FABAF62B06D03E4A1A445D
:1094500022F07F42022A3FF6FEAE297C3B4822469C
:1094600025B0BDEC028BBDE8F04389F0EDB9384E74
:10947000CA79B6F9203C9A4253D1CA780B2A28BF40
:109480000B224FF000080C3114A8CDE91488CDF858
:1094900057802EF1DBFC9DF85A20B6F91E3C9A420B
:1094A0003FD1BDF95490C1453BDBB1F0C1FDCDE9E1
:1094B000000806F5805607469FED260ABDF95220A2
:1094C000D6F80C194FF47A73284669F0F3FA0123A1
:1094D000CDE900739FED1F0ABDF95020D6F8101991
:1094E0004FF47A73284669F0E5FACDE900789FEDEC
:1094F0001A0AD6F8141943464A46284669F0DAFA99
:10950000CDE900789FED130ABDF95620D6F8181959
:109510004FF47A73284669F0CDFA69F0F3FBC0F88E
:10952000A87125B0BDEC028BBDE8F083D85B0020AC
:109530000000C842E02E6542000000008C87002039
:10954000E8770020D82B0020EFD8FF0040810020D2
:10955000D84B00200000FA4400007A44CD78272D33
:1095600028BF27252722002114A82EF197FC2A4680
:1095700004F10C0114A82EF169FCB94BD3F8500D7D
:1095800003685B6A98470028CBD09DF8764014F0BA
:10959000C00FC6D1B3480BF0CBFD9DED1C0A0546AC
:1095A000D8B140F22E40B7EE001AFFEE000A33F0B9
:1095B0004DFF159B1093169B1193179B129384F0EC
:1095C0000402189B1393DDED1B0AA6482B46C2F339
:1095D000800210A90BF0B4FDA3E7DFEDA30A40F26F
:1095E0003140B7EE001A33F031FFF6EE000AB0EE6C
:1095F000408A33F013FEE8B9B6EE000A9B4BB4EE96
:10960000C08AF1EE10FAD3F8F03908DD38EE400ADE
:1096100030EE008A93ED070A28EE000AC9E730EE23
:10962000480AD3ED087A30EE000AF0EEE77A27EE2A
:10963000C00ABEE79FED8C0ABBE7204614A9FEF7DF
:1096400015FE874BD3F8500D03685B6A98470028D6
:109650003FF467AF9DF88430012B07D0DA1F022A50
:1096600004D901217F480BF0FBFC5AE7BDF880408C
:10967000A2053FF556AF002514F0070609950A9597
:109680000B9527D19FED7A6A9DED167ADDED177A5D
:10969000DDED156A27EE067A67EEC67A66EE866A13
:1096A000083B012BCDED096A8DED0A7ACDED0B7AE1
:1096B00004D870480AAA09A9FCF75AFF9DF884301B
:1096C000073B022B06D86C489DF04CF8014609A8D0
:1096D00038F0D0FD14F038070C950D950E951DD17E
:1096E0009FED636A9DED197ADDED1A7ADDED186A5A
:1096F0009DF8843027EE067A67EEC67A66EE866AB3
:10970000083B012BCDED0C6A8DED0D7ACDED0E7A77
:1097100004D858480DAA0CA9FCF72AFF10951195FA
:10972000129514F4E0751DD19FED516A9DED1C7AE0
:10973000DDED1D7ADDED1B6A9DF8843027EE067A9B
:1097400067EEC67A66EE866A083B012BCDED106A9D
:109750008DED117ACDED127A04D8464811AA10A9E0
:10976000FCF706FF14F4806233D1DFED447A9DEDFF
:109770001E0A9DF8841020EE270ADFED3D7A083995
:10978000012920EE270A8CBF0021012114F4006377
:1097900005BFDFED3A7ADDED1F0ADFED330A60EE3B
:1097A000A70A04BFDFED327A60EEA70AAEB9002F38
:1097B00035D1B3FA83F3B2FA82F25B09520902910E
:1097C0000193009210AB0CAA09A926480CF038F8B6
:1097D000A7E69FED250A0021D8E77FB9B3FA83F306
:1097E0005B0901200093B2FA82F3CDE901105B0915
:1097F00010AA0CA91B480BF0BBFD92E6002D7FF4CC
:1098000030AF0120B3FA83F3B2FA82F2CDE900104F
:109810005B09520910A913480BF040FD81E6002DA9
:109820003FF41FAFB3FA83F3B2FA82F2CDE9001628
:109830005B09520909A90B480BF018FE71E6B9F152
:10984000000F1DD10123B4FA84F4CDE9019364091A
:10985000B8FA88F300945B0909AA06A9CAE700BF11
:10986000D85B00208C87002000000000D86B00200F
:109870000000C842D82B0020A0750020E02E6542D1
:10988000002B7FF4EEAE0122CDE90032B4FA84F36E
:10989000B8FA88F25B09520909A9BCE7002B3FF42A
:1098A000E0AEB4FA84F3B8FA88F200975B09520983
:1098B000314619480BF0C2FE33E6CD783D2D28BF66
:1098C0003D253D22002114A82EF1E8FA2A4604F194
:1098D0000C0114A82EF1BAFADDE91465169C46EACB
:1098E0000503234308D10D48012125B0BDEC028BAF
:1098F000BDE8F04303F098BA10A81EF02BFF012238
:1099000010A906480A23CDE9126594FBF3F41194DB
:1099100003F00AFA05E600BF8C870020D82B002050
:1099200010B590F85513044622F036F97C23C0B2E6
:1099300003FB004494F8510010BD0000F0B500F5A1
:1099400080450446D5F8E8099FED400A8BB03C30CD
:1099500038F070FC0AAACDED080A8DED091A8DEDDC
:10996000070A12E9070001AE86E8070004AB9DED87
:10997000030A83E8070033F0FDFC04F5405704F5C3
:10998000FB50314610308DED030A14F0FBFCD7F884
:10999000701DD7F8800AD5F8EC39D5F8E82914F00D
:1099A000E3FD4FF48051204613F0C0FC002844D062
:1099B000D5F8E80903689B68984704F564561C3697
:1099C00000F19802A62130465EF032FCD5F8E80995
:1099D0000368DB689847A72100F1980230465EF0E3
:1099E00027FCD5F8E80903681B699847A82100F10E
:1099F000980230465EF01CFCD5F8EC29A9213046CF
:109A000002F5F0725EF014FC2021204613F08EFC6B
:109A100098B1D7F8500D03681B69984778B1D5F80D
:109A2000EC29AB219C3230465EF002FCD5F8EC29E3
:109A3000AC21C43230465EF0FBFB0BB0F0BD2046DB
:109A40000CF068FE0028EAD1F7E700BF9F0CB34591
:109A500010B5044604F5FB5417F072F8103417F0F3
:109A600033F8204614F002FC2046BDE8104014F004
:109A70001DBD000030B589B004461B22002101A89D
:109A80002EF10CFAA3238DF8043095238DF80530C0
:109A900006238DF80630B1F0D3FA04F54055CDF821
:109AA0000700D5F8700DCDF80B10D0F8DC30CDF8EC
:109AB0000F30CC3061F06CFF0368CDF8133005F641
:109AC0009C5304F56450D3F8D431CDF81730D5F851
:109AD000703D1B22D3F8E030CDF81B3001A91C30BB
