:020000040800F2
:10400000000600202D53000889C20B088DC20B0842
:10401000F9C20B088DC20B08C5C20B082F5300084C
:104020002F5300082F5300082F5300087D15130845
:104030002F5300082F5300082F5300082F53000858
:104040002F5300082F5300082F5300082F53000848
:104050002F5300082F530008717613089D7613081C
:10406000C9761308F576130821771308A11D1308E4
:10407000C91D1308F51D1308211E13084D1E130832
:10408000751E1308A11E1308551C130819920B085E
:1040900029920B083D920B082F5300084D77130807
:1040A0002F5300082F5300082F5300082F530008E8
:1040B0002F5300082F5300082F530008C926130858
:1040C000DD26130801271308152713082F530008AE
:1040D0002F5300082F530008F1381308053913082F
:1040E000B57713082F5300082F5300082F530008EB
:1040F0002F5300082F5300082F530008CD1E13081C
:104100002F5300080D2B1308617E13082F5300084E
:10411000193913082F5300082F5300082F53000894
:10412000F91E1308211F13084D1F1308791F1308C8
:10413000A51F13082F5300082F53000851920B0896
:1041400061920B0875920B082F5300082572130813
:10415000CD1F1308F91F1308252013082D39130844
:104160002F5300082F5300082F5300082F53000827
:104170002F5300082F5300082F5300082F53000817
:104180002F5300082F5300084139130855391308DD
:104190002F5300082F5300082F5300082F530008F7
:1041A0002F5300082F5300082F5300082F530008E7
:1041B0002F5300082F5300082F5300082F530008D7
:1041C0002F5300082F5300082F5300082F530008C7
:1041D0002F5300082F5300082F5300082F530008B7
:1041E000557C00089DB400082DB7000855590108FA
:1041F000CD290208D53E0208D54A0208D17E020820
:1042000031890208DDD9020825FF0208C5650308C7
:10421000914F040829220608AD250608694A0608B8
:10422000914D0608655B0608AD8306087DE2060829
:1042300011EA060861ED0608855D0708DD7C0708C0
:10424000F1BD08089D0E09089D1A09088DF50A0898
:1042500089920B08CD940B0815990B08DDBC0B084F
:1042600071650D085D800D0861860D0801950D08CA
:104270009DAA0D08CDAA0D0891D10D0885130E0831
:1042800065450E087D620E08416A0E08B9A20E0847
:104290005D440F0849C3100815CC1008F90B11082C
:1042A000514911088DF21108BDFC1108ED2B1208BF
:1042B0007D311208196D1208000000000000000096
:1042C00081F0004102E000BF83F0004330B54FEAC7
:1042D00041044FEA430594EA050F08BF90EA020F34
:1042E0001FBF54EA000C55EA020C7FEA645C7FEAC7
:1042F000655C00F0E2804FEA5454D4EB5555B8BFEA
:104300006D420CDD2C4480EA020281EA030382EA5A
:10431000000083EA010180EA020281EA0303362DEC
:1043200088BF30BD11F0004F4FEA01314FF4801CBF
:104330004CEA113102D0404261EB410113F0004FD1
:104340004FEA03334CEA133302D0524263EB430388
:1043500094EA050F00F0A780A4F10104D5F1200E26
:104360000DDB02FA0EFC22FA05F2801841F1000181
:1043700003FA0EF2801843FA05F359410EE0A5F155
:1043800020050EF1200E012A03FA0EFC28BF4CF086
:10439000020C43FA05F3C01851EBE37101F000453C
:1043A00007D54FF0000EDCF1000C7EEB00006EEB49
:1043B0000101B1F5801F1BD3B1F5001F0CD34908D3
:1043C0005FEA30004FEA3C0C04F101044FEA44522A
:1043D00012F5800F80F09A80BCF1004F08BF5FEAB1
:1043E000500C50F1000041EB045141EA050130BD91
:1043F0005FEA4C0C404141EB0101013C28BFB1F5A3
:10440000801FE9D291F0000F04BF01460020B1FAED
:1044100081F308BF2033A3F10B03B3F120020CDAC0
:104420000C3208DD02F1140CC2F10C0201FA0CF09E
:1044300021FA02F10CE002F11402D8BFC2F1200C03
:1044400001FA02F120FA0CFCDCBF41EA0C019040B9
:10445000E41AA2BF01EB0451294330BD6FEA040402
:104460001F3C1CDA0C340EDC04F11404C4F12002ED
:1044700020FA04F001FA02F340EA030021FA04F3FF
:1044800045EA030130BDC4F10C04C4F1200220FA56
:1044900002F001FA04F340EA0300294630BD21FA94
:1044A00004F0294630BD94F0000F83F4801306BF5A
:1044B00081F480110134013D4EE77FEA645C18BF4E
:1044C0007FEA655C29D094EA050F08BF90EA020FE5
:1044D00005D054EA000C04BF1946104630BD91EADD
:1044E000030F1EBF0021002030BD5FEA545C05D1E0
:1044F0004000494128BF41F0004130BD14F580041F
:104500003CBF01F5801130BD01F0004545F0FE4192
:1045100041F470014FF0000030BD7FEA645C1ABFC7
:10452000194610467FEA655C1CBF0B46024650EAFE
:10453000013406BF52EA033591EA030F41F400212A
:1045400030BD00BF90F0000F04BF0021704730B5B0
:104550004FF4806404F132044FF000054FF0000185
:1045600050E700BF90F0000F04BF0021704730B546
:104570004FF4806404F1320410F0004548BF40421B
:104580004FF000013EE700BF42004FEAE2014FEA70
:1045900031014FEA02701FBF12F07F4393F07F4F4B
:1045A00081F06051704732F07F4208BF704793F04E
:1045B0007F4F04BF41F40021704730B54FF4607461
:1045C00001F0004521F000411CE700BF50EA010264
:1045D00008BF704730B54FF000050AE050EA01020D
:1045E00008BF704730B511F0004502D5404261EB7D
:1045F00041014FF4806404F132045FEA915C3FF4BE
:10460000D8AE4FF003025FEADC0C18BF03325FEA5A
:10461000DC0C18BF033202EBDC02C2F1200300FA0B
:1046200003FC20FA02F001FA03FE40EA0E0021FA30
:1046300002F11444BDE600BF70B54FF0FF0C4CF41E
:10464000E06C1CEA11541DBF1CEA135594EA0C0FD0
:1046500095EA0C0F00F0DEF82C4481EA030621EA0B
:104660004C5123EA4C5350EA013518BF52EA033546
:1046700041F4801143F4801338D0A0FB02CE4FF0F8
:104680000005E1FB02E506F00042E0FB03E54FF028
:104690000006E1FB03569CF0000F18BF4EF0010E20
:1046A000A4F1FF04B6F5007F64F5407404D25FEA1C
:1046B0004E0E6D4146EB060642EAC62141EA5551CF
:1046C0004FEAC52040EA5E504FEACE2EB4F1FD0C11
:1046D00088BFBCF5E06F1ED8BEF1004F08BF5FEA8F
:1046E000500E50F1000041EB045170BD06F0004641
:1046F00046EA010140EA020081EA0301B4EB5C04EE
:10470000C2BFD4EB0C0541EA045170BD41F48011E5
:104710004FF0000E013C00F3AB8014F1360FDEBF0A
:10472000002001F0004170BDC4F10004203C35DAE6
:104730000C341BDC04F11404C4F1200500FA05F369
:1047400020FA04F001FA05F240EA020001F000420A
:1047500021F0004110EBD37021FA04F642EB060180
:104760005EEA430E08BF20EAD37070BDC4F10C04AA
:10477000C4F1200500FA04F320FA05F001FA04F26E
:1047800040EA020001F0004110EBD37041F100015A
:104790005EEA430E08BF20EAD37070BDC4F1200565
:1047A00000FA05F24EEA020E20FA04F301FA05F2CD
:1047B00043EA020321FA04F001F0004121FA04F275
:1047C00020EA020000EBD3705EEA430E08BF20EA45
:1047D000D37070BD94F0000F0FD101F0004640007F
:1047E00041EB010111F4801F08BF013CF7D041EA01
:1047F000060195F0000F18BF704703F00046520005
:1048000043EB030313F4801F08BF013DF7D043EAD5
:104810000603704794EA0C0F0CEA135518BF95EA8B
:104820000C0F0CD050EA410618BF52EA4306D1D112
:1048300081EA030101F000414FF0000070BD50EA31
:10484000410606BF1046194652EA430619D094EABB
:104850000C0F02D150EA013613D195EA0C0F05D1A5
:1048600052EA03361CBF104619460AD181EA0301F9
:1048700001F0004141F0FE4141F470014FF00000B1
:1048800070BD41F0FE4141F4780170BD70B54FF04C
:10489000FF0C4CF4E06C1CEA11541DBF1CEA1355CC
:1048A00094EA0C0F95EA0C0F00F0A7F8A4EB0504AE
:1048B00081EA030E52EA03354FEA013100F08880A5
:1048C0004FEA03334FF0805545EA131343EA12636E
:1048D0004FEA022245EA111545EA10654FEA002623
:1048E0000EF000419D4208BF964244F1FD0404F5DC
:1048F000407402D25B084FEA3202B61A65EB030538
:104900005B084FEA32024FF480104FF4002CB6EBF4
:10491000020E75EB030E22BFB61A754640EA0C0074
:104920005B084FEA3202B6EB020E75EB030E22BFB4
:10493000B61A754640EA5C005B084FEA3202B6EBF5
:10494000020E75EB030E22BFB61A754640EA9C00B4
:104950005B084FEA3202B6EB020E75EB030E22BF84
:10496000B61A754640EADC0055EA060E18D04FEA42
:10497000051545EA16754FEA06164FEAC30343EAE2
:1049800052734FEAC2025FEA1C1CC0D111F4801FAF
:104990000BD141EA00014FF000004FF0004CB6E7A8
:1049A00011F4801F04BF01430020B4F1FD0C88BF47
:1049B000BCF5E06F3FF6AFAEB5EB030C04BFB6EB52
:1049C000020C5FEA500C50F1000041EB045170BD45
:1049D0000EF0004E4EEA113114EB5C04C2BFD4EB72
:1049E0000C0541EA045170BD41F480114FF0000EF6
:1049F000013C90E645EA060E8DE60CEA135594EA72
:104A00000C0F08BF95EA0C0F3FF43BAF94EA0C0F74
:104A10000AD150EA01347FF434AF95EA0C0F7FF4E9
:104A200025AF104619462CE795EA0C0F06D152EA3D
:104A300003353FF4FDAE1046194622E750EA410621
:104A400018BF52EA43067FF4C5AE50EA41047FF432
:104A50000DAF52EA43057FF4EBAE12E74FF0FF3C97
:104A600006E000BF4FF0010C02E000BF4FF0010C68
:104A70004DF804CD4FEA410C7FEA6C5C4FEA430CE1
:104A800018BF7FEA6C5C1BD001B050EA410C0CBF30
:104A900052EA430C91EA030F02BF90EA020F002092
:104AA000704710F1000F91EA030F58BF994208BFF9
:104AB00090422CBFD8176FEAE37040F001007047B6
:104AC0004FEA410C7FEA6C5C02D150EA013C07D10D
:104AD0004FEA430C7FEA6C5CD6D152EA033CD3D058
:104AE0005DF8040B704700BF8446104662468C4652
:104AF0001946634600E000BF01B5FFF7B7FF002885
:104B000048BF10F1000F01BD4DF808EDFFF7F4FFAD
:104B10000CBF012000205DF808FB00BF4DF808ED38
:104B2000FFF7EAFF34BF012000205DF808FB00BF5B
:104B30004DF808EDFFF7E0FF94BF012000205DF87D
:104B400008FB00BF4DF808EDFFF7CEFF94BF012032
:104B500000205DF808FB00BF4DF808EDFFF7C4FF2B
:104B600034BF012000205DF808FB00BF4FEA410C74
:104B70007FEA6C5C02D150EA013C0AD14FEA430C57
:104B80007FEA6C5C02D152EA033C02D14FF0000094
:104B900070474FF0010070474FEA410212F50012D2
:104BA00015D211D56FF47873B3EB625212D94FEA74
:104BB000C12343F0004343EA505311F0004F23FA5E
:104BC00002F018BF404270474FF00000704750EAB3
:104BD000013005D111F0004008BF6FF00040704770
:104BE0004FF00000704700BF4A0011D212F50012CA
:104BF00011D20DD56FF47873B3EB62520ED44FEA35
:104C0000C12343F0004343EA505323FA02F07047B4
:104C10004FF00000704750EA013002D14FF0FF30F2
:104C200070474FF0000070474FEA4102B2F1E04395
:104C300024BFB3F5001CDCF1FE5C0DD901F0004C83
:104C40004FEAC0024CEA5070B2F1004F40EB8300D3
:104C500008BF20F00100704711F0804F21D113F1FF
:104C60003872BCBF01F00040704741F480114FEA38
:104C70005252C2F11802C2F1200C10FA0CF320FAC1
:104C800002F018BF40F001004FEAC1234FEAD323DE
:104C900003FA0CFC40EA0C0023FA02F34FEA430348
:104CA000CCE77FEA625307D150EA01331EBF4FF0D1
:104CB000FE4040F44000704701F0004040F0FE40EC
:104CC00040F40000704700BF80F0004002E000BFE9
:104CD00081F0004142001FBF5FEA410392EA030FE7
:104CE0007FEA226C7FEA236C6AD04FEA1262D2EB31
:104CF0001363C1BFD218414048404140B8BF5B4236
:104D0000192B88BF704710F0004F40F4000020F0CE
:104D10007F4018BF404211F0004F41F4000121F0E4
:104D20007F4118BF494292EA030F3FD0A2F101022E
:104D300041FA03FC10EB0C00C3F1200301FA03F16C
:104D400000F0004302D5494260EB4000B0F5000F8F
:104D500013D3B0F1807F06D340084FEA310102F14E
:104D60000102FE2A51D2B1F1004F40EBC25008BF00
:104D700020F0010040EA03007047490040EB0000CA
:104D8000013A28BFB0F5000FEDD2B0FA80FCACF1CB
:104D9000080CB2EB0C0200FA0CF0AABF00EBC250F8
:104DA00052421843BCBFD0401843704792F0000FE6
:104DB00081F4000106BF80F400000132013BB5E739
:104DC0004FEA41037FEA226C18BF7FEA236C21D0AF
:104DD00092EA030F04D092F0000F08BF0846704714
:104DE00090EA010F1CBF0020704712F07F4F04D1E2
:104DF000400028BF40F00040704712F100723CBFF5
:104E000000F50000704700F0004343F0FE4040F41E
:104E1000000070477FEA226216BF08467FEA2363DC
:104E20000146420206BF5FEA412390EA010F40F4C7
:104E3000800070474FF0000304E000BF10F0004313
:104E400048BF40425FEA000C08BF704743F09643FA
:104E500001464FF000001CE050EA010208BF704715
:104E60004FF000030AE000BF50EA010208BF70479C
:104E700011F0004302D5404261EB41015FEA010CB1
:104E800002BF84460146002043F0B64308BFA3F1A9
:104E90008053A3F50003BCFA8CF2083AA3EBC2538B
:104EA00010DB01FA02FC634400FA02FCC2F12002AA
:104EB000BCF1004F20FA02F243EB020008BF20F0E1
:104EC0000100704702F1200201FA02FCC2F1200247
:104ED00050EA4C0021FA02F243EB020008BF20EA3C
:104EE000DC7070477BB972B90029BEBF00204FF05B
:104EF000004106E008BF00281CBF6FF000414FF0E2
:104F0000FF3000F011BAADF1080C6DE904CE0029B4
:104F100009DB002B1ADB00F0A5F8DDF804E0DDE981
:104F2000022304B07047404261EB4101002B1BDBC0
:104F300000F098F8DDF804E0DDE9022304B0404217
:104F400061EB4101524263EB43037047524263EB12
:104F5000430300F087F8DDF804E0DDE9022304B044
:104F6000404261EB41017047524263EB430300F062
:104F700079F8DDF804E0DDE9022304B0524263EB86
:104F80004303704753B94AB9002908BF00281CBF22
:104F90004FF0FF314FF0FF3000F0C6B9ADF1080C13
:104FA0006DE904CE00F05EF8DDF804E0DDE90223EF
:104FB00004B07047430803F05533C01A830803F068
:104FC000333300F03330184400EB101000F00F3092
:104FD00000EB002000EB0040000E704780EA10401C
:104FE00080EA102080EA101046F6961300F00F00B9
:104FF00043FA00F000F00100704700BF07EE900A8E
:10500000F5EEC07AF1EE10FA01D400F00BB8F1EE33
:10501000677A08B517EE900A00F004F8404261EB99
:10502000410108BDD0B5FFF7AFFA0C4B0022064690
:105030000F46FFF701FBFFF7D7FD0446FFF782FAA3
:10504000074B0022FFF7F8FA02460B463046394676
:10505000FFF73AF9FFF7C8FD2146D0BD0000F03D4B
:105060000000F0412DE9F047089D04468C46002BD6
:1050700040F083808A42174647D9B2FA82F242B1A1
:10508000C2F1200024FA00F09140974040EA010C60
:1050900094404FEA1748230CBCFBF8F61FFA87FE32
:1050A00008FB16C143EA014306FB0EF1994209D9F8
:1050B000FB1806F1FF3080F01981994240F2168109
:1050C000023E3B445B1AA4B2B3FBF8F008FB10337A
:1050D00044EA034400FB0EFEA64509D93C1900F141
:1050E000FF3380F00581A64540F2028102383C443E
:1050F00040EA0640A4EB0E0400261DB1D440002374
:10510000C5E900433146BDE8F08702B9FFDEB2FAD7
:1051100082F2002A50D1CB1B4FEA174E1FFA87F8B4
:105120000126B3FBFEFC210C0EFB1C3341EA0341BC
:1051300008FB0CF38B4207D979180CF1FF3002D22F
:105140008B4200F2E9808446C91AA3B2B1FBFEF09B
:105150000EFB101143EA014408FB00F8A04507D9F3
:105160003C1900F1FF3302D2A04500F2D980184665
:10517000A4EB080440EA0C40BFE78B4209D9002D9C
:1051800000F0B1800026C5E9000130463146BDE897
:10519000F087B3FA83F6002E4AD18B4202D38242C3
:1051A00000F2B880841A61EB030101208C46002DC7
:1051B000A8D0C5E9004CA5E7C2F1200320FA03F608
:1051C000974001FA02F04FEA174ED9403043030CE2
:1051D000B1FBFEF61FFA87F80EFB161143EA0143F6
:1051E00006FB08F1994204FA02F409D9FB1806F10A
:1051F000FF3C80F08D80994240F28A80023E3B4421
:105200005B1A81B2B3FBFEF00EFB103341EA03419F
:1052100000FB08F38B4207D9791800F1FF3C73D2E9
:105220008B4271D902383944CB1A40EA064678E7F6
:10523000C6F1200C03FA06F422FA0CF31C4320FA00
:105240000CF701FA06F34FEA144E21FA0CF11F4352
:105250003B0CB1FBFEF91FFA84F80EFB191143EA6F
:10526000014109FB08FA8A4502FA06F200FA06F340
:1052700008D9611809F1FF3048D28A4546D9A9F109
:1052800002092144A1EB0A01BFB2B1FBFEF00EFB03
:10529000101147EA014700FB08F8B84507D9E7199C
:1052A00000F1FF312ED2B8452CD90238274440EA0C
:1052B0000940A7EB0807A0FB02894F45C6464946AF
:1052C0001AD317D05DB1B3EB0E0267EB010707FAF3
:1052D0000CFCF2404CEA0202F740C5E90027002628
:1052E0003146BDE8F0872E4628460BE70646E9E63C
:1052F0001846FDE64345E5D2B8EB020E69EB040122
:105300000138DFE70846D2E760468DE78146B9E716
:10531000664675E730464AE7ACF1020C394413E7BC
:1053200002383C4424E700BF704700BF02E000F0B1
:1053300000F8FEE772B63A4880F30888394880F3EF
:10534000098839484EF60851CEF20001086040F253
:105350000000CCF200004EF63471CEF2000108607D
:10536000BFF34F8FBFF36F8F40F20000C0F2F00029
:105370004EF68851CEF200010860BFF34F8FBFF3A5
:105380006F8F4FF00000E1EE100A4EF63C71CEF246
:1053900000010860062080F31488BFF36F8F31F19D
:1053A0001FFC31F1FFFB30F185FD4FF055301F49F7
:1053B0001B4A91423CBF41F8040BFAE71C49194AC9
:1053C00091423CBF41F8040BFAE71A491A4A1B4BB9
:1053D0009A423EBF51F8040B42F8040BF8E7002054
:1053E0001749184A91423CBF41F8040BFAE731F1E2
:1053F000DDFB30F1BBFD144C144DAC4203DA54F824
:10540000041B8847F9E702F089FB114C114DAC42AF
:1054100003DA54F8041B8847F9E731F1C5BB0000F3
:1054200000060020002200200040000800000020AC
:1054300000060020306F170800220020A82B002053
:10544000A82B0020D46A0120E0410008B8420008DF
:10545000B8420008B84200082DE9F04F2DED108A3F
:10546000C1F80CD0C3689D46BDEC108ABDE8F08F32
:10547000002383F311882846A047002030F10EFB5B
:10548000FEE730F1B7F900DFFEE7000001F0FF01B1
:10549000102A2BDB10F0070F08D010F8013B013A5F
:1054A0008B422DD010F0070F42B3F6D1F0B441EA91
:1054B000012141EA014122F007047FF000070023A7
:1054C000F0E80256083C85EA010586EA010685FAFD
:1054D00047F5A3FA87F586FA47F6A5FA87F68EB957
:1054E000EED1F0BC01F0FF0102F0070232B110F87A
:1054F000013B013A83EA010313B1F8D10020704760
:1055000001387047002D06BF35460338073815F0BF
:10551000010F07D1013015F4807F02BF013015F46F
:10552000C03F0130F0BC0138704700BFEC46A0E836
:10553000F05F4FF000007047B0E8F05FE54608000C
:1055400008BF0120704700BF10F8012B11F8013B84
:10555000012A28BF9A42F7D0D01A7047034613F8A1
:10556000012B002AFBD1181A0138704738B50022E8
:10557000002304460D46FFF7D1FA28B920462946F4
:10558000BDE8384000F00AB8204605F1004100F0BF
:1055900005F8404261EB410138BD00BFD0B50C4B6E
:1055A000002206460F46FFF747F8FFF71DFB0446AB
:1055B000FEF7C8FF074B0022FFF73EF802460B46F6
:1055C00030463946FEF780FEFFF70EFB2146D0BD80
:1055D0000000F03D0000F041074A13780133DBB2D0
:1055E0001D2B98BF137003684FF0000188BF117026
:1055F0009B6888BF0121184700220020F0B583680E
:10560000012B91B004460E4602D0980640F1C780A7
:10561000644D42F65643EB56B3B143F6141242F6CC
:105620005843AA58EB5EB2F90A1003F10A029142FC
:1056300003DD40F28D32934206DC5B4B3246202183
:105640002046A8F033FC60E042F64543EB56022BBF
:1056500005D1564B324620212046A8F027FC42F6C1
:10566000184341F65832EB5AA3F57A739BB2934232
:105670000ED844F6E813EA584D4BD2ED097A93ED73
:10568000007AB4EEE77AF1EE10FA03DD494BD5E784
:10569000494BD3E793ED017AD2ED0A7AB4EEE77A7B
:1056A000F1EE10FAF2DC42F65242AA5E002A01DC68
:1056B000424BC3E793F8C0210D2A04D84FF421537D
:1056C000D340D90707D443F67053E858A3F08AFBB8
:1056D00018B93B4BB2E73B4BB0E73B4811F0C8FC75
:1056E00001283CD144F6F013E858A0F0E9FC012869
:1056F0000DD0022822D0002831D1344B0093344BF6
:10570000324620212046A8F0D1FB002045E043F698
:10571000CC13EB5CDA070FD52E4819215FF0B2FCF1
:1057200050B142F630432B48EF5819215FF0BAFCD4
:10573000874214DD284BE1E7284BDFE744F61043AE
:10574000EB560BB9264BD9E7264803AA0DF10A01FF
:1057500061F0B6FABDF80A300BB1234BCEE743F641
:105760006953EB5CDB0601D5204B67E744F6EC1090
:1057700003AF1F49285832233A469EF059FB10B90F
:105780001C4B0097BCE744F6E8101B49285832230D
:105790003A469CF0C1FB0028F2D011B0F0BD0120C8
:1057A000FBE700BFB02B002010EC130823EC13081C
:1057B000305800205BEC13084BEC130875EC130811
:1057C000AAEC13088AEC1308C4880020E5EC13083F
:1057D000C0EC13084040002004ED1308F5EC13085A
:1057E0001AED1308C07700202BED130844ED1308C1
:1057F00059ED13085DED13086FED13082DE9F7431C
:1058000043F67053324FFB5893F86F4005460E46EF
:1058100034B9304AA8F030FD204603B0BDE8F0832B
:105820002021A8F033FB0028F6D022F045FB22F01F
:1058300043FB90F8408022F03FFB90F84130032B6F
:1058400013D0B8F1030FE7D1002043F6705957F891
:105850000930B3F9A220B2F57A7F08D01E4A31464A
:105860002846A8F009FD0024D6E70120EDE7B3F9AA
:10587000A430B3F5FA6F01D0184AF0E78AF044FB80
:10588000804657F809000368DB6A98470022B8F899
:10589000E0C0114613464FF0010E0EFA02F73842EF
:1058A00002F101025FFA82F807D01CEA070F04D167
:1058B0000133DBB2002908BF4146102AEDD1002B8D
:1058C000AAD00091064A31462846A8F0D5FCCAE77E
:1058D000B02B002074ED130892ED1308B5ED1308FA
:1058E000D8ED130813B58368012B0A4601D05B0677
:1058F00017D50D4B42F65641595691B143F6141146
:105900005C5842F65841595EB4F90630994208DDB8
:10591000064B00934021064BA8F0C8FA002002B0C5
:1059200010BD0120FBE700BFB02B0020F8ED1308ED
:1059300093DE150870B58EB005460E460A48322231
:1059400001A987F0BBFB044640B99DF9043043B977
:10595000064B074A31462846A8F08EFC20460EB07A
:1059600070BD01ABF5E700BF2063002010EE130807
:1059700093DE15082DE9F04343F65053DFF85091BC
:10598000044659F80300036899B01B690D4698470F
:1059900080461AF0BBFA002107462E220CA80B9174
:1059A00035F128F932230BAA4146384618F09EFDFE
:1059B000064648B93E4A0BAB29462046A8F05CFC97
:1059C000304619B0BDE8F0833A4886F0D1FCB8F112
:1059D000000F0AD0484617F0D5FB78B9364A294659
:1059E0002046A8F049FC0026EAE710F0060FE7D0B1
:1059F000484617F0C7FB08B9304AF0E703A9384614
:105A000018F008FB28B19DF80D305B0601D52C4A33
:105A1000E5E7DFF8CC80D8ED007AF5EEC07AF1EE5C
:105A200010FA4FF000032CDD089309930A930DF14F
:105A3000200907AB019305AA06AB04A9CDF8009095
:105A400038461AF011F848463CF09EFFD8ED007A2F
:105A5000B4EEE70AF1EE10FA01DB1A4ABFE79DED5A
:105A6000057AF4EEC77AF1EE10FA01D8164AB6E7D5
:105A70009DED047AF4EEC77AF1EE10FA01D8134ADC
:105A8000ADE707F26C41124806F0CAFA074608B1C2
:105A9000104AA4E710490E4806F0C2FA00288FD039
:105AA0000E4A29462046A8F0E7FB3E4688E700BF9D
:105AB00028EE13086076002031EE130848EE130834
:105AC0006EEE13087CEE130891EE1308A7EE130890
:105AD000B02B0020BDEE130868750020DAEE130825
:105AE0002458002008B5064A43F66953D35C9B0747
:105AF00004D5044AA8F0C0FB002008BD0120FCE743
:105B0000B02B0020FCEE130870B5836813F0210F52
:105B10008EB005460E4603D1012420460EB070BD5E
:105B2000A9F0CEFE04460028F6D000212E2202A8BD
:105B3000019135F15FF82046322201A9A9F088FED3
:105B400004460028E8D1034A01AB31462846A8F0B4
:105B500093FBE2E793DE150870B543F650530B4C08
:105B60000546E05803685B690E46984710B101246A
:105B7000204670BD204617F017FB04460028F6D1DA
:105B8000034A31462846A8F077FBF1E7B02B002006
:105B90000CEF130870B505460E46FFF7EBFE064BFB
:105BA0000446D87131462846FFF7D6FF002814BFB7
:105BB0002046002070BD00BFF19200202DE9704A00
:105BC0002F4E0D4643F670518346715891F86D4043
:105BD00084B971F0F1FA202171F004F968B171F023
:105BE000EBFA1F2171F0FEF838B1264A29465846D3
:105BF000A8F042FB2046BDE8708A43F64A52B25CE8
:105C000002F01402142A04D11F4A29465846A8F06B
:105C100033FBDBF808203AB9DBF800202946584668
:105C2000D26ABDE8704A104729465846FFF7E6FC9D
:105C3000294681465846FFF7E1FD09EA0000C4B253
:105C400029465846FFF74EFE294604405846FFF7BE
:105C500071FE294604405846FFF744FF2946044098
:105C60005846FFF751FF294604405846FFF774FF96
:105C7000294604405846A9F01BFB0440BAE700BF80
:105C8000B02B002020EF13083AEF130810B5FFF7F0
:105C900095FF054943F648528C5C60F304148C541C
:105CA000024A907110BD00BFB02B0020F19200207D
:105CB00007B50448A1F052FE00F0010003B05DF802
:105CC00004FB00BF78750020F7B505460E46A8F026
:105CD0005FF9044660B3AB68012B01D0990727D563
:105CE0001548A1F03BFEC205C0F30723C0F300270F
:105CF0001ED49B071CD51048A1F0E0FD0F4A44F6C6
:105D00008C13D318D3ED007AF8EEE77A30EE670AF9
:105D1000DFED0B7AB0EEC00AB4EEE70AF1EE10FA4E
:105D200006DD084B324602212846A8F0BFF83C4663
:105D3000204603B0F0BD00BF78750020B02B0020D6
:105D40000000C84254EF1308F8B504460F46A8F007
:105D500071FCA368012B054601D0DB060BD520465C
:105D6000FFF7A6FF064630B9044B3A4610212046FD
:105D7000A8F09CF835462846F8BD00BF68EF130828
:105D800013B504460191A8F01DF980B1A368019AEA
:105D9000012B01D01B060AD5064944F27D23CB5CBA
:105DA0002BB12046044B8021A8F080F8002002B0DF
:105DB00010BD00BFB02B00207CEF1308F0B543F6F8
:105DC0000C13124C85B0E358009343F610136A4647
:105DD000E358019343F614130646E358029343F63F
:105DE00018130F46E3580393A9F0B4F93946054652
:105DF0003046A8F083F843F648522840A35C60F38D
:105E0000C303C3F3C000A35405B0F0BDB02B002002
:105E10002DE9F84306462248224D234F884686F056
:105E2000A7FA43F650538146E85803681B69984720
:105E3000044638B919F0060F04D105F576531B68EE
:105E4000022B09D141463046A8F03EF9044618B964
:105E50000023FB71184608E041463046FFF78AFDF3
:105E60000028F5D01CB90122FA71BDE8F883B268A8
:105E7000012A01D01307F6D595F868259C2101FB6E
:105E80000252B2F8B21342F64642AA5E9142EADDED
:105E9000064B424608213046A8F008F8D8E700BF74
:105EA00060760020B02B0020F192002090EF1308C4
:105EB00070B588B005460E46A8F0FEF904460028E5
:105EC00035D0AB68012B01D09A0630D51C4B44F677
:105ED00084329A5C5AB344F664329B5C9B0726D5A5
:105EE000184807AA06A980F061FF00B3DDED077A24
:105EF0009FED157AF4EEC77AF1EE10FA17D80EA3DB
:105F0000D3E9002317EE900ACDE90423FEF73CFB0A
:105F1000DDED067A0D4BFDEEE77ACDE90201CDED20
:105F2000007A324620212846A7F0C0FF00242046F0
:105F300008B070BDAFF30080000000403333E33F92
:105F4000B02B0020B45900209A99193FA0EF1308F4
:105F50002DE9F7430F46054619F0D8FF804618F0A3
:105F60007FFA044640B9774A01212846A8F084F90F
:105F7000204603B0BDE8F083404619F095FF78B99C
:105F800026F04AF890F85513044625F01DFBC3B2DD
:105F90007C2000FB034090F851400CB96A4AE3E7CB
:105FA000DFF8C89143F65053394659F803000368A7
:105FB0009B6998474E46044608B9644AD4E70121D4
:105FC0002846FFF71BFC04460028D1D043F64A536D
:105FD00019F8033003F01403142B05D15C4A012196
:105FE0002846A8F049F930E071F0E6F81F2170F07A
:105FF000F9FE584B58BB1870AB68002BB8D0012B7A
:1060000001D0D80628D5D8EDF77A98EDF60A20EE1B
:10601000270A32F1B9FADFED507A42F6184320EE42
:10602000270AF35EDFED4D7A20EE270A07EE903A5D
:10603000F8EEE77AB4EEE70AF1EE10FA0CDD484B21
:10604000012210212846A7F031FF002490E71B7899
:10605000002BD1D0434AC2E7AB68012B01D099068F
:106060000AD543F66952B25CD20603D53E4B0122F3
:106070002021E7E7012B01D05B063BD542F65643D2
:10608000F3564BB143F6141342F65842F358B25E3E
:10609000B3F906309A4216DC012F1DD043F61413D3
:1060A0003248F358B3F9083000EE103AB8EEC00A9F
:1060B00000F092FAB5EEC00AF1EE10FA25DD2C4B95
:1060C00000932C4B02E02A4B00932B4B01224021E2
:1060D0002846A7F0EBFEB8E743F650543059036862
:1060E0001B689847042805D0305903681B689847F7
:1060F0001428D3D1214B1B68186D0368DB699847BE
:106100000128014617D11E4A6AE743F65054305918
:1061100003685B69984738B143F61413F358B3F931
:106120000830002BE6DDCAE7305903681B68984742
:106130000B28DFD1F0E73946284603B0BDE8F0432D
:10614000A8F0BABCCCEF1308DDEF1308F1EF130889
:106150003AEF1308D89C0020E02E65420000C842A8
:106160001AF0130802F0130844ED1308B02B0020B6
:1061700034F013083DF0130822F01308688D002056
:1061800049F013082DE9F041524E33783746002B81
:1061900040F09E80504C43F670554FF00108655911
:1061A00086F8008095F86D501DB133702846BDE823
:1061B000F081A9F029F9054630B9484A30701378C2
:1061C00043F001031370F1E764F0AAFA414663F06B
:1061D000CFFC204607F042FE414B0B2683F804809B
:1061E0005AF0F6F8013E5AF02DF816F0FF06F7D1F6
:1061F000394801F03FF819F089FE43F69852D0F87B
:106200006C13A15090F87C34DA0750D419F0EAF9F5
:1062100064F086FA3C2164F0D9F9324B00221A600E
:1062200000212D4801F0B4F82B4816F0ABFF0146D1
:106230002D48A6F01DFB2D4B1B680121186D32F077
:10624000B5FD44F6C0332448E25C6FF34102E254EA
:1062500015F078FE43F670530121E058A3F054FD89
:1062600064F05EFA43F650530646E05803681B6834
:10627000984742F604430146E25C304663F03EFE36
:10628000154807F0DDFD60F0DDF85FF061FD0023EB
:106290003B70B6F07FF844F6FC1343F64A52E050E8
:1062A000A35A23F4087343F02003A3527EE79B070D
:1062B000B6D43146084805F059FF0D48A1F0FEFA62
:1062C000DFED0C7A074B20EE270A83ED000AA7E7E3
:1062D00000256BE7A82B0020B02B00201093002096
:1062E000F19200200C69002068610020688D002078
:1062F000787500200AD7233C2DE9F04343F670530C
:10630000374DEB5893F86D3087B0002B65D05AB1FC
:10631000012909D143F64853EB56002B04DB002436
:10632000204607B0BDE8F083A9F0F4F80446002841
:10633000F5D019F0EBFD074625F06EFE8046384695
:1063400017F098FFD8B198F92430022B17D1002606
:106350004FF00009F1B203AA38460191CDF80C9034
:10636000CDF81090CDF8149018F01CFF019918B1D9
:1063700003AA404625F088FA0136032EEAD143F6F7
:106380005052184BA858984223D10BF08FFE144856
:10639000012107F05BFF1248012107F09DFE43F643
:1063A00070530021E858A3F0AFFC0F483EF0A0FB6B
:1063B00064F0B6F9002163F0DBFB0C4B1B68002195
:1063C000186D32F0F3FC0A4B9A786FF345129A700D
:1063D000A6E718460BF06EFED9E70124A0E700BF40
:1063E000B02B0020808400200C830020688D0020CA
:1063F000F8680020014886F083B800BF607600206E
:1064000010B543F64852835CC3F340148C420AD063
:1064100061F34513835431B164F082F9BDE8104053
:106420000F2164F0D3B810BD70B500F5765605465F
:1064300033688B420C4611D0012910D0022915D0A7
:1064400059B964F06DF91B2164F0C0F80C4A05F5E8
:106450006C500621303066F003FE346070BD64F08D
:106460005FF91A2164F0B2F8064AF0E7012100F062
:106470008FFF64F055F91D2164F0A8F8024AE6E7A1
:106480009CF01308B1F01308ACF0130838B50C46B3
:1064900043F66951435C03F00105A54208D064F35B
:1064A00000034354DB0704D407F06EF9024B9C72DF
:1064B00038BD07F0E5FAF9E7F192002043F6695399
:1064C000C25C61F34102C254014B1973704700BFB3
:1064D000F192002010B5044670F06EFE202170F09D
:1064E00081FC031E04F5755018BF0123827A63F303
:1064F0008202827210BD000008B543F67053C05886
:106500000368DB689847F6EE007A20EE270AB5EEBE
:10651000C00AF1EE10FA48BF9FED010A08BD00BFA6
:106520000000000038B52DED028B44F6E813044658
:10653000C358DFED110A93ED2B0A5D20B7EE001A68
:1065400036F0FEFD44F6EC13B0EE408AE55843F613
:10655000705305F5A475E0580368DB68984738EE7A
:10656000400ABDEC028BDFED057A284620EE270AB3
:10657000BDE838408DF08ABC0000000000007A447D
:1065800000F50D5300F50D50D3ED045AD2ED007A0D
:10659000D0ED076A91ED006A26EEE77A67EEA57AFC
:1065A000A6EE257AE6EE267A81ED007AC2ED007A33
:1065B0007047000043F28863C35E3BB942F6524322
:1065C000C05E0028B8BF404280B2704783EAE370E3
:1065D000A0EBE370F8E7000030B52DED028B43F639
:1065E000695383B0C15C11F00101044605D09FEDF1
:1065F0002C0A03B0BDEC028B30BD43F64953019128
:10660000C35C5B07F3D5DFED278ADFED250AB0EE2B
:10661000681A3A2036F094FD42F65A450199605FB7
:106620004FF4C872B0EE408A36F0C0FD6053204689
:1066300015F0B0FD635F07EE900AB8EEE71A07EEBB
:10664000903AF8EEE77A31EE677AB4EEC78AF1EE67
:1066500010FA0DD52046FFF7ADFF07EE900A38EE91
:10666000478AB8EEE70A20EE088A88EE070AC0E7F4
:1066700077EE817AB4EEE78AF1EE10FAB7DD42F6F2
:10668000524338EE678AE35E00EE103AB8EEC00A75
:1066900078EEE77A20EE088A88EE270AA9E700BF9D
:1066A0000000000000007A4470B52DED028B43F627
:1066B00070550446435993F86D30002B7CD043F657
:1066C0004853C356002B77DB45F28863C35C002B2D
:1066D00072D143F65056805903685B699847002889
:1066E0006AD1374B985903681B6898470B2863D0C9
:1066F00044F6EC139FED337AE358D3ED9C7AF0EE39
:10670000E77AF4EEC77AF1EE10FA55D560593830D1
:1067100065F09AFF0346DFED2C0A93ED000A7D2019
:10672000B7EE001A36F00CFDB5EEC00AF1EE10FA25
:1067300042DD04F593404830A1F0C4F8DFED237A40
:10674000B0EEC00AB4EEE70AF1EE10FA34D542F228
:10675000D423E31893ED008A44F6E813B8EEC88A10
:10676000E0580368DB6F984738EE400ABDEEC00A78
:1067700010EE103A002BB8BF5B42B3F5FA7F1BDA7C
:1067800042F2D82340F2E632E35803F2F313934285
:1067900012D860599FED0E0AA2F05AFBBDEC028B95
:1067A00063599FED0B0AD3ED0A0A04F5C05010306F
:1067B000BDE870408FF0B0BFBDEC028B70BD00BF74
:1067C000B02B0020000000340000000000007042E8
:1067D0000AD7233C002070470020704700207047F4
:1067E00000207047002070477047000043F6505368
:1067F000C05803681B6818470348086036211170A9
:1068000008221A60704700BF74F6130844F6F813A4
:106810009FED097AC358D3ED0E7AF4EEC77AF1EE04
:1068200010FAB8BFD3ED047A9FED047A67EE877A49
:106830000120C1ED007A7047000000340AD7233CE4
:1068400010B543F650530C46C05803685B6D98472B
:1068500007EE900A9FED047AF8EE677A012067EE62
:10686000877AC4ED007A10BD0AD7233C10B543F6F1
:1068700050530C46C05803681B6D984707EE900AAA
:106880009FED047AF8EEE77A012067EE877AC4ED8F
:10689000007A10BD0AD7233C10B543F650530C467E
:1068A000C05803689B6D9847DFED037A20EE270AF6
:1068B000012084ED000A10BD0AD7233C03685B6FFA
:1068C000184700008EF05CBF77F0AABD04F0FABA5A
:1068D00004F0F6BA04F0F2BA04F0EEBA04F058BDCF
:1068E000A8F0D2BF83F0D4BB16F074BE05F00CB88C
:1068F0007DF038BB22F06ABA15F0BEBC5FF0BEBCBA
:1069000033F0F2BC63F0A0BA1FF074B872F09CB917
:106910006FF0B4B86CF068BD15F0A6B815F022BEE3
:1069200007F02CBE07F056BA06F0F0BC06F012BC19
:1069300059F088BC15F024BA503085F067BC0000CF
:106940001CF0E6BC79F0CAB883F0A6BF11F0F6BA25
:10695000FFF7AABE15F0D6B9A6F0E2BB80F054B896
:1069600015F0B2BC03F018BF15F04CB915F0C4B85F
:1069700070F092BB5BF092BD29F090BA08B544F676
:10698000F813C0589EF0AEFC012008BD07F002B914
:106990000AF0CABF0BF026B90BF0B4B810B52DED54
:1069A000028B43F650530446C05803685B6AB0EE4E
:1069B000408A984720B90024BDEC028B204610BDC8
:1069C0009FED080A04F5B74028EE000A34300DF0B8
:1069D0009FFA04460028EED003480121FFF710FD7E
:1069E000EAE700BF0000C842B02B00201FB543F605
:1069F00050530446C058039103685B6A984760B1DE
:106A0000DFED070A0399002304F5B7400093B0EEC9
:106A1000600A1A4634300DF0FDFF04B010BD00BF0F
:106A20000000000030B52DED028B0C4643F65051AE
:106A30000546405889B001680392496A0293B0EE56
:106A4000408AF0EE608A884728B39FED150A94EDDE
:106A5000006AD4ED016A94ED027A9DF83C10019130
:106A600026EE006A66EE806A27EE407A9DF83810BE
:106A7000009105F5B74068EE800A029B039A8DED00
:106A8000056A28EE000A05A93430CDED066A8DEDC1
:106A9000077A0DF0D7FE09B0BDEC028B30BD00BF08
:106AA0000000C842F0B52DED028B1C4643F6505352
:106AB0000746C05803688FB05B6A0E461546B0EEB5
:106AC000408AF0EE608A984700284CD09FED280A53
:106AD00096ED006AD6ED016A96ED027A9DF8603077
:106AE000029326EE006A66EE806A27EE407A8DED0C
:106AF000056ACDED066A95ED006AD5ED016A8DED6A
:106B0000077A95ED027A9DF85C30019326EE006AD3
:106B100066EE806A27EE407A8DED086ACDED096A4F
:106B200094ED006AD4ED016A8DED0A7A94ED027A53
:106B30009DF85830009326EE006A66EE806A27EED4
:106B4000407A07F5B74068EE800A0BAB28EE000AE2
:106B500008AA05A934308DED0B6ACDED0C6A8DEDD8
:106B60000D7A0EF059F80FB0BDEC028BF0BD00BFEE
:106B70000000C84270B543F650530646C05803683B
:106B800086B05B6A0C469847054610B39FED126AC3
:106B9000D4ED006A94ED017AD4ED027ADFED0F0AAC
:106BA0000023012266EE866A27EE067A67EEC67A31
:106BB00006F5B740CDE90032B0EE600A1A4603A9E7
:106BC0003430CDED036A8DED047ACDED057A0DF00C
:106BD00025FE284606B070BD0000C8420000000037
:106BE000F0B52DED028B144643F6505207468058FF
:106BF0008DB002680593526A0D46B0EE408AF0EE01
:106C0000608A90470646C8B39FED1F0A95ED006A5B
:106C1000D5ED016A95ED027A059B26EE006A66EED7
:106C2000806A27EE407A01228DED066ACDED076A73
:106C300094ED006AD4ED016A8DED087A94ED027A44
:106C400002929DF85420019226EE006A66EE806A58
:106C500027EE407A9DF85020009207F5B74068EE85
:106C6000800A09AA28EE000A06A934308DED096AC7
:106C7000CDED0A6A8DED0B7A0DF066FD30460DB054
:106C8000BDEC028BF0BD00BF0000C84270B543F6FA
:106C900050530646C05803688EB05B6A0D461446D2
:106CA0009847D8B3DFED1E7A95ED006AD5ED016AFD
:106CB00095ED027ADFED1B0A26EE276A66EEA76ADB
:106CC00027EE677A8DED056ACDED066A94ED006AD0
:106CD000D4ED016A8DED077A94ED027ACDED0B0AC1
:106CE000002326EE276A66EEA76A06F5B74067EE30
:106CF000677ACDE901330093B0EE600A0BAB08AAC6
:106D000005A934308DED086ACDED096ACDED0A7A1A
:106D1000CDED0C0ACDED0D0A0DF07EFF0EB070BD6D
:106D20000000C8420000000070B52DED068B43F650
:106D300050530546C058036884B05B6AF0EE409A31
:106D4000B0EE60AAF0EE41AAF0EE618A0E46B0EE17
:106D5000429A98470446F8B19FED128A4FF07E534D
:106D60006AEE080A29EE880A0093684600232AEE94
:106D7000881A0393029301933AF006F99FED0A0AE9
:106D800005F5B74069EE080A28EE800A002332466E
:106D9000694634300DF0C0FB204604B0BDEC068BD4
:106DA00070BD00BF35FA8E3C0000C842534B37B56A
:106DB000044640F8043B77F039FC9FED511ADFEDB3
:106DC000510A9FED510A04F130008CF029FE04F1C4
:106DD000580083F075FA04F110054C4B4C491D60C6
:106DE00028465DF06BFA04F1900020F08FFD494BCE
:106DF0000193009402AB13E9060004F506705FF0FE
:106E0000C1F804F5317027F03DF804F5C2601BF0BD
:106E1000FDFE04F2647024F0DDFA04F52C6032F01B
:106E2000FDFF04F59E5077F0CFF904F5A450103023
:106E30005DF0F8FF04F5B850183071F001FD04F56D
:106E4000BA5014301EF0E8FF04F5C05010308EF038
:106E5000E1FD04F5F55097F0ABFB04F5F550183063
:106E60005FF0FEFB04F5F850043078F047FD41F682
:106E70000C730025E218E55404F5F850264B1C303D
:106E80001A6059F07DF804F5FB502946103019F0CE
:106E90004FF804F51B5028308DF064FA04F51B50B0
:106EA00034307DF06FF804F51C5020308DF060FF19
:106EB00004F52750343094F01FF904F52C500C30B1
:106EC00093F0FEF904F52C502C3096F0E3F904F51C
:106ED0002E50243096F046FF42F60443E5540F4D01
:106EE0002B6813B10E48B5F023FA20460D495DF02A
:106EF000E5F920462C6003B030BD00BF34211508F1
:106F000000008C429A99993E000048432891002045
:106F100014761408BD680008909F0020D8930020C4
:106F2000C0F013087820150810B515F0C3F870F0FC
:106F300043F90368BDE810405B681847FFF7F4BFEA
:106F400010B5044607F0E0F8204615F04DFD204648
:106F500004F0E0FE2046BDE8104004F0BBBE000097
:106F6000FFF7EEBF70B500F576551C350446284690
:106F70001DF00CFD25F050F890F921308BB390F8FE
:106F8000543373B343F6705304F26476E0583830E8
:106F900065F05AFB0346DFED130A93ED000A7D20EE
:106FA000B7EE001A36F0CCF894F9A037012B28463A
:106FB00008BF86ED130A00211DF0F8FADFED0A7A0A
:106FC00004F5276494ED007A20EE270ADFED077AB6
:106FD000A7EE270A304684ED000ABDE8704024F091
:106FE000EBBC70BD00000000CDCCCC3D6666663FBA
:106FF000FFF7B8BF00F5765000211C301DF0D6BA5F
:1070000010B50121044615F031FD60B143F650532F
:10701000054AD05803689B6A984720B92046BDE8C6
:10702000104002F079BC10BDB02B0020FFF7E8BF84
:1070300038B50446FFF7DEFF0221204615F016FDA5
:1070400078B10121204615F011FD50B943F6505397
:107050004E4AD05803689B6A984710B9204602F000
:107060005BFC0221204615F001FD00286AD0204675
:1070700002F0D8FC4FF40031204615F0F7FC10B1B7
:10708000204602F0E1FC4021204615F0EFFC60B103
:1070900004F564551C35284661F0AEFB41F21873C7
:1070A000E35613B1284661F0BDFC4FF480612046E1
:1070B00015F0DCFC20B104F564501C3061F030FCAC
:1070C0002021204615F0D2FC60B143F6505560599E
:1070D00003681B69984700283BD044F6EC13E0583E
:1070E0009CF0F2F88021204615F0C0FC00283CD02E
:1070F00034F032FA32F0A2FD1021204615F0B6FC31
:1071000098B144F6E81304F56455E05898F024FF6C
:107110001C3504F538510431284661F0C5FF04F5EB
:1071200035510431284661F05FFF4FF6FF7120466C
:1071300015F09CFC40B304F559502C30BDE83840A4
:10714000A8F0B0BB0121204615F090FC00288ED19C
:1071500090E720460EF0B0FC0028BED160590368CD
:107160005B6998470028B8D0BCE74FF480212046DF
:1071700015F07CFC0028BBD14FF40021204615F00F
:1071800075FC0028B4D1B7E738BD00BFB02B002094
:10719000FFF74EBF10B50121044615F067FC10B192
:1071A000204602F03FFC8021204615F05FFC28B10C
:1071B00034F0D2F9BDE8104032F022BD10BD00001D
:1071C000FFF7E8BF10B5044606F0BEFD204606F006
:1071D000F9FB204606F0ACFE204616F01DFA2046CC
:1071E000BDE8104004F06CBBFFF7ECBF70B54FF684
:1071F000FF71044615F03AFC30B143F648530721BD
:10720000E258204602F07EFC04F56A5043F67055C1
:107210000430FEF7E1F9635993F86D30A3B904F532
:10722000FB50103019F004F92046FFF753F960596C
:10723000026804F53953D669197842F66E42A25CA9
:10724000B0476059A1F0DCFD70F0BEF9204616F0A1
:10725000D5F943F6485345F2C952E35CDB43C3F327
:10726000C013A354014A537170BD00BFF1920020B6
:10727000FFF7BCBFF8B500F50D53103300F5765697
:107280001B68736000F50D531C3342F2DC271B684A
:10729000B3600446C05900F58C40503035F010FF03
:1072A00043F68C534FF6FF71E05072683261B2685A
:1072B0007261204615F0DAFB30B1E259204609210F
:1072C000BDE8F84002F0F6BBF8BD000000F57653CB
:1072D0001A68002A4ED043F64953C35CDB0749D5F0
:1072E00000F57553012A597A6FF30001597243F67C
:1072F0000C13C15843F61013B1F90820C35806EE19
:10730000902AB3F90830F8EEE66A06EE103A00F576
:10731000765330D193ED017A00F57653F8EEC67AC4
:10732000D3ED025A25EEE76AA6EE876A00F50D5204
:1073300067EE877A92ED077AE6EEA57AD2ED046AD7
:1073400027EE877AA6EE267ABDEEC77A17EE10CA28
:10735000A1F808C092ED047A67EE877A92ED077A79
:10736000E6EE477A43F610114158FDEEE77A17EE44
:10737000903A0B817047D3ED047A00F57653B8EE5E
:10738000C67AD3ED055A25EEC76AA6EEA76ACDE701
:1073900010B504462DED028B79B1204614F0D4FCD3
:1073A00043F68C5240F2E631A3581B1A03F2F31352
:1073B0008B420DD8BDEC028B10BD00F576531B68D7
:1073C000022BF7D114F0A2FCB0F57A7FE5D2F1E7F9
:1073D00000F58C43A0505033642093FBF0F308EE8B
:1073E000103ADFED0B7AB8EEC88A28EE278AB0EEA5
:1073F000480A30F1C7FE04F5765383ED040AB0EE77
:10740000480A31F149F804F5765484ED050AD1E7CC
:1074100035FA8E3C00F5FB500121103017F036BDD7
:1074200010B5044600F52C6033F020FB44F6E81359
:10743000E05803685B6C9847204614F0A9FA204690
:10744000FFF7E8FF204606F001FE204605F01CFF8E
:10745000204607F0A1F9204604F0AAFE204607F0D6
:1074600041F804F59440483071F0F4FB4FF6FF7199
:10747000204615F0FBFA10B1204602F09DFB204695
:10748000BDE8104060F0BEBC10B5044614F088FEA4
:107490001021204615F0EAFA48B1204602F0E0FC3F
:1074A00004F5C0501030BDE810408FF0AFB910BDEA
:1074B000FFF7EABF70B50446254607F09BF82C4B52
:1074C00045F83C3B2B4B2465C4E915342A4BC4E9F1
:1074D00017342A4B636604F1780020F06DFE04F146
:1074E000900020F069FE04F1A80020F065FE4FF640
:1074F000FF76234BC4F8B830A4F8BC6004F1C00098
:1075000020F05AFE1F4B20491D6028465CF0D6FE35
:107510000025012384F838312946A4F87060A4F8C6
:10752000886084F81051C4F83451502204F5AE70CC
:1075300033F160FB04F5B67329461022184633F187
:1075400059FB20F039FE04F5C27329461022184673
:1075500033F150FB20F030FE04F5CE7310222946A3
:10756000184633F147FB20F027FE204670BD00BFD0
:107570007453140891690008956900089969000816
:107580000000FFFFAC920020BCD5140810B50446E3
:1075900020F012FE04F1100020F00EFE04F1200095
:1075A00020F00AFE04F1300020F006FE204610BD57
:1075B0002DE9F0472DED028B044684B0FFF7F6FB72
:1075C000A44B236004F53250103002F013FD04F593
:1075D000315104F5645028311C3062F00BFA43F647
:1075E000C41204F531531C33A35043F6C8130622CA
:1075F00004F56750E254183064F0B0FF04F56750AA
:107600003C3064F0ABFF43F6142343F68427012596
:1076100004F56850E550E619243070F06FFD3046EF
:10762000A6F002FC8C4BE351301D5CF02FF810B932
:1076300043F68823E55404F56B5024305AF0D4FE09
:1076400043F63033854AE25004F56D5504F56E5625
:1076500018353C362846143569F032FCAE42F9D173
:1076600043F6E04343F6DC460722A519E250002327
:107670002B814FF4CB7021F06BF9A05105F10C0078
:10768000B1F088FE04F574502C30B1F083FE744ADA
:10769000116843F6303309B9E1181160714AE250BC
:1076A00004F5BB4843F6505308F1200804F5755023
:1076B00044F803801530A3F085FEB7EE008A04F588
:1076C000765383ED018A04F5765383ED048A664B85
:1076D0000393664B0093029404AB04F5765013E9D0
:1076E0000C004FF400711C301CF00CFD04F58540BB
:1076F000A9F0F0F904F59340B0EE480A103064F0B8
:10770000F7FF04F59340B0EE480A283064F02EFFEE
:1077100004F59340383020F04FFD44F6C813544927
:10772000E150E21804F593430025DD641D655D65B5
:1077300004F5934304F594469D65DD651D6604F5E7
:10774000FB531033D36144F601230022E25406F1C7
:10775000200020F031FD4FF40043736404364549A6
:1077600030465CF0ABFD444B04F5944048301E605D
:1077700071F0AEF904F59540303084F065FD04F504
:10778000964044F69C36643085F016FFA0195DF0F3
:10779000A3F93A4BA35104F59740303083F004F835
:1077A00004F597404C3004F5F8530433036104F5B5
:1077B0009747334B3349186070375CF07FFDFF23E8
:1077C0003B743B76304938465CF078FD2F4B1E68A1
:1077D00016B12F48B4F0ACFD04F5AE4104F5984065
:1077E0005C3110301F6060F0C3F804F5A9400C3024
:1077F0009CF06EFB04F5AA4704F5AA406837603098
:1078000045F2186A9DF008FB04EB0A0938468BF034
:1078100027FC39464846A3F0EFFD1E4B44F80A30DA
:10782000062389F854301C4B1C4A1A6004F5AC41FD
:107830007831334618279EB2304678430133105CC6
:107840000028F8D1164B1E80164B1E6886B31648CA
:10785000C0E700BFBCFA130860F01308843D1508A8
:10786000A09C002058FB13088D690008ACFA13088F
:10787000ACA41508F47714083091002098F0130890
:10788000989F00201C5515080476150830A000208C
:10789000D4F013086C4B140894930020C83E1408CD
:1078A0009093002054930020F5F01308CDCC4C3D6C
:1078B00004F5AD401FED030A196045F2A4670C30D2
:1078C00064F054FEE01906F095FE7E4BE35145F25C
:1078D000E467E01906F08EFE45F6D0097A4BE351D5
:1078E00004F5AE4004EB09072030FFF7E3FD38460E
:1078F00006F080FE754B44F8093007F13C00ADF00E
:1079000027FA45F60C13724AE25045F65827E0195B
:1079100006F070FE6F4BE35145F69C27E01906F028
:1079200069FE6D4BE35145F6D82345F6DC27E65258
:10793000E01906F05FFE694BE35145F61837E01990
:1079400006F058FE664BE35104F5B64345F66C3736
:1079500004EB07095D659D65DD65484606F04AFE56
:10796000C9F83C605F4BE35145F6B43904EB0907B5
:10797000384606F03FFE5C4B44F80930FE6345F69E
:10798000F837E01906F036FE584BE35145F640470C
:10799000E01906F02FFE564BE35104F5B94738467F
:1079A00006F028FE534B3B60BD67FD6745F6145754
:1079B00004EB070A504606F01DFEDFF85C9144F820
:1079C000079045F650530127E7520AF14000FFF7B0
:1079D000DDFD404606F00EFE45F6A053464AE25055
:1079E00045F6DC5804EB080006F004FE434B44F86F
:1079F000083004F5BC4045F68C6804EB080A1830E2
:107A000011F028FE504606F0F5FD3D4BCAF83C60EB
:107A100044F8083045F6D06804EB080006F0EAFDAB
:107A2000384B44F8083045F60C7345F6207804EBE3
:107A3000080AE652504606F0DDFD334BCAF83C60BA
:107A400044F8083045F6647804EB0806304606F042
:107A5000D1FD45F6A07344F8089006F14000E752C6
:107A6000FFF794FD294B44F8083004F5BF4086F831
:107A7000897074300BF04AFA04F5C14046F23016B2
:107A8000383012F079FFA01906F0B4FD204BA35155
:107A900004F5C2431D675D6746F27815601906F06C
:107AA000A9FD1C4B635143F66C522046A35C23F0A6
:107AB000030343F00303A35404B0BDEC028BBDE801
:107AC000F08700BFA850140830511408FC53140864
:107AD000705414082C551408B05514083456140862
:107AE000B0561408CC58140848591408485A1408B9
:107AF000C45A1408C45B1408AC5E1408245E14084D
:107B0000A854140858621408D4591408A05D140825
:107B1000E0621408405B1408205D140838B5054B7A
:107B20001C6823680A461D68034B01462046A84787
:107B3000002038BD688D0020B02B002038B50379B7
:107B400004463BB905682DB1284631F089F928462D
:107B500020F0FAFE204638BD70B5294B036042F68E
:107B6000F433C218044612793AB9C5582DB12846E3
:107B700031F076F9284620F0E7FE04F5F55096F04E
:107B80002BFD04F5D1500C30FFF7D8FF04F5D15090
:107B90000430FFF7D3FF04F5D0501C30FFF7CEFFC1
:107BA00004F5B850183070F063FE164BC4F8C03AB4
:107BB00004F5726064F0FEFA04F6047064F0FAFAF8
:107BC00004F6E86064F0F6FA04F6AC5504F6645680
:107BD000B54204D0083D2846FFF7B0FFF8E70A4B4E
:107BE000C4F8D43094F8B43143B9D4F8B0512DB1BD
:107BF000284631F035F9284620F0A6FE204670BD13
:107C00003421150824C91408487D140838B50F4BD1
:107C1000036045F20863C218044612793AB9C558A0
:107C20002DB1284631F01CF9284620F08DFE43F690
:107C30003033074AE25043F6DC43E05808B120F005
:107C400089FE2046FFF788FF204638BDBCFA13089E
:107C5000843D150810B5B1F04DFE064C064B18607A
:107C60002046FFF7A5FC2046044A0549BDE8104020
:107C700030F1FEB8B02B0020688D0020FCFA002007
:107C80000D7C000801207047FA207047024A42F636
:107C90001E43D05C704700BFB02B0020044A43F65F
:107CA0007053D05810B103681B68184701487047DB
:107CB000B02B002038FB1308024B1868431E5842B3
:107CC0005841704730690020024B1868831E5842A3
:107CD000584170473069002070B5C169026A6B4D28
:107CE00041F4E053C36142F4E0530362436A044643
:107CF00043F4E050606243F649502E5C760710D59D
:107D000042F48E3241F48E31E16122622A5C5007E6
:107D100007D543F66952AA5CD1075CBF43F48E33A2
:107D20006362E36943F4C043E36143F65053E858A8
:107D300003681B6898470238192816D8DFE800F056
:107D40009E0D0D0D0D0D150D1515159E159E0D0D88
:107D50000D0D9E0D9E151515150DD4E9082342F441
:107D6000C042226243F4C043636249487FF098F8FE
:107D700018B1E36943F08063E36145487FF098F808
:107D800018B1236A43F08063236241487FF09AF878
:107D900018B9636A43F0806363623E4B1E6846B164
:107DA000192130465DF06EF918B1E36943F4807330
:107DB000E36143F6CC13EB5CDA070DD5236A43F499
:107DC0008073236246B1192130465DF087F918B1FE
:107DD000636A43F4807363625AF0E2FB98B190F9EE
:107DE00005303BB1D4E9072342F0400243F04003A1
:107DF000E2612362036833B10379DB0742BF636A40
:107E000043F04003636245F28C416B568BB1D4E979
:107E1000072343F0800342F08002E26123626B5645
:107E20003BB145F25453EB5C1BB1636A43F08003F2
:107E3000636245F28843EB5C013B012B0BD8D4E92C
:107E4000072343F480032362636A42F4800243F40D
:107E50008003E2616362E36943F08043E361236A84
:107E600043F08043236243F67053EB5893F8653038
:107E70001BB9636A43F08043636270BD236A43F4B5
:107E800000532362636A43F400536DE7B02B002074
:107E9000B4590020A093002013B54FF4E870CDE949
:107EA000002120F04BFDDDE9002104466CF082FB4F
:107EB000024B2360204602B010BD00BF90FD1308A6
:107EC00008B590F88C308B4208D260F069FB16221E
:107ED0004FF4802160F01AFB002008BD243150F8D7
:107EE0002100FAE708B590F88C308B4208D260F098
:107EF00057FB0F224FF4802160F008FB002008BDE3
:107F0000243150F82100FAE7002070470020704724
:107F10000320704710B543F65053154CE0580368E2
:107F20001B68984707281DD8032834BF102318233F
:107F300043F6705243F04000A25822B192F86D20EF
:107F40000AB143F0C00040F0010010BD0B280DD86D
:107F5000DFE800F006060C060C060C060C0C0C06FE
:107F60001823E5E71038C3B20B2BEFD91023DFE756
:107F7000B02B0020024A42F62043D05C704700BF7D
:107F8000B02B0020034A42F63063D056003818BFA9
:107F900001207047B02B0020024A42F62243D056FF
:107FA000704700BFB02B00207047000008B50E4A94
:107FB00043F67053D058A8B1383064F045FB0346FF
:107FC00093ED000ADFED090A7D20B7EE001A35F0C7
:107FD000B7F8DFED077A20EE270ABDEEC00A10EEF3
:107FE000103A18B208BD00BFB02B002000000000FE
:107FF0000000C8422DE9F04FDFF8D890334F8DB024
:1080000004460425A9F10406314B17F801ABB3F976
:1080100000300AF1FF3B43FA0BF3D90743D5207C2C
:1080200065F0B6FF8046207C66F078FE00F1210303
:10803000984505D2207C65F053FA0DB0BDE8F08F6D
:10804000BBF1030F2FD8DFE80BF00233373B30686A
:1080500003689B68984700F19803D3ED007AD3F842
:1080600004B0D3F80CC018695969D3F818E0DA697C
:108070001B6ACDF82530CDF8292021236222CDE9D5
:10808000003207900891207CCDED037A192303AAD2
:10809000C221CDF810B0CDF814E0CDF818C08DF89D
:1080A00024A065F0BDFF013D15F0FF05ACD1C4E78C
:1080B00030680368DB68CDE7306803681B69C9E78F
:1080C000D9F8003003F5F073C7E700BF78FE130856
:1080D000285800209C75002007B50190A7F0F0FB00
:1080E00028B1019903B05DF804EBA7F0ABBB03B076
:1080F0005DF804FB014809F05BB800BFD0820020A6
:1081000070B542F6346314460A4AD358DB07054675
:108110000E4603D508482146A3F012FD2146074824
:10812000A7F0B8FF224631462846BDE870406BF004
:1081300037B800BFB02B0020C8810020406200206B
:1081400010B588B0044668F035FA0B4A43F6705310
:10815000D05830B9094A0621204668F021F908B004
:1081600010BD69461E22A1F0A5FD054A6B460621F9
:10817000204668F015F9F2E7B02B002038FB130811
:1081800093DE150810B443F60812044CA35C0133C7
:10819000A3545DF8044B67F021BA00BFB02B002058
:1081A00001489CF087B800BF3C80002007B5084616
:1081B000019120F001F938B10448019903F058FA0F
:1081C000002003B05DF804FB0420FAE7908D002046
:1081D000014803F0CBBF00BFB02B0020014803F0E3
:1081E0004BBF00BFB02B0020F8B58A7A4B7A43EA28
:1081F0000223CA7A43EA02439D2B05460C4619D155
:108200000F4F104844F64A26B95D70F029FD88B139
:10821000B95D0C4870F060FD60B9D4ED057A9FED52
:108220000A0ADFED0A0A0A48F8EEE77A27EE800A22
:1082300003F0FEF921462846BDE8F84067F002B990
:10824000B02B0020F87500200AD7233C0000000066
:10825000908D002010B544F61043064AD25640F6E1
:10826000CD3440F6CD13002A08BF1C4667F06CF9E8
:10827000204310BDB02B002000B589B0002302932D
:108280000393049305930693079317F03FFE02A907
:1082900015F0D2FFB0B117F039FE16F09BFC05A81F
:1082A0008DED050ACDED060A8DED071A3AF06CFB4F
:1082B000F1EE047A20EE270AFCEEC07ACDED017AC9
:1082C0009DF8040009B05DF804FB000010B50446F9
:1082D00020F03AFB204610BD38B50D4C43F648530C
:1082E000E356002B0FDB43F65055605903685B6C77
:1082F000984750B9605903681B6C984700280CBF19
:108300000220032038BD0120FCE70420FAE700BF6B
:10831000B02B002008B543F64952134B985C10F07F
:1083200020001FD043F65052985803685B6D984761
:1083300007EE900AB8EE677ADFED0C7A27EE277A1F
:10834000DFED0B7AB4EEE77AF1EE10FA58BFB0EE3B
:10835000677AF2EE046AC7EE267AFCEEE77A17EE49
:10836000903A98B208BD00BFB02B00200AD7233C3A
:1083700000FF7F4738B5F7EE000A91ED050A044685
:108380000D4634F0C7FD28B121460548BDE8384008
:1083900003F020BF29462046BDE8384069F0C0BE42
:1083A000B02B002008B543F64952094B985C10F0F9
:1083B00020000BD043F65052985803681B6D984725
:1083C00034F07EFEC82390FBF3F0C0B208BD00BFBE
:1083D000B02B002000B589B00023029303930493CF
:1083E00017F094FD02A915F027FFD8B117F08EFD04
:1083F00016F0F0FBF0EE607AF1EE400AB1EE670A9B
:1084000030F126F9DFED097A20EE270A34F0F0FD8D
:10841000F6EE007A20EE270AFCEEC07ACDED017A66
:108420009DF8040009B05DF804FB00BFE02E654232
:108430001FB5002301930293039317F067FD01A971
:1084400015F0FAFE28B101A83AF09EFA05B05DF8E1
:1084500004FB27F061FD90F8A4329C2202FB030389
:1084600093ED370AF2E700000B7ADB0706D50448E4
:10847000CB6842F2E03282581344CB60704700BFB1
:10848000B02B0020044B187828B9044A43F64A530D
:10849000D05CC0F3801070472C910020B02B0020DE
:1084A00007B5124B43F64952985C10F0200019D0E2
:1084B00044F6EC12985800F51D703AF065FADFEDBD
:1084C0000C7A20EE270ADFED0B7AB4EEE70AF1EE24
:1084D00010FA58BFB0EE670AFCEEC07ACDED017A13
:1084E0009DF8040003B05DF804FB00BFB02B002032
:1084F000CDCC4C3D00007F43094B44F27D229A5C79
:1085000062B943F669529A5CD20607D143F64852E3
:108510009B56002BACBF04200320704705207047FA
:10852000B02B002008B5084A42F66C43D356032B03
:1085300003D0BDE8084067F04BBF044A022167F052
:108540002FFF042008BD00BFB02B002090FB1308B4
:10855000094B42F634629A5892070BD544F6BC1286
:10856000134493ED000ADFED057AB8EEC00A20EE61
:10857000270A704766F016BEB02B00200AD7233CAE
:1085800010B594B0044603A81FF016FE43F65053EE
:108590001C4AD058036803A9DB6C984778B30021C4
:1085A00003A81FF0D3FE50B3247CB3F0F3FE059B69
:1085B000DDED047A0893069B09930023F8EEE77A31
:1085C0009FED117A0B930C930D930E930F931093D1
:1085D000119312934FF6F853ADF84C3000239622C6
:1085E00067EE877A8DF84E303323CDE9003207905D
:1085F00007AA57212046CDED0A7A65F011FD14B087
:1086000010BD00BFB02B00200AD7233CF0B52DEDE4
:108610000A8B43F65053824C0546E058036899B0E4
:108620005B6A9847002866D045F6F033E358062B7E
:1086300000F2E180DFE803F004040463A0C35F00FC
:1086400078489FED798A0CF0EDFB0446D0E90201F1
:10865000FCF7EAFA0746D4E90401FCF7E5FA064616
:10866000D4E90001FCF7E0FA9FED700A0B900BA82B
:108670000C970D9639F0C6FCF0EE489AB0EE40CA61
:10868000F0EE60BAB0EE419AB0EE48AAF0EE488A39
:10869000F0EE48AAB0EE48BA40F6F8542D7CB3F09C
:1086A00079FE00231593169301238C228DF85E30FA
:1086B0003323CDE900320B90B1EE499AF1EE688A8E
:1086C000B1EE488A0BAA552128468DED0CCACDED96
:1086D0000DBA8DED0E9A8DED0FBACDED10AACDED40
:1086E000118A8DED12AACDED139A8DED148AADF895
:1086F0005C4065F095FC19B0BDEC0A8BF0BD4948B3
:108700000CF090FB0446D0E90201FCF78DFA074615
:10871000D4E90401FCF788FA0646D4E90001FCF725
:1087200083FA9FED420A0B900BA80C970D9639F037
:1087300069FC3C48F0EE60BAB0EE419AB0EE40CA37
:108740000CF074FB9FED390A39F05CFC3548B0EE53
:1087500040BAF0EE60AAF0EE418A0CF06BFB9FEDA0
:10876000330A39F04FFC4FF44064B0EE40AAF0EE0B
:10877000609AB0EE418A91E72A489FED2B9A0CF05F
:1087800055FB9FED2A0A39F03DFC2648B0EE40BA71
:10879000F0EE60AAF0EE418A0CF04CFB9FED230A4C
:1087A00039F030FCF0EE49BAB0EE40AAF0EE609A33
:1087B000B0EE418AB0EE49CA40F607446EE7194868
:1087C000DFED198A0CF036FB9FED180A39F01AFC20
:1087D000F0EE68AAB0EE40AAF0EE609AB0EE418AE0
:1087E000B0EE68BAB0EE689AF0EE68BAB0EE68CA59
:1087F00040F63F4452E79FED0C8A0024F0EE489A81
:10880000B0EE48AAF0EE488AF0EE48AAB0EE48BAB8
:10881000B0EE489AF0EE48BAB0EE48CA3EE700BF64
:10882000B02B002064870020000000000AD7233C02
:10883000F8B58B8BCD2B05460C4617D10E4F0F4844
:1088400044F64A26B95D70F00BFA78B1B95D0B4871
:1088500070F042FA50B994ED020ADFED097ADFEDCB
:10886000090A094820EE270A02F0E2FE21462846BE
:10887000BDE8F84066F0E2BEB02B0020F87500209D
:108880000AD7233C00000000908D002008B590F826
:10889000CE3153B9806A03681B6A9847B0F5005F10
:1088A00028BF4FF4005080B208BD0020FCE7000054
:1088B00038B5D0E99845006903689B689847806897
:1088C000FBF762FE02460B4620462946FBF7FCFCFE
:1088D000FCF7AAF900EE100A38BD00002DE9F041BE
:1088E00043F649533D4F2DED068BFB5C99068CB04A
:1088F00004466DD544F6E8139FED390AF858DFEDCC
:10890000398A3C3039F07EFB8DED041A21EE281AAD
:1089100043F65053BDEEC11AFE58CDED030A11EED9
:10892000103A1DB233688DED020A1B6D94F8108069
:10893000304620EEA89A60EE289A984707EE900AF3
:10894000F8EEE77A304667EEA87AFDEEE77A17EEA2
:10895000903A1CB233685B6D984707EE900AB8EE08
:10896000678ADFED217A28EE288A44F6EC13B4EE0C
:10897000E78AF858F1EE10FA58BFB0EE678AFFF7B1
:1089800097FF336830469B6DB0EE40AA9847BCEE27
:10899000C88A0023089318EE103AB7222AEE28AAB4
:1089A00020EE280AADF82C301A23CDE900323E2102
:1089B00005AA4046CDED059A8DED069A8DED07AAE4
:1089C0008DED090AADF82850ADF82A4065F028FB76
:1089D0000CB0BDEC068BBDE8F08100BFB02B0020D1
:1089E0009F0CB3450AD7233C00FF7F4710B52DED00
:1089F000028B84B017F08AFA044668461FF0DCFB4D
:108A00006946204615F0E2FB0F4B43F64952985C4D
:108A100010F0200013D044F6EC12DDED017A9858E6
:108A2000B8EEE78AFFF744FF38EE008A9FED070AA9
:108A300028EE008ABDEEC88A18EE103A18B204B0CB
:108A4000BDEC028B10BD00BFB02B00200AD7233C29
:108A5000034A43F67053D05808B190F86C00704741
:108A6000B02B002008B5044A43F65053D058036891
:108A70001B68984708BD00BFB02B0020034A43F68F
:108A80004953D05CC0F34010704700BFB02B0020AA
:108A900070B543F650533B4E2DED028B0546F05812
:108AA00091ED018A036888B05B6A0C46984750B91B
:108AB000BDEEC88A18EE103ADB0704D4022008B0D5
:108AC000BDEC028B70BDD4E9040135F0C9FA002871
:108AD000F4D004A81FF070FBD4ED067A9FED2A7A3B
:108AE00023690693F0EEE77AF4EEC77A6369079399
:108AF000F1EE10FAE2DC94F8201003AA28466AF09E
:108B000049FD0028DAD09FED217AD4ED067A039A48
:108B100067EE877A04A8FDEEE77A17EE901A1FF049
:108B200051FB1B4904A81FF053FC03460028C5D184
:108B3000DFED180A00900246B0EE600A164804A95C
:108B40000BF068FFE0B143F65053F05803685B6ADE
:108B50009847044608B10020B1E70A4802220421E0
:108B600006F0F6F860B1DFED0B0A0B4800942346DF
:108B7000B0EE600A224604A90BF04CFF0028EAD1AF
:108B800004209CE7B02B0020001CA2470000C84234
:108B90006875002000000000648700208A8B202A6E
:108BA00082B004D0C02A1DD002B06AF091BDD1EDD0
:108BB000007AF5EEC07AF1EE10FA16DD9FED0C7A30
:108BC000F4EEC77AF1EE10FA0FD8FCEEE77A094915
:108BD000CDED017A43F292629DF804308B52002071
:108BE00002B0704702B0FFF753BF0320F8E700BFA1
:108BF00000007F43B02B002010B52DED028B8CB010
:108C00000023044603930493059317F07FF903A907
:108C100015F012FB50B317F079F915F0DBFFF0EE09
:108C2000607A8DED060ACDED070AF1EE400AB1EE4D
:108C3000670A247C8DED081A2FF10AFD06A8B0EE14
:108C4000408A39F0A1FEDFED0B7A089B0B930122DD
:108C500028EE278A0C23CDE90032A82109AA204654
:108C60008DED098A8DED0A0A65F0DAF90CB0BDECDC
:108C7000028B10BDE02E65422729F7B505460E464A
:108C800011D008D819290CD0242921D031462846E2
:108C90006AF060FF16E038292AD0A1F13A03012BCF
:108CA000F4D801200EE0FFF7F1FD0446287C66F0C1
:108CB00035F800F112039C42297C05D2084664F085
:108CC0000FFC002003B0F0BD21485EF0DBF8E8E7C0
:108CD000FFF7DCFD0446287C66F020F800F10C0369
:108CE0009C4201D2287CEAE72846FFF785FFD8E7B7
:108CF000FFF7CCFD0446287C66F010F800F126034F
:108D00009C42297CDAD313488AF02EFB124B1F6851
:108D1000002FC6D02846FFF7B9FD0446287C65F031
:108D2000FDFF00F126039C424FF00004DAD30DF161
:108D3000060231462846ADF8064068F00BFC0028D4
:108D4000AFD0BDF80620297C384684F063F8A8E748
:108D5000C07700201881002024A0002070B52DEDE0
:108D6000028B8B8BD02B86B00D4600F03D811ED838
:108D7000202B00F0A2800AD8113B9AB2052A0ED807
:108D8000052B0CD8DFE803F08D0B0B93966BB22B01
:108D900000F0EC80BD2B7FD0732B00F0A78029461C
:108DA00006B0BDEC028BBDE870406CF0F9B84AF239
:108DB0001142934200F072812DD8B3F5967F00F0F6
:108DC000FD8040F6D812934200F05881D12BE6D1B5
:108DD000D1ED017AFCEEE77ACDED037AD1ED007AA0
:108DE000FCEEE77ACDED047AD1ED047A9DF81020FF
:108DF000FCEEE77ACDED057A9DF814300093D1EDC5
:108E0000030A91ED020A9DF80C300146BD4812F0AC
:108E100021FD0446A5E04AF21342934200F08E8100
:108E20004AF26862934200F004814AF2124293428D
:108E3000B5D1B44B43F669521E469C5C14F0010454
:108E400028D143F670529B5893F86D30002B40F0B8
:108E5000398101221146AC48FDF794F981E0D1ED4A
:108E6000027A9FEDAA7A91ED060AA64AF0EEE77A19
:108E7000F4EEC77A43F65053DFEDA57AD058F1EE01
:108E800010FA20EE270A4CBF0121002114F0BAF994
:108E9000002865D0002464E002219E4807F0F2F823
:108EA000F6E702220521974805F052FFF0E702227B
:108EB0000621F8E702220921F5E7D1ED007AF5EE67
:108EC000C07AF1EE10FA4BDD9FED937AF4EEC77A9B
:108ED000F1EE10FA44D8FCEEE77A8A49CDED037A38
:108EE00043F292629DF80C308B52D3E7D1ED007AB9
:108EF000F5EEC07AF1EE10FA32DB9FED887AF4EEEF
:108F0000C77AF1EE10FA2BD891ED030ADFED7F7AE4
:108F1000B0EEC07AB4EEE77AF1EE10FAB0EE678AFE
:108F200018D5D5ED037AD5ED010A95ED000A7C48F8
:108F3000F4EEC87AD5ED027AFDEEE77AF1EE10FA9A
:108F4000CDED037A9DF90C10ACBF0122002202F096
:108F5000EBFA9FE7F7EE000A33F0DCFF0028E0D1E0
:108F60000424204606B0BDEC028B70BD91ED010AD1
:108F7000B5EEC00AF1EE10FAF2DD9FED657AD1EDA3
:108F8000007A604A20EE070A9FED667A44F6F013F5
:108F9000F4EEC77AF1EE10FAD05802DD9DF00EFA29
:108FA00078E79FED617AF4EEC77AF1EE10FA02DD10
:108FB0009DF0F4F96EE79DF00FFA6BE7514C022239
:108FC0000321204605F0C4FE0028C9D00121204617
:108FD000FDF716FA45F25C73E35C012B3FF45AAFE0
:108FE00052483BF093FF55E7D1ED007AFCEEE77A6B
:108FF00017EE903A9CB2012C0DD0022C15D0002C0B
:10900000AED121464A4876F09DFF61F089FB3121BF
:1090100061F0DCFAA5E72146454876F093FF61F060
:109020007FFB322161F0D2FA34E7364803F01AFEB2
:1090300030E74048A6F09AFB002891D0D5ED017AA0
:10904000FCEEE77ACDED037A9DF80C40012C09D0B7
:10905000022C0DD0002C83D12A4A43F278630021E0
:10906000D1547EE795ED020A3248A6F0BFFB11E726
:1090700095ED030A2F48A6F0CDFB0BE7D1ED017A61
:109080002D48FCEEE77ACDED037A9DF80C30012BEC
:109090000CBF0021012186F011FBFBE6194843F6C5
:1090A0006953C35CDB073FF5F5AE0222052105F0ED
:1090B0004FFE00287FF4EEAE02221146114805F063
:1090C00047FEE7E643F648530222F356002B13DA35
:1090D0000C48052105F03CFE00283FF4DBAE95ED81
:1090E000000ADFED0B7A43F6505320EE270AF058C2
:1090F000012114F087F834E70921024805F028FE21
:109100002FE700BFB02B00203466002000000034A1
:109110000000C842D082002000007F430000B4431A
:10912000908D00209A9939403333F33F0C8300200F
:109130007C7700201C620020A0770020214B43F6A2
:1091400069521E469C5C14F001047FF4A3AE43F602
:1091500070529A5892F86D20002A3FF49BAE43F665
:1091600048529B56002B05DA012208211648FDF7CC
:10917000C3F8F6E6D1ED007A9FED147AF0EEE77AC7
:10918000F4EEC77AF1EE10FA0CD50E480222112146
:1091900005F0DEFD00288FD00D4840F6C41109F01F
:1091A000EBF8DEE643F65055705903681B689847A4
:1091B00004283FF46FAE705903681B689847142861
:1091C000E3D167E6B02B00203466002000000034B5
:1091D0000886002008B591ED007AF6EE007AB4EE2C
:1091E000E77AF1EE10FA06DD044801220521FDF7C9
:1091F00083F8002008BD0420FCE700BF346600208F
:109200002DE9F0432DED028B8A7A4B7A43EA022353
:10921000CA7A43EA02436D2BA5B005460C4600F01E
:10922000FD8000F2E980542B00F0F8810AD8452B2C
:1092300000F00D81522B00F06C81214628466CF025
:109240007DF861E1562BF8D1CE78352E28BF352632
:109250003522002114A831F1CDFC324604F10C0175
:1092600014A831F19FFC43F65053CA4AD058036802
:109270005B6A9847002800F04781BDF88040A3054D
:1092800000F142810CAE04F0070730461EF094FF57
:109290003FBBDDE915894946404634F0E1FE002830
:1092A00000F0DC819DF8841009AA28466AF072F962
:1092B000002800F0D381DDED177A9FEDB77A099B86
:1092C000009367EE877A10ADFDEEE77A4A4617EE17
:1092D000903A414628461EF08FFF95E80F0086E839
:1092E0000F00002514F0380906950795089513D14D
:1092F0009FEDA96A9DED197ADDED1A7ADDED186A08
:1093000027EE067A67EEC67A66EE866A8DED077AF4
:10931000CDED066ACDED087A14F4E07309950A954F
:109320000B9513D19FED9C6A9DED1C7ADDED1D7AA6
:10933000DDED1B6A27EE067A67EEC67A66EE866A70
:109340008DED0A7ACDED096ACDED0B7A14F48068C3
:1093500005BFDFED927A9DED1E0A9FED970A20EE84
:10936000270A04BFDFED8C7A20EE270A14F400648C
:1093700005BFDFED8A7ADDED1F0ADFED8F0A60EEB3
:10938000A70A04BFDFED847A60EEA70A002F40F041
:109390005282B9F1000F40F06C823046CDED050AE3
:1093A0008DED040A1EF038FF03289DED040ADDED63
:1093B000050A00F0538110A93046CDED050A8DED68
:1093C000040A1095119512951FF0B0F8002800F0CE
:1093D0004581B4FA84F46409B8FA88F3DDED050A2E
:1093E0009DED040ACDF8049000945B0906AA10A92B
:1093F0006B480BF08BFC87E0F32B00F0498217D809
:10940000872B08D8852B7FF618AF0A46017C654864
:109410005DF082FE78E0A62B7FF40FAF08215D4857
:1094200013F024FB21460246284667F043F96BE01F
:10943000F62B06D05C4A1A4422F07F42022A3FF6FD
:10944000FCAE297C594822468AF088FA5CE0514FEC
:10945000CA7942F62043FB5E9A4255D1CA780B2A5C
:1094600028BF0B2200260C3114A8CDE91466CDF8D4
:10947000576031F197FB42F61E439DF85A20FB5E80
:109480009A4241D1BDF95480B0453DDBB2F082FF34
:10949000CDE9000643F60C1104469FED450ABDF9DF
:1094A000522079584FF47A7328466AF03FF9012325
:1094B000CDE9004343F610119FED3D0ABDF9502060
:1094C00079584FF47A7328466AF030F9CDE90046AE
:1094D00043F614119FED370A795833464246284621
:1094E0006AF024F9CDE9004643F618119FED300AE1
:1094F000BDF9562079584FF47A7328466AF016F968
:109500006AF0D8F9C0F8A84125B0BDEC028BBDE8DF
:10951000F083CD781F4E272D28BF27252722002135
:1095200014A831F167FB2A4604F10C0114A831F1AB
:1095300039FB43F65053F05803685B6A984700289C
:10954000E2D09DF8764014F0C00FDDD114480AF047
:10955000D9FF9DED1C0A054680B340F22E40B7EEC0
:10956000001AFFEE000A33F0EBFD159B1093169BDB
:109570001193179B129384F00402189B1393DDED53
:109580001B0A07482B46C2F3800210A90AF0C4FF49
:10959000BAE700BFB02B00200000C842E02E6542B1
:1095A00064870020C0770020EFD8FF0018810020DA
:1095B0000000FA4400007A44000000005FED020A57
:1095C00040F23140B7EE001A33F0BAFDF6EE000A71
:1095D000B0EE408A33F09EFCE8B9B6EE000A44F6DD
:1095E000F013B4EEC08AF1EE10FAF35808DD38EE4D
:1095F000400A30EE008A93ED070A28EE000AB4E72D
:1096000030EE480AD3ED087A30EE000AF0EEE77A41
:1096100027EEC00AA9E71FED180AA6E7CD78352D79
:1096200028BF35253522002114A831F1E3FA2A4656
:1096300004F10C0114A831F1B5FA43F65053A94ACC
:10964000D05803685B6A984700283FF45DAF9DF8E7
:109650008450012D07D0EB1F022B04D90121A24811
:109660000AF0E8FE50E7BDF88040A2053FF54CAF98
:10967000002614F0070709960A960B9627D19FED4E
:109680009B6A9DED167ADDED177ADDED156A27EE02
:10969000067A67EEC67A66EE866AA5F10803012BA4
:1096A000CDED096A8DED0A7ACDED0B7A0CD88D4897
:1096B0000AAA09A9FCF764FF8D489EF0FBF8014651
:1096C00009A838F0BFFC02E0EB1F022BF4D914F01C
:1096D00038080C960D960E961CD19FED846A9DED70
:1096E000197ADDED1A7ADDED186A27EE067A67EE53
:1096F000C67A66EE866AA5F10803012BCDED0C6AE9
:109700008DED0D7ACDED0E7A04D876480DAA0CA910
:10971000FCF736FF10961196129614F4E0761CD1E1
:109720009FED726A9DED1C7ADDED1D7ADDED1B6A01
:1097300027EE067A67EEC67A66EE866AA5F108031A
:10974000012BCDED106A8DED117ACDED127A04D892
:10975000644811AA10A9FCF713FF14F4806232D1F7
:10976000DFED647A9DED1E0A20EE270ADFED5F7AB9
:10977000083D012D20EE270A8CBF0025012514F499
:10978000006305BFDFED5B7ADDED1F0ADFED5A0AEE
:1097900060EEA70A04BFDFED557A60EEA70AB7B9FD
:1097A000B8F1000F37D1B3FA83F3B2FA82F25B0952
:1097B000520901930092029510AB0CAA09A94A48DC
:1097C0000BF02AFAA0E69FED4C0A0025D7E7B8F186
:1097D000000F0FD1B3FA83F35B0901210093B2FAB2
:1097E00082F3CDE901515B0910AA0CA93E480AF0A9
:1097F000ABFF89E6002E7FF431AF0121B3FA83F38A
:10980000B2FA82F2CDE900515B09520910A936483B
:109810000AF030FF78E6002E3FF420AFB3FA83F36E
:10982000B2FA82F2CDE900575B09520909A92E4824
:109830000BF008F868E6B9F1000F0CD10123B4FA77
:1098400084F4CDE901936409B8FA88F300945B09C4
:1098500009AA06A9CAE7002B7FF400AF0122CDE9CF
:109860000032B4FA84F3B8FA88F25B09520909A904
:10987000CDE7002B3FF4F2AEB4FA84F3B8FA88F2E5
:1098800000975B095209314617480BF0C3F83BE6D5
:10989000CD783D2D28BF3D253D22002114A831F172
:1098A000A9F92A4604F10C0114A831F17BF9DDE98C
:1098B0001465169C46EA0503234304D10121094897
:1098C00002F054FC20E610A81EF076FC012210A93C
:1098D00004480A23CDE9126594FBF3F4119402F0D5
:1098E000CBFB11E6B02B0020648700200000C842AB
:1098F00078750020E02E65420000000010B590F859
:109900005513044621F060FEC3B27C2000FB0340E7
:1099100090F8510010BD0000F0B544F6E81604467A
:1099200080599FED3F0A8BB03C3038F06BFB0AAAA0
:10993000CDED080A8DED091A8DED070A12E9070031
:1099400001AD85E8070004AB9DED030A83E807003D
:1099500033F08CFB04F5FB50294610308DED030AE3
:1099600044F6EC1714F078F804F56A5043F6705199
:1099700000686158E359A25914F05AF94FF4805124
:10998000204613F073F8002841D0A05903689B6863
:10999000984704F564551C3500F19802A621284625
:1099A0005FF0B4FAA0590368DB689847A72100F17B
:1099B000980228465FF0AAFAA05903681B699847E5
:1099C000A82100F1980228465FF0A0FAE259A921E7
:1099D000284602F5F0725FF099FA2021204613F034
:1099E00045F8A0B143F65053E05803681B69984707
:1099F00078B144F6EC16AB21A25928469C325FF0B0
:109A000085FAA259AC21C43228465FF07FFA0BB028
:109A1000F0BD20460CF050F80028EAD1F7E700BF6F
:109A20009F0CB34510B5044604F5FB5416F06EFACE
:109A3000103416F02FFA204613F084FF2046BDE8BC
:109A4000104014F099B8000030B589B004461B22CC
:109A5000002101A831F1CEF849F2A353ADF804304A
:109A600006238DF80630B2F09DFC43F67055CDF814
:109A700007006059CDF80B10D0F8DC30CDF80F306E
:109A8000CC3062F0E1FD0368CDF8133004F57D536E
:109A9000303304F564501B68CDF8173063591B222E
:109AA000D3F8E030CDF81B3001A91C3060F078F815
:109AB00009B030BD7FB50E464FF6FF71044615461E
:109AC00012F0D4FFD8B110220021684631F192F88B
:109AD00049F2A353ADF8003003238DF80230B2F001
