:020000040800F2
:10400000000600202D53000865C10B0869C10B088C
:10401000D5C10B0869C10B08A1C10B082F530008BB
:104020002F5300082F5300082F530008591413086A
:104030002F5300082F5300082F5300082F53000858
:104040002F5300082F5300082F5300082F53000848
:104050002F5300082F5300084D7513087975130866
:10406000A5751308D1751308FD7513087D1C130879
:10407000A51C1308D11C1308FD1C1308291D1308C7
:10408000511D13087D1D1308311B1308F5900B08F3
:1040900005910B0819910B082F5300082976130876
:1040A0002F5300082F5300082F5300082F530008E8
:1040B0002F5300082F5300082F530008A52513087D
:1040C000B9251308DD251308F12513082F5300081F
:1040D0002F5300082F530008CD371308E13713087A
:1040E000917613082F5300082F5300082F53000810
:1040F0002F5300082F5300082F530008A91D130841
:104100002F530008E92913083D7D13082F53000899
:10411000F53713082F5300082F5300082F530008BA
:10412000D51D1308FD1D1308291E1308551E13085D
:10413000811E13082F5300082F5300082D910B08E0
:104140003D910B0851910B082F5300080171130882
:10415000A91E1308D51E1308011F130809381308D8
:104160002F5300082F5300082F5300082F53000827
:104170002F5300082F5300082F5300082F53000817
:104180002F5300082F5300081D3813083138130827
:104190002F5300082F5300082F5300082F530008F7
:1041A0002F5300082F5300082F5300082F530008E7
:1041B0002F5300082F5300082F5300082F530008D7
:1041C0002F5300082F5300082F5300082F530008C7
:1041D0002F5300082F5300082F5300082F530008B7
:1041E000517C0008F9B80008215B01085528020835
:1041F000713D0208714902086D7D0208CD870208F1
:1042000079D80208C1FD0208616403082D4E040834
:10421000C520060849240608054906082D4C06084D
:10422000015A06084982060819E10608ADE80608A1
:10423000FDEB0608215C0708797B07088DBC0808A0
:10424000390D09083919090869F40A0865910B083C
:10425000A9930B08F1970B08B9BB0B084D640D0827
:10426000397F0D083D850D08DD930D0879A90D08EE
:10427000A9A90D086DD00D0861120E0841440E0861
:1042800059610E081D690E0895A10E0839430F08E3
:1042900025C21008F1CA1008D50A11082D481108C6
:1042A00069F1110899FB1108C92A1208593012083E
:1042B000F56B120800000000000000000000000084
:1042C00081F0004102E000BF83F0004330B54FEAC7
:1042D00041044FEA430594EA050F08BF90EA020F34
:1042E0001FBF54EA000C55EA020C7FEA645C7FEAC7
:1042F000655C00F0E2804FEA5454D4EB5555B8BFEA
:104300006D420CDD2C4480EA020281EA030382EA5A
:10431000000083EA010180EA020281EA0303362DEC
:1043200088BF30BD11F0004F4FEA01314FF4801CBF
:104330004CEA113102D0404261EB410113F0004FD1
:104340004FEA03334CEA133302D0524263EB430388
:1043500094EA050F00F0A780A4F10104D5F1200E26
:104360000DDB02FA0EFC22FA05F2801841F1000181
:1043700003FA0EF2801843FA05F359410EE0A5F155
:1043800020050EF1200E012A03FA0EFC28BF4CF086
:10439000020C43FA05F3C01851EBE37101F000453C
:1043A00007D54FF0000EDCF1000C7EEB00006EEB49
:1043B0000101B1F5801F1BD3B1F5001F0CD34908D3
:1043C0005FEA30004FEA3C0C04F101044FEA44522A
:1043D00012F5800F80F09A80BCF1004F08BF5FEAB1
:1043E000500C50F1000041EB045141EA050130BD91
:1043F0005FEA4C0C404141EB0101013C28BFB1F5A3
:10440000801FE9D291F0000F04BF01460020B1FAED
:1044100081F308BF2033A3F10B03B3F120020CDAC0
:104420000C3208DD02F1140CC2F10C0201FA0CF09E
:1044300021FA02F10CE002F11402D8BFC2F1200C03
:1044400001FA02F120FA0CFCDCBF41EA0C019040B9
:10445000E41AA2BF01EB0451294330BD6FEA040402
:104460001F3C1CDA0C340EDC04F11404C4F12002ED
:1044700020FA04F001FA02F340EA030021FA04F3FF
:1044800045EA030130BDC4F10C04C4F1200220FA56
:1044900002F001FA04F340EA0300294630BD21FA94
:1044A00004F0294630BD94F0000F83F4801306BF5A
:1044B00081F480110134013D4EE77FEA645C18BF4E
:1044C0007FEA655C29D094EA050F08BF90EA020FE5
:1044D00005D054EA000C04BF1946104630BD91EADD
:1044E000030F1EBF0021002030BD5FEA545C05D1E0
:1044F0004000494128BF41F0004130BD14F580041F
:104500003CBF01F5801130BD01F0004545F0FE4192
:1045100041F470014FF0000030BD7FEA645C1ABFC7
:10452000194610467FEA655C1CBF0B46024650EAFE
:10453000013406BF52EA033591EA030F41F400212A
:1045400030BD00BF90F0000F04BF0021704730B5B0
:104550004FF4806404F132044FF000054FF0000185
:1045600050E700BF90F0000F04BF0021704730B546
:104570004FF4806404F1320410F0004548BF40421B
:104580004FF000013EE700BF42004FEAE2014FEA70
:1045900031014FEA02701FBF12F07F4393F07F4F4B
:1045A00081F06051704732F07F4208BF704793F04E
:1045B0007F4F04BF41F40021704730B54FF4607461
:1045C00001F0004521F000411CE700BF50EA010264
:1045D00008BF704730B54FF000050AE050EA01020D
:1045E00008BF704730B511F0004502D5404261EB7D
:1045F00041014FF4806404F132045FEA915C3FF4BE
:10460000D8AE4FF003025FEADC0C18BF03325FEA5A
:10461000DC0C18BF033202EBDC02C2F1200300FA0B
:1046200003FC20FA02F001FA03FE40EA0E0021FA30
:1046300002F11444BDE600BF70B54FF0FF0C4CF41E
:10464000E06C1CEA11541DBF1CEA135594EA0C0FD0
:1046500095EA0C0F00F0DEF82C4481EA030621EA0B
:104660004C5123EA4C5350EA013518BF52EA033546
:1046700041F4801143F4801338D0A0FB02CE4FF0F8
:104680000005E1FB02E506F00042E0FB03E54FF028
:104690000006E1FB03569CF0000F18BF4EF0010E20
:1046A000A4F1FF04B6F5007F64F5407404D25FEA1C
:1046B0004E0E6D4146EB060642EAC62141EA5551CF
:1046C0004FEAC52040EA5E504FEACE2EB4F1FD0C11
:1046D00088BFBCF5E06F1ED8BEF1004F08BF5FEA8F
:1046E000500E50F1000041EB045170BD06F0004641
:1046F00046EA010140EA020081EA0301B4EB5C04EE
:10470000C2BFD4EB0C0541EA045170BD41F48011E5
:104710004FF0000E013C00F3AB8014F1360FDEBF0A
:10472000002001F0004170BDC4F10004203C35DAE6
:104730000C341BDC04F11404C4F1200500FA05F369
:1047400020FA04F001FA05F240EA020001F000420A
:1047500021F0004110EBD37021FA04F642EB060180
:104760005EEA430E08BF20EAD37070BDC4F10C04AA
:10477000C4F1200500FA04F320FA05F001FA04F26E
:1047800040EA020001F0004110EBD37041F100015A
:104790005EEA430E08BF20EAD37070BDC4F1200565
:1047A00000FA05F24EEA020E20FA04F301FA05F2CD
:1047B00043EA020321FA04F001F0004121FA04F275
:1047C00020EA020000EBD3705EEA430E08BF20EA45
:1047D000D37070BD94F0000F0FD101F0004640007F
:1047E00041EB010111F4801F08BF013CF7D041EA01
:1047F000060195F0000F18BF704703F00046520005
:1048000043EB030313F4801F08BF013DF7D043EAD5
:104810000603704794EA0C0F0CEA135518BF95EA8B
:104820000C0F0CD050EA410618BF52EA4306D1D112
:1048300081EA030101F000414FF0000070BD50EA31
:10484000410606BF1046194652EA430619D094EABB
:104850000C0F02D150EA013613D195EA0C0F05D1A5
:1048600052EA03361CBF104619460AD181EA0301F9
:1048700001F0004141F0FE4141F470014FF00000B1
:1048800070BD41F0FE4141F4780170BD70B54FF04C
:10489000FF0C4CF4E06C1CEA11541DBF1CEA1355CC
:1048A00094EA0C0F95EA0C0F00F0A7F8A4EB0504AE
:1048B00081EA030E52EA03354FEA013100F08880A5
:1048C0004FEA03334FF0805545EA131343EA12636E
:1048D0004FEA022245EA111545EA10654FEA002623
:1048E0000EF000419D4208BF964244F1FD0404F5DC
:1048F000407402D25B084FEA3202B61A65EB030538
:104900005B084FEA32024FF480104FF4002CB6EBF4
:10491000020E75EB030E22BFB61A754640EA0C0074
:104920005B084FEA3202B6EB020E75EB030E22BFB4
:10493000B61A754640EA5C005B084FEA3202B6EBF5
:10494000020E75EB030E22BFB61A754640EA9C00B4
:104950005B084FEA3202B6EB020E75EB030E22BF84
:10496000B61A754640EADC0055EA060E18D04FEA42
:10497000051545EA16754FEA06164FEAC30343EAE2
:1049800052734FEAC2025FEA1C1CC0D111F4801FAF
:104990000BD141EA00014FF000004FF0004CB6E7A8
:1049A00011F4801F04BF01430020B4F1FD0C88BF47
:1049B000BCF5E06F3FF6AFAEB5EB030C04BFB6EB52
:1049C000020C5FEA500C50F1000041EB045170BD45
:1049D0000EF0004E4EEA113114EB5C04C2BFD4EB72
:1049E0000C0541EA045170BD41F480114FF0000EF6
:1049F000013C90E645EA060E8DE60CEA135594EA72
:104A00000C0F08BF95EA0C0F3FF43BAF94EA0C0F74
:104A10000AD150EA01347FF434AF95EA0C0F7FF4E9
:104A200025AF104619462CE795EA0C0F06D152EA3D
:104A300003353FF4FDAE1046194622E750EA410621
:104A400018BF52EA43067FF4C5AE50EA41047FF432
:104A50000DAF52EA43057FF4EBAE12E74FF0FF3C97
:104A600006E000BF4FF0010C02E000BF4FF0010C68
:104A70004DF804CD4FEA410C7FEA6C5C4FEA430CE1
:104A800018BF7FEA6C5C1BD001B050EA410C0CBF30
:104A900052EA430C91EA030F02BF90EA020F002092
:104AA000704710F1000F91EA030F58BF994208BFF9
:104AB00090422CBFD8176FEAE37040F001007047B6
:104AC0004FEA410C7FEA6C5C02D150EA013C07D10D
:104AD0004FEA430C7FEA6C5CD6D152EA033CD3D058
:104AE0005DF8040B704700BF8446104662468C4652
:104AF0001946634600E000BF01B5FFF7B7FF002885
:104B000048BF10F1000F01BD4DF808EDFFF7F4FFAD
:104B10000CBF012000205DF808FB00BF4DF808ED38
:104B2000FFF7EAFF34BF012000205DF808FB00BF5B
:104B30004DF808EDFFF7E0FF94BF012000205DF87D
:104B400008FB00BF4DF808EDFFF7CEFF94BF012032
:104B500000205DF808FB00BF4DF808EDFFF7C4FF2B
:104B600034BF012000205DF808FB00BF4FEA410C74
:104B70007FEA6C5C02D150EA013C0AD14FEA430C57
:104B80007FEA6C5C02D152EA033C02D14FF0000094
:104B900070474FF0010070474FEA410212F50012D2
:104BA00015D211D56FF47873B3EB625212D94FEA74
:104BB000C12343F0004343EA505311F0004F23FA5E
:104BC00002F018BF404270474FF00000704750EAB3
:104BD000013005D111F0004008BF6FF00040704770
:104BE0004FF00000704700BF4A0011D212F50012CA
:104BF00011D20DD56FF47873B3EB62520ED44FEA35
:104C0000C12343F0004343EA505323FA02F07047B4
:104C10004FF00000704750EA013002D14FF0FF30F2
:104C200070474FF0000070474FEA4102B2F1E04395
:104C300024BFB3F5001CDCF1FE5C0DD901F0004C83
:104C40004FEAC0024CEA5070B2F1004F40EB8300D3
:104C500008BF20F00100704711F0804F21D113F1FF
:104C60003872BCBF01F00040704741F480114FEA38
:104C70005252C2F11802C2F1200C10FA0CF320FAC1
:104C800002F018BF40F001004FEAC1234FEAD323DE
:104C900003FA0CFC40EA0C0023FA02F34FEA430348
:104CA000CCE77FEA625307D150EA01331EBF4FF0D1
:104CB000FE4040F44000704701F0004040F0FE40EC
:104CC00040F40000704700BF80F0004002E000BFE9
:104CD00081F0004142001FBF5FEA410392EA030FE7
:104CE0007FEA226C7FEA236C6AD04FEA1262D2EB31
:104CF0001363C1BFD218414048404140B8BF5B4236
:104D0000192B88BF704710F0004F40F4000020F0CE
:104D10007F4018BF404211F0004F41F4000121F0E4
:104D20007F4118BF494292EA030F3FD0A2F101022E
:104D300041FA03FC10EB0C00C3F1200301FA03F16C
:104D400000F0004302D5494260EB4000B0F5000F8F
:104D500013D3B0F1807F06D340084FEA310102F14E
:104D60000102FE2A51D2B1F1004F40EBC25008BF00
:104D700020F0010040EA03007047490040EB0000CA
:104D8000013A28BFB0F5000FEDD2B0FA80FCACF1CB
:104D9000080CB2EB0C0200FA0CF0AABF00EBC250F8
:104DA00052421843BCBFD0401843704792F0000FE6
:104DB00081F4000106BF80F400000132013BB5E739
:104DC0004FEA41037FEA226C18BF7FEA236C21D0AF
:104DD00092EA030F04D092F0000F08BF0846704714
:104DE00090EA010F1CBF0020704712F07F4F04D1E2
:104DF000400028BF40F00040704712F100723CBFF5
:104E000000F50000704700F0004343F0FE4040F41E
:104E1000000070477FEA226216BF08467FEA2363DC
:104E20000146420206BF5FEA412390EA010F40F4C7
:104E3000800070474FF0000304E000BF10F0004313
:104E400048BF40425FEA000C08BF704743F09643FA
:104E500001464FF000001CE050EA010208BF704715
:104E60004FF000030AE000BF50EA010208BF70479C
:104E700011F0004302D5404261EB41015FEA010CB1
:104E800002BF84460146002043F0B64308BFA3F1A9
:104E90008053A3F50003BCFA8CF2083AA3EBC2538B
:104EA00010DB01FA02FC634400FA02FCC2F12002AA
:104EB000BCF1004F20FA02F243EB020008BF20F0E1
:104EC0000100704702F1200201FA02FCC2F1200247
:104ED00050EA4C0021FA02F243EB020008BF20EA3C
:104EE000DC7070477BB972B90029BEBF00204FF05B
:104EF000004106E008BF00281CBF6FF000414FF0E2
:104F0000FF3000F011BAADF1080C6DE904CE0029B4
:104F100009DB002B1ADB00F0A5F8DDF804E0DDE981
:104F2000022304B07047404261EB4101002B1BDBC0
:104F300000F098F8DDF804E0DDE9022304B0404217
:104F400061EB4101524263EB43037047524263EB12
:104F5000430300F087F8DDF804E0DDE9022304B044
:104F6000404261EB41017047524263EB430300F062
:104F700079F8DDF804E0DDE9022304B0524263EB86
:104F80004303704753B94AB9002908BF00281CBF22
:104F90004FF0FF314FF0FF3000F0C6B9ADF1080C13
:104FA0006DE904CE00F05EF8DDF804E0DDE90223EF
:104FB00004B07047430803F05533C01A830803F068
:104FC000333300F03330184400EB101000F00F3092
:104FD00000EB002000EB0040000E704780EA10401C
:104FE00080EA102080EA101046F6961300F00F00B9
:104FF00043FA00F000F00100704700BF07EE900A8E
:10500000F5EEC07AF1EE10FA01D400F00BB8F1EE33
:10501000677A08B517EE900A00F004F8404261EB99
:10502000410108BDD0B5FFF7AFFA0C4B0022064690
:105030000F46FFF701FBFFF7D7FD0446FFF782FAA3
:10504000074B0022FFF7F8FA02460B463046394676
:10505000FFF73AF9FFF7C8FD2146D0BD0000F03D4B
:105060000000F0412DE9F047089D04468C46002BD6
:1050700040F083808A42174647D9B2FA82F242B1A1
:10508000C2F1200024FA00F09140974040EA010C60
:1050900094404FEA1748230CBCFBF8F61FFA87FE32
:1050A00008FB16C143EA014306FB0EF1994209D9F8
:1050B000FB1806F1FF3080F01981994240F2168109
:1050C000023E3B445B1AA4B2B3FBF8F008FB10337A
:1050D00044EA034400FB0EFEA64509D93C1900F141
:1050E000FF3380F00581A64540F2028102383C443E
:1050F00040EA0640A4EB0E0400261DB1D440002374
:10510000C5E900433146BDE8F08702B9FFDEB2FAD7
:1051100082F2002A50D1CB1B4FEA174E1FFA87F8B4
:105120000126B3FBFEFC210C0EFB1C3341EA0341BC
:1051300008FB0CF38B4207D979180CF1FF3002D22F
:105140008B4200F2E9808446C91AA3B2B1FBFEF09B
:105150000EFB101143EA014408FB00F8A04507D9F3
:105160003C1900F1FF3302D2A04500F2D980184665
:10517000A4EB080440EA0C40BFE78B4209D9002D9C
:1051800000F0B1800026C5E9000130463146BDE897
:10519000F087B3FA83F6002E4AD18B4202D38242C3
:1051A00000F2B880841A61EB030101208C46002DC7
:1051B000A8D0C5E9004CA5E7C2F1200320FA03F608
:1051C000974001FA02F04FEA174ED9403043030CE2
:1051D000B1FBFEF61FFA87F80EFB161143EA0143F6
:1051E00006FB08F1994204FA02F409D9FB1806F10A
:1051F000FF3C80F08D80994240F28A80023E3B4421
:105200005B1A81B2B3FBFEF00EFB103341EA03419F
:1052100000FB08F38B4207D9791800F1FF3C73D2E9
:105220008B4271D902383944CB1A40EA064678E7F6
:10523000C6F1200C03FA06F422FA0CF31C4320FA00
:105240000CF701FA06F34FEA144E21FA0CF11F4352
:105250003B0CB1FBFEF91FFA84F80EFB191143EA6F
:10526000014109FB08FA8A4502FA06F200FA06F340
:1052700008D9611809F1FF3048D28A4546D9A9F109
:1052800002092144A1EB0A01BFB2B1FBFEF00EFB03
:10529000101147EA014700FB08F8B84507D9E7199C
:1052A00000F1FF312ED2B8452CD90238274440EA0C
:1052B0000940A7EB0807A0FB02894F45C6464946AF
:1052C0001AD317D05DB1B3EB0E0267EB010707FAF3
:1052D0000CFCF2404CEA0202F740C5E90027002628
:1052E0003146BDE8F0872E4628460BE70646E9E63C
:1052F0001846FDE64345E5D2B8EB020E69EB040122
:105300000138DFE70846D2E760468DE78146B9E716
:10531000664675E730464AE7ACF1020C394413E7BC
:1053200002383C4424E700BF704700BF02E000F0B1
:1053300000F8FEE772B63A4880F30888394880F3EF
:10534000098839484EF60851CEF20001086040F253
:105350000000CCF200004EF63471CEF2000108607D
:10536000BFF34F8FBFF36F8F40F20000C0F2F00029
:105370004EF68851CEF200010860BFF34F8FBFF3A5
:105380006F8F4FF00000E1EE100A4EF63C71CEF246
:1053900000010860062080F31488BFF36F8F31F19D
:1053A0008DFB31F16DFB30F1F3FC4FF055301F49AF
:1053B0001B4A91423CBF41F8040BFAE71C49194AC9
:1053C00091423CBF41F8040BFAE71A491A4A1B4BB9
:1053D0009A423EBF51F8040B42F8040BF8E7002054
:1053E0001749184A91423CBF41F8040BFAE731F1E2
:1053F0004BFB30F129FD144C144DAC4203DA54F848
:10540000041B8847F9E702F087FB114C114DAC42B1
:1054100003DA54F8041B8847F9E731F133BB000085
:1054200000060020002200200040000800000020AC
:1054300000060020606D170800220020342B002099
:10544000382B0020346A0120E0410008B4420008F3
:10545000B4420008B44200082DE9F04F2DED108A47
:10546000C1F80CD0C3689D46BDEC108ABDE8F08F32
:10547000002383F311882846A047002030F17CFAEE
:10548000FEE730F125F900DFFEE7000001F0FF0143
:10549000102A2BDB10F0070F08D010F8013B013A5F
:1054A0008B422DD010F0070F42B3F6D1F0B441EA91
:1054B000012141EA014122F007047FF000070023A7
:1054C000F0E80256083C85EA010586EA010685FAFD
:1054D00047F5A3FA87F586FA47F6A5FA87F68EB957
:1054E000EED1F0BC01F0FF0102F0070232B110F87A
:1054F000013B013A83EA010313B1F8D10020704760
:1055000001387047002D06BF35460338073815F0BF
:10551000010F07D1013015F4807F02BF013015F46F
:10552000C03F0130F0BC0138704700BFEC46A0E836
:10553000F05F4FF000007047B0E8F05FE54608000C
:1055400008BF0120704700BF10F8012B11F8013B84
:10555000012A28BF9A42F7D0D01A7047034613F8A1
:10556000012B002AFBD1181A0138704738B50022E8
:10557000002304460D46FFF7D1FA28B920462946F4
:10558000BDE8384000F00AB8204605F1004100F0BF
:1055900005F8404261EB410138BD00BFD0B50C4B6E
:1055A000002206460F46FFF747F8FFF71DFB0446AB
:1055B000FEF7C8FF074B0022FFF73EF802460B46F6
:1055C00030463946FEF780FEFFF70EFB2146D0BD80
:1055D0000000F03D0000F041074A13780133DBB2D0
:1055E0001D2B98BF137003684FF0000188BF117026
:1055F0009B6888BF0121184700220020F0B583680E
:10560000012B91B004460E4602D0980640F1C780A7
:10561000644D42F65643EB56B3B143F6141242F6CC
:105620005843AA58EB5EB2F90A1003F10A029142FC
:1056300003DD40F28D32934206DC5B4B3246202183
:105640002046A8F0A1FB60E042F64543EB56022B52
:1056500005D1564B324620212046A8F095FB42F654
:10566000184341F65832EB5AA3F57A739BB2934232
:105670000ED844F6E813EA584D4BD2ED097A93ED73
:10568000007AB4EEE77AF1EE10FA03DD494BD5E784
:10569000494BD3E793ED017AD2ED0A7AB4EEE77A7B
:1056A000F1EE10FAF2DC42F65242AA5E002A01DC68
:1056B000424BC3E793F8C0210D2A04D84FF421537D
:1056C000D340D90707D443F67053E858A3F0D8FA6B
:1056D00018B93B4BB2E73B4BB0E73B4811F0AEFD8E
:1056E00001283CD144F6F013E858A0F037FC01281B
:1056F0000DD0022822D0002831D1344B0093344BF6
:10570000324620212046A8F03FFB002045E043F62A
:10571000CC13EB5CDA070FD52E4819215FF000FCA3
:1057200050B142F630432B48EF5819215FF008FC86
:10573000874214DD284BE1E7284BDFE744F61043AE
:10574000EB560BB9264BD9E7264803AA0DF10A01FF
:1057500061F004FABDF80A300BB1234BCEE743F6F3
:105760006953EB5CDB0601D5204B67E744F6EC1090
:1057700003AF1F49285832233A469EF0A7FA10B9C2
:105780001C4B0097BCE744F6E8101B49285832230D
:105790003A469CF00FFB0028F2D011B0F0BD01207A
:1057A000FBE700BF402B0020ECEA1308FFEA1308D8
:1057B000C057002037EB130827EB130851EB1308F1
:1057C00086EB130866EB130854880020C1EB13081E
:1057D0009CEB1308D03F0020E0EB1308D1EB13083B
:1057E000F6EB13085077002007EC130820EC1308A1
:1057F00035EC130839EC13084BEC13082DE9F7438B
:1058000043F67053324FFB5893F86F4005460E46EF
:1058100034B9304AA8F09EFC204603B0BDE8F083BE
:105820002021A8F0A1FA0028F6D022F093FA22F065
:1058300091FA90F8408022F08DFA90F84130032BD5
:1058400013D0B8F1030FE7D1002043F6705957F891
:105850000930B3F9A220B2F57A7F08D01E4A31464A
:105860002846A8F077FC0024D6E70120EDE7B3F93D
:10587000A430B3F5FA6F01D0184AF0E78AF092FA33
:10588000804657F809000368DB6A98470022B8F899
:10589000E0C0114613464FF0010E0EFA02F73842EF
:1058A00002F101025FFA82F807D01CEA070F04D167
:1058B0000133DBB2002908BF4146102AEDD1002B8D
:1058C000AAD00091064A31462846A8F043FCCAE710
:1058D000402B002050EC13086EEC130891EC1308D9
:1058E000B4EC130813B58368012B0A4601D05B069C
:1058F00017D50D4B42F65641595691B143F6141146
:105900005C5842F65841595EB4F90630994208DDB8
:10591000064B00934021064BA8F036FA002002B057
:1059200010BD0120FBE700BF402B0020D4EC130882
:10593000BFDC150870B58EB005460E460A48322207
:1059400001A987F009FB044640B99DF9043043B929
:10595000064B074A31462846A8F0FCFB20460EB00D
:1059600070BD01ABF5E700BFB0620020ECEC13089E
:10597000BFDC15082DE9F04343F65053DFF8509192
:10598000044659F80300036899B01B690D4698470F
:1059900080461AF0FFF9002107462E220CA80B9131
:1059A00035F196F832230BAA4146384618F0E2FC4E
:1059B000064648B93E4A0BAB29462046A8F0CAFB2A
:1059C000304619B0BDE8F0833A4886F01FFCB8F1C4
:1059D000000F0AD0484617F019FB78B9364A294615
:1059E0002046A8F0B7FB0026EAE710F0060FE7D044
:1059F000484617F00BFB08B9304AF0E703A93846D0
:105A000018F04CFA28B19DF80D305B0601D52C4AF0
:105A1000E5E7DFF8CC80D8ED007AF5EEC07AF1EE5C
:105A200010FA4FF000032CDD089309930A930DF14F
:105A3000200907AB019305AA06AB04A9CDF8009095
:105A4000384619F055FF48463CF0ECFED8ED007A98
:105A5000B4EEE70AF1EE10FA01DB1A4ABFE79DED5A
:105A6000057AF4EEC77AF1EE10FA01D8164AB6E7D5
:105A70009DED047AF4EEC77AF1EE10FA01D8134ADC
:105A8000ADE707F26C41124806F0B0FB074608B1DB
:105A9000104AA4E710490E4806F0A8FB00288FD052
:105AA0000E4A29462046A8F055FB3E4688E700BF2F
:105AB00004ED1308F07500200DED130824ED130814
:105AC0004AED130858ED13086DED130883ED130824
:105AD000402B002099ED1308F8740020B6ED130850
:105AE000B457002008B5064A43F66953D35C9B07B8
:105AF00004D5044AA8F02EFB002008BD0120FCE7D5
:105B0000402B0020D8ED130870B5836813F0210FE7
:105B10008EB005460E4603D1012420460EB070BD5E
:105B2000A9F03CFE04460028F6D000212E2202A84F
:105B3000019134F1CDFF2046322201A9A9F0F6FDF2
:105B400004460028E8D1034A01AB31462846A8F0B4
:105B500001FBE2E7BFDC150870B543F650530B4C70
:105B60000546E05803685B690E46984710B101246A
:105B7000204670BD204617F05BFA04460028F6D197
:105B8000034A31462846A8F0E5FAF1E7402B002009
:105B9000E8ED130870B505460E46FFF7EBFE064B21
:105BA0000446D87131462846FFF7D6FF002814BFB7
:105BB0002046002070BD00BF519200202DE9704AA0
:105BC0002F4E0D4643F670518346715891F86D4043
:105BD00084B971F03FFA202171F052F868B171F088
:105BE00039FA1F2171F04CF838B1264A2946584637
:105BF000A8F0B0FA2046BDE8708A43F64A52B25C7B
:105C000002F01402142A04D11F4A29465846A8F06B
:105C1000A1FADBF808203AB9DBF8002029465846FB
:105C2000D26ABDE8704A104729465846FFF7E6FC9D
:105C3000294681465846FFF7E1FD09EA0000C4B253
:105C400029465846FFF74EFE294604405846FFF7BE
:105C500071FE294604405846FFF744FF2946044098
:105C60005846FFF751FF294604405846FFF774FF96
:105C7000294604405846A9F089FA0440BAE700BF13
:105C8000402B0020FCED130816EE130810B5FFF7AB
:105C900095FF054943F648528C5C60F304148C541C
:105CA000024A907110BD00BF402B0020519200208D
:105CB00007B50448A1F0A0FD00F0010003B05DF8B5
:105CC00004FB00BF08750020F7B505460E46A8F096
:105CD000CDF8044660B3AB68012B01D0990727D5F6
:105CE0001548A1F089FDC205C0F30723C0F30027C2
:105CF0001ED49B071CD51048A1F02EFD0F4A44F678
:105D00008C13D318D3ED007AF8EEE77A30EE670AF9
:105D1000DFED0B7AB0EEC00AB4EEE70AF1EE10FA4E
:105D200006DD084B324602212846A8F02DF83C46F5
:105D3000204603B0F0BD00BF08750020402B0020B6
:105D40000000C84230EE1308F8B504460F46A8F02C
:105D5000DFFBA368012B054601D0DB060BD52046EF
:105D6000FFF7A6FF064630B9044B3A4610212046FD
:105D7000A8F00AF835462846F8BD00BF44EE1308DF
:105D800013B504460191A8F08BF880B1A368019A7D
:105D9000012B01D01B060AD5064944F27D23CB5CBA
:105DA0002BB12046044B8021A7F0EEFF002002B06B
:105DB00010BD00BF402B002058EE1308F0B543F68D
:105DC0000C13124C85B0E358009343F610136A4647
:105DD000E358019343F614130646E358029343F63F
:105DE00018130F46E3580393A9F022F939460546E4
:105DF0003046A7F0F1FF43F648522840A35C60F319
:105E0000C303C3F3C000A35405B0F0BD402B002072
:105E10002DE9F84306462248224D234F884686F056
:105E2000F5F943F650538146E85803681B699847D3
:105E3000044638B919F0060F04D105F576531B68EE
:105E4000022B09D141463046A8F0ACF8044618B9F7
:105E50000023FB71184608E041463046FFF78AFDF3
:105E60000028F5D01CB90122FA71BDE8F883B268A8
:105E7000012A01D01307F6D595F868259C2101FB6E
:105E80000252B2F8B21342F64642AA5E9142EADDED
:105E9000064B424608213046A7F076FFD8E700BF00
:105EA000F0750020402B0020519200206CEE13086A
:105EB00070B588B005460E46A8F06CF90446002877
:105EC00035D0AB68012B01D09A0630D51C4B44F677
:105ED00084329A5C5AB344F664329B5C9B0726D5A5
:105EE000184807AA06A980F0AFFE00B3DDED077AD7
:105EF0009FED157AF4EEC77AF1EE10FA17D80EA3DB
:105F0000D3E9002317EE900ACDE90423FEF73CFB0A
:105F1000DDED067A0D4BFDEEE77ACDE90201CDED20
:105F2000007A324620212846A7F02EFF0024204682
:105F300008B070BDAFF30080000000403333E33F92
:105F4000402B0020445900209A99193F7CEE1308F9
:105F50002DE9F7430F46054619F01CFF804618F05F
:105F6000C3F9044640B9774A01212846A8F0F2F85F
:105F7000204603B0BDE8F083404619F0D9FE78B959
:105F800025F098FF90F85513044625F06BFAC3B23C
:105F90007C2000FB034090F851400CB96A4AE3E7CB
:105FA000DFF8C89143F65053394659F803000368A7
:105FB0009B6998474E46044608B9644AD4E70121D4
:105FC0002846FFF71BFC04460028D1D043F64A536D
:105FD00019F8033003F01403142B05D15C4A012196
:105FE0002846A8F0B7F830E071F034F81F2170F0BF
:105FF00047FE584B58BB1870AB68002BB8D0012B2C
:1060000001D0D80628D5D8EDF77A98EDF60A20EE1B
:10601000270A32F127FADFED507A42F6184320EED4
:10602000270AF35EDFED4D7A20EE270A07EE903A5D
:10603000F8EEE77AB4EEE70AF1EE10FA0CDD484B21
:10604000012210212846A7F09FFE002490E71B782C
:10605000002BD1D0434AC2E7AB68012B01D099068F
:106060000AD543F66952B25CD20603D53E4B0122F3
:106070002021E7E7012B01D05B063BD542F65643D2
:10608000F3564BB143F6141342F65842F358B25E3E
:10609000B3F906309A4216DC012F1DD043F61413D3
:1060A0003248F358B3F9083000EE103AB8EEC00A9F
:1060B00000F092FAB5EEC00AF1EE10FA25DD2C4B95
:1060C00000932C4B02E02A4B00932B4B01224021E2
:1060D0002846A7F059FEB8E743F6505430590368F4
:1060E0001B689847042805D0305903681B689847F7
:1060F0001428D3D1214B1B68186D0368DB699847BE
:106100000128014617D11E4A6AE743F65054305918
:1061100003685B69984738B143F61413F358B3F931
:106120000830002BE6DDCAE7305903681B68984742
:106130000B28DFD1F0E73946284603B0BDE8F0432D
:10614000A8F028BCA8EE1308B9EE1308CDEE13088A
:1061500016EE1308389C0020E02E65420000C8426D
:10616000F6EE1308DEEE130820EC1308402B002097
:1061700010EF130819EF1308FEEE1308F88C002037
:1061800025EF13082DE9F041524E33783746002BA6
:1061900040F09E80504C43F670554FF00108655911
:1061A00086F8008095F86D501DB133702846BDE823
:1061B000F081A9F097F8054630B9484A3070137855
:1061C00043F001031370F1E764F0F8F9414663F01E
:1061D0001DFC204607F028FF414B0B2683F8048066
:1061E0005AF044F8013E59F07BFF16F0FF06F7D154
:1061F000394801F03DF819F0CDFD43F69852D0F83A
:106200006C13A15090F87C34DA0750D419F02EF9B1
:1062100064F0D4F93C2164F027F9324B00221A6073
:1062200000212D4801F0B2F82B4816F0EFFE014690
:106230002D48A6F08BFA2D4B1B680121186D32F00A
:1062400003FD44F6C0332448E25C6FF34102E2549C
:1062500015F0BCFD43F670530121E058A3F0A2FCF9
:1062600064F0ACF943F650530646E05803681B68E7
:10627000984742F604430146E25C304663F08CFDE9
:10628000154807F0C3FE60F02BF85FF0AFFC002369
:106290003B70B5F0EDFF44F6FC1343F64A52E05074
:1062A000A35A23F4087343F02003A3527EE79B070D
:1062B000B6D43146084806F03FF80D48A1F04CFA34
:1062C000DFED0C7A074B20EE270A83ED000AA7E7E3
:1062D00000256BE7382B0020402B00207092002017
:1062E000519200209C680020F8600020F88C00206B
:1062F000087500200AD7233C2DE9F04343F670537C
:10630000374DEB5893F86D3087B0002B65D05AB1FC
:10631000012909D143F64853EB56002B04DB002436
:10632000204607B0BDE8F083A9F062F804460028D3
:10633000F5D019F02FFD074625F0BCFD8046384604
:1063400017F0DCFED8B198F92430022B17D10026C3
:106350004FF00009F1B203AA38460191CDF80C9034
:10636000CDF81090CDF8149018F060FE019918B196
:1063700003AA404625F0D6F90136032EEAD143F6AA
:106380005052184BA858984223D10BF075FF14486F
:10639000012108F041F81248012107F083FF43F67C
:1063A00070530021E858A3F0FDFB0F483EF0EEFAD1
:1063B00064F004F9002163F029FB0C4B1B680021F9
:1063C000186D32F041FC0A4B9A786FF345129A70BF
:1063D000A6E718460BF054FFD9E70124A0E700BF59
:1063E000402B0020108400209C820020F88C00208C
:1063F00088680020014885F0D1BF00BFF0750020FB
:1064000010B543F64852835CC3F340148C420AD063
:1064100061F34513835431B164F0D0F8BDE8104006
:106420000F2164F021B810BD70B500F57656054611
:1064300033688B420C4611D0012910D0022915D0A7
:1064400059B964F0BBF81B2164F00EF80C4A05F54D
:106450006C500621303066F051FD346070BD64F040
:10646000ADF81A2164F000F8064AF0E7012100F0C7
:106470008DFF64F0A3F81D2163F0F6FF024AE6E702
:1064800078EF13088DEF130888EF130838B50C4622
:1064900043F66951435C03F00105A54208D064F35B
:1064A00000034354DB0704D407F054FA024B9C72F8
:1064B00038BD07F0CBFBF9E75192002043F6695352
:1064C000C25C61F34102C254014B1973704700BFB3
:1064D0005192002010B5044670F0BCFD202170F0F0
:1064E000CFFB031E04F5755018BF0123827A63F3B6
:1064F0008202827210BD000008B543F67053C05886
:106500000368DB689847F6EE007A20EE270AB5EEBE
:10651000C00AF1EE10FA48BF9FED010A08BD00BFA6
:106520000000000038B52DED028B44F6E813044658
:10653000C358DFED110A93ED2B0A5D20B7EE001A68
:1065400036F04CFD44F6EC13B0EE408AE55843F6C5
:10655000705305F5A475E0580368DB68984738EE7A
:10656000400ABDEC028BDFED057A284620EE270AB3
:10657000BDE838408DF0D8BB0000000000007A4430
:1065800000F50D5300F50D50D3ED045AD2ED007A0D
:10659000D0ED076A91ED006A26EEE77A67EEA57AFC
:1065A000A6EE257AE6EE267A81ED007AC2ED007A33
:1065B0007047000043F28863C35E3BB942F6524322
:1065C000C05E0028B8BF404280B2704783EAE370E3
:1065D000A0EBE370F8E7000030B52DED028B43F639
:1065E000695383B0C15C11F00101044605D09FEDF1
:1065F0002C0A03B0BDEC028B30BD43F64953019128
:10660000C35C5B07F3D5DFED278ADFED250AB0EE2B
:10661000681A3A2036F0E2FC42F65A450199605F6A
:106620004FF4C872B0EE408A36F00EFD605320463B
:1066300015F0F4FC635F07EE900AB8EEE71A07EE78
:10664000903AF8EEE77A31EE677AB4EEC78AF1EE67
:1066500010FA0DD52046FFF7ADFF07EE900A38EE91
:10666000478AB8EEE70A20EE088A88EE070AC0E7F4
:1066700077EE817AB4EEE78AF1EE10FAB7DD42F6F2
:10668000524338EE678AE35E00EE103AB8EEC00A75
:1066900078EEE77A20EE088A88EE270AA9E700BF9D
:1066A0000000000000007A4470B52DED028B43F627
:1066B00070550446435993F86D30002B7CD043F657
:1066C0004853C356002B77DB45F28863C35C002B2D
:1066D00072D143F65056805903685B699847002889
:1066E0006AD1374B985903681B6898470B2863D0C9
:1066F00044F6EC139FED337AE358D3ED9C7AF0EE39
:10670000E77AF4EEC77AF1EE10FA55D560593830D1
:1067100065F0E8FE0346DFED2C0A93ED000A7D20CC
:10672000B7EE001A36F05AFCB5EEC00AF1EE10FAD8
:1067300042DD04F593404830A1F012F8DFED237AF2
:10674000B0EEC00AB4EEE70AF1EE10FA34D542F228
:10675000D423E31893ED008A44F6E813B8EEC88A10
:10676000E0580368DB6F984738EE400ABDEEC00A78
:1067700010EE103A002BB8BF5B42B3F5FA7F1BDA7C
:1067800042F2D82340F2E632E35803F2F313934285
:1067900012D860599FED0E0AA2F0A8FABDEC028B48
:1067A00063599FED0B0AD3ED0A0A04F5C05010306F
:1067B000BDE870408FF0FEBEBDEC028B70BD00BF27
:1067C000402B002000000034000000000000704258
:1067D0000AD7233C002070470020704700207047F4
:1067E00000207047002070477047000043F6505368
:1067F000C05803681B6818470348086035211170AA
:1068000008221A60704700BF2CF5130844F6F813ED
:106810009FED097AC358D3ED0E7AF4EEC77AF1EE04
:1068200010FAB8BFD3ED047A9FED047A67EE877A49
:106830000120C1ED007A7047000000340AD7233CE4
:1068400010B543F650530C46C05803685B6D98472B
:1068500007EE900A9FED047AF8EE677A012067EE62
:10686000877AC4ED007A10BD0AD7233C10B543F6F1
:1068700050530C46C05803681B6D984707EE900AAA
:106880009FED047AF8EEE77A012067EE877AC4ED8F
:10689000007A10BD0AD7233C10B543F650530C467E
:1068A000C05803689B6D9847DFED037A20EE270AF6
:1068B000012084ED000A10BD0AD7233C03685B6FFA
:1068C000184700008EF0AABE77F0F8BC04F0CEBAEC
:1068D00004F0CABA04F0C6BA04F08ABEA8F042BFF7
:1068E00083F024BB16F0BABD05F0F4B87DF088BA89
:1068F00022F0BAB915F004BC5FF00EBC33F042BC14
:1069000063F0F0B91EF0C4BF72F0ECB86FF004B8D9
:106910006CF0B8BC14F0ECBF15F068BD07F014BF04
:1069200007F03EBB06F0D8BD06F0FABC59F0D8BB64
:1069300015F06AB9503085F0B7BB00001CF02CBCD4
:1069400079F01AB883F0F6BE11F0DEBBFFF7ACBEEB
:1069500015F01CB9A6F052BB7FF0A4BF15F0F8BB30
:1069600003F018BF15F092B815F00AB870F0E2BA4B
:106970005BF0E2BC29F0E0B908B544F6F813C05862
:106980009EF0FEFB012008BD07F0EAB90BF0B2B89B
:106990000BF00EBA0BF09CB910B52DED028B43F63F
:1069A00050530446C05803685B6AB0EE408A98476B
:1069B00020B90024BDEC028B204610BD9FED080AD3
:1069C00004F5B74028EE000A34300DF087FB04468A
:1069D0000028EED003480121FFF712FDEAE700BFCF
:1069E0000000C842402B00201FB543F65053044618
:1069F000C058039103685B6A984760B1DFED070AEE
:106A00000399002304F5B7400093B0EE600A1A46DC
:106A100034300EF0E5F804B010BD00BF00000000F7
:106A200030B52DED028B0C4643F6505105464058CB
:106A300089B001680392496A0293B0EE408AF0EE91
:106A4000608A884728B39FED150A94ED006AD4ED5B
:106A5000016A94ED027A9DF83C10019126EE006ADD
:106A600066EE806A27EE407A9DF83810009105F5B1
:106A7000B74068EE800A029B039A8DED056A28EE06
:106A8000000A05A93430CDED066A8DED077A0DF0C8
:106A9000BFFF09B0BDEC028B30BD00BF0000C84293
:106AA000F0B52DED028B1C4643F650530746C058F7
:106AB00003688FB05B6A0E461546B0EE408AF0EE72
:106AC000608A984700284CD09FED280A96ED006A0E
:106AD000D6ED016A96ED027A9DF86030029326EEBB
:106AE000006A66EE806A27EE407A8DED056ACDED8C
:106AF000066A95ED006AD5ED016A8DED077A95ED90
:106B0000027A9DF85C30019326EE006A66EE806A98
:106B100027EE407A8DED086ACDED096A94ED006AA2
:106B2000D4ED016A8DED0A7A94ED027A9DF8583021
:106B3000009326EE006A66EE806A27EE407A07F53B
:106B4000B74068EE800A0BAB28EE000A08AA05A938
:106B500034308DED0B6ACDED0C6A8DED0D7A0EF0B3
:106B600041F90FB0BDEC028BF0BD00BF0000C84280
:106B700070B543F650530646C058036886B05B6A4A
:106B80000C469847054610B39FED126AD4ED006A93
:106B900094ED017AD4ED027ADFED0F0A0023012291
:106BA00066EE866A27EE067A67EEC67A06F5B74085
:106BB000CDE90032B0EE600A1A4603A93430CDEDBB
:106BC000036A8DED047ACDED057A0DF00DFF2846B0
:106BD00006B070BD0000C84200000000F0B52DED09
:106BE000028B144643F65052074680588DB0026817
:106BF0000593526A0D46B0EE408AF0EE608A9047E7
:106C00000646C8B39FED1F0A95ED006AD5ED016AEF
:106C100095ED027A059B26EE006A66EE806A27EE05
:106C2000407A01228DED066ACDED076A94ED006A87
:106C3000D4ED016A8DED087A94ED027A02929DF806
:106C40005420019226EE006A66EE806A27EE407AB2
:106C50009DF85020009207F5B74068EE800A09AA17
:106C600028EE000A06A934308DED096ACDED0A6AD6
:106C70008DED0B7A0DF04EFE30460DB0BDEC028B63
:106C8000F0BD00BF0000C84270B543F65053064641
:106C9000C05803688EB05B6A0D4614469847D8B357
:106CA000DFED1E7A95ED006AD5ED016A95ED027A69
:106CB000DFED1B0A26EE276A66EEA76A27EE677AE3
:106CC0008DED056ACDED066A94ED006AD4ED016A9A
:106CD0008DED077A94ED027ACDED0B0A002326EEB6
:106CE000276A66EEA76A06F5B74067EE677ACDE9D0
:106CF00001330093B0EE600A0BAB08AA05A934304B
:106D00008DED086ACDED096ACDED0A7ACDED0C0A5C
:106D1000CDED0D0A0EF066F80EB070BD0000C84251
:106D20000000000070B52DED068B43F6505305466C
:106D3000C058036884B05B6AF0EE409AB0EE60AA77
:106D4000F0EE41AAF0EE618A0E46B0EE429A984704
:106D50000446F8B19FED128A4FF07E536AEE080A9E
:106D600029EE880A0093684600232AEE881A0393C6
:106D7000029301933AF056F89FED0A0A05F5B740E1
:106D800069EE080A28EE800A00233246694634304C
:106D90000DF0A8FC204604B0BDEC068B70BD00BF12
:106DA00035FA8E3C0000C842534B37B5044640F8D4
:106DB000043B77F089FB9FED511ADFED510A9FEDFF
:106DC000510A04F130008CF079FD04F1580083F091
:106DD000C5F904F110054C4B4C491D6028465DF087
:106DE000BBF904F1900020F0DFFC494B01930094C3
:106DF00002AB13E9060004F506705FF011F804F524
:106E0000317026F08DFF04F5C2601BF043FE04F2E2
:106E1000647024F02DFA04F52C6032F04DFF04F577
:106E20009E5077F01FF904F5A45010305DF048FF34
:106E300004F5B850183071F051FC04F5BA50143014
:106E40001EF038FF04F5C05010308EF031FD04F50F
:106E5000F55097F0FBFA04F5F55018305FF04EFB53
:106E600004F5F850043078F097FC41F60C730025D7
:106E7000E218E55404F5F850264B1C301A6058F01F
:106E8000CDFF04F5FB502946103018F095FF04F5AE
:106E90001B5028308DF0B4F904F51B5034307CF0D1
:106EA000BFFF04F51C5020308DF0B0FE04F52750D4
:106EB000343094F06FF804F52C500C3093F04EF908
:106EC00004F52C502C3096F033F904F52E50243074
:106ED00096F096FE42F60443E5540F4D2B6813B12D
:106EE0000E48B5F093F920460D495DF035F920467E
:106EF0002C6003B030BD00BF601F150800008C423D
:106F00009A99993E000048438890002040741408E4
:106F1000BD680008F09E0020389300209CEF130805
:106F2000A41E150810B515F009F870F093F8036861
:106F3000BDE810405B681847FFF7F4BF10B5044682
:106F400007F0C8F9204615F093FC204604F0C8FF6E
:106F50002046BDE8104004F0A3BF0000FFF7EEBFDD
:106F600070B500F576551C35044628461DF05CFCCE
:106F700024F0A0FF90F921308BB390F8543373B311
:106F800043F6705304F26476E058383065F0AAFA9C
:106F90000346DFED130A93ED000A7D20B7EE001AD9
:106FA00036F01CF894F9A037012B284608BF86ED6F
:106FB000130A00211DF048FADFED0A7A04F5276470
:106FC00094ED007A20EE270ADFED077AA7EE270A74
:106FD000304684ED000ABDE8704024F03BBC70BD33
:106FE00000000000CDCCCC3D6666663FFFF7B8BF21
:106FF00000F5765000211C301DF026BA10B5012195
:10700000044615F077FC60B143F65053054AD0585A
:1070100003689B6A984720B92046BDE8104002F0FB
:1070200079BC10BD402B0020FFF7E8BF38B50446FF
:10703000FFF7DEFF0221204615F05CFC78B101214C
:10704000204615F057FC50B943F650534E4AD058DD
:1070500003689B6A984710B9204602F05BFC022146
:10706000204615F047FC00286AD0204602F0D8FCE4
:107070004FF40031204615F03DFC10B1204602F0DF
:10708000E1FC4021204615F035FC60B104F5645563
:107090001C35284661F0FEFA41F21873E35613B12D
:1070A000284661F00DFC4FF48061204615F022FC6B
:1070B00020B104F564501C3061F080FB2021204693
:1070C00015F018FC60B143F65055605903681B6910
:1070D000984700283BD044F6EC13E0589CF042F867
:1070E0008021204615F006FC00283CD034F082F9BF
:1070F00032F0F2FC1021204615F0FCFB98B144F66A
:10710000E81304F56455E05898F074FE1C3504F556
:1071100038510431284661F015FF04F5355104312A
:10712000284661F0AFFE4FF6FF71204615F0E2FBF6
:1071300040B304F559502C30BDE83840A8F020BBCE
:107140000121204615F0D6FB00288ED190E720467D
:107150000EF098FD0028BED1605903685B6998471E
:107160000028B8D0BCE74FF48021204615F0C2FBC0
:107170000028BBD14FF40021204615F0BBFB0028AE
:10718000B4D1B7E738BD00BF402B0020FFF74EBF9A
:1071900010B50121044615F0ADFB10B1204602F0F8
:1071A0003FFC8021204615F0A5FB28B134F022F9E0
:1071B000BDE8104032F072BC10BD0000FFF7E8BF20
:1071C00010B5044606F0A6FE204606F0E1FC204677
:1071D00006F094FF204616F063F92046BDE8104003
:1071E00004F054BCFFF7ECBF70B54FF6FF710446D6
:1071F00015F080FB30B143F648530721E258204692
:1072000002F07EFC04F56A5043F670550430FEF738
:10721000E3F9635993F86D30A3B904F5FB501030CE
:1072200019F04AF82046FFF755F96059026804F54D
:107230003953D669197842F66E42A25CB04760595C
:10724000A1F02CFD70F00EF9204616F01BF943F664
:10725000485345F2C952E35CDB43C3F3C013A35464
:10726000014A537170BD00BF51920020FFF7BCBFAF
:10727000F8B500F50D53103300F576561B687360B2
:1072800000F50D531C3342F2DC271B68B360044643
:10729000C05900F58C40503035F060FE43F68C53F9
:1072A0004FF6FF71E05072683261B2687261204639
:1072B00015F020FB30B1E25920460921BDE8F84025
:1072C00002F0F6BBF8BD000000F576531A68002AFC
:1072D0004ED043F64953C35CDB0749D500F57553DF
:1072E000012A597A6FF30001597243F60C13C15801
:1072F00043F61013B1F90820C35806EE902AB3F9EB
:107300000830F8EEE66A06EE103A00F5765330D112
:1073100093ED017A00F57653F8EEC67AD3ED025A72
:1073200025EEE76AA6EE876A00F50D5267EE877ACA
:1073300092ED077AE6EEA57AD2ED046A27EE877A17
:10734000A6EE267ABDEEC77A17EE10CAA1F808C0DD
:1073500092ED047A67EE877A92ED077AE6EE477A45
:1073600043F610114158FDEEE77A17EE903A0B8183
:107370007047D3ED047A00F57653B8EEC67AD3EDB4
:10738000055A25EEC76AA6EEA76ACDE710B50446F2
:107390002DED028B79B1204614F01AFC43F68C5285
:1073A00040F2E631A3581B1A03F2F3138B420DD8B7
:1073B000BDEC028B10BD00F576531B68022BF7D194
:1073C00014F0E8FBB0F57A7FE5D2F1E700F58C43E5
:1073D000A0505033642093FBF0F308EE103ADFED39
:1073E0000B7AB8EEC88A28EE278AB0EE480A30F148
:1073F00037FE04F5765383ED040AB0EE480A30F107
:10740000B9FF04F5765484ED050AD1E735FA8E3CD0
:1074100000F5FB500121103017F07CBC10B504467C
:1074200000F52C6033F070FA44F6E813E058036876
:107430005B6C9847204614F0EFF92046FFF7E8FF11
:10744000204606F0E9FE204606F004F8204607F044
:1074500089FA204604F092FF204607F029F904F546
:107460009440483071F044FB4FF6FF71204615F010
:1074700041FA10B1204602F09DFB2046BDE81040C5
:1074800060F00EBC10B5044614F0CEFD102120466D
:1074900015F030FA48B1204602F0E0FC04F5C05087
:1074A0001030BDE810408FF0FFB810BDFFF7EABF05
:1074B00070B50446254607F083F92C4B45F83C3B54
:1074C0002B4B2465C4E915342A4BC4E917342A4BE5
:1074D000636604F1780020F0BDFD04F1900020F017
:1074E000B9FD04F1A80020F0B5FD4FF6FF76234B5F
:1074F000C4F8B830A4F8BC6004F1C00020F0AAFDC4
:107500001F4B20491D6028465CF026FE0025012304
:1075100084F838312946A4F87060A4F8886084F8AB
:107520001051C4F83451502204F5AE7033F1D0FA42
:1075300004F5B67329461022184633F1C9FA20F033
:1075400089FD04F5C27329461022184633F1C0FAAA
:1075500020F080FD04F5CE7310222946184633F141
:10756000B7FA20F077FD204670BD00BF9451140893
:107570008D69000891690008956900080000FFFF07
:107580000C920020E8D3140810B5044620F062FDE8
:1075900004F1100020F05EFD04F1200020F05AFDFF
:1075A00004F1300020F056FD204610BD2DE9F047D3
:1075B0002DED028B044684B0FFF7F6FBA44B23604D
:1075C00004F53250103002F013FD04F5315104F58A
:1075D000645028311C3062F05BF943F6C41204F5A4
:1075E00031531C33A35043F6C813062204F56750E9
:1075F000E254183064F000FF04F567503C3064F04A
:10760000FBFE43F6142343F68427012504F5685056
:10761000E550E619243070F0BFFC3046A6F072FB4E
:107620008C4BE351301D5BF07FFF10B943F688238C
:10763000E55404F56B5024305AF024FE43F6303301
:10764000854AE25004F56D5504F56E5618353C3602
:107650002846143569F082FBAE42F9D143F6E04387
:1076600043F6DC460722A519E25000232B814FF494
:10767000CB7021F0BBF8A05105F10C00B1F0F8FD82
:1076800004F574502C30B1F0F3FD744A116843F6E0
:10769000303309B9E1181160714AE25004F5BB4872
:1076A00043F6505308F1200804F5755044F8038060
:1076B0001530A3F0F5FDB7EE008A04F5765383ED9F
:1076C000018A04F5765383ED048A664B0393664B77
:1076D0000093029404AB04F5765013E90C004FF4C8
:1076E00000711C301CF05CFC04F58540A9F060F9C9
:1076F00004F59340B0EE480A103064F047FF04F5FB
:107700009340B0EE480A283064F07EFE04F59340C2
:10771000383020F09FFC44F6C8135449E150E21879
:1077200004F593430025DD641D655D6504F5934311
:1077300004F594469D65DD651D6604F5FB53103325
:10774000D36144F601230022E25406F1200020F028
:1077500081FC4FF4004373640436454930465CF0C5
:10776000FBFC444B04F5944048301E6071F0FEF879
:1077700004F59540303084F0B5FC04F5964044F6AD
:107780009C36643085F066FEA0195DF0F3F83A4B44
:10779000A35104F59740303082F054FF04F5974030
:1077A0004C3004F5F8530433036104F59747334B29
:1077B0003349186070375CF0CFFCFF233B743B7695
:1077C000304938465CF0C8FC2F4B1E6816B12F4874
:1077D000B4F01CFD04F5AE4104F598405C31103066
:1077E0001F6060F013F804F5A9400C309CF0BEFA5D
:1077F00004F5AA4704F5AA406837603045F2186AD4
:107800009DF058FA04EB0A0938468BF077FB3946AD
:107810004846A3F05FFD1E4B44F80A30062389F862
:1078200054301C4B1C4A1A6004F5AC417831334685
:1078300018279EB2304678430133105C0028F8D1F7
:10784000164B1E80164B1E6886B31648C0E700BF55
:1078500060F913083CEF1308B03B1508009C0020AA
:10786000FCF913088969000850F91308D8A2150813
:10787000207614089090002074EF1308F89E0020E2
:107880004853150830741508909F0020B0EF130876
:107890008C491408F49200206C3D1408F0920020EA
:1078A000B4920020D1EF1308CDCC4C3D04F5AD408F
:1078B0001FED030A196045F2A4670C3064F0A4FDC3
:1078C000E01906F07DFF7E4BE35145F2E467E019D5
:1078D00006F076FF45F6D0097A4BE35104F5AE4049
:1078E00004EB09072030FFF7E3FD384606F068FF98
:1078F000754B44F8093007F13C00ADF097F945F6B7
:107900000C13724AE25045F65827E01906F058FF6A
:107910006F4BE35145F69C27E01906F051FF6D4B84
:10792000E35145F6D82345F6DC27E652E01906F088
:1079300047FF694BE35145F61837E01906F040FF61
:10794000664BE35104F5B64345F66C3704EB070983
:107950005D659D65DD65484606F032FFC9F83C600F
:107960005F4BE35145F6B43904EB0907384606F09E
:1079700027FF5C4B44F80930FE6345F6F837E01901
:1079800006F01EFF584BE35145F64047E01906F05C
:1079900017FF564BE35104F5B947384606F010FF80
:1079A000534B3B60BD67FD6745F6145704EB070A70
:1079B000504606F005FFDFF85C9144F8079045F665
:1079C00050530127E7520AF14000FFF7DDFD404622
:1079D00006F0F6FE45F6A053464AE25045F6DC585E
:1079E00004EB080006F0ECFE434B44F8083004F5C5
:1079F000BC4045F68C6804EB080A183011F06EFDA7
:107A0000504606F0DDFE3D4BCAF83C6044F80830B5
:107A100045F6D06804EB080006F0D2FE384B44F877
:107A2000083045F60C7345F6207804EB080AE65258
:107A3000504606F0C5FE334BCAF83C6044F80830A7
:107A400045F6647804EB0806304606F0B9FE45F6C4
:107A5000A07344F8089006F14000E752FFF794FD48
:107A6000294B44F8083004F5BF4086F8897074301B
:107A70000BF032FB04F5C14046F23016383012F0FC
:107A8000BFFEA01906F09CFE204BA35104F5C24393
:107A90001D675D6746F27815601906F091FE1C4B74
:107AA000635143F66C522046A35C23F0030343F07A
:107AB0000303A35404B0BDEC028BBDE8F08700BF04
:107AC000C84E1408504F14081C5214089052140841
:107AD0004C531408D053140854541408D0541408A8
:107AE000EC5614086857140868581408E458140829
:107AF000E4591408D85C1408445C1408C8521408EB
:107B000084601408F4571408C05B14080C6114084E
:107B100060591408405B140838B5054B1C6823688D
:107B20000A461D68034B01462046A847002038BD81
:107B3000F88C0020402B002038B5037904463BB96F
:107B400005682DB1284631F0D9F8284620F04AFEC4
:107B5000204638BD70B5294B036042F6F433C21895
:107B6000044612793AB9C5582DB1284631F0C6F805
:107B7000284620F037FE04F5F55096F07BFC04F51E
:107B8000D1500C30FFF7D8FF04F5D1500430FFF787
:107B9000D3FF04F5D0501C30FFF7CEFF04F5B850EA
:107BA000183070F0B3FD164BC4F8C03A04F572609B
:107BB00064F04EFA04F6047064F04AFA04F6E860E1
:107BC00064F046FA04F6AC5504F66456B54204D0A7
:107BD000083D2846FFF7B0FFF8E70A4BC4F8D43059
:107BE00094F8B43143B9D4F8B0512DB1284631F0EE
:107BF00085F8284620F0F6FD204670BD601F150868
:107C000050C71408747B140838B50F4B036045F255
:107C10000863C218044612793AB9C5582DB12846EE
:107C200031F06CF8284620F0DDFD43F63033074A8A
:107C3000E25043F6DC43E05808B120F0D9FD20467D
:107C4000FFF788FF204638BD60F91308B03B1508E0
:107C500010B5B1F0BDFD064C064B18602046FFF78D
:107C6000A5FC2046044A0549BDE8104030F16EB835
:107C7000402B0020F88C00205CFA0020097C0008D2
:107C800001207047FA207047024A42F61E43D05C3A
:107C9000704700BF402B0020044A43F67053D05871
:107CA00010B103681B68184701487047402B00203B
:107CB000DCF91308024B1868431E584258417047BC
:107CC000C0680020024B1868831E58425841704714
:107CD000C068002070B5C169026A6B4D41F4E05381
:107CE000C36142F4E0530362436A044643F4E05044
:107CF000606243F649502E5C760710D542F48E320E
:107D000041F48E31E16122622A5C500707D543F6C7
:107D10006952AA5CD1075CBF43F48E336362E369A6
:107D200043F4C043E36143F65053E85803681B68CB
:107D300098470238192816D8DFE800F09E0D0D0D7F
:107D40000D0D150D1515159E159E0D0D0D0D9E0D88
:107D50009E151515150DD4E9082342F4C042226280
:107D600043F4C043636249487EF0E8FF18B1E36919
:107D700043F08063E36145487EF0E8FF18B1236A71
:107D800043F08063236241487EF0EAFF18B9636ADA
:107D900043F0806363623E4B1E6846B11921304652
:107DA0005DF0BEF818B1E36943F48073E36143F614
:107DB000CC13EB5CDA070DD5236A43F4807323629E
:107DC00046B1192130465DF0D7F818B1636A43F423
:107DD000807363625AF032FB98B190F905303BB181
:107DE000D4E9072342F0400243F04003E2612362FA
:107DF000036833B10379DB0742BF636A43F0400392
:107E0000636245F28C416B568BB1D4E9072343F092
:107E1000800342F08002E26123626B563BB145F27F
:107E20005453EB5C1BB1636A43F08003636245F219
:107E30008843EB5C013B012B0BD8D4E9072343F4C7
:107E400080032362636A42F4800243F48003E261A8
:107E50006362E36943F08043E361236A43F0804354
:107E6000236243F67053EB5893F865301BB9636A8D
:107E700043F08043636270BD236A43F4005323627E
:107E8000636A43F400536DE7402B002044590020FF
:107E90000093002013B54FF4E870CDE9002120F0E5
:107EA0009BFCDDE9002104466CF0D2FA024B236012
:107EB000204602B010BD00BF34FC130808B590F88E
:107EC0008C308B4208D260F0B9FA16224FF4802130
:107ED00060F06AFA002008BD243150F82100FAE76A
:107EE00008B590F88C308B4208D260F0A7FA0F22C8
:107EF0004FF4802160F058FA002008BD243150F87A
:107F00002100FAE7002070470020704703207047E7
:107F100010B543F65053154CE05803681B6898475A
:107F200007281DD8032834BF1023182343F67052A6
:107F300043F04000A25822B192F86D200AB143F0FC
:107F4000C00040F0010010BD0B280DD8DFE800F0A4
:107F500006060C060C060C060C0C0C061823E5E7AE
:107F60001038C3B20B2BEFD91023DFE7402B0020D2
:107F7000024A42F62043D05C704700BF402B0020ED
:107F8000034A42F63063D056003818BF01207047CC
:107F9000402B0020024A42F62243D056704700BFD1
:107FA000402B00207047000008B50E4A43F670537E
:107FB000D058A8B1383064F095FA034693ED000A22
:107FC000DFED090A7D20B7EE001A35F007F8DFED86
:107FD000077A20EE270ABDEEC00A10EE103A18B25A
:107FE00008BD00BF402B0020000000000000C84278
:107FF0002DE9F04FDFF8D890334F8DB004460425BB
:10800000A9F10406314B17F801ABB3F900300AF1BE
:10801000FF3B43FA0BF3D90743D5207C65F006FFFD
:108020008046207C66F0C8FD00F12103984505D20A
:10803000207C65F0A3F90DB0BDE8F08FBBF1030F14
:108040002FD8DFE80BF00233373B306803689B68BA
:10805000984700F19803D3ED007AD3F804B0D3F831
:108060000CC018695969D3F818E0DA691B6ACDF8B1
:108070002530CDF8292021236222CDE90032079056
:108080000891207CCDED037A192303AAC221CDF8F3
:1080900010B0CDF814E0CDF818C08DF824A065F02C
:1080A0000DFF013D15F0FF05ACD1C4E73068036852
:1080B000DB68CDE7306803681B69C9E7D9F8003091
:1080C00003F5F073C7E700BF1CFD1308B857002085
:1080D0002C75002007B50190A7F060FB28B101992D
:1080E00003B05DF804EBA7F01BBB03B05DF804FB25
:1080F000014809F043B900BF6082002070B542F624
:10810000346314460A4AD358DB0705460E4603D5A6
:1081100008482146A3F082FC21460748A7F028FF23
:10812000224631462846BDE870406AF087BF00BF4E
:10813000402B002058810020D061002010B588B06D
:10814000044668F085F90B4A43F67053D05830B9AD
:10815000094A0621204668F071F808B010BD69464A
:108160001E22A1F0F5FC054A6B460621204668F068
:1081700065F8F2E7402B0020DCF91308BFDC150896
:1081800010B443F60812044CA35C0133A3545DF809
:10819000044B67F071B900BF402B002001489BF0F1
:1081A000D7BF00BFCC7F002007B50846019120F063
:1081B00051F838B10448019903F040FB002003B0A6
:1081C0005DF804FB0420FAE73C8D0020014804F030
:1081D000B3B800BF402B0020014804F033B800BF03
:1081E000402B0020F8B58A7A4B7A43EA0223CA7AF8
:1081F00043EA02439D2B05460C4619D10F4F104808
:1082000044F64A26B95D70F079FC88B1B95D0C4836
:1082100070F0B0FC60B9D4ED057A9FED0A0ADFED8D
:108220000A0A0A48F8EEE77A27EE800A03F0E6FA2F
:1082300021462846BDE8F84067F052B8402B0020A0
:10824000887500200AD7233C000000003C8D0020E8
:1082500010B544F61043064AD25640F6CD3440F6E7
:10826000CD13002A08BF1C4667F0BCF8204310BDA0
:10827000402B002000B589B00023029303930493A0
:1082800005930693079317F085FD02A915F018FFD3
:10829000B0B117F07FFD16F0E1FB05A88DED050AE2
:1082A000CDED060A8DED071A3AF0BCFAF1EE047A2C
:1082B00020EE270AFCEEC07ACDED017A9DF804008D
:1082C00009B05DF804FB000010B5044620F08AFAFE
:1082D000204610BD38B50D4C43F64853E356002BED
:1082E0000FDB43F65055605903685B6C984750B9F3
:1082F000605903681B6C984700280CBF02200320BC
:1083000038BD0120FCE70420FAE700BF402B002025
:1083100008B543F64952134B985C10F020001FD06B
:1083200043F65052985803685B6D984707EE900AE1
:10833000B8EE677ADFED0C7A27EE277ADFED0B7A5D
:10834000B4EEE77AF1EE10FA58BFB0EE677AF2EECB
:10835000046AC7EE267AFCEEE77A17EE903A98B2F6
:1083600008BD00BF402B00200AD7233C00FF7F47F9
:1083700038B5F7EE000A91ED050A04460D4634F0D3
:1083800017FD28B121460548BDE8384004F008B87B
:1083900029462046BDE8384069F010BE402B002039
:1083A00008B543F64952094B985C10F020000BD0F9
:1083B00043F65052985803681B6D984734F0CEFD31
:1083C000C82390FBF3F0C0B208BD00BF402B0020D3
:1083D00000B589B0002302930393049317F0DAFCED
:1083E00002A915F06DFED8B117F0D4FC16F036FBDB
:1083F000F0EE607AF1EE400AB1EE670A30F196F8DD
:10840000DFED097A20EE270A34F040FDF6EE007A1F
:1084100020EE270AFCEEC07ACDED017A9DF804002B
:1084200009B05DF804FB00BFE02E65421FB50023D4
:1084300001930293039317F0ADFC01A915F040FEE0
:1084400028B101A83AF0EEF905B05DF804FB27F079
:10845000B1FC90F8A4329C2202FB030393ED370A8F
:10846000F2E700000B7ADB0706D50448CB6842F23E
:10847000E03282581344CB60704700BF402B00208D
:10848000044B187828B9044A43F64A53D05CC0F329
:10849000801070478C900020402B002007B5124BB5
:1084A00043F64952985C10F0200019D044F6EC12C3
:1084B000985800F51D703AF0B5F9DFED0C7A20EE12
:1084C000270ADFED0B7AB4EEE70AF1EE10FA58BF97
:1084D000B0EE670AFCEEC07ACDED017A9DF804009B
:1084E00003B05DF804FB00BF402B0020CDCC4C3D19
:1084F00000007F43094B44F27D229A5C62B943F647
:1085000069529A5CD20607D143F648529B56002B1B
:10851000ACBF04200320704705207047402B00208B
:1085200008B5084A42F66C43D356032B03D0BDE886
:10853000084067F09BBE044A022167F07FFE0420DA
:1085400008BD00BF402B002034FA1308094B42F647
:1085500034629A5892070BD544F6BC12134493ED3B
:10856000000ADFED057AB8EEC00A20EE270A704750
:1085700066F066BD402B00200AD7233C10B594B0AE
:10858000044603A81FF066FD43F650531C4AD0581A
:10859000036803A9DB6C984778B3002103A81FF098
:1085A00023FE50B3247CB3F063FE059BDDED047A1B
:1085B0000893069B09930023F8EEE77A9FED117A62
:1085C0000B930C930D930E930F931093119312939F
:1085D0004FF6F853ADF84C300023962267EE877AB9
:1085E0008DF84E303323CDE90032079007AA57218A
:1085F0002046CDED0A7A65F061FC14B010BD00BFD5
:10860000402B00200AD7233CF0B52DED0A8B43F612
:108610005053824C0546E058036899B05B6A98470E
:10862000002866D045F6F033E358062B00F2E180CF
:10863000DFE803F004040463A0C35F0078489FED03
:10864000798A0CF0D5FC0446D0E90201FCF7ECFA7B
:108650000746D4E90401FCF7E7FA0646D4E900012D
:10866000FCF7E2FA9FED700A0B900BA80C970D96A1
:1086700039F016FCF0EE489AB0EE40CAF0EE60BA5F
:10868000B0EE419AB0EE48AAF0EE488AF0EE48AA61
:10869000B0EE48BA40F6F8542D7CB3F0E9FD002363
:1086A0001593169301238C228DF85E303323CDE988
:1086B00000320B90B1EE499AF1EE688AB1EE488A29
:1086C0000BAA552128468DED0CCACDED0DBA8DEDC6
:1086D0000E9A8DED0FBACDED10AACDED118A8DED6C
:1086E00012AACDED139A8DED148AADF85C4065F0B9
:1086F000E5FB19B0BDEC0A8BF0BD49480CF078FCE5
:108700000446D0E90201FCF78FFA0746D4E90401D8
:10871000FCF78AFA0646D4E90001FCF785FA9FEDDA
:10872000420A0B900BA80C970D9639F0B9FB3C4808
:10873000F0EE60BAB0EE419AB0EE40CA0CF05CFCCC
:108740009FED390A39F0ACFB3548B0EE40BAF0EE97
:1087500060AAF0EE418A0CF053FC9FED330A39F029
:108760009FFB4FF44064B0EE40AAF0EE609AB0EE8A
:10877000418A91E72A489FED2B9A0CF03DFC9FED32
:108780002A0A39F08DFB2648B0EE40BAF0EE60AA16
:10879000F0EE418A0CF034FC9FED230A39F080FBA7
:1087A000F0EE49BAB0EE40AAF0EE609AB0EE418A1F
:1087B000B0EE49CA40F607446EE71948DFED198A62
:1087C0000CF01EFC9FED180A39F06AFBF0EE68AA67
:1087D000B0EE40AAF0EE609AB0EE418AB0EE68BA10
:1087E000B0EE689AF0EE68BAB0EE68CA40F63F4460
:1087F00052E79FED0C8A0024F0EE489AB0EE48AAAA
:10880000F0EE488AF0EE48AAB0EE48BAB0EE489AC8
:10881000F0EE48BAB0EE48CA3EE700BF402B002059
:10882000F4860020000000000AD7233CF8B58B8BAB
:10883000CD2B05460C4617D10E4F0F4844F64A265D
:10884000B95D70F05BF978B1B95D0B4870F092F9E1
:1088500050B994ED020ADFED097ADFED090A094803
:1088600020EE270A02F0CAFF21462846BDE8F8405C
:1088700066F032BE402B0020887500200AD7233CCA
:10888000000000003C8D002008B590F8CE3153B9AF
:10889000806A03681B6A9847B0F5005F28BF4FF4F1
:1088A000005080B208BD0020FCE7000038B5D0E9D8
:1088B0009845006903689B6898478068FBF764FEE9
:1088C00002460B4620462946FBF7FEFCFCF7ACF9B6
:1088D00000EE100A38BD00002DE9F04143F649537F
:1088E0003D4F2DED068BFB5C99068CB004466DD593
:1088F00044F6E8139FED390AF858DFED398A3C3029
:1089000039F0CEFA8DED041A21EE281A43F65053B1
:10891000BDEEC11AFE58CDED030A11EE103A1DB29C
:1089200033688DED020A1B6D94F81080304620EEFE
:10893000A89A60EE289A984707EE900AF8EEE77A30
:10894000304667EEA87AFDEEE77A17EE903A1CB251
:1089500033685B6D984707EE900AB8EE678ADFEDE3
:10896000217A28EE288A44F6EC13B4EEE78AF85808
:10897000F1EE10FA58BFB0EE678AFFF797FF336841
:1089800030469B6DB0EE40AA9847BCEEC88A0023E3
:10899000089318EE103AB7222AEE28AA20EE280AE9
:1089A000ADF82C301A23CDE900323E2105AA40460D
:1089B000CDED059A8DED069A8DED07AA8DED090A8C
:1089C000ADF82850ADF82A4065F078FA0CB0BDEC4F
:1089D000068BBDE8F08100BF402B00209F0CB34503
:1089E0000AD7233C00FF7F4710B52DED028B84B0E2
:1089F00017F0D0F9044668461FF02CFB6946204664
:108A000015F028FB0F4B43F64952985C10F02000FC
:108A100013D044F6EC12DDED017A9858B8EEE78AEF
:108A2000FFF744FF38EE008A9FED070A28EE008A20
:108A3000BDEEC88A18EE103A18B204B0BDEC028B35
:108A400010BD00BF402B00200AD7233C034A43F649
:108A50007053D05808B190F86C007047402B00203C
:108A600008B5044A43F65053D05803681B6898472A
:108A700008BD00BF402B0020034A43F64953D05C99
:108A8000C0F34010704700BF402B002070B543F684
:108A900050533B4E2DED028B0546F05891ED018A67
:108AA000036888B05B6A0C46984750B9BDEEC88A27
:108AB00018EE103ADB0704D4022008B0BDEC028B9C
:108AC00070BDD4E9040135F019FA0028F4D004A8E7
:108AD0001FF0C0FAD4ED067A9FED2A7A2369069337
:108AE000F0EEE77AF4EEC77A63690793F1EE10FAD5
:108AF000E2DC94F8201003AA28466AF099FC0028CA
:108B0000DAD09FED217AD4ED067A039A67EE877A60
:108B100004A8FDEEE77A17EE901A1FF0A1FA1B49A0
:108B200004A81FF0A3FB03460028C5D1DFED180AF7
:108B300000900246B0EE600A164804A90CF050F806
:108B4000E0B143F65053F05803685B6A9847044617
:108B500008B10020B1E70A480222042106F0DEF93C
:108B600060B1DFED0B0A0B4800942346B0EE600ABB
:108B7000224604A90CF034F80028EAD104209CE72E
:108B8000402B0020001CA2470000C842F8740020BF
:108B900000000000F48600208A8B202A82B004D0D6
:108BA000C02A1DD002B06AF0E1BCD1ED007AF5EE2A
:108BB000C07AF1EE10FA16DD9FED0C7AF4EEC77A6A
:108BC000F1EE10FA0FD8FCEEE77A0949CDED017A03
:108BD00043F292629DF804308B52002002B070473D
:108BE00002B0FFF753BF0320F8E700BF00007F4348
:108BF000402B002010B52DED028B8CB000230446D5
:108C000003930493059317F0C5F803A915F058FAD8
:108C100050B317F0BFF815F021FFF0EE607A8DED3C
:108C2000060ACDED070AF1EE400AB1EE670A247C90
:108C30008DED081A2FF17AFC06A8B0EE408A39F0C3
:108C4000F1FDDFED0B7A089B0B93012228EE278ABA
:108C50000C23CDE90032A82109AA20468DED098A0E
:108C60008DED0A0A65F02AF90CB0BDEC028B10BD3F
:108C7000E02E65422729F7B505460E4611D008D8E3
:108C800019290CD0242921D0314628466AF0B0FE9B
:108C900016E038292AD0A1F13A03012BF4D801209B
:108CA0000EE0FFF7F1FD0446287C65F085FF00F13A
:108CB00012039C42297C05D2084664F05FFB002029
:108CC00003B0F0BD21485EF02BF8E8E7FFF7DCFDCC
:108CD0000446287C65F070FF00F10C039C4201D231
:108CE000287CEAE72846FFF785FFD8E7FFF7CCFDA9
:108CF0000446287C65F060FF00F126039C42297C35
:108D0000DAD313488AF07EFA124B1F68002FC6D0C0
:108D10002846FFF7B9FD0446287C65F04DFF00F1B9
:108D200026039C424FF00004DAD30DF106023146CF
:108D30002846ADF8064068F05BFB0028AFD0BDF8D0
:108D40000620297C384683F0B3FFA8E7507700203F
:108D5000A8800020849F002070B52DED028B8B8BA6
:108D6000D02B86B00D4600F03D811ED8202B00F0A0
:108D7000A2800AD8113B9AB2052A0ED8052B0CD82E
:108D8000DFE803F08D0B0B93966BB22B00F0EC80B9
:108D9000BD2B7FD0732B00F0A780294606B0BDEC19
:108DA000028BBDE870406CF049B84AF21142934220
:108DB00000F072812DD8B3F5967F00F0FD8040F66B
:108DC000D812934200F05881D12BE6D1D1ED017A2F
:108DD000FCEEE77ACDED037AD1ED007AFCEEE77A8E
:108DE000CDED047AD1ED047A9DF81020FCEEE77AFF
:108DF000CDED057A9DF814300093D1ED030A91ED85
:108E0000020A9DF80C300146BD4812F067FC04468A
:108E1000A5E04AF21342934200F08E814AF2686262
:108E2000934200F004814AF212429342B5D1B44B0E
:108E300043F669521E469C5C14F0010428D143F6A7
:108E400070529B5893F86D30002B40F0398101220D
:108E50001146AC48FDF796F981E0D1ED027A9FED1D
:108E6000AA7A91ED060AA64AF0EEE77AF4EEC77AFE
:108E700043F65053DFEDA57AD058F1EE10FA20EE0C
:108E8000270A4CBF0121002114F000F9002865D009
:108E9000002464E002219E4807F0DAF9F6E7022296
:108EA0000521974806F03AF8F0E702220621F8E794
:108EB00002220921F5E7D1ED007AF5EEC07AF1EE54
:108EC00010FA4BDD9FED937AF4EEC77AF1EE10FACB
:108ED00044D8FCEEE77A8A49CDED037A43F29262F8
:108EE0009DF80C308B52D3E7D1ED007AF5EEC07AC5
:108EF000F1EE10FA32DB9FED887AF4EEC77AF1EEEC
:108F000010FA2BD891ED030ADFED7F7AB0EEC07A2C
:108F1000B4EEE77AF1EE10FAB0EE678A18D5D5ED27
:108F2000037AD5ED010A95ED000A7C48F4EEC87A83
:108F3000D5ED027AFDEEE77AF1EE10FACDED037A87
:108F40009DF90C10ACBF0122002202F0D3FB9FE779
:108F5000F7EE000A33F02CFF0028E0D1042420466D
:108F600006B0BDEC028B70BD91ED010AB5EEC00AF2
:108F7000F1EE10FAF2DD9FED657AD1ED007A604AEC
:108F800020EE070A9FED667A44F6F013F4EEC77AF6
:108F9000F1EE10FAD05802DD9DF05EF978E79FED12
:108FA000617AF4EEC77AF1EE10FA02DD9DF044F931
:108FB0006EE79DF05FF96BE7514C022203212046DA
:108FC00005F0ACFF0028C9D001212046FDF718FAB2
:108FD00045F25C73E35C012B3FF45AAF52483BF01F
:108FE000E3FE55E7D1ED007AFCEEE77A17EE903A12
:108FF0009CB2012C0DD0022C15D0002CAED12146F4
:109000004A4876F0EDFE61F0D9FA312161F02CFA90
:10901000A5E72146454876F0E3FE61F0CFFA32211C
:1090200061F022FA34E7364803F002FF30E74048A7
:10903000A6F00AFB002891D0D5ED017AFCEEE77A84
:10904000CDED037A9DF80C40012C09D0022C0DD0F7
:10905000002C83D12A4A43F278630021D1547EE761
:1090600095ED020A3248A6F02FFB11E795ED030AB1
:109070002F48A6F03DFB0BE7D1ED017A2D48FCEE21
:10908000E77ACDED037A9DF80C30012B0CBF00215F
:10909000012186F061FAFBE6194843F66953C35C87
:1090A000DB073FF5F5AE0222052105F037FF00286A
:1090B0007FF4EEAE02221146114805F02FFFE7E6DD
:1090C00043F648530222F356002B13DA0C480521CD
:1090D00005F024FF00283FF4DBAE95ED000ADFED3C
:1090E0000B7A43F6505320EE270AF058012113F073
:1090F000CDFF34E70921024805F010FF2FE700BF3C
:10910000402B0020C4650020000000340000C8424D
:109110006082002000007F430000B4433C8D0020AB
:109120009A9939403333F33F9C8200200C7700201A
:10913000AC61002030770020214B43F669521E4677
:109140009C5C14F001047FF4A3AE43F670529A586D
:1091500092F86D20002A3FF49BAE43F648529B568E
:10916000002B05DA012208211648FDF7C5F8F6E6BE
:10917000D1ED007A9FED147AF0EEE77AF4EEC77A3B
:10918000F1EE10FA0CD50E480222112105F0C6FEB0
:1091900000288FD00D4840F6C41109F0D3F9DEE65F
:1091A00043F65055705903681B68984704283FF4EC
:1091B0006FAE705903681B6898471428E3D167E6BF
:1091C000402B0020C465002000000034988500205A
:1091D00008B591ED007AF6EE007AB4EEE77AF1EE9A
:1091E00010FA06DD044801220521FDF785F800206C
:1091F00008BD0420FCE700BFC46500202DE9F04352
:109200002DED028B8A7A4B7A43EA0223CA7A43EA2B
:1092100002436D2BA5B005460C4600F0FD8000F220
:10922000E980542B00F0F8810AD8452B00F00D811D
:10923000522B00F06C81214628466BF0CDFF61E196
:10924000562BF8D1CE78352E28BF35263522002171
:1092500014A831F13DFC324604F10C0114A831F19F
:109260000FFC43F65053CA4AD05803685B6A9847CC
:10927000002800F04781BDF88040A30500F142813D
:109280000CAE04F0070730461EF0E4FE3FBBDDE9FC
:1092900015894946404634F031FE002800F0DC8153
:1092A0009DF8841009AA28466AF0C2F8002800F048
:1092B000D381DDED177A9FEDB77A099B009367EEB6
:1092C000877A10ADFDEEE77A4A4617EE903A4146AE
:1092D00028461EF0DFFE95E80F0086E80F00002507
:1092E00014F0380906950795089513D19FEDA96AE2
:1092F0009DED197ADDED1A7ADDED186A27EE067A12
:1093000067EEC67A66EE866A8DED077ACDED066A5F
:10931000CDED087A14F4E07309950A950B9513D1F5
:109320009FED9C6A9DED1C7ADDED1D7ADDED1B6ADB
:1093300027EE067A67EEC67A66EE866A8DED0A7AC1
:10934000CDED096ACDED0B7A14F4806805BFDFED31
:10935000927A9DED1E0A9FED970A20EE270A04BF20
:10936000DFED8C7A20EE270A14F4006405BFDFEDF0
:109370008A7ADDED1F0ADFED8F0A60EEA70A04BFCF
:10938000DFED847A60EEA70A002F40F05282B9F137
:10939000000F40F06C823046CDED050A8DED040AD9
:1093A0001EF088FE03289DED040ADDED050A00F09D
:1093B000538110A93046CDED050A8DED040A1095B4
:1093C000119512951FF000F8002800F04581B4FABD
:1093D00084F46409B8FA88F3DDED050A9DED040A0A
:1093E000CDF8049000945B0906AA10A96B480BF015
:1093F00073FD87E0F32B00F0498217D8872B08D83C
:10940000852B7FF618AF0A46017C65485DF0D2FDDA
:1094100078E0A62B7FF40FAF08215D4813F06AFABD
:1094200021460246284667F093F86BE0F62B06D0FB
:109430005C4A1A4422F07F42022A3FF6FCAE297CA5
:10944000594822468AF0D8F95CE0514FCA7942F671
:109450002043FB5E9A4255D1CA780B2A28BF0B22C3
:1094600000260C3114A8CDE91466CDF8576031F10F
:1094700007FB42F61E439DF85A20FB5E9A4241D1FB
:10948000BDF95480B0453DDBB2F0F2FECDE90006F7
:1094900043F60C1104469FED450ABDF95220795858
:1094A0004FF47A7328466AF08FF80123CDE9004320
:1094B00043F610119FED3D0ABDF9502079584FF445
:1094C0007A7328466AF080F8CDE9004643F6141115
:1094D0009FED370A79583346424628466AF074F8B9
:1094E000CDE9004643F618119FED300ABDF956202C
:1094F00079584FF47A7328466AF066F86AF028F9CA
:10950000C0F8A84125B0BDEC028BBDE8F083CD7852
:109510001F4E272D28BF27252722002114A831F10F
:10952000D7FA2A4604F10C0114A831F1A9FA43F63E
:109530005053F05803685B6A98470028E2D09DF8C2
:10954000764014F0C00FDDD114480BF0C1F89DED4A
:109550001C0A054680B340F22E40B7EE001AFFEE1B
:10956000000A33F03BFD159B1093169B1193179B3C
:10957000129384F00402189B1393DDED1B0A074835
:109580002B46C2F3800210A90BF0ACF8BAE700BF7B
:10959000402B00200000C842E02E6542F4860020E7
:1095A00050770020EFD8FF00A88000200000FA4488
:1095B00000007A44000000005FED020A40F23140F2
:1095C000B7EE001A33F00AFDF6EE000AB0EE408A5C
:1095D00033F0EEFBE8B9B6EE000A44F6F013B4EE51
:1095E000C08AF1EE10FAF35808DD38EE400A30EE8A
:1095F000008A93ED070A28EE000AB4E730EE480A25
:10960000D3ED087A30EE000AF0EEE77A27EEC00AD2
:10961000A9E71FED180AA6E7CD78352D28BF352517
:109620003522002114A831F153FA2A4604F10C0125
:1096300014A831F125FA43F65053A94AD0580368CB
:109640005B6A984700283FF45DAF9DF88450012D78
:1096500007D0EB1F022B04D90121A2480AF0D0FF4A
:1096600050E7BDF88040A2053FF54CAF002614F04E
:10967000070709960A960B9627D19FED9B6A9DEDE9
:10968000167ADDED177ADDED156A27EE067A67EEBC
:10969000C67A66EE866AA5F10803012BCDED096A4C
:1096A0008DED0A7ACDED0B7A0CD88D480AAA09A95E
:1096B000FCF766FF8D489EF04BF8014609A838F08C
:1096C0000FFC02E0EB1F022BF4D914F038080C96C3
:1096D0000D960E961CD19FED846A9DED197ADDEDF5
:1096E0001A7ADDED186A27EE067A67EEC67A66EE1C
:1096F000866AA5F10803012BCDED0C6A8DED0D7A7C
:10970000CDED0E7A04D876480DAA0CA9FCF738FFE7
:1097100010961196129614F4E0761CD19FED726AA1
:109720009DED1C7ADDED1D7ADDED1B6A27EE067AD4
:1097300067EEC67A66EE866AA5F10803012BCDEDC9
:10974000106A8DED117ACDED127A04D8644811AA11
:1097500010A9FCF715FF14F4806232D1DFED647AB2
:109760009DED1E0A20EE270ADFED5F7A083D012DF0
:1097700020EE270A8CBF0025012514F4006305BFE5
:10978000DFED5B7ADDED1F0ADFED5A0A60EEA70A16
:1097900004BFDFED557A60EEA70AB7B9B8F1000F44
:1097A00037D1B3FA83F3B2FA82F25B09520901931B
:1097B0000092029510AB0CAA09A94A480BF012FBC3
:1097C000A0E69FED4C0A0025D7E7B8F1000F0FD1B6
:1097D000B3FA83F35B0901210093B2FA82F3CDE976
:1097E00001515B0910AA0CA93E480BF093F889E6D9
:1097F000002E7FF431AF0121B3FA83F3B2FA82F283
:10980000CDE900515B09520910A936480BF018F850
:1098100078E6002E3FF420AFB3FA83F3B2FA82F277
:10982000CDE900575B09520909A92E480BF0F0F861
:1098300068E6B9F1000F0CD10123B4FA84F4CDE944
:1098400001936409B8FA88F300945B0909AA06A990
:10985000CAE7002B7FF400AF0122CDE90032B4FA51
:1098600084F3B8FA88F25B09520909A9CDE7002B05
:109870003FF4F2AEB4FA84F3B8FA88F200975B09C9
:109880005209314617480BF0ABF93BE6CD783D2D38
:1098900028BF3D253D22002114A831F119F92A469F
:1098A00004F10C0114A831F1EBF8DDE91465169C04
:1098B00046EA0503234304D10121094802F03CFD97
:1098C00020E610A81EF0C6FB012210A904480A23B6
:1098D000CDE9126594FBF3F4119402F0B3FC11E6A8
:1098E000402B0020F48600200000C84208750020AC
:1098F000E02E65420000000010B590F855130446B4
:1099000021F0B0FDC3B27C2000FB034090F8510071
:1099100010BD0000F0B544F6E816044680599FEDEE
:109920003F0A8BB03C3038F0BBFA0AAACDED080AEA
:109930008DED091A8DED070A12E9070001AD85E8E2
:10994000070004AB9DED030A83E8070033F0DCFA5F
:1099500004F5FB50294610308DED030A44F6EC1750
:1099600013F0BEFF04F56A5043F670510068615869
:10997000E359A25914F0A0F84FF48051204612F098
:10998000B9FF002841D0A05903689B68984704F5A7
:1099900064551C3500F19802A62128465FF004FAB0
:1099A000A0590368DB689847A72100F19802284670
:1099B0005FF0FAF9A05903681B699847A82100F1E4
:1099C000980228465FF0F0F9E259A921284602F5ED
:1099D000F0725FF0E9F92021204612F08BFFA0B170
:1099E00043F65053E05803681B69984778B144F632
:1099F000EC16AB21A25928469C325FF0D5F9A2594A
:109A0000AC21C43228465FF0CFF90BB0F0BD204640
:109A10000CF038F90028EAD1F7E700BF9F0CB345F6
:109A200010B5044604F5FB5416F0B4F9103416F0E2
:109A300075F9204613F0CAFE2046BDE8104013F029
:109A4000DFBF000030B589B004461B22002101A809
:109A500031F13EF849F2A353ADF8043006238DF8F6
:109A60000630B2F00DFC43F67055CDF80700605992
:109A7000CDF80B10D0F8DC30CDF80F30CC3062F0E0
:109A800031FD0368CDF8133004F57D53303304F510
:109A900064501B68CDF8173063591B22D3F8E030AF
:109AA000CDF81B3001A91C305FF0C8FF09B030BDF4
:109AB0007FB50E464FF6FF710446154612F01AFFA9
:109AC000D8B110220021684631F102F849F2A353BF
:109AD000ADF8003003238DF80230B2F0D1FBCDF8A1
