:020000040800F2
:104000000006002001510008598400085D84000862
:10401000C98400085D8400089584000803510008E5
:10402000035100080351000803510008E912030876
:104030000351000803510008035100080351000810
:104040000351000803510008035100080351000800
:104050000351000803510008DD73030809740308C5
:1040600035740308617403088D7403080D1B03087D
:10407000351B0308611B03088D1B0308B91B0308CC
:10408000E11B03080D1C0308C1190308A1A70208BE
:10409000B1A70208C5A7020803510008B9740308B4
:1040A00003510008035100080351000803510008A0
:1040B0000351000803510008035100083524030888
:1040C000492403086D2403088124030803510008D0
:1040D00003510008035100085D36030871360308D8
:1040E000217503080351000803510008035100081B
:1040F000035100080351000803510008391C03084C
:104100000351000879280308CD7B030803510008F8
:1041100085360308035100080351000803510008C5
:10412000651C03088D1C0308B91C0308E51C030863
:10413000111D03080351000803510008D9A7020804
:10414000E9A70208FDA7020803510008916F0308C0
:10415000391D0308651D0308911D030899360308DE
:1041600003510008035100080351000803510008DF
:1041700003510008035100080351000803510008CF
:104180000351000803510008AD360308C136030887
:1041900003510008035100080351000803510008AF
:1041A000035100080351000803510008035100089F
:1041B000035100080351000803510008035100088F
:1041C000035100080351000803510008035100087F
:1041D000035100080351000803510008035100086F
:1041E00069540008E55A0008AD7E0008CD87000834
:1041F000C993000805E3000811F700080D540108F1
:10420000F1580108656801084D690108F569010860
:1042100039700108C173010871920108A19C01085D
:10422000A9C90108B9CD010849D301082DDD01084C
:1042300061F5010841F701088DFE010841010208FE
:104240004503020809140208E1140208A13E02080D
:104250007942020801650208E5690208D17702087F
:104260008D8C0208ED8D020829900208B594020891
:1042700011A80208E1AA020899AB0208BDAB020826
:10428000FDAB020859AE0208E9B102083DB40208CC
:1042900079B7020839B902083DBC02085DC90208B5
:1042A0001DCB020821CE020831D202080000000016
:1042B00081F0004102E000BF83F0004330B54FEAD7
:1042C00041044FEA430594EA050F08BF90EA020F44
:1042D0001FBF54EA000C55EA020C7FEA645C7FEAD7
:1042E000655C00F0E2804FEA5454D4EB5555B8BFFA
:1042F0006D420CDD2C4480EA020281EA030382EA6B
:10430000000083EA010180EA020281EA0303362DFC
:1043100088BF30BD11F0004F4FEA01314FF4801CCF
:104320004CEA113102D0404261EB410113F0004FE1
:104330004FEA03334CEA133302D0524263EB430398
:1043400094EA050F00F0A780A4F10104D5F1200E36
:104350000DDB02FA0EFC22FA05F2801841F1000191
:1043600003FA0EF2801843FA05F359410EE0A5F165
:1043700020050EF1200E012A03FA0EFC28BF4CF096
:10438000020C43FA05F3C01851EBE37101F000454C
:1043900007D54FF0000EDCF1000C7EEB00006EEB59
:1043A0000101B1F5801F1BD3B1F5001F0CD34908E3
:1043B0005FEA30004FEA3C0C04F101044FEA44523A
:1043C00012F5800F80F09A80BCF1004F08BF5FEAC1
:1043D000500C50F1000041EB045141EA050130BDA1
:1043E0005FEA4C0C404141EB0101013C28BFB1F5B3
:1043F000801FE9D291F0000F04BF01460020B1FAFE
:1044000081F308BF2033A3F10B03B3F120020CDAD0
:104410000C3208DD02F1140CC2F10C0201FA0CF0AE
:1044200021FA02F10CE002F11402D8BFC2F1200C13
:1044300001FA02F120FA0CFCDCBF41EA0C019040C9
:10444000E41AA2BF01EB0451294330BD6FEA040412
:104450001F3C1CDA0C340EDC04F11404C4F12002FD
:1044600020FA04F001FA02F340EA030021FA04F30F
:1044700045EA030130BDC4F10C04C4F1200220FA66
:1044800002F001FA04F340EA0300294630BD21FAA4
:1044900004F0294630BD94F0000F83F4801306BF6A
:1044A00081F480110134013D4EE77FEA645C18BF5E
:1044B0007FEA655C29D094EA050F08BF90EA020FF5
:1044C00005D054EA000C04BF1946104630BD91EAED
:1044D000030F1EBF0021002030BD5FEA545C05D1F0
:1044E0004000494128BF41F0004130BD14F580042F
:1044F0003CBF01F5801130BD01F0004545F0FE41A3
:1045000041F470014FF0000030BD7FEA645C1ABFD7
:10451000194610467FEA655C1CBF0B46024650EA0E
:10452000013406BF52EA033591EA030F41F400213A
:1045300030BD00BF90F0000F04BF0021704730B5C0
:104540004FF4806404F132044FF000054FF0000195
:1045500050E700BF90F0000F04BF0021704730B556
:104560004FF4806404F1320410F0004548BF40422B
:104570004FF000013EE700BF42004FEAE2014FEA80
:1045800031014FEA02701FBF12F07F4393F07F4F5B
:1045900081F06051704732F07F4208BF704793F05E
:1045A0007F4F04BF41F40021704730B54FF4607471
:1045B00001F0004521F000411CE700BF50EA010274
:1045C00008BF704730B54FF000050AE050EA01021D
:1045D00008BF704730B511F0004502D5404261EB8D
:1045E00041014FF4806404F132045FEA915C3FF4CE
:1045F000D8AE4FF003025FEADC0C18BF03325FEA6B
:10460000DC0C18BF033202EBDC02C2F1200300FA1B
:1046100003FC20FA02F001FA03FE40EA0E0021FA40
:1046200002F11444BDE600BF70B54FF0FF0C4CF42E
:10463000E06C1CEA11541DBF1CEA135594EA0C0FE0
:1046400095EA0C0F00F0DEF82C4481EA030621EA1B
:104650004C5123EA4C5350EA013518BF52EA033556
:1046600041F4801143F4801338D0A0FB02CE4FF008
:104670000005E1FB02E506F00042E0FB03E54FF038
:104680000006E1FB03569CF0000F18BF4EF0010E30
:10469000A4F1FF04B6F5007F64F5407404D25FEA2C
:1046A0004E0E6D4146EB060642EAC62141EA5551DF
:1046B0004FEAC52040EA5E504FEACE2EB4F1FD0C21
:1046C00088BFBCF5E06F1ED8BEF1004F08BF5FEA9F
:1046D000500E50F1000041EB045170BD06F0004651
:1046E00046EA010140EA020081EA0301B4EB5C04FE
:1046F000C2BFD4EB0C0541EA045170BD41F48011F6
:104700004FF0000E013C00F3AB8014F1360FDEBF1A
:10471000002001F0004170BDC4F10004203C35DAF6
:104720000C341BDC04F11404C4F1200500FA05F379
:1047300020FA04F001FA05F240EA020001F000421A
:1047400021F0004110EBD37021FA04F642EB060190
:104750005EEA430E08BF20EAD37070BDC4F10C04BA
:10476000C4F1200500FA04F320FA05F001FA04F27E
:1047700040EA020001F0004110EBD37041F100016A
:104780005EEA430E08BF20EAD37070BDC4F1200575
:1047900000FA05F24EEA020E20FA04F301FA05F2DD
:1047A00043EA020321FA04F001F0004121FA04F285
:1047B00020EA020000EBD3705EEA430E08BF20EA55
:1047C000D37070BD94F0000F0FD101F0004640008F
:1047D00041EB010111F4801F08BF013CF7D041EA11
:1047E000060195F0000F18BF704703F00046520015
:1047F00043EB030313F4801F08BF013DF7D043EAE6
:104800000603704794EA0C0F0CEA135518BF95EA9B
:104810000C0F0CD050EA410618BF52EA4306D1D122
:1048200081EA030101F000414FF0000070BD50EA41
:10483000410606BF1046194652EA430619D094EACB
:104840000C0F02D150EA013613D195EA0C0F05D1B5
:1048500052EA03361CBF104619460AD181EA030109
:1048600001F0004141F0FE4141F470014FF00000C1
:1048700070BD41F0FE4141F4780170BD70B54FF05C
:10488000FF0C4CF4E06C1CEA11541DBF1CEA1355DC
:1048900094EA0C0F95EA0C0F00F0A7F8A4EB0504BE
:1048A00081EA030E52EA03354FEA013100F08880B5
:1048B0004FEA03334FF0805545EA131343EA12637E
:1048C0004FEA022245EA111545EA10654FEA002633
:1048D0000EF000419D4208BF964244F1FD0404F5EC
:1048E000407402D25B084FEA3202B61A65EB030548
:1048F0005B084FEA32024FF480104FF4002CB6EB05
:10490000020E75EB030E22BFB61A754640EA0C0084
:104910005B084FEA3202B6EB020E75EB030E22BFC4
:10492000B61A754640EA5C005B084FEA3202B6EB05
:10493000020E75EB030E22BFB61A754640EA9C00C4
:104940005B084FEA3202B6EB020E75EB030E22BF94
:10495000B61A754640EADC0055EA060E18D04FEA52
:10496000051545EA16754FEA06164FEAC30343EAF2
:1049700052734FEAC2025FEA1C1CC0D111F4801FBF
:104980000BD141EA00014FF000004FF0004CB6E7B8
:1049900011F4801F04BF01430020B4F1FD0C88BF57
:1049A000BCF5E06F3FF6AFAEB5EB030C04BFB6EB62
:1049B000020C5FEA500C50F1000041EB045170BD55
:1049C0000EF0004E4EEA113114EB5C04C2BFD4EB82
:1049D0000C0541EA045170BD41F480114FF0000E06
:1049E000013C90E645EA060E8DE60CEA135594EA82
:1049F0000C0F08BF95EA0C0F3FF43BAF94EA0C0F85
:104A00000AD150EA01347FF434AF95EA0C0F7FF4F9
:104A100025AF104619462CE795EA0C0F06D152EA4D
:104A200003353FF4FDAE1046194622E750EA410631
:104A300018BF52EA43067FF4C5AE50EA41047FF442
:104A40000DAF52EA43057FF4EBAE12E74FF0FF3CA7
:104A500006E000BF4FF0010C02E000BF4FF0010C78
:104A60004DF804CD4FEA410C7FEA6C5C4FEA430CF1
:104A700018BF7FEA6C5C1BD001B050EA410C0CBF40
:104A800052EA430C91EA030F02BF90EA020F0020A2
:104A9000704710F1000F91EA030F58BF994208BF09
:104AA00090422CBFD8176FEAE37040F001007047C6
:104AB0004FEA410C7FEA6C5C02D150EA013C07D11D
:104AC0004FEA430C7FEA6C5CD6D152EA033CD3D068
:104AD0005DF8040B704700BF8446104662468C4662
:104AE0001946634600E000BF01B5FFF7B7FF002895
:104AF00048BF10F1000F01BD4DF808EDFFF7F4FFBE
:104B00000CBF012000205DF808FB00BF4DF808ED48
:104B1000FFF7EAFF34BF012000205DF808FB00BF6B
:104B20004DF808EDFFF7E0FF94BF012000205DF88D
:104B300008FB00BF4DF808EDFFF7CEFF94BF012042
:104B400000205DF808FB00BF4DF808EDFFF7C4FF3B
:104B500034BF012000205DF808FB00BF4FEA410C84
:104B60007FEA6C5C02D150EA013C0AD14FEA430C67
:104B70007FEA6C5C02D152EA033C02D14FF00000A4
:104B800070474FF0010070474FEA410212F50012E2
:104B900015D211D56FF47873B3EB625212D94FEA84
:104BA000C12343F0004343EA505311F0004F23FA6E
:104BB00002F018BF404270474FF00000704750EAC3
:104BC000013005D111F0004008BF6FF00040704780
:104BD0004FF00000704700BF4A0011D212F50012DA
:104BE00011D20DD56FF47873B3EB62520ED44FEA45
:104BF000C12343F0004343EA505323FA02F07047C5
:104C00004FF00000704750EA013002D14FF0FF3002
:104C100070474FF0000070474FEA4102B2F1E043A5
:104C200024BFB3F5001CDCF1FE5C0DD901F0004C93
:104C30004FEAC0024CEA5070B2F1004F40EB8300E3
:104C400008BF20F00100704711F0804F21D113F10F
:104C50003872BCBF01F00040704741F480114FEA48
:104C60005252C2F11802C2F1200C10FA0CF320FAD1
:104C700002F018BF40F001004FEAC1234FEAD323EE
:104C800003FA0CFC40EA0C0023FA02F34FEA430358
:104C9000CCE77FEA625307D150EA01331EBF4FF0E1
:104CA000FE4040F44000704701F0004040F0FE40FC
:104CB00040F40000704700BF7BB972B90029BEBF45
:104CC00000204FF0004106E008BF00281CBF6FF035
:104CD00000414FF0FF3000F011BAADF1080C6DE962
:104CE00004CE002909DB002B1ADB00F0A5F8DDF863
:104CF00004E0DDE9022304B07047404261EB41016A
:104D0000002B1BDB00F098F8DDF804E0DDE902235E
:104D100004B0404261EB4101524263EB43037047F0
:104D2000524263EB430300F087F8DDF804E0DDE96D
:104D3000022304B0404261EB41017047524263EBF1
:104D4000430300F079F8DDF804E0DDE9022304B064
:104D5000524263EB4303704753B94AB9002908BF75
:104D600000281CBF4FF0FF314FF0FF3000F0C6B9F4
:104D7000ADF1080C6DE904CE00F05EF8DDF804E05A
:104D8000DDE9022304B07047430803F05533C01A2D
:104D9000830803F0333300F03330184400EB101075
:104DA00000F00F3000EB002000EB0040000E7047D9
:104DB00080EA104080EA102080EA101046F6961330
:104DC00000F00F0043FA00F000F00100704700BF50
:104DD00007EE900AF5EEC07AF1EE10FA01D400F079
:104DE0000BB8F1EE677A08B517EE900A00F004F8F8
:104DF000404261EB410108BDD0B5FFF7BDFB0C4B54
:104E0000002206460F46FFF70FFCFFF7E5FE0446BB
:104E1000FFF790FB074B0022FFF706FC02460B460C
:104E200030463946FFF748FAFFF7D6FE2146D0BD97
:104E30000000F03D0000F0412DE9F047089D0446D8
:104E40008C46002B40F083808A42174647D9B2FA3D
:104E500082F242B1C2F1200024FA00F09140974062
:104E600040EA010C94404FEA1748230CBCFBF8F6CB
:104E70001FFA87FE08FB16C143EA014306FB0EF149
:104E8000994209D9FB1806F1FF3080F01981994247
:104E900040F21681023E3B445B1AA4B2B3FBF8F029
:104EA00008FB103344EA034400FB0EFEA64509D973
:104EB0003C1900F1FF3380F00581A64540F20281E4
:104EC00002383C4440EA0640A4EB0E0400261DB123
:104ED000D4400023C5E900433146BDE8F08702B95C
:104EE000FFDEB2FA82F2002A50D1CB1B4FEA174EF6
:104EF0001FFA87F80126B3FBFEFC210C0EFB1C33C6
:104F000041EA034108FB0CF38B4207D979180CF1F5
:104F1000FF3002D28B4200F2E9808446C91AA3B264
:104F2000B1FBFEF00EFB101143EA014408FB00F850
:104F3000A04507D93C1900F1FF3302D2A04500F289
:104F4000D9801846A4EB080440EA0C40BFE78B4226
:104F500009D9002D00F0B1800026C5E900013046D6
:104F60003146BDE8F087B3FA83F6002E4AD18B4272
:104F700002D3824200F2B880841A61EB030101205F
:104F80008C46002DA8D0C5E9004CA5E7C2F120034E
:104F900020FA03F6974001FA02F04FEA174ED94083
:104FA0003043030CB1FBFEF61FFA87F80EFB161117
:104FB00043EA014306FB08F1994204FA02F409D9D5
:104FC000FB1806F1FF3C80F08D80994240F28A8008
:104FD000023E3B445B1A81B2B3FBFEF00EFB103382
:104FE00041EA034100FB08F38B4207D9791800F12D
:104FF000FF3C73D28B4271D902383944CB1A40EA54
:10500000064678E7C6F1200C03FA06F422FA0CF300
:105010001C4320FA0CF701FA06F34FEA144E21FA6A
:105020000CF11F433B0CB1FBFEF91FFA84F80EFB99
:10503000191143EA014109FB08FA8A4502FA06F20E
:1050400000FA06F308D9611809F1FF3048D28A4501
:1050500046D9A9F102092144A1EB0A01BFB2B1FB73
:10506000FEF00EFB101147EA014700FB08F8B845B7
:1050700007D9E71900F1FF312ED2B8452CD90238F3
:10508000274440EA0940A7EB0807A0FB02894F45E7
:10509000C64649461AD317D05DB1B3EB0E0267EB93
:1050A000010707FA0CFCF2404CEA0202F740C5E99E
:1050B000002700263146BDE8F0872E4628460BE73C
:1050C0000646E9E61846FDE64345E5D2B8EB020E92
:1050D00069EB04010138DFE70846D2E760468DE757
:1050E0008146B9E7664675E730464AE7ACF1020CFF
:1050F000394413E702383C4424E700BF704700BF3F
:1051000002E000F000F8FEE772B63A4880F3088843
:10511000394880F3098839484EF60851CEF200012B
:10512000086040F20000CCF200004EF63471CEF27E
:1051300000010860BFF34F8FBFF36F8F40F2000094
:10514000C0F2F0004EF68851CEF200010860BFF3C5
:105150004F8FBFF36F8F4FF00000E1EE100A4EF655
:105160003C71CEF200010860062080F31488BFF382
:105170006F8F31F0EBFB31F0CBFB30F051FD4FF096
:1051800055301F491B4A91423CBF41F8040BFAE7D6
:105190001C49194A91423CBF41F8040BFAE71A49ED
:1051A0001A4A1B4B9A423EBF51F8040B42F8040BBB
:1051B000F8E700201749184A91423CBF41F8040B18
:1051C000FAE731F0A9FB30F087FD144C144DAC42E6
:1051D00003DA54F8041B8847F9E700F035F9114C5D
:1051E000114DAC4203DA54F8041B8847F9E731F05B
:1051F00091BB0000000600200022002000400008B3
:10520000000000200006002070D1040800220020C9
:10521000C4240020C8240020F4D90020E041000864
:10522000AC420008AC420008AC4200082DE9F04F47
:105230002DED108AC1F80CD0C3689D46BDEC108AD4
:10524000BDE8F08F002383F311882846A047002093
:1052500030F0DAFAFEE730F083F900DFFEE7000015
:1052600010F8012B11F8013B012A28BF9A42F7D010
:10527000D01A7047034613F8012B002AFBD1181AE5
:105280000138704709490B6849F269009AB21B0C52
:1052900000FB0233064A0B60136844F2506198B277
:1052A0001B0C01FB0030106080B27047042200200C
:1052B000002200202DE9F041134E14493368144DAB
:1052C000D86BDFF8508003681B6898470024336868
:1052D000D86B036822461B684146984700276B88B5
:1052E000B9B28B4208D9C1EBC1020D32D2B2284605
:1052F00000F09EF90137F2E70134042C05F10405B2
:10530000E5D1BDE8F08100BFE8240020F0BF03082C
:10531000C824002008C003082DE9F04782B000AF80
:10532000FFF7B0FF414D00F0030005EB8005FFF7EC
:10533000A9FF6C88B0FBF4F303FB1404FFF7A2FF92
:10534000A4B200F01F036888E2188242C4BF031BA6
:10535000DBB2E84623B90837C546BD46BDE8F0874D
:1053600003F1070929F00702ADEB020D6E4600219B
:10537000621892B2C2EBC2020D3272540131CAB24B
:105380009342F5D87B60FFF77DFF10F0010F7B683B
:1053900022D032462146284600F0E0F840B9244A9F
:1053A0007B6812682349D06B026815682246A847BB
:1053B000214B1A6842F2107101321A60B2FBF1F30C
:1053C00001FB1323002BC6D1194B1C491B68D86B5A
:1053D00003681B689847BEE729F00709EA46ADEB6A
:1053E000090D2246694628467B6000F07DF8E946B3
:1053F0007B6840B90E4A12491268D06B0268156882
:105400002246A8477B687B601A464946304634F0FE
:10541000A5FD40B1064A7B6812680A49D06B026854
:1054200015682246A847D546C2E700BFC824002019
:10543000E824002018C00308D824002082C00308F4
:105440003DC0030861C0030838B5054B1C682368DC
:105450000A461D68034B01462046A847002038BD78
:10546000E8240020DC24002010B500F02BFB0E4CBB
:105470000E4B00211860204600F020F80321201D6B
:1054800000F01CF8012104F1080000F017F80221D7
:1054900004F10C0000F012F8BDE81040044A054980
:1054A000054800F0EBB800BFC8240020E824002025
:1054B00019530008B5520008DC24002030B5002341
:1054C000084A0170438014788C4204BF4488958850
:1054D00003F1010304BF641944800F2B02F106029B
:1054E000F1D130BD8CC003082DE9F84F194EDFF81B
:1054F000689007468A461C4606F15A0831783B7880
:10550000994204D1B588954209D8521B92B2063609
:10551000B045F3D1B4FA84F04009BDE8F88F52FAEF
:1055200084F1A942E3B2D8BF1D46D9F80030986B88
:105530007388C8BFAD1A1A440368C8BFEDB2D3F868
:1055400008B092B22B465146D847641BE2D0AA4419
:105550000022DCE78CC00308E82400202DE9F84F86
:10556000194EDFF86890074692461C4606F15A0825
:1055700032783B789A4204D1B5888D4209D8491BCC
:1055800089B20636B045F3D1B4FA84F04009BDE8DB
:10559000F88F51FA84F2AA42E3B2D8BF1D46D9F877
:1055A0000030986B7388C8BF6D1A19440368C8BF70
:1055B000EDB2D3F80CB052462B4689B2D847641BE3
:1055C000E2D0AA440021DCE78CC00308E8240020D4
:1055D00007B501230A460DF10701FFF785FF9DF886
:1055E000070003B05DF804FB07B502230A460DF17E
:1055F0000601FFF779FFBDF8060003B05DF804FB74
:1056000007B504230A460DEB0301FFF76DFF019870
:1056100003B05DF804FB000007B504230A460DEB58
:105620000301FFF761FF9DED010A03B05DF804FB84
:1056300007B501238DF807200DF10702FFF78EFF54
:1056400003B05DF804FB000007B50223ADF80620A7
:105650000DF10602FFF782FF03B05DF804FB0000C6
:1056600007B5042301920DEB0302FFF777FF03B0A8
:105670005DF804FB436818478368184710B5024C6F
:105680008260C0E9004110BDF0C0030830B50B4D89
:105690000B4685B06968041D286801AA03C2082B5F
:1056A000297A11709BBF04AA9B18002013F80C3CA8
:1056B00098BF54F8230005B030BD00BFB0BF030849
:1056C0000CB430B585B008AC0A46074954F8043B21
:1056D0000D6800940146286D039412F063F805B03C
:1056E000BDE8304002B07047E824002013B5054CF7
:1056F0000093246813460A460146206D12F052F8C2
:1057000002B010BDE82400202DE9F34113460192B8
:105710000E460A46002107460846FFF7E7FF041E2B
:10572000019B05DC4FF0FF34204602B0BDE8F0815C
:1057300004F1010801214046019330F0F5FD0546D2
:105740000028EFD0019B32464146FFF7CFFF3D6076
:10575000EAE700000EB403B503AA52F8041B019255
:10576000FFF7D2FF02B05DF804EB03B07047000012
:1057700013B50446019116F0DBFA019A034821465D
:1057800002B0BDE810402BF031BE00BF58D1002060
:105790000FB407B5054B04A91B6851F8040B019120
:1057A000984703B05DF804EB04B07047082200206E
:1057B0000FB44FF0FF3004B0704700007047000096
:1057C00000207047704700007047000070470000DD
:1057D00010B5064B036044F238130446C05810B1AC
:1057E00003685B689847204610BD00BF44C30308A8
:1057F000704700007047000070470000084630F016
:105800003DBC0000084630F0F3BC000073B51E46F6
:105810000C461546011D102201A811F043FF324627
:105820002946204630F080FC044601A811F05CFFB8
:10583000204602B070BD000013B50D220C46011DBC
:1058400001A811F02FFF204630F030FC044601A8DB
:1058500011F04AFF204602B010BD000030F00CBC31
:10586000084630F003BC0000084630F0DDBB000005
:1058700038B5084B036090F8A830044643B9D0F817
:10588000A4502DB1284611F0F1FF284602F0D6FEB3
:10589000204638BD10C2030810B5064B044640F838
:1058A0007C3B11F0E3FF04F1680011F0DFFF2046BC
:1058B00010BD00BF409504081D4A1E4B10B5826004
:1058C0001D4AC2601D4A02611D4A42611D4A826131
:1058D0001D4AC2611D4A02621D4A42621D4A82621D
:1058E0001D4AC262002202631C4A036042631C4BD1
:1058F0001C4A4360C0E90E231B4B03641B4B4364EB
:105900001B4B83641B4BC3641B4B03651B4B4365E1
:105910001B4B83651B4BC3651B4B1A685B68026698
:105920000446436602F0EAFD184B2360204610BD92
:10593000C027002008C10308F0280020202A0020EA
:10594000502B0020802C0020B02D0020B42D0020F2
:10595000B82D0020A46F0020A86F0020A8700020A0
:1059600090260020602E0020F82400200025002032
:1059700090250020B06F0020BC2D00200C220020BC
:105980006C25002010220020F024002050C10308C4
:1059900008B5202383F31188074B1B689A68596B5D
:1059A0008A4201D0824200D2986058632FF0CEFD27
:1059B000002383F3118808BD6825002008B5364E02
:1059C000364D1C4616F0B4F9354BB2691A60B42056
:1059D0002C602FF01FFF16F0F9FF30F05BFE314B0B
:1059E0001C6800212046FFF751FE03684FF4E131A7
:1059F0005B6A9847606B03681B689847E06C0368B4
:105A00001B6898470A20FFF7C3FF30F06FFF40B1D3
:105A10002548132130F076FF23494C22881834F0B2
:105A2000ABFA224B286801229A7303681B689847D7
:105A30001F4B1B6823B1DB6FDB0701D530F022FF62
:105A4000206D03681B68984730B106F0BFF9F92252
:105A50004FF4006106F0A6F9144814F037FEE06C2C
:105A600003681B6B9847B369124A9A61B4202FF000
:105A7000D1FE0E4E286803685B689847304614F0E4
:105A8000D7FD20B9E06C036832219B689847304607
:105A900014F01CFEEEE700BF50CF00208825002048
:105AA00068250020E8240020C02D0020B06F0020D1
:105AB000B8760020F8C00308014B1868704700BF93
:105AC0006825002010B5054C2368DB0704D4044882
:105AD000FFF7F2FE01232360014810BDEC240020F3
:105AE000447100202DE9F8436C4D6D4C6D4E002142
:105AF000284615F0F5FA28466B4D2246314632F01D
:105B00006DF80121284615F0EBFA2846674D22462C
:105B1000314632F063F80221284615F0E1FA2846B2
:105B2000634D2246314632F059F80321284615F0DC
:105B3000D7FA28465F4D2246314632F04FF804210D
:105B4000284615F0CDFA28465B4D2246314632F004
:105B500045F80521284615F0C3FA31462246284665
:105B600032F03CF85548564D12F0E0FC554812F022
:105B7000DDFC554812F0DAFC544813F0C3F9544BDD
:105B8000544A1A602846544B40F8843B14F024FFD2
:105B9000224652492846524D32F020F8514B2B6094
:105BA00044F208030027504AEA5039462F714FF457
:105BB00080724E4834F008FA4D4814F00DFF44F25C
:105BC0003813FF22EF5044F23C134A49EA54284666
:105BD0002246494D32F002F8484817F0E9FA2846C3
:105BE000474B40F8043B3946242234F0EDF905F1E7
:105BF000340014F0F1FE4FF0FF3322464149EB64CC
:105C00002846414D31F0EAFF30232B713F4B2B608A
:105C10004FF001094FF4C873C5F88830C5F8A47077
:105C200085F8A890142002F003FD6C21804611F045
:105C30000BFEC5F8A48085F8A87085F8E890284682
:105C4000334D3449224631F0C9FF284614F0D8FCC0
:105C5000314922462846314D31F0C0FF304B314AA0
:105C600083F89C7028461A602F4B40F8043B14F0D0
:105C7000B3FE28462D4D2E49224631F0AFFF0621B6
:105C8000284615F02DFA31462246284631F0A6FF67
:105C900029462848BDE8F84304F062BE902600205B
:105CA000B476002099580008C0270020F028002072
:105CB000202A0020502B0020802C0020B02D002016
:105CC000A8700020B42D0020B82D0020A46F002063
:105CD000A86F002008910408F88D0408CD5700082B
:105CE000602E002044C30308000840006C6E0020B2
:105CF0006C6F0020D157000800250020F8240020F8
:105D0000C08F0408F15700089025002010C2030836
:105D1000B06F002071580008F55700086C2500206E
:105D2000BC2D00205C9704082CC103088073002060
:105D3000F9570008AC710020002070479FED010A60
:105D4000704700BF0000C842704700007047000065
:105D5000704700000183428370470000038B0B8073
:105D6000438B138001207047028B438B07EE901A00
:105D700007EE102AF8EE677AB8EEC77A9B1A77EE2C
:105D8000C77A07EE103A77EEA77AB8EEC77A87EEB1
:105D9000870AF7EE007A30EE670A7047037F1941F1
:105DA000A0F8F6107047000080F8B81070470000A7
:105DB00090F8B80070470000B0F8C20070470000CB
:105DC000037F1941B0F8C4301943A0F8C4107047DC
:105DD000012380F8B9307047002380F8B93070474C
:105DE0000F299ABF103130F81100002070470000D1
:105DF000102A28BF1022F8B505460E461746002483
:105E0000E1B28F4207D92B6828461B6C984726F8C9
:105E100014000134F4E7F8BD70470000C3680BB10B
:105E20002FF0F6BD7047000013B52023044683F31E
:105E3000118890F88D3090F88C20013393420CDA61
:105E4000D4F888109030CDE90001FFF7E7FFDDE9D5
:105E50000001074A23462FF09BFDA0684FF4005134
:105E60002FF000F9002383F3118802B010BD00BFAA
:105E7000295E000810B5202383F31188D0F8D020C4
:105E80000024C0F8DC4022B1D0F8CC1010462FF02E
:105E9000E9F884F3118810BD08B5202383F3118835
:105EA000054B01224FF4806183F828202FF0DAF8A7
:105EB000002383F3118808BD88760020102A2DE97D
:105EC000F84328BF1022DFF8689005460E461446B6
:105ED0004FF00008287F844223465FFA88F728BFE6
:105EE0000346BB4214D93946484604F0B9FD26F8AA
:105EF000170095F8E830032B07D1B5F8BE30FB400A
:105F0000DB0744BFC00026F8170008F10108E1E7ED
:105F100084420AD9221AD2B205F1440106EB4000AC
:105F20005200BDE8F84334F027B8BDE8F88300BF5D
:105F3000AC71002070B52A4C02F00EFB2268A579E6
:105F400022F00F0302F00F021B6923FA02F202F0A3
:105F5000010315B1A27B9A4219D1012293B14FF4EA
:105F600000736381A273202383F311881D48FFF718
:105F700055FF20694FF480612FF074F8002383F3FC
:105F8000118803E0A271A0802381A37370BDA18951
:105F9000A2884E08821A16FA82F2B2FBF1F2D2B24D
:105FA0000A2A164628BF0A2653B94FF0FF31A940E6
:105FB0004FF0FF35B54021EA0501258929432181AC
:105FC000092AA6710AD92289A080C2F30902628136
:105FD000002222810122A271A373C4E7A373D5E733
:105FE000887600209C760020642A30B50D461DD9A5
:105FF000E1B11B4991F85830023B022B16D991F8B8
:106000004431023B022B11D915FB02F4A3B280F8F4
:106010008C50B3F5487F11D290F88C400134E4B233
:1060200080F88C4014FB02F4A3B2F2E74FF47A73C9
:10603000C0F88830002380F88C3030BDB3F57A6F1B
:1060400008D94FF47A64B4FBF2F111FB02F380F843
:106050008C109BB2034AB2FBF3F3C0F88830ECE734
:10606000B074002040420F000F2938B505460C4699
:1060700019D8037F8B420FD90C4804F0F1FC95F836
:10608000E830032B07D1B5F8BE1021FA04F4E3077A
:1060900001D5C00080B238BDCC1AE4B200EB440494
:1060A000B4F84400F7E70020F5E700BFAC7100202A
:1060B00013B52023044683F31188036E1A6813680E
:1060C00023F01F031360036E19680A68D207FCD41B
:1060D000597A5A683D238B40136094F878305BB14D
:1060E0000B4B186940B14FF480612EF0BBFF0023C9
:1060F00083F3118802B010BD04F188000190FFF70E
:106100008DFE044A0198234632212FF041FCEEE730
:1061100088760020755E000801444B78FF2B1DBF78
:10612000B0F85E00D84000F0010000207047000089
:10613000024B186800B1007D704700BFB8760020A0
:10614000F8B506460D46FFF7F3FF18B10E4829468D
:1061500004F0FAFC0D4C0227B4F85C30B6F8BC2011
:1061600013420AD14BB194F86E30A168B1FBF5F13E
:10617000E16013B1E06B2DF01FFD012F04F1EC0481
:1061800000D1F8BD0127E7E7AC710020B074002012
:106190002DE9F04F584B87B0D3F800800546D8F86A
:1061A0004C00036802AFC7E902125B6B9847D7E95E
:1061B0000212824648B9514BD8F8500011F012FB38
:1061C00001201437BD46BDE8F08F95F81C9009F109
:1061D0000F0000F4FC70ADEB000D09F1080302AEF6
:1061E0007B60304609F107030024013B00F8014BB6
:1061F000FBD2C7E90221FFF79BFFD7E9022178B163
:10620000334606EB09049C4204D095F8E80003F8F5
:10621000010BF8E7B9F1000F02D095F8E8308BBB1D
:106220004FF0000EDFF8E0C002249CF858B0BBF13C
:10623000000F1AD00CF10103FB600CF105033B6069
:10624000F86810F8013BF860FF2B0AD04B44DBB232
:10625000BB60D7E90130834282BF0346D64606F8C9
:1062600003B03B68F8689842EAD1012C0CF1EC0CC1
:106270000AD1D8F85000BEF1000F07D1204B11F021
:10628000B1FA9DE7D646CDE70124CEE71D4BC7E91D
:10629000022111F0A7FAD7E9022100202B7F03F198
:1062A000080C644518D2331916F804C013F8013CE1
:1062B0009C450CD073B10130C0B2009001942846C7
:1062C000C7E9022111F074F9D7E90221204601340F
:1062D000E4B2E3E72046FAE70733DBB2F35C002BD6
:1062E0003FF46EAF01305FFA8CF4C0B200900194BD
:1062F000284611F05DF963E7E824002054C1030843
:1063000068C1030874C10308B074002008B50123F4
:1063100080F8BA30FFF70CFF20B1BDE80840024812
:1063200004F0A4BB08BD00BFAC71002007B501910B
:10633000FFF7FEFE019928B1044803B05DF804EBB5
:1063400004F0D8BB03B05DF804FB00BFAC710020C3
:1063500008B5FFF7EDFE20B1BDE80840014804F0A4
:106360006BBB08BDAC71002008B5FFF7E1FE20B1A2
:10637000BDE80840014804F069BB08BDAC710020CD
:1063800013B50C460192FFF7D3FE019A30B10448D1
:10639000A1B202B0BDE8104004F0F4BB02B010BDE1
:1063A000AC7100202DE9F3473A4C3B4F05460226DD
:1063B0004FF00108374B84F85380E31A9B107B435E
:1063C000DBB208FA03F3C4F8C730A4F104094FF0B4
:1063D000FF0A19F8010B2B7F1844C0B210F0D8FF48
:1063E00008B109F801AC19F8013CFF2B0ED06A7F07
:1063F00001339342B8BF13466B7719F8013CB4F8E8
:10640000572008FA03F31343A4F85730A145E0D10D
:10641000B4F8573033B1D4F83700E11C2DF0AAFBA3
:1064200084F869800023012EC4F88F3004F1EC0455
:106430002DD1FFF77DFE20B1184804F0A3FE0823FC
:106440002B7705F1D0002EF0DDFE297F01240023FB
:1064500004FA01F1C5F89C3001392B6881F47F41C1
:1064600028465B68322281F0FF0198470C4B0D4AA9
:106470001B680192D86C0095036802AA12E9060015
:106480005B6A984785F8E94002B0BDE8F0870126CD
:1064900090E700BFB5740020F3D88AA0AC7100204B
:1064A000E8240020517600080F2930B519D8037F61
:1064B0008B4216D8C91A0E48C9B2002345788D42BE
:1064C000DCB210D00133042B00F10100F6D10948F1
:1064D000002310F8015BA942DCB207D00133042B82
:1064E000F7D1002001E00248147030BD0248FBE7FC
:1064F000B07400209D7500209C75002007B5027FB8
:106500008A4205D90A4804F0E9FA03B05DF804FBB1
:106510000DF10702FFF7C8FF38B1C36B5A689B68DB
:106520001068B0FBF3F080B2EFE73220EDE700BF78
:10653000AC71002037B50DF1070204460D46FFF798
:10654000B3FF60B1217F0123691A03FA01F1236CC3
:106550000B432364B0F85E301943A0F85E1003B01B
:1065600030BD000073B50DF1070205460E46FFF77A
:106570009BFF044698B19DF80710C06B2DF038FBC7
:10658000297F2B6C761A012101FA06F623EA06030D
:106590002B64B4F85E3023EA0606A4F85E6002B00D
:1065A00070BD00002DE9F043994685B090F8E930C0
:1065B000BDF830808DF80720074603F0FF0623B9A9
:1065C0000026304605B0BDE8F0839DF80750002D49
:1065D000F6D000230DF10B02C9B28DF80B30FFF796
:1065E00063FF04460028EBD040F60C0200F1A40142
:1065F00003A811F057F894F89C3094F858209D4265
:1066000001D84A451DD0093A012A48D9B9F1090FE4
:1066100008D0B9F10A0F18D0002684F89C6084F8DD
:106620009E600EE094F89C309D4294BF04F19C0360
:106630000DF107031B78DBB284F89C30092384F842
:106640009E3003A811F050F8BBE794F89C30023557
:106650009D42D8BF94F89C504FF00A03D8BFEDB2CA
:10666000EDB284F89E30002384F89C5084F89D306D
:10667000601C012510F8011B3A7F0A4428FA02F237
:10668000D20742BF94F89D1005FA03F20A4303F1C2
:10669000010348BF84F89D20042BEBD1D1E70026ED
:1066A000CFE7000037B590F8E9300546DBB10DF1D2
:1066B0000302C9B2FFF7F8FE0446A0B100F1A4013D
:1066C00040F6141201A810F0EDFF94F89C303BB195
:1066D00094F85830093B012B02D894F8A03023B924
:1066E00001A811F001F803B030BD012384F89F30F8
:1066F00085F8F830F4E7000010B508460C4610F0B5
:1067000095FF28B9A4F1090001288CBF00200120C1
:1067100010BD00002DE9F8430C4691F85810FFF722
:10672000EBFF014600286AD1626F94F8585093B28B
:10673000B3F5C87FD4E902C626D8324B3248032DC0
:1067400008BF0346E06BA3604768DFF8B8E0436921
:106750003F68B3FBF7F3013BB3F5803FD4F8088003
:1067600006D247683F6803FB07734769BB420DD0F9
:10677000F0450BD94FEA5803A360476843693F6867
:10678000B3FBF7F3013BE7E71F4BDBE7023D012DCE
:106790001FD80022E260234604F120074FF0100EBC
:1067A0004FF001095D69022D17D1C3F81490012142
:1067B0000833BB42F6D1C44594F86E3013D19642EB
:1067C00011D19BB181B9E168E06BBDE8F8432DF0D0
:1067D000F3B992B2B8FBF2F2DCE7202D04BFC3F8A4
:1067E00014E00121E4E70BB12DF0D6F9E06B04F1E0
:1067F00008012DF0BFF9012384F86E30E3E7BDE80E
:10680000F88300BF40420F0000127A002DE9F843E0
:10681000044688461646FFF78BFCD8B118F0FF07F0
:1068200018D02248032210F8013B3B4008D0B4F8AE
:10683000BE10322E8CBF0B4321EA0303A4F8BE30F6
:10684000531E13F0FF02EED1B4F8BE1017483246C3
:1068500004F02EF9217F38FA01F822D0144D05F505
:10686000EC79B6F5C87F1ED995F85830042B0CBFCB
:1068700037464FF4C877B5F85C3013EA080F0DD0EF
:10688000294620466F67FFF745FF322F81BFB4F8D6
:10689000BC30B5F85C201343A4F8BC30EC354D4552
:1068A000DFD1BDE8F8833746E5E700BFAC710020D3
:1068B000B07400202DE9F0410D460646174686B01B
:1068C0000131681D0024FF2211F8013BFF2B09D084
:1068D00096F81CC06344DBB29A4228BF1A469C4219
:1068E00038BF1C468842EFD1531CA242059312D1F7
:1068F00010F078F995F858100446304610F04CFE28
:10690000059B0E4ACDE90007032120460FF0D4FA7B
:1069100006B0BDE8F08110F065F995F85810804692
:10692000304610F039FE0134CDE90107059B044AD9
:106930000094032140460FF0BFFAE9E77CC1030849
:106940008CC103082DE9F04F98468BB04B6EBDF813
:1069500054909DF858A0DDF85CB007460C461646EA
:10696000CBB9634B0690CDE90730624B09931420F5
:1069700001F05EFE0AAA054612E9030001AB83E8B6
:106980000300079B009394F84110069BFF222846C2
:1069900016F02AF86566606E16F098F9A16E69B176
:1069A000B4F86C204A4523D0534B1B68186D03681C
:1069B0001D6D0023A8470023A4F86C304E4B1B68C4
:1069C000186D03680022DB6C494698470546A066AF
:1069D00060B9606E012116F06DF83846474A2146CD
:1069E000FFF768FF28460BB0BDE8F08FA4F86C9065
:1069F00094F86E30C4E920BB2BB1E06B2DF0CCF8DD
:106A0000002384F86E30E36B08FB06F6D3ED057ABD
:106A100007EE106AF8EE677AB8EE477A87EE870AD3
:106A2000DFED377A30EE270A31F0B2F9E26B411E22
:106A30005369B3FBF1F5AE4211D2BAF1000F08BFB2
:106A40000146B1F5004F10D9606E012116F032F801
:106A500038462C4A2146FFF72DFF0020C3E7F0D926
:106A6000BAF1000FEDD0811EEBE7B3FBF1F3C4E9FF
:106A7000023803EB5603B3FBF6F323679DF850305F
:106A800000218B424FF48070C4E90D1015BF012620
:106A9000022610252025234604F12000596921B142
:106AA000202901D0102920D15D6108338342F5D11E
:106AB00004F1080110462DF05DF8012384F86E30D2
:106AC0000025E9B220460591FFF726FB059918B18C
:106AD000E06B00222DF07CF80135042DF1D1606EC1
:106AE000012115F0E7FF01207DE75E61DDE700BFD2
:106AF000616F0008A56F0008E8240020A4C1030806
:106B00000AD7233CC2C103082DE9F04F077F3B4160
:106B1000C91B9FB2324B93F858500446C9B20120AA
:106B2000042D85B0914600FA01F01D4603D0B3F85C
:106B30005C60064208D195F84431042B2FD0B5F89B
:106B4000483103422BD0274B5D1C002015F8016B08
:106B50008E4208BF83F8D6000130C0B20428F5D1B8
:106B60001F4EE36006F5EC7B4FF00A0A4FF0000879
:106B7000B6F85C301F421DD04FF49873CDE9008306
:106B8000CDE9028A0A234A4631462046FFF7DAFE5B
:106B9000054678B923682046DB6F984706E0E5682C
:106BA00025B123682046DB6F98470025284605B0AD
:106BB000BDE8F08FEC36B345DAD10B4DAB692361FC
:106BC0005B6B6361FF202EF025FEE168074B084AEE
:106BD000B2FBF9F2A1F8D420AA691A610125E5E710
:106BE000B07400209C75002050CF002088760020D3
:106BF00040420F00F8B500F1D005044628462EF0BB
:106C000063FB00285AD001F0B5FC0F46D4E93212DC
:106C10000646974208BF8E4207D2294B1B68D86CA4
:106C20000368891B9B6889B29847202383F31188E6
:106C3000244B254A1869254F022116464FF0010CB6
:106C400090B992F85830023B012B0DD8931B9B1042
:106C500094F8E4E07B43DBB22EFA03F3DB0742BF98
:106C6000D36B9B69C3F814C0012902F1EC0223D154
:106C7000002383F31188E3685BB9114B1B68D86C60
:106C800003681B6C984720B1A0684FF400612EF098
:106C900013FA01F06FFCB4F8E660002716F1320336
:106CA00047F10002181842EB0101C4E932012846FD
:106CB000BDE8F8402EF012BB0121C1E7F8BD00BFCE
:106CC000E824002088760020B0740020F3D88AA041
:106CD0002DE9F04F817F85B08346002900F0B58013
:106CE00001228A40013A016C594CDFF874A192B23A
:106CF00002EA0103574A02931268106D0268D269D2
:106D000090474FF000080190C146DBF80C20002AA4
:106D100040F0818094F86E20002A7CD04C4BE61A1B
:106D20004D4BB6105E43F6B2012707FA06F6F6B2EF
:106D3000791EC9B220460391FFF7EEF9002867D00B
:106D4000029B14F807C023FA0CF2D30760D5019B0D
:106D500003990BEB4C02012BB2F8445009D19BF87C
:106D60001C00BBF8F4206044C24012F0010F08BFC1
:106D7000002594F85800042821D1BBF818E0E06BF6
:106D8000AE451AD2BBF81AC08268AC4506D9A5EB4D
:106D90000E055543ACEB0E02B5FBF2F203922CF05C
:106DA00017FF039A154694F85800821E012A27D827
:106DB000A94547D346EA08082AE00022EEE703285F
:106DC00009D1A268B2FBFAF26A43E06BD2082CF058
:106DD000FFFEED08E7E7042807D8A268E06BB2FBE6
:106DE000FAF26A432CF0F4FEDDE710F01FFC20B944
:106DF00094F85820093A012AD5D8D4F88050D2E71F
:106E0000A0F10902012AD3D910F010FC0028CFD13B
:106E10000137052F8CD1114AEC3494427FF475AFC1
:106E200040F6FC02914528BF9146ABF8E6908BF8FE
:106E3000E480B8F1000F08D0584605B0BDE8F04F27
:106E4000FFF7D8BE1FFA85F9B4E705B0BDE8F08FAB
:106E5000B0740020E8240020F3D88AA088760020AF
:106E600040420F000F2970B505460C4616463BD828
:106E700001F1100320F81320FFF75AF968B195F8D3
:106E8000E830032B2ED1B5F8BE30E340DB0729D51F
:106E9000F2081648214603F0F7FD297F8C4223D3E0
:106EA00095F8EA30012B06D1B5F8F430E34013F041
:106EB000010F08BF0026641AE4B205EB4403A3F8EF
:106EC00044606B7FA3420FD9A97F95F8BA30013493
:106ED0008C42B8BF0C46AC7733B92846BDE8704049
:106EE000FFF7F6BE3246D4E770BD00BFAC7100209C
:106EF000002208B580F8BA20FFF7EAFEFFF718F97C
:106F000020B1BDE80840024803F0B4BD08BD00BF91
:106F1000AC7100202DE9F8430F4CDFF840900D468E
:106F200002264FF02008636EAB420DD1276E5FB989
:106F300088F311880A2194F8410023464A462AF032
:106F40005FFF206687F31188012E04F1EC0401D164
:106F5000BDE8F8830126E6E7B0740020B1600008C0
:106F6000FFF7D8BF2DE9F0410D4C0D4602264FF03A
:106F700020080027636EAB4209D1236E3BB188F332
:106F80001188206E2AF092FF276687F31188012E60
:106F900004F1EC0401D1BDE8F0810126EAE700BF6D
:106FA000B0740020FFF7DEBF480080B20AB140F0A5
:106FB0000100021282EA1012424092B20BB1D24397
:106FC00092B202F00F0242EA001080B27047000055
:106FD000F0B5BDF814000E25C0EBC00C45430020F1
:106FE0000860960001EB8204102013F4004F00F1BA
:106FF000FF300CBF67462F465B0080B227609BB214
:1070000034440028F1D102EB021302EBC20241F832
:10701000230041F83200F0BD38B50B6E15461A68F2
:10702000CB6B9B690C464C3393602946A06E2FF0C6
:1070300089FB236EA26E1B68DA60236E1B68AD08A5
:107040005D60236E1B6807225A61236E94F842101C
:107050001A680B4B43EA41631360E36B9B6940F290
:107060000D329A640123C4F8DC30236E1A68136869
:1070700043F00103136001F07DFAE06738BD00BF03
:10708000545403002DE9F74F584B1B6905460C4635
:107090001646002B40F0A680D1F8DC3023B1D1F8A1
:1070A000DC30042B40F09E80606E15F00FFE01F086
:1070B0004DFAD4F880301844B04206D9606E0121F0
:1070C00003B0BDE8F04F15F0F5BCAB68C4F8D030A4
:1070D000474B1E68306D0368DB699847336D814606
:1070E0004FF49872A06E93F89CA0002132F06CFFD0
:1070F0000126711EC9B22046FFF70EF800285FD0A6
:10710000A75D05EB4703B9F1010FB3F8440006D1C1
:107110002A7FB5F8F4303A44D340DB0750D5002835
:107120004ED04FF4FA624FF47A7100B205F028FCA9
:1071300081B2A1F57A71490040F2CF739942A8BF9C
:10714000194601232A7F03FA07F7B5F8C030134127
:10715000BAB2134289B20ED0B1F57A7F06D2C1F528
:10716000FA6189B22B79194489B206E038D0A1F5C9
:107170007A7189B2F6E70029F4D1B5F8F68094F86F
:10718000E830BAF1000F08BF002118EA070B14BF5E
:10719000012200222846FFF707FF0346BBF1000F3C
:1071A00003D028EA0707A5F8F670A76EB4F8702098
:1071B0000092B1000439042239442846FFF708FF41
:1071C0000136052E95D1D4F8CC002DF035FF4FF4C3
:1071D00098722146284603B0BDE8F04FFFF71CBF68
:1071E0000021CAE703B0BDE8F08F00BF8876002019
:1071F000E82400202DE9F041C36804460F46A3BBF4
:10720000D0F8B03063B9D0F8A40010F06FFB0B28B1
:1072100006D9D4F8A4000C2204F1AC0110F086FCCD
:107220001D4D002605F5EC7895F8580010F0FEF994
:10723000E8B194F8B430FF2B04D0B5F85C20DA4004
:10724000D20714D5D4F8B0208AB194F8AC202946DE
:10725000204612F02FF90646EC35A845E4D126B1B8
:10726000D4F8B030013BC4F8B030BDE8F08195F8F7
:10727000580010F0DBF90028EED001F067F9EB6F51
:10728000C01AD5F8803032339842E5D93A462946BB
:107290002046FFF7F7FEDFE7B074002038B50C4654
:1072A000202383F311880B6E1A68136823F01F03E1
:1072B00013600A6E11680B6813F00103FBD1507A5A
:1072C00051683D2282400A601846611C11F8012B6A
:1072D000FF2A06D0E26B926903F10C0502EB8502EE
:1072E00050600133042BF1D104F18800FEF796FDC4
:1072F000D4F8CC002DF096FE0023C4F8DC3083F3E4
:10730000118838BD2DE9F04100261D4C07460D4679
:10731000B046D4F8503133B39B7C23B301F016F957
:10732000A842D4F86811D4F870310DD21944091A62
:10733000281A814238BF0146D4F8B8012DF00CFF5D
:1073400028B109E00126E4E7421A934210D804F17B
:10735000EC013846FFF7A2FFD4F85001C4F8BC8115
:10736000012115F0A7FBEC3C002EEBD0BDE8F0812D
:107370001944091AD4F8B8012DF0EEFEE0E700BF79
:10738000B074002002EBC20030B58000039C0C609A
:1073900000250D50900001EB8201082213F0010F2F
:1073A00002F1FF320CBF2546002512F0FF020D60EE
:1073B0004FEA53030144F1D130BD000030B504461B
:1073C00085B04FF4806003912DF036FEE268039B98
:1073D000156F92F8D600916E0A226A43009201EB73
:1073E000800104222046FFF7CDFFE368012283F8E5
:1073F0007820E168A0222046FFF70EFE4FF4FA61E4
:107400004FF480602DF0CCFEE3680022C0F38020B2
:1074100083F8782005B030BDF8B5C46805460E463F
:107420001746CCB1606E15F051FCEB684FF49872C2
:10743000986E002132F0C8FD3744BE420ED016F8D7
:10744000011B2846FFF7BAFF04460028F5D1EB6878
:107450000121586E15F02EFB2046F8BD064B1B6827
:10746000D86C036819219B689847EB680121586E16
:1074700015F020FB0124EFE7E824002073B51B4C36
:107480000026236984F828600D460193202282F3A8
:10749000118804F11400FEF7C1FC019B144A42F26A
:1074A000107104F114002EF073FA86F311884FF472
:1074B00080602DF035FE10F4806F23460FD094F8D5
:1074C000282062B9638940F201221A40B2F5007F98
:1074D00003BF5B102B700120002002B070BD987BB1
:1074E0000028FAD01B8943F40073ECE7887600206B
:1074F000995E00082DE9F04F85B0C36802910746F8
:10750000924623B90024204605B0BDE8F08F93F8D9
:10751000D620019312324FF0010853F82260284D13
:1075200030462FF0D1F806F00F0208FA02F826F0E4
:107530000F0B20224146814658462AF0F3FC0024D6
:107540004FF480602C622DF077FD019BAC7193F8B5
:10755000D620AC601232314653F822302B60FB68E3
:10756000184AB3F8D430AB81174BAC739B692B61CD
:10757000164B1B68019301980323006C15F09AFECB
:107580000028BFD0234653459CB209D0029A0393EA
:10759000D1183846FFF772FF039B01330028F2D160
:1075A000019800231A463146006C15F083FE002333
:1075B0004A46414658462B612AF0B4FCA3E700BF77
:1075C00088760020355F000850CF0020E824002096
:1075D00038B50446FEF7ACFD20B10A4803F024FAA2
:1075E00084F8EA00084B1D68286D03681B689847FB
:1075F00020B92B6D94F8EA2083F84E2094F8EA0025
:1076000038BD00BFAC710020E824002010B504464E
:1076100000F0A8FFD4F8EC30C31A632B13D90A4B3F
:10762000C4F8EC001B6813B19B68A4F8F430204642
:10763000FFF7CEFFB4F8F41084F8EA00BDE810407C
:10764000024803F0B9BA10BDB8760020AC71002032
:10765000FFF7DCBF0538C0B205289ABF024B53F8CC
:1076600020000120704700BFF0C10308F0B591F879
:107670006E3087B005460C462BB1C86B2CF08CFAE7
:10768000002384F86E3094F858700023BA1EC4F8B2
:10769000E030C4F8E430082A16D8DFE802F0848429
:1076A000055A5A5A5A373700661C671D16F8011BCF
:1076B000FF2907D02B7F19442B6800225B69C9B2D0
:1076C00028469847B742F1D121462846FFF722F8CD
:1076D00094F85830C3B194F86E50ADB9E06B04F132
:1076E00008012CF047FA012384F86E30E9B22046F5
:1076F0000591FEF711FD059918B1E06B00222CF001
:1077000067FA0135042DF1D107B0F0BD0A2F3846D4
:1077100015BF1821192101260026FFF79BFF94F8B9
:107720009C304B432649093359431B0101229BB22C
:10773000B1FBF0F1CDE900630391029214230246FC
:1077400021462846FFF7FEF80028BDD184F85800EE
:10775000BAE73846FFF77EFF053F18BF01274FF411
:107760009873184E0297B6FBF0F601930396B5F89E
:107770006430B3FA83F35B09024600932146142375
:107780002846FFF7DFF818B9012384F858309BE743
:10779000B5F86430002B97D0C4F884600F367600BB
:1077A000C4F8806090E7E3600123636794F86E306B
:1077B000002B89D0E06B00212CF0FEF984E700BF9C
:1077C00040420F00C0EA21012DE9F843314DDFF8B6
:1077D000CC9004460F46164605F5EC78B5F85C30BB
:1077E000227F93403B4220D031462046FEF784FF63
:1077F000C0B395F84030ABBB4A4629462046FFF758
:1078000059F80123012E81BFB4F8BC20B5F85C10F3
:107810000A43A4F8BC2095F858209A4205D029467E
:10782000204685F85830FFF721FFEC35A845D5D123
:10783000B31E012B18D8227F4FF0FF33934037EA55
:10784000030313D0FEF774FC80B1B4F8BE101248E5
:1078500084F8E860012203F02BF9BDE8F8430E48F4
:1078600003F07CB93346CDE7042E01D0BDE8F883A0
:10787000227F4FF0FF33934037EA0303F6D0FEF741
:1078800057FC0028F2D084F8E8600348BDE8F843CC
:1078900003F06EB9B0740020AC710020E0C10308A1
:1078A00070B5C36804467BB3194B02699B699A4261
:1078B00004D140692DF0AEFF00232361154B164D16
:1078C00000261E6195F86E3023B1E86B2CF064F948
:1078D00085F86E6010492046FFF7C8FE0E49204625
:1078E000FEF718FF95F85A3133B1D5F828012CF07E
:1078F00053F9002385F85A3108492046FFF7B6FEB0
:1079000006492046FEF706FF0023E36070BD00BF76
:1079100050CF002088760020B07400209C75002095
:10792000F0B4886E0C6F9DF810609DF8181001255A
:10793000182707FB035302EB830241EA06239DF855
:107940001410C4EBC40400F5C07505EB8205660095
:1079500000EB820243EA014313F4000F0CBF2146FF
:10796000314642F8101B95424FEA4303F4D1F0BC74
:10797000704700BF70B419259DF814609DF8100081
:10798000012405FB03438C6E0D6F9DF80C1040EA3B
:10799000064002EB8302C5EBC50504F5C87640EA54
:1079A000012006EB82066D0004EB820240F080733A
:1079B00013F0807F0CBF2946002142F8101B96422D
:1079C0004FEA4303F4D170BC704700BF2DE9F04388
:1079D000B1F86C200C4685B00746886E002132F065
:1079E000F3FA04F1BC05002655F8041B5FFA86F98A
:1079F00000294CD094F858200A2A04D194F89D30DC
:107A0000F340DB0760D494F89C30002B3FD04FF05C
:107A10000008434620E00A2A12D194F89C20023A3A
:107A200093423ADA9CF8022002929CF801200192DB
:107A30009CF80020009221464A463846FFF79AFFFC
:107A400094F89C2008F101085FFA88F39A421ED945
:107A500055F8041C94F8582003EB4300092A01EB65
:107A6000000CD8D19CF8022002929CF801200192CF
:107A70000A5C009221464A463846FFF751FF08F15A
:107A8000010894F89C205FFA88F39A42E0D8013606
:107A9000042EA9D105B0BDE8F08303EB830303EB0B
:107AA0008301226FA36E013106EB8100C2EBC2029B
:107AB00003F5C87101EB800103EB8003520043F82A
:107AC000102B8B42FBD1BBE794F89C30002BDED00F
:107AD000D4F868E000210EF5C87C0B4603EB830365
:107AE00003EB83035A1C206F06EB82020EEB82032A
:107AF000C0EBC0000CEB820243F8100B9A42FBD1A2
:107B000094F89C200131CBB29A42E7D80136042E7A
:107B10007FF46AAFBEE700BFF7B591F89F30064625
:107B20000C4603F0FF058BB391F85830093B012B4D
:107B300003D8174B1F691FB10025284603B0F0BDBD
:107B4000486E15F0D5F805460028F5D040F2A3524E
:107B500004F1A40101A80FF0A5FD214684F89F704F
:107B6000304684F8A070FFF731FF01A80FF0BCFD8C
:107B7000B368D4F8CC00C4F8D0302DF05DFAB4F876
:107B80006C2021463046FFF747FAD6E70125D4E7B7
:107B9000887600202DE9F041D0F80C8004460D468F
:107BA000B8F1000F44D190F8F8302BB300F0CEFCC0
:107BB000D4F8883000EB5300A8421DD21D4984F848
:107BC000F8802046FFF7A8FF94F8F8301A4980F0B3
:107BD00001000343DBB284F8F8302046FFF79CFF36
:107BE00094F8F83080F001000343DBB284F8F830F9
:107BF00029462046FFF786FBD4E93223134317D0EA
:107C000000F0A4FCD4E9322300218B4208BF824259
:107C10000ED2861A61EB030700234FF47A62BB424F
:107C200008BFB24204D22046BDE8F041FEF7E2BFF1
:107C3000BDE8F081B07400209C7500202DE9F74369
:107C4000304B9B698360304B1D680446E86C0368C9
:107C50005B6B984730B9E86C03684FF47A719B68A6
:107C60009847F3E7294F002504F190064FF4205080
:107C70002DF03AFA00F06AFC94F88D908046B9F144
:107C8000000F17D100F062FC94F88C30012B0546F0
:107C900010D0D4F888100191202383F31188304646
:107CA000FEF7BCF8019923463A4630462DF070FEA7
:107CB00089F3118894F88C2094F88D10D4F88830CA
:107CC000EAB101FB03312944E368A3B920460191DD
:107CD000FFF790FA01992046FFF714FB94F88C0007
:107CE000019940B194F88D300133B3FBF0F200FB01
:107CF000123384F88D302046FFF74CFFB6E703EBD4
:107D00000801E1E750CF0020E8240020295E0008A8
:107D100091F858000938012814D801EB820203EBCE
:107D20004303D2F8BC109DF80000C854D2F8BC1030
:107D30009DF8040019444870D2F8BC2013449DF803
:107D400008209A70704700002DE9F04F89B0054671
:107D5000049390F8E9309DF848A09DF84CB089460E
:107D60001646002B00F09E8000230DF11B02C9B2C5
:107D70008DF81B30FEF798FB0446002800F0928037
:107D800090F89F3003F0FF07002B40F08B8000F14C
:107D9000A40140F6BB0207A80FF084FC94F89C30C5
:107DA000002B4FD094F89C309E424BDA94F8583018
:107DB00094F89E20934249D0093A012A46D804F10A
:107DC000CC0304F1BC08059358F8040B08B100F08B
:107DD0003BFC48F8047C94F89C0000EB400000F069
:107DE00031FC059B48F8040C9845EDD12B6894F8BC
:107DF0009E20D3F88030012101FA09F189B228468A
:107E0000984794F8582094F89E309A4216D1731CE3
:107E100020D1012384F8A030002694F89C20F3B2EE
:107E20009A420FD9049A0092CDE901AB9DF81B202C
:107E300021462846FFF76CFF0136EEE784F89E7076
:107E400084F89C7007A80FF04FFC2BE0093B012B36
:107E5000DDD9F7E794F8A03003F0FF07A3B90123B9
:107E600084F8A030B94694F89C109DF81B20FBB212
:107E7000994209D9CDE90199CDF8009021462846CB
:107E8000FFF746FF0137EEE7049B00932846CDE954
:107E900001AB9DF81B20F3B22146FFF739FF07A87D
:107EA0000FF022FC09B0BDE8F08F0000F8B52F4CB0
:107EB0002F4F0021EC22204632F086F8FF2363701A
:107EC00023712C4BE36340F20163A4F8403002239A
:107ED00084F8423040F20223A4F84430264BE36495
:107EE00001252B4440F2045244F6206604F1A4001C
:107EF00023656280C4E90276E561656212F06CFD7B
:107F0000E822002104F1F00032F05EF81B4BC4F8C7
:107F1000EC301B4BC4F828311A4BC4F82C3140F21A
:107F20000113A4F83031184BC4F834310233C4F8CB
:107F300038310233C4F83C3104F5C8702B44C4E92D
:107F40003D76C4F80051C4F80851C4F81051C4F883
:107F5000185184F83251C4F8403112F03DFDBDE8AB
:107F6000F8400A4A0A4900202FF038BEB0740020B9
:107F700040420F00D4C000200D0C0240010302015A
:107F80009CC00020010D060109100240B4760020BB
:107F9000195E00087047000010B50446007950B122
:107FA00000F0E0FA44F23413E358C01AB0F5FA6F67
:107FB0002CBF0020012010BD2DE9F74F03790446A6
:107FC0001BB300F5804200F58043558908320C331D
:107FD000002188B2A84280F0828053F8040B01315E
:107FE0000028F6D000250121C5F34A134FEA830883
:107FF00002EB830305F01F075B6801FA07F71F42D6
:108000004DD10135B5F5006FEED103B0BDE8F08F6D
:1080100004F58240082352462946383007F0E6FC32
:108020002379032B38D144F2401954F80930013335
:1080300032D000F0C7FB54F8091000232A4600F0A4
:1080400097FB8542E1D100F0BDFB54F809100823ED
:108050005A4600F06FFB0828D7D100F0B3FB54F864
:10806000091000F077FB0028CFD14FF49C72314605
:1080700001A80FF017FB08225946504631F06EFF59
:1080800030B9444444F20C02A35823EA0707A7502E
:1080900001A80FF029FBB8E70028E6D1B5E704F501
:1080A00082460C364FF48872314601A8ED000FF07D
:1080B000F9FA05F1080344F2241204EB030BE35828
:1080C000A35004EB020ADBF80430CAF8043001A81C
:1080D0000FF00AFB2379012B9AD00020A0E700F0D3
:1080E00041FA44F23413E0508FE700002DE9F043E9
:1080F000604B1D682C6D236887B006461B682046C0
:10810000984720B194F84D30002B40F0AF8040F6F6
:10811000B83101A80FF0ACFA00F024FA044600F0E0
:1081200051FB00F043FB58B900F01CFA001BB0F5FE
:108130007A7F05D2E86C036801215B689847EEE717
:1081400000F040FB4C4900F023FB013000F085803B
:108150000023494A4949029302A8FDF7FBFA029B12
:108160000BB900287FDD00F02DFB0299002200F002
:108170009DFA411C05464FF000041CD0CDE9034494
:10818000ADF8144000F01EFB092303AA294600F0B5
:10819000C1FAA0420ADD21460A2203A832F0B0FB50
:1081A0006423013090FBF3F403FB140400F00AFB9A
:1081B000294600F0A1FA00F005FB40F201620299A5
:1081C00000F074FA054602982EF0B2F84FF000085D
:1081D0006A1CCDF8088046D0294A23460A2103A804
:1081E000FDF76EFA03A8FDF745F8074600F0EAFA36
:1081F0003B4603AA294600F09DFA814600F0E2FAC8
:10820000294600F079FA4F452DDC23461A4A1D49CC
:1082100002A8FDF79FFA029B2BB3404523DD00F037
:10822000D1FA029940F2016200F040FA0446029845
:108230002EF07EF8631CCDF8088014D000F0C2FA4E
:1082400021464FF4804306F1080200F073FA00F073
:10825000B9FA214600F050FA05E031F0A7FD0368B5
:10826000112B3FF475AF01A80FF00EFA07B0BDE86F
:10827000F08300BFE8240020C8C20308D6C2030868
:10828000EAC20308EFC2030837B50179044629BBE7
:1082900000F5804004F582454289019192000C303E
:1082A000383531F091FE284607F068FA98B1019907
:1082B0004FF4804304F10802284607F003FB50B155
:1082C0002046FFF713FF06480121217103B0BDE8E6
:1082D0003040FDF75DBA034800F012F903B030BD3D
:1082E00000C303081DC30308B3F5804FF8B5074664
:1082F0000E4614461D460DD8C3F580439A4209D850
:108300000834FFF7C1FF2A4639193046BDE8F84066
:1083100031F032BEF8BD00002DE9F04106462AB327
:10832000CC0801390A4400F58047C2F3CC05083770
:1083300044F20C08AC4219DC3B88A34209D803F094
:1083400045FD2E224FF4003103F02CFD0134A4B280
:10835000F0E7620906EB820204F01F0101238B4063
:1083600052F808100B4342F80830EFE7BDE8F081FF
:10837000B3F5804F2DE9F34105460E4690461C4665
:1083800023D8C3F5804399421FD801F10807074459
:1083900022463946404631F0E1FDB0B12846FFF7AC
:1083A00073FF05F58241F1220C3101A80FF07AF933
:1083B00022464146384631F0DFFD2846A2B231461A
:1083C000FFF7AAFF01A80FF08FF902B0BDE8F08116
:1083D000037903F0FD03012B01D10FF08DB90020CB
:1083E0007047000070B51D46164B1B6843B3DB6F2A
:1083F000DB0725D5144B1E68346D94F84630C3B99D
:10840000124BA4F844009B6984F84610E26163B102
:108410009A6884F84720996939B194F9483023B9AA
:10842000042204F1480000F0F1F8094B5B68C4E94C
:108430000835306D1321BDE8704004302EF05CBA71
:1084400070BD00BFB8760020E824002050CF002087
:1084500000ED00E0FEE70000FEE7000000B59BB085
:10846000EFF309816822684631F086FDEFF305815C
:10847000074BC9B29A6BD86A986A986A986A986AE0
:10848000986A9B6A059B8020FFF7ACFFFEE700BF60
:1084900000ED00E000B59BB0EFF30981682268466B
:1084A00031F06AFDEFF30581064BC9B29A6B986A09
:1084B000986A986A986A986A9B6A059BBF20FFF73A
:1084C00091FFFEE700ED00E000B59BB0EFF30981FE
:1084D0006822684631F050FDEFF30581064BC9B2C2
:1084E0005A6B986A986A986A986A9B6A059BDF201B
:1084F000FFF778FFFEE700BF00ED00E070470000E7
:108500000FB407B504AC54F8046B03F05FFCEE2223
:10851000202103F047FC214630460194FDF728F95D
:10852000094B1D68E86C03689B6842F2107198471C
:10853000214630460194FDF71BF9E86C03684FF4BF
:10854000FA715B68F3E700BFE8240020014B586A2A
:10855000704700BF000C0040014B586A80B2704762
:10856000000C00402DF086BF08B52DF083FF80B2CF
:1085700008BD00002DF068BF2DE980481A4BDFF8D8
:108580006C90DFF86CB01746012293B005460E469A
:108590001A704FF0000841F2873AFFF7E3FFD9F86D
:1085A00000300393A0EB0803534504460DD9CDE9F1
:1085B000005603985B46342205A9006D0FF012F9AE
:1085C000394605A8FDF7D4F8A0460A2105A80FF002
:1085D0004FF8039BD86C036805215B68984705A892
:1085E0000FF052F8D9E700BFBC760020E824002045
:1085F0005CC303080FB407B504AA034852F8041B70
:108600000192FFF7B9FF00BF64C3030870B50C46C1
:10861000064611462046154632F0E0F885420246ED
:108620002146304688BF0132BDE8704031F0A4BC1D
:108630000121884238BF08462DF076BE08B12DF0E2
:1086400077BE7047FFF7F4BFFFF7F8BF2DE9F3419E
:108650000E4C0E680F46012554F83510019108465E
:10866000FCF708FE5FFA80F801994246304632F086
:108670008FF830B946443E6004EBC50002B0BDE857
:10868000F0810135062DE7D10048F7E79CC30308C8
:108690000B680548B3F5C06F3FBF1A0ADBB20B6029
:1086A00000EBC200704700BF9CC3030813B5CDE9BF
:1086B000002101A9FFF7CAFF044640680368DDE90D
:1086C00000211B689847011E09DBFF290ADD60684D
:1086D00003685B68984731F069FB222303604FF021
:1086E000FF3005E00348201AC0F3C70001EB00206B
:1086F00002B010BD9CC3030807B5019101A9FFF7A3
:10870000C7FF4068019903685B68984703B05DF84C
:1087100004FB00001FB5CDE9022103A90193FFF777
:10872000B7FF40680168DDE901328C680399A04712
:1087300004B010BD1FB5CDE9022103A90193FFF7D5
:10874000A7FF40680168DDE90132CC680399A047C2
:1087500004B010BD07B5019101A9FFF799FF40686A
:10876000019903681B69984703B05DF804FB00009A
:108770001FB5CDE9022103A90193FFF789FF4068E6
:108780000168DDE901324C690399A04704B010BDCE
:1087900007B5019101A9FFF759FF406801990368E6
:1087A0001B6A984703B05DF804FB0000014800F025
:1087B000EFBD00BF14220020014800F027B800BF21
:1087C000142200200048704724770020064B074AF7
:1087D0001A60074B074A1A60074B084A1A60084B91
:1087E000084A1A60704700BFC077002020C5030800
:1087F0005C770020CCC403082877002004C6030857
:10880000C07600205CC403087047000007B5074924
:1088100040F2523201A80EF045FF14F03FF801A8D3
:108820000EF062FF03B05DF804FB00BF587C00202F
:108830002DE9F04F254C85B040F6B83102A80EF076
:1088400017FF23780BB914F029F814F09BF80546AC
:1088500078B901232370014603A80EF009FF03A88D
:108860000EF012FF02A80EF00FFF284605B0BDE87B
:10887000F08F0023DFF858B0237010245BF8047BDE
:10888000EFB13E6896F8303001934FF41472002136
:10889000304603F0030AD6E90E8931F095FB019BBF
:1088A00079689B0748BF4AF0100A5246304627F0C5
:1088B000ABFC20B942464B46304628F079F8013CE3
:1088C000A4B2002CDAD12146C6E700BF547C0020B8
:1088D000147C0020F0B5D3B00E46154601F0DEFF43
:1088E000002800F096804C4940F23F2268460EF086
:1088F000D9FE4A4B1B7873B1FFF79AFF58B931F094
:1089000055FA052303604FF0FF3468460EF0ECFE85
:10891000204653B0F0BD31F049FA002303604049CE
:108920003046FCF79DFC20B13E493046FCF798FCF0
:1089300078B9002300220024C5E90623C5E90A23EB
:10894000C5E90E236C81AC812C614FF480436B60D0
:10895000DBE70AA9304628F0F9F90128044612D1CC
:10896000314B1F68F86C03681B6C984718B13B6D5E
:1089700093F89C3043B9FFF75BFF28B10AA9304652
:1089800028F0E4F9044644B131F010FA132CDBBFAF
:10899000264BE4B24D231B57B4E7BDF832200A9BA7
:1089A0002B615100BDF83030099401F03E01019176
:1089B000C2F34511D20A039203F01F020492C3F3DB
:1089C00043125B0A013A5033059206930291CDE9B6
:1089D00007440CF0F5FC01A80CF078FC9DF834205D
:1089E000C5E9060112F0010FC5E90A01C5E90E014A
:1089F00040F2FF1140F26D1308BF0B464FF47A713D
:108A0000D2066981A9814CBF43F4804343F40043FB
:108A10009DE74FF0FF347BE7587C0020547C00201A
:108A200082C30308B19A0408E8240020CCC30308D9
:108A300013B50C4601F032FFF0B1114940F27F222C
:108A400001A80EF02FFE31F0B1F90023036020469B
:108A500028F036FA044648B131F0A8F9132C96BF35
:108A6000084B4D231B5703604FF0FF3401A80EF055
:108A70003BFE204602B010BD4FF0FF34F9E700BFC7
:108A8000587C0020CCC3030813B50C4601F006FF48
:108A9000F0B1114940F28D2201A80EF003FE31F031
:108AA00085F900230360204628F08AFA044648B17D
:108AB00031F07CF9132C96BF084B4D231B570360F4
:108AC0004FF0FF3401A80EF00FFE204602B010BD9B
:108AD0004FF0FF34F9E700BF587C0020CCC30308F7
:108AE0002DE9F3410F4601F0D9FE002849D026496F
:108AF00040F2A52201A80EF0D5FD244B1B7873B1DE
:108B0000FFF796FE044650B931F050F90523036093
:108B100001A80EF0E9FD204602B0BDE8F0814FF457
:108B2000A870FFF785FD39460646044628F072F81E
:108B30000128054615D1164BD3F80080D8F84C0013
:108B400003681B6C984720B1D8F8503093F89C30DC
:108B50004BB9FFF76DFE30B13946304628F05AF870
:108B60000546002DD4D031F021F9132DDBBF094B80
:108B7000EDB24D235B5703603046FFF75FFD0024E5
:108B8000C6E70446C7E700BF587C0020547C00209D
:108B9000E8240020CCC30308F0B5CBB00D4601F0AB
:108BA0007DFE00283ED0204940F2C12201A80EF0EF
:108BB00079FD55B931F0FAF816230360002401A8B5
:108BC0000EF092FD20464BB0F0BD002385F85030EA
:108BD00002A9284628F082F8074610B99DF92230EC
:108BE0003BB931F0E3F8132F96BF104B4D23DB5701
:108BF000E3E70DF12200FCF73DFB05F150040646CA
:108C000002460DF122012046FFF700FD9DF81430C9
:108C10002E4413F0100318BF012386F8507085F816
:108C20004F31CCE70446CDE7587C0020CCC3030885
:108C300037B50D4601F032FE18B3134940F2E22277
:108C400001A80EF02FFD5DB931F0B0F816230360D6
:108C50004FF0FF3401A80EF047FD204603B030BDB1
:108C6000284628F031F804462846FFF7E7FC002C98
:108C7000F0D031F09BF8132C96BF044B4D231B57BB
:108C8000E5E74FF0FF34E8E7587C0020CCC3030849
:108C900030B585B001F002FE50B3184940F2F7221A
:108CA00001A80EF0FFFC164B1B788BB1FFF7C0FD3F
:108CB00070B931F07BF8052303604FF0FF344FF0BB
:108CC000FF3501A80EF010FD2046294605B030BD45
:108CD0000C4802AA03A928F069F810B1C4B2002513
:108CE000EFE7029B5A89039B5343DD0D5C02E8E7E3
:108CF0004FF0FF344FF0FF35E6E700BF587C00200F
:108D0000547C002082C3030830B585B001F0C6FD55
:108D100040B3164940F20D3201A80EF0C3FC144BCB
:108D20001B7853B1FFF784FD38B931F03FF80523C4
:108D300003604FF0FF3425460DE00E4802AA03A958
:108D400028F034F80028F4D1029AD46AA31E54897A
:108D50005C43E50D640201A80EF0C6FC20462946DE
:108D600005B030BD4FF0FF342546F7E7587C0020B2
:108D7000547C002082C3030870B5CAB004460023A7
:108D800002A80D460292039331F016F8038A816817
:108D900046685A1CC36843EA42134269503A43EAA0
:108DA0004222134B03EAC123124901EA46110B4345
:108DB0000168ADF81020C1F34E010B432046ADF819
:108DC000123001F06BFD044678B10B4940F23E329F
:108DD00001A80EF067FC02A9284628F0BDF9B0FAF8
:108DE00080F401A864090EF07FFC20464AB070BDF3
:108DF00000F8FF07E0FF1F00587C00200F2810B587
:108E000006D930F0D3FF092303600024204610BDAB
:108E1000044B53F82040002CF8D130F0C7FF092351
:108E20000360F3E7147C0020022810B505D9FFF792
:108E3000E5FF044638B9204610BD30F0B7FF0923DE
:108E400003600024F7E70468002CF4D130F0AEFF93
:108E500009230360EFE70000F7B504461E460F46FE
:108E6000154630F0A3FF00230360204601F016FDF5
:108E700088B31A494FF4037201A80EF013FC384668
:108E8000FFF7D2FF044630B930F090FF182303609B
:108E90004FF0FF3419E0022FFAD9022E10D10369E6
:108EA0001D442A46EB17204627F082FD054658B19F
:108EB00030F07CFF132D96BF094B4D235B57E6E73F
:108EC000012EEED1836BEBE7A46B01A80EF00CFC36
:108ED000204603B0F0BD4FF0FF34F9E7587C002086
:108EE000CCC303082DE9F3470F4616461D4601F093
:108EF000D5FC00284ED0294940F28B1268460EF06E
:108F0000D1FB274B1B7833B1FFF792FC18B930F037
:108F10004DFF05230EE00DB10023337030F046FF06
:108F2000002404603846FFF77FFF804660B930F0C8
:108F30003DFF092303604FF0FF3468460EF0D4FB79
:108F4000204602B0BDE8F087A146B5F5805FAA468D
:108F500028BF4FF4805A01AB524631464046CDF807
:108F6000049027F0ABFA074638B130F01FFF132FFB
:108F700096BF0C4B4D23DB57DCE7019B002BDCD06D
:108F80005345C4D81C441E44A5EB0305D5D3002D7E
:108F9000DBD1D2E74FF0FF34D2E700BF587C00208E
:108FA000547C0020CCC3030813B50C4601F076FCBA
:108FB00040B316494FF4F77201A80EF073FB30F07E
:108FC000F5FE002303602046FFF718FF38B94FF085
:108FD000FF3401A80EF088FB204602B010BD2046E9
:108FE000FFF722FF0028F2D027F01EFC04460028DD
:108FF000EFD030F0DBFE132C96BF054B4D231B57F3
:109000000360E4E74FF0FF34E6E700BF587C002040
:10901000CCC303082DE9F04F85B005461E460C462B
:10902000174630F0C3FE00230360284601F036FCEB
:10903000002869D036494FF4DF7202A80EF032FBE7
:10904000344B1B7833B1FFF7F3FB18B930F0AEFEA9
:10905000052307E02046FFF7E7FE804660B930F0C1
:10906000A5FE092303604FF0FF3402A80EF03CFB7D
:10907000204605B0BDE8F08F0024DFF8A0B0A2467E
:10908000B6F5805FB14628BF4FF4805903AB4A461E
:1090900039464046CDF80CA027F0DCFA01280546F9
:1090A0001BD1DBF800300193D86C0268126C90473A
:1090B000019B18B11A6D92F89C2072B9D86C0368A4
:1090C00064215B689847FFF7B3FB30B103AB4A46B6
:1090D0003946404627F0BEFA0546039B4B45B5D8B6
:1090E000002BB3D03DB130F061FE132D96BF0A4B7B
:1090F0004D235B57B6E74B451C441F44A6EB0306C4
:10910000B3D3002EBCD1B0E74FF0FF34B0E700BFBF
:10911000587C0020547C0020CCC30308E8240020A5
:10912000022838B5044606D9FFF768FE054638B967
:109130004FF0FF3412E030F039FE09230360F7E707
:10914000006808B12DF0F4F868682DF0F1F8044BD0
:109150000022284643F824202DF0EAF8204638BDA6
:10916000147C002037B50D4601F098FB58B3174921
:109170004FF4B67201A80EF095FA30F017FE0023F6
:1091800003602846FFF73AFE38B94FF0FF3401A8D4
:109190000EF0AAFA204603B030BD2846FFF744FE81
:1091A0000028F2D027F0F6FB04462846FFF7B8FF68
:1091B000002CECD030F0FAFD132C96BF044B4D235D
:1091C0001B570360E1E74FF0FF34E3E7587C0020D2
:1091D000CCC303082DE9F74F8946904601F05EFBAA
:1091E000002800F0C780654940F2211201A80EF066
:1091F00059FA634B1B787BB1FFF71AFB60B930F06B
:10920000D5FD052303604FF0FF3401A80EF06CFA82
:10921000204603B0BDE8F08F30F0C8FD00230360A6
:1092200008F00303022B17D0002B0CBF01260226E7
:1092300018F4007F06D018F4806F14BF46F00806BB
:1092400046F01006DFF844A100240134102C05D1AB
:1092500030F0ACFD172310E00326E9E7022CF4DD23
:109260005AF82430002BF0D1012108202DF05CF8B1
:10927000054630B930F09AFD0C2303604FF0FF34FF
:109280001EE001214FF414702DF04EF8074618B976
:1092900028462DF04DF8EDE74846FBF7EBFF01308F
:1092A0002DF012F8834618B938462DF041F8EFE753
:1092B000494631F043FA4AF82450C5F804B02F600B
:1092C0002046FFF79BFD18B92046FFF729FF9AE7D4
:1092D0002046FFF7A9FD074630B92046FFF720FFDB
:1092E00030F064FD09238DE75FFA86FA524649465D
:1092F00026F08AFF0128054618D1224B1E68F06C23
:1093000003681B6C984718B1336D93F89C3073B9A0
:10931000F06C036864215B689847FFF789FA30B105
:1093200052464946384626F06FFF05464DB130F0AB
:109330003DFD132DDBBF144BEDB24D235B57036096
:10934000C2E718F0080F3FF460AFD7E904233846AE
:1093500027F02EFB054600283FF457AF30F026FDDE
:10936000132D96BF084B4D235B570360384627F0FB
:1093700011FBA9E74FF0FF344AE700BF587C0020FB
:10938000547C0020E8240020CCC30308147C002077
:1093900013B501F083FA044658B1074940F2493247
:1093A00001A80EF07FF913F0EDFA044601A80EF0C3
:1093B0009BF9204602B010BD587C002010B5044631
:1093C000FFF73CF9204610BD10B5054C204611F0C2
:1093D00003FB2046034A0449BDE810402EF0FEBBC3
:1093E000587C0020B47600200988000800207047CF
:1093F0004FF0FF30704700004FF0FF307047000023
:1094000000207047002070474FF0FF307047000089
:10941000002000217047000000200021704700005C
:1094200000207047012070477047000003292DE994
:10943000FF4180460D4617461C4604D8182606FBF9
:109440000106337943B930F0B1FC092303604FF0D2
:10945000FF3004B0BDE8F081B368002BF3D0FFF714
:1094600081F8D6F80CE0B06147F23D63ADF8043006
:10947000BEF1000F20D1092C1ED979683868D6F8C2
:1094800008C001AB03C339891980BDF80C10DCF8A2
:1094900008204FF6FF7399420ED026234B430A3320
:1094A000934209D99A1A7146604617F0EDFD18B932
:1094B00030F07CFC1C23C9E7182303FB0583B0684C
:1094C000DB6882682344934205D99A1A002117F079
:1094D000DBFD0028ECD0182101FB0585B368186876
:1094E000EB6822461844394630F046FDEB682344C9
:1094F000EB602046ADE70000032938B504D81824F6
:1095000004FB0104257935B930F050FC09230360D0
:109510004FF0FF3038BD012B08D0022B09D003B922
:10952000E260182303FB0100C068F3E7E3681A4414
:10953000F6E730F03BFC1623E9E7000038B50D46AE
:1095400028460D491446FBF78BFE10B920800120F8
:1095500006E00A492846FBF783FE10B90120208067
:1095600038BD07492846FBF77BFE10B9022323804C
:10957000EDE70020F4E700BF34C4030840C403084B
:109580004AC4030813B514460DF10602FFF7D6FFCF
:1095900038B930F00BFC022303604FF0FF3002B00B
:1095A00010BD58220021204630F00EFD4FF48013EC
:1095B00023610020F3E70000012A13B50C46194689
:1095C0000ED0022A12D0BAB9019304F095FE98B1D8
:1095D00001990A46A1B202B0BDE8104004F05CBE99
:1095E000A0B202B0BDE810400DF00EBAA0B202B0B9
:1095F000BDE810400DF074BA002002B010BD0000AC
:109600002DE9F04F03298DB081460E4617461D46C1
:1096100006D84FF0180808FB010898F8043043B941
:1096200030F0C4FB092303604FF0FF300DB0BDE8FC
:10963000F08FD8F80840002CF2D1FEF793FFD8F84D
:109640000C10C8F81800092921D847F23D6303948B
:10965000ADF80830C1F10A04B8F81430ADF80A309A
:10966000AC42D8F81030ADF8103028BF2C4602AB11
:1096700019442246384630F07FFCD8F80C302D1BB8
:109680002344C8F80C3001D12046CFE727441823E3
:1096900003FB06930021DA680093A2F10A0802A8EE
:1096A000282230F091FC26224FF0000BB8FBF2FA92
:1096B00002FB1A8AEDB1009A2621928AB8FBF1F1D9
:1096C00002AB4846FFF778FF98B1CAF12602AA42DA
:1096D00002AB28BF2A4603EB0A013846019230F05C
:1096E0004BFC019A4FF0000A1744AD1A9344904482
:1096F000E0E7182101FB069604EB0B00F3685B44DE
:10970000F36093E7012908B509D0022910D011B9F7
:1097100004F0F2FD08B9002000E0808D08BD14F0CF
:1097200089FB0028F7D014F083FBB0F85800F5E768
:109730000BF066FE0028EED00079EFE72DE9F74F39
:1097400016460DF106020746FFF7F8FE30B930F075
:109750002DFB022303604FF0FF384FE0FEF702FFBE
:10976000002506F0030681463C4647F23052AB46E0
:10977000A369A9EB03039342A84610D9D4F808A023
:1097800084F804B0BAF1000F07D0504617F09EFCE1
:109790005046FEF753FF47F23052C4F808B016B1F6
:1097A000A368002BD7D194F804A0BAF1000F08D019
:1097B0000135042D04F11804DAD130F0F7FA17233B
:1097C000C8E7182404FB0574BDF80610C4F80CA003
:1097D00001232371A1823846FFF794FF20613EB137
:1097E0001020FEF725FF10225146064630F0ECFB14
:1097F000182000FB0575A660C5F81890404603B018
:10980000BDE8F08F0A44914205D011F8013B002BCE
:10981000F9D0002070470120704700002DE9F04189
:109820004B689D68092D94B0804604D800242046DA
:1098300014B0BDE8F0811C6820686168228901AB22
:1098400003C31A80BDF8042047F23D639A42EDD16C
:1098500026230A3DB5FBF3F5BDF80C30AB42E5D14C
:109860000A3427460026AE4209D039462622404611
:10987000FFF7C8FF26370028D8D10136F3E704F0F8
:109880003BFD06460028D1D02A4940F275126846B1
:109890000DF008FFBDF80830DB0702D4304603F0B6
:1098A000BBFD0027AF4242D028220DEB0200002171
:1098B00030F08AFB06A817F021FC23460AAA04F11F
:1098C000200E186859689446ACE8030008337345C5
:1098D0006246F6D11868CCF800009B88ACF80430DA
:1098E00004A90AA803F0A4FFE0B9BDF81230B12B17
:1098F00004D1BDF81830AB4214D29BB1BDF80A10A8
:10990000B38D394489B28B4207D104A9304603F0A4
:1099100019FF38B101372634C4E704AA304603F0F2
:1099200009FFF6E7002468460DF0DEFE7FE701241C
:10993000F9E700BF8C7C0020032970B504D81823F8
:1099400059434418237933B930F030FA09230360BE
:109950004FF0FF3004E000232371A3680BB900200F
:1099600070BD04310144FFF759FFA66805462EB1CA
:10997000304617F0ABFB3046FEF760FE0023A360D5
:10998000002DECD130F012FA1623E0E70329F7B5E9
:1099900006460D4617461C4604D8182303FB010350
:1099A0001A793AB930F002FA092303604FF0FF3018
:1099B00003B0F0BDD3F818C0BCF1000FF2D0D968E5
:1099C00046F21B72ADF80020C1B1182202FB0562FD
:1099D0009069D36882682344934227D8182101FBF9
:1099E00005652246AB691868EB683946184430F0C3
:1099F000C3FAEB682344EB602046D9E7052CE4D991
:109A00003868009080B2B7F804E0DCF80830ADF8B0
:109A100004E09042D9D1BDF804209A42D5D9D21A97
:109A2000604617F031FB0028CFD1BFE79A1A00211A
:109A300017F02AFB0028D1D1B8E70000032938B578
:109A400004D8182404FB0104257935B930F0AEF9A7
:109A5000092303604FF0FF3038BD012B08D0022BE3
:109A600009D003B9E260182303FB0100C068F3E7E3
:109A7000E3681A44F6E730F099F91623E9E70000A5
:109A80002DE9F04F2DED028B8BB056681F46002359
:109A90008A4614468DF82430D6B996860DF1130106
:109AA000104605F073F9BAF80420B3B29A4205469D
:109AB00017D9013630B9002630460BB0BDEC028B09
:109AC000BDE8F08F0DF11301204605F0D1FAEAE769
:109AD000938E013393860DF11301104605F0C8FAF9
